:020000040800F2
:10000000008000209D7A0008372600083926000865
:100010003B2600083D2600083F260008000000009F
:100020000000000000000000000000004126000861
:100030004326000800000000452600084726000867
:10004000ED7A0008ED7A000849260008ED7A0008EC
:10005000ED7A0008ED7A00085926000863260008AA
:10006000ED7A0008ED7A0008ED7A0008ED7A0008D4
:10007000ED7A0008ED7A0008ED7A00086D26000898
:10008000ED7A0008ED7A0008ED7A0008ED7A0008B4
:10009000ED7A0008ED7A00087D260008ED7A000868
:1000A000ED7A0008ED7A0008ED7A0008ED7A000894
:1000B000ED7A0008ED7A0008ED7A0008ED7A000884
:1000C000ED7A0008ED7A0008ED7A0008ED7A000874
:1000D0008926000899260008ED7A0008ED7A0008C4
:1000E000ED7A0008ED7A0008A9260008ED7A0008EC
:1000F000ED7A0008ED7A0008ED7A0008ED7A000844
:10010000ED7A0008ED7A0008B9260008ED7A0008BB
:10011000ED7A0008ED7A0008ED7A0008ED7A000823
:10012000ED7A0008ED7A0008ED7A0008ED7A000813
:08013000ED7A0008ED7A0008E9
:1001400010B5054C237833B9044B13B10448AFF311
:1001500000800123237010BD300300200000000048
:1001600090C1010808B5034B1BB103490348AFF325
:10017000008008BD000000003403002090C1010889
:1001800001F0FF01102A2BDB10F0070F08D010F848
:10019000013B013A8B422DD010F0070F42B3F6D14C
:1001A000F0B441EA012141EA014122F007047FF065
:1001B00000070023F0E80256083C85EA010586EABC
:1001C000010685FA47F5A3FA87F586FA47F6A5FAF8
:1001D00087F68EB9EED1F0BC01F0FF0102F0070204
:1001E00032B110F8013B013A83EA010313B1F8D1AF
:1001F0000020704701387047002D06BF3546033890
:10020000073815F0010F07D1013015F4807F02BFC8
:10021000013015F4C03F0130F0BC0138704700BF19
:10022000034613F8012B002AFBD1181A0138704736
:1002300081F0004102E000BF83F0004330B54FEA97
:1002400041044FEA430594EA050F08BF90EA020F04
:100250001FBF54EA000C55EA020C7FEA645C7FEA97
:10026000655C00F0E2804FEA5454D4EB5555B8BFBA
:100270006D420CDD2C4480EA020281EA030382EA2B
:10028000000083EA010180EA020281EA0303362DBD
:1002900088BF30BD11F0004F4FEA01314FF4801C90
:1002A0004CEA113102D0404261EB410113F0004FA2
:1002B0004FEA03334CEA133302D0524263EB430359
:1002C00094EA050F00F0A780A4F10104D5F1200EF7
:1002D0000DDB02FA0EFC22FA05F2801841F1000152
:1002E00003FA0EF2801843FA05F359410EE0A5F126
:1002F00020050EF1200E012A03FA0EFC28BF4CF057
:10030000020C43FA05F3C01851EBE37101F000450C
:1003100007D54FF0000EDCF1000C7EEB00006EEB19
:100320000101B1F5801F1BD3B1F5001F0CD34908A3
:100330005FEA30004FEA3C0C04F101044FEA4452FA
:1003400012F5800F80F09A80BCF1004F08BF5FEA81
:10035000500C50F1000041EB045141EA050130BD61
:100360005FEA4C0C404141EB0101013C28BFB1F573
:10037000801FE9D291F0000F04BF01460020B1FABE
:1003800081F308BF2033A3F10B03B3F120020CDA91
:100390000C3208DD02F1140CC2F10C0201FA0CF06F
:1003A00021FA02F10CE002F11402D8BFC2F1200CD4
:1003B00001FA02F120FA0CFCDCBF41EA0C0190408A
:1003C000E41AA2BF01EB0451294330BD6FEA0404D3
:1003D0001F3C1CDA0C340EDC04F11404C4F12002BE
:1003E00020FA04F001FA02F340EA030021FA04F3D0
:1003F00045EA030130BDC4F10C04C4F1200220FA27
:1004000002F001FA04F340EA0300294630BD21FA64
:1004100004F0294630BD94F0000F83F4801306BF2A
:1004200081F480110134013D4EE77FEA645C18BF1E
:100430007FEA655C29D094EA050F08BF90EA020FB5
:1004400005D054EA000C04BF1946104630BD91EAAD
:10045000030F1EBF0021002030BD5FEA545C05D1B0
:100460004000494128BF41F0004130BD14F58004EF
:100470003CBF01F5801130BD01F0004545F0FE4163
:1004800041F470014FF0000030BD7FEA645C1ABF98
:10049000194610467FEA655C1CBF0B46024650EACF
:1004A000013406BF52EA033591EA030F41F40021FB
:1004B00030BD00BF90F0000F04BF0021704730B581
:1004C0004FF4806404F132044FF000054FF0000156
:1004D00050E700BF90F0000F04BF0021704730B517
:1004E0004FF4806404F1320410F0004548BF4042EC
:1004F0004FF000013EE700BF42004FEAE2014FEA41
:1005000031014FEA02701FBF12F07F4393F07F4F1B
:1005100081F06051704732F07F4208BF704793F01E
:100520007F4F04BF41F40021704730B54FF4607431
:1005300001F0004521F000411CE700BF50EA010234
:1005400008BF704730B54FF000050AE050EA0102DD
:1005500008BF704730B511F0004502D5404261EB4D
:1005600041014FF4806404F132045FEA915C3FF48E
:10057000D8AE4FF003025FEADC0C18BF03325FEA2B
:10058000DC0C18BF033202EBDC02C2F1200300FADC
:1005900003FC20FA02F001FA03FE40EA0E0021FA01
:1005A00002F11444BDE600BF70B54FF0FF0C4CF4EF
:1005B000E06C1CEA11541DBF1CEA135594EA0C0FA1
:1005C00095EA0C0F00F0DEF82C4481EA030621EADC
:1005D0004C5123EA4C5350EA013518BF52EA033517
:1005E00041F4801143F4801338D0A0FB02CE4FF0C9
:1005F0000005E1FB02E506F00042E0FB03E54FF0F9
:100600000006E1FB03569CF0000F18BF4EF0010EF0
:10061000A4F1FF04B6F5007F64F5407404D25FEAEC
:100620004E0E6D4146EB060642EAC62141EA55519F
:100630004FEAC52040EA5E504FEACE2EB4F1FD0CE1
:1006400088BFBCF5E06F1ED8BEF1004F08BF5FEA5F
:10065000500E50F1000041EB045170BD06F0004611
:1006600046EA010140EA020081EA0301B4EB5C04BE
:10067000C2BFD4EB0C0541EA045170BD41F48011B6
:100680004FF0000E013C00F3AB8014F1360FDEBFDB
:10069000002001F0004170BDC4F10004203C35DAB7
:1006A0000C341BDC04F11404C4F1200500FA05F33A
:1006B00020FA04F001FA05F240EA020001F00042DB
:1006C00021F0004110EBD37021FA04F642EB060151
:1006D0005EEA430E08BF20EAD37070BDC4F10C047B
:1006E000C4F1200500FA04F320FA05F001FA04F23F
:1006F00040EA020001F0004110EBD37041F100012B
:100700005EEA430E08BF20EAD37070BDC4F1200535
:1007100000FA05F24EEA020E20FA04F301FA05F29D
:1007200043EA020321FA04F001F0004121FA04F245
:1007300020EA020000EBD3705EEA430E08BF20EA15
:10074000D37070BD94F0000F0FD101F0004640004F
:1007500041EB010111F4801F08BF013CF7D041EAD1
:10076000060195F0000F18BF704703F000465200D5
:1007700043EB030313F4801F08BF013DF7D043EAA6
:100780000603704794EA0C0F0CEA135518BF95EA5C
:100790000C0F0CD050EA410618BF52EA4306D1D1E3
:1007A00081EA030101F000414FF0000070BD50EA02
:1007B000410606BF1046194652EA430619D094EA8C
:1007C0000C0F02D150EA013613D195EA0C0F05D176
:1007D00052EA03361CBF104619460AD181EA0301CA
:1007E00001F0004141F0FE4141F470014FF0000082
:1007F00070BD41F0FE4141F4780170BD70B54FF01D
:10080000FF0C4CF4E06C1CEA11541DBF1CEA13559C
:1008100094EA0C0F95EA0C0F00F0A7F8A4EB05047E
:1008200081EA030E52EA03354FEA013100F0888075
:100830004FEA03334FF0805545EA131343EA12633E
:100840004FEA022245EA111545EA10654FEA0026F3
:100850000EF000419D4208BF964244F1FD0404F5AC
:10086000407402D25B084FEA3202B61A65EB030508
:100870005B084FEA32024FF480104FF4002CB6EBC5
:10088000020E75EB030E22BFB61A754640EA0C0045
:100890005B084FEA3202B6EB020E75EB030E22BF85
:1008A000B61A754640EA5C005B084FEA3202B6EBC6
:1008B000020E75EB030E22BFB61A754640EA9C0085
:1008C0005B084FEA3202B6EB020E75EB030E22BF55
:1008D000B61A754640EADC0055EA060E18D04FEA13
:1008E000051545EA16754FEA06164FEAC30343EAB3
:1008F00052734FEAC2025FEA1C1CC0D111F4801F80
:100900000BD141EA00014FF000004FF0004CB6E778
:1009100011F4801F04BF01430020B4F1FD0C88BF17
:10092000BCF5E06F3FF6AFAEB5EB030C04BFB6EB22
:10093000020C5FEA500C50F1000041EB045170BD15
:100940000EF0004E4EEA113114EB5C04C2BFD4EB42
:100950000C0541EA045170BD41F480114FF0000EC6
:10096000013C90E645EA060E8DE60CEA135594EA42
:100970000C0F08BF95EA0C0F3FF43BAF94EA0C0F45
:100980000AD150EA01347FF434AF95EA0C0F7FF4BA
:1009900025AF104619462CE795EA0C0F06D152EA0E
:1009A00003353FF4FDAE1046194622E750EA4106F2
:1009B00018BF52EA43067FF4C5AE50EA41047FF403
:1009C0000DAF52EA43057FF4EBAE12E74FF0FF3C68
:1009D00006E000BF4FF0010C02E000BF4FF0010C39
:1009E0004DF804CD4FEA410C7FEA6C5C4FEA430CB2
:1009F00018BF7FEA6C5C1BD001B050EA410C0CBF01
:100A000052EA430C91EA030F02BF90EA020F002062
:100A1000704710F1000F91EA030F58BF994208BFC9
:100A200090422CBFD8176FEAE37040F00100704786
:100A30004FEA410C7FEA6C5C02D150EA013C07D1DD
:100A40004FEA430C7FEA6C5CD6D152EA033CD3D028
:100A50005DF8040B704700BF8446104662468C4622
:100A60001946634600E000BF01B5FFF7B7FF002855
:100A700048BF10F1000F01BD4DF808EDFFF7F4FF7E
:100A80000CBF012000205DF808FB00BF4DF808ED09
:100A9000FFF7EAFF34BF012000205DF808FB00BF2C
:100AA0004DF808EDFFF7E0FF94BF012000205DF84E
:100AB00008FB00BF4DF808EDFFF7CEFF94BF012003
:100AC00000205DF808FB00BF4DF808EDFFF7C4FFFC
:100AD00034BF012000205DF808FB00BF4FEA410C45
:100AE0007FEA6C5C02D150EA013C0AD14FEA430C28
:100AF0007FEA6C5C02D152EA033C02D14FF0000065
:100B000070474FF0010070474FEA410212F50012A2
:100B100015D211D56FF47873B3EB625212D94FEA44
:100B2000C12343F0004343EA505311F0004F23FA2E
:100B300002F018BF404270474FF00000704750EA83
:100B4000013005D111F0004008BF6FF00040704740
:100B50004FF00000704700BF4A0011D212F500129A
:100B600011D20DD56FF47873B3EB62520ED44FEA05
:100B7000C12343F0004343EA505323FA02F0704785
:100B80004FF00000704750EA013002D14FF0FF30C3
:100B900070474FF0000070474FEA4102B2F1E04366
:100BA00024BFB3F5001CDCF1FE5C0DD901F0004C54
:100BB0004FEAC0024CEA5070B2F1004F40EB8300A4
:100BC00008BF20F00100704711F0804F21D113F1D0
:100BD0003872BCBF01F00040704741F480114FEA09
:100BE0005252C2F11802C2F1200C10FA0CF320FA92
:100BF00002F018BF40F001004FEAC1234FEAD323AF
:100C000003FA0CFC40EA0C0023FA02F34FEA430318
:100C1000CCE77FEA625307D150EA01331EBF4FF0A1
:100C2000FE4040F44000704701F0004040F0FE40BC
:100C300040F40000704700BF80F0004002E000BFB9
:100C400081F0004142001FBF5FEA410392EA030FB7
:100C50007FEA226C7FEA236C6AD04FEA1262D2EB01
:100C60001363C1BFD218414048404140B8BF5B4206
:100C7000192B88BF704710F0004F40F4000020F09F
:100C80007F4018BF404211F0004F41F4000121F0B5
:100C90007F4118BF494292EA030F3FD0A2F10102FF
:100CA00041FA03FC10EB0C00C3F1200301FA03F13D
:100CB00000F0004302D5494260EB4000B0F5000F60
:100CC00013D3B0F1807F06D340084FEA310102F11F
:100CD0000102FE2A51D2B1F1004F40EBC25008BFD1
:100CE00020F0010040EA03007047490040EB00009B
:100CF000013A28BFB0F5000FEDD2B0FA80FCACF19C
:100D0000080CB2EB0C0200FA0CF0AABF00EBC250C8
:100D100052421843BCBFD0401843704792F0000FB6
:100D200081F4000106BF80F400000132013BB5E709
:100D30004FEA41037FEA226C18BF7FEA236C21D07F
:100D400092EA030F04D092F0000F08BF08467047E4
:100D500090EA010F1CBF0020704712F07F4F04D1B2
:100D6000400028BF40F00040704712F100723CBFC5
:100D700000F50000704700F0004343F0FE4040F4EF
:100D8000000070477FEA226216BF08467FEA2363AD
:100D90000146420206BF5FEA412390EA010F40F498
:100DA000800070474FF0000304E000BF10F00043E4
:100DB00048BF40425FEA000C08BF704743F09643CB
:100DC00001464FF000001CE050EA010208BF7047E6
:100DD0004FF000030AE000BF50EA010208BF70476D
:100DE00011F0004302D5404261EB41015FEA010C82
:100DF00002BF84460146002043F0B64308BFA3F17A
:100E00008053A3F50003BCFA8CF2083AA3EBC2535B
:100E100010DB01FA02FC634400FA02FCC2F120027A
:100E2000BCF1004F20FA02F243EB020008BF20F0B1
:100E30000100704702F1200201FA02FCC2F1200217
:100E400050EA4C0021FA02F243EB020008BF20EA0C
:100E5000DC7070474FF0FF0C1CEAD0521EBF1CEA3A
:100E6000D15392EA0C0F93EA0C0F6FD01A4480EA28
:100E7000010C400218BF5FEA41211ED04FF0006311
:100E800043EA501043EA5111A0FB01310CF000403D
:100E9000B1F5000F3EBF490041EAD3715B0040EA63
:100EA000010062F17F02FD2A1DD8B3F1004F40EB33
:100EB000C25008BF20F00100704790F0000F0CF006
:100EC000004C08BF49024CEA502040EA51207F3ACA
:100ED000C2BFD2F1FF0340EAC250704740F40000A5
:100EE0004FF00003013A5DDC12F1190FDCBF00F096
:100EF00000407047C2F10002410021FA02F1C2F144
:100F0000200200FA02FC5FEA310040F1000053EADF
:100F10004C0308BF20EADC70704792F0000F00F02D
:100F2000004C02BF400010F4000F013AF9D040EA33
:100F30000C0093F0000F01F0004C02BF490011F4C7
:100F4000000F013BF9D041EA0C018FE70CEAD153C5
:100F500092EA0C0F18BF93EA0C0F0AD030F0004C45
:100F600018BF31F0004CD8D180EA010000F00040F9
:100F7000704790F0000F17BF90F0004F084691F0B7
:100F8000000F91F0004F14D092EA0C0F01D14202F1
:100F90000FD193EA0C0F03D14B0218BF084608D1BA
:100FA00080EA010000F0004040F0FE4040F4000004
:100FB000704740F0FE4040F4400070474FF0FF0C97
:100FC0001CEAD0521EBF1CEAD15392EA0C0F93EADE
:100FD0000C0F69D0A2EB030280EA010C49024FEA30
:100FE000402037D04FF0805343EA111143EA1013E9
:100FF0000CF000408B4238BF5B0042F17D024FF4A1
:10100000000C8B4224BF5B1A40EA0C00B3EB510F7B
:1010100024BFA3EB510340EA5C00B3EB910F24BF64
:10102000A3EB910340EA9C00B3EBD10F24BFA3EBE9
:10103000D10340EADC001B0118BF5FEA1C1CE0D1B1
:10104000FD2A3FF650AF8B4240EBC25008BF20F064
:10105000010070470CF0004C4CEA50207F32C2BFB8
:10106000D2F1FF0340EAC250704740F400004FF055
:101070000003013A37E792F0000F00F0004C02BF86
:10108000400010F4000F013AF9D040EA0C0093F050
:10109000000F01F0004C02BF490011F4000F013BAA
:1010A000F9D041EA0C0195E70CEAD15392EA0C0F12
:1010B00008D142027FF47DAF93EA0C0F7FF470AF4A
:1010C000084676E793EA0C0F04D14B023FF44CAF8D
:1010D00008466EE730F0004C18BF31F0004CCAD122
:1010E00030F000427FF45CAF31F000437FF43CAF5E
:1010F0005FE700BF4FF0FF3C06E000BF4FF0010C80
:1011000002E000BF4FF0010C4DF804CD4FEA400261
:101110004FEA41037FEA226C18BF7FEA236C11D0AB
:1011200001B052EA530C18BF90EA010F58BFB2EB5E
:10113000030088BFC81738BF6FEAE17018BF40F0DE
:10114000010070477FEA226C02D15FEA402C05D192
:101150007FEA236CE4D15FEA412CE1D05DF8040B17
:10116000704700BF844608466146FFE70FB5FFF7AA
:10117000C9FF002848BF10F1000F0FBD4DF808ED62
:10118000FFF7F4FF0CBF012000205DF808FB00BF53
:101190004DF808EDFFF7EAFF34BF012000205DF8AD
:1011A00008FB00BF4DF808EDFFF7E0FF94BF0120FA
:1011B00000205DF808FB00BF4DF808EDFFF7D2FFF7
:1011C00094BF012000205DF808FB00BF4DF808ED3A
:1011D000FFF7C8FF34BF012000205DF808FB00BF07
:1011E0004FEA4002B2F1FE4F0FD34FF09E03B3EB34
:1011F00012620DD94FEA002343F0004310F0004F74
:1012000023FA02F018BF404270474FF000007047C9
:1012100012F1610F01D1420205D110F0004008BF68
:101220006FF0004070474FF00000704742000ED250
:10123000B2F1FE4F0BD34FF09E03B3EB126209D411
:101240004FEA002343F0004323FA02F070474FF0C7
:101250000000704712F1610F01D1420202D14FF03C
:10126000FF3070474FF00000704700BF53B94AB9D4
:10127000002908BF00281CBF4FF0FF314FF0FF309E
:1012800000F0A8B9ADF1080C6DE904CE00F03EF80D
:10129000DDF804E0DDE9022304B0704738B5054607
:1012A0000C462846214600220023FFF7EFFB28B911
:1012B00028462146BDE8384000F00AB8284604F127
:1012C000004100F005F8404261EB410138BD00BF2C
:1012D000D0B50C4B002206460F46FFF765F9FFF725
:1012E0003BFC0446FFF7E6F8074B0022FFF75CF9EA
:1012F00002460B4630463946FEF79EFFFFF72CFCB0
:101300002146D0BD0000F03D0000F0412DE9F0473E
:10131000089E0D4604460F46002B4AD18A42944649
:1013200065D9B2FA82F343B102FA03FCC3F1200299
:101330009F4020FA02F217439C404FEA1C4E1FFACE
:101340008CF5B7FBFEF1220C0EFB117742EA074247
:1013500001FB05F090420AD91CEB020201F1FF37B4
:1013600080F01B81904240F2188102396244121AC7
:10137000A4B2B2FBFEF00EFB102244EA024400FBD2
:1013800005F5A5420AD91CEB040400F1FF3280F0F8
:101390000681A54240F203816444023840EA0140DC
:1013A000641B00211EB1DC400023C6E90043BDE8F8
:1013B000F0878B4208D9002E00F0EC800021C6E9AE
:1013C00000050846BDE8F087B3FA83F1002949D14A
:1013D000AB4202D3824200F2F780841A65EB03022B
:1013E00001201746002EE2D0C6E90047DFE702B928
:1013F000FFDEB2FA82F3002B40F08F808A1A4FEAA8
:101400001C471FFA8CFE0121B2FBF7F507FB1520E4
:10141000220C42EA00420EFB05F0904208D91CEB78
:10142000020205F1FF3802D2904200F2CA8045461E
:10143000121AA4B2B2FBF7F007FB102244EA0244EE
:101440000EFB00FEA64508D91CEB040400F1FF3298
:1014500002D2A64500F2BA801046A4EB0E0440EA80
:1014600005409FE7C1F120078B4022FA07FC4CEAB8
:10147000030C05FA01F420FA07F3FD40234300FAB8
:1014800001F94FEA1C401FFA8CFEB5FBF0F81C0C6A
:1014900000FB185544EA054408FB0EF5A54202FA84
:1014A00001F20BD91CEB040408F1FF3A80F08780AD
:1014B000A54240F28480A8F102086444641B9DB2F6
:1014C000B4FBF0F300FB134445EA044403FB0EFEB7
:1014D000A64508D91CEB040403F1FF306BD2A645E6
:1014E00069D9023B644443EA0840A0FB0283A4EBB1
:1014F0000E049C42C6461D4655D352D056B1B9EB98
:101500000E0364EB050404FA07F7CB40CC401F43FD
:10151000C6E900740021BDE8F087C3F1200102FA9A
:1015200003FC20FA01F225FA01F19D402A434FEA1B
:101530001C471FFA8CFEB1FBF7F007FB1015110CCE
:1015400041EA054100FB0EF58D4204FA03F408D987
:101550001CEB010100F1FF382FD28D422DD902384A
:101560006144491B92B2B1FBF7F507FB151142EA42
:10157000014205FB0EF1914208D91CEB020205F174
:10158000FF3816D2914214D9023D6244521A45EAFC
:10159000004139E73146304609E73946E7E610466B
:1015A000FCE6C145AAD2B8EB020E63EB0C0501388C
:1015B000A4E74546EAE7034695E74046D1E7D0462B
:1015C0007CE7023D624433E708460BE76444023897
:1015D00043E700BF704700BF70B5ADF5747D0646A8
:1015E00000248DF800408DF801408DF803408DF8FF
:1015F00004408DF802401FE0E500C4EBC400C000C9
:101600000830684420220021013016F077FE2B1BA1
:101610000DEBC30308221A72002283F82920002050
:101620000021C3E90C010134C4EBC403DB000DF855
:1016300003200A2001F054F90F2CDDDD013E4FF4A8
:101640000061164B53F8260000F070FDE0B9144B12
:1016500000221146022014F095FF4FF4747269467F
:101660000E4B53F8260000F029FD30B90D4B002237
:101670001146022014F086FF0CE00B4B00221146AD
:10168000022014F07FFF05E0084B002211460220E3
:1016900014F078FF0DF5747D70BD00BF00000020D0
:1016A0001CC3010828C3010834C3010840C3010852
:1016B00084B030B585B008AC84E80F009DF8C853FD
:1016C000644B00221146022014F05CFF00240CE061
:1016D00004F120036B4493F8883300935E4B00229F
:1016E0001146022014F04EFF0134A542F0DC5B4BA2
:1016F00000221146022014F045FF9DF8223000938D
:10170000574B00221146022014F03CFF9DF8233075
:101710000093544B00221146022014F033FF9DF831
:1017200024300093504B00221146022014F02AFF6F
:101730009DF82030012B00F086804C4B00934C4BE1
:1017400000221146022014F01DFF9DF8C9330093BA
:10175000484B00221146022014F014FF9DF8CA33B2
:101760000093454B00221146022014F00BFFBDF8F8
:10177000D6330093414B00221146022014F002FFA1
:101780009DF8D8339DF8D9239DF8DA139DF8DB0333
:101790000390029101920093394B002211460220DE
:1017A00014F0F0FE9DF8DC339DF8DD239DF8DE1388
:1017B0009DF8DF030390029101920093314B0022C8
:1017C0001146022014F0DEFE9DF8E0339DF8E1237F
:1017D0009DF8E2139DF8E3030390029101920093B8
:1017E000294B00221146022014F0CCFE9DF8E43370
:1017F0009DF8E5239DF8E6139DF8E7030390029119
:1018000001920093214B00221146022014F0BAFEEF
:101810009DF8E833CBB11E4B00931E4B00221146BE
:10182000022014F0AFFE9DF8D43383B1184B00931F
:10183000194B00221146022014F0A4FE05B0BDE8A9
:10184000304004B07047124B78E7084BE4E7074B91
:10185000EDE700BF5CC3010880C201086CDA010833
:1018600070C3010880C3010890C3010854C3010874
:10187000A0C30108B8C30108C8C30108E0C3010838
:10188000FCC3010820C4010848C4010874C401084D
:101890004CC30108A0C40108B4C4010830B5ADF5BB
:1018A000777D04464FF47472434B53F8201002A81E
:1018B00000F020FC002877D106238DF8B0333F4B91
:1018C00093E803000090ADF80410002307E01DF832
:1018D000031002AA1A4482F888130133DBB2052BE5
:1018E000F5D900238DF8B1338DF8B233ADF8BE339E
:1018F000194663F3070163F30F2163F3174163F3A1
:101900001F611A4663F3070263F30F2263F3174262
:1019100063F31F621D4663F3070563F30F2563F34B
:10192000174563F31F65184663F3070063F30F2041
:1019300063F3174063F31F60F095F190F291F39217
:101940008DF8D0338DF8D1338DF8BC334FF400616E
:10195000194B53F8240000F0E9FBE0B9184B0022C2
:101960001146022014F00EFE4FF4747202A9124BBD
:1019700053F8240000F0A2FB30B9124B00221146AC
:10198000022014F0FFFD0CE00F4B00221146022054
:1019900014F0F8FD05E00D4B00221146022014F072
:1019A000F1FD0DF5777D30BD094B00221146022077
:1019B00014F0E8FDF5E700BF00000020A8C1010811
:1019C0001CC3010828C3010834C3010840C301082F
:1019D000CCC4010810B5ADF5F26D04464FF4747235
:1019E000114B53F82010F0A800F084FBA0B900942C
:1019F0000E4B00221146022014F0C4FDF0AC4FF44F
:101A00007072F4A9684616F01AFD94E80F00FFF70B
:101A10004FFE0DF5F26D10BD054B00221146022060
:101A200014F0B0FDF5E700BF00000020E4C4010899
:101A3000CCC4010800B583B001904FF0FF33012200
:101A400001A903480AF0C1FC019803B05DF804FB4A
:101A5000600C00200F2800D970472DE9F84F0D4683
:101A600017461E46DFF8749000EB00144FEA840B13
:101A700009EB840444220021204616F03FFC28682C
:101A80006968AA68EB6849F80B006160A260E360CE
:101A900028696969AA69EB6920616161A261E361F2
:101AA00084F8207084F821609DF8283084F8223072
:101AB000BDF82C30E3850C9B23630D9B63630E9B69
:101AC000A3630F9BE3639DF8403084F840309DF89A
:101AD000443084F84130BDE8F88F00BF4C0300204B
:101AE00038B50D46144694220146034816F0A7FC6B
:101AF000024B1D601C7138BD940700208C0700202C
:101B000008B50A464FF0FF33014602480AF05DFC73
:101B100008BD00BF940700202DE9F84306460F4694
:101B2000144602F1020996220021484616F0E6FB0F
:101B300000252580124C01222179206807F03AFB0C
:101B4000DFF8408001220421404607F033FB0122E8
:101B500049460D480AF0A8FD39463046FFF7D0FF48
:101B60002A462179206807F025FB2A4604214046B1
:101B700007F020FB012000F0B3FEBDE8F88300BFB2
:101B80008C070020000800489407002008B503884F
:101B9000952B0ED8084A1268516AC2189170013309
:101BA000038030F8021B0122014403480AF07CFD47
:101BB00008BD00230380F4E79407002008B513480C
:101BC000134B03604FF00043436000238360C36006
:101BD0000361042242610376437683760122C26167
:101BE00080F820304362836280F82C304FF48052BA
:101BF000026307224263826380F83C30C36406F0CC
:101C000061F800B908BD00F0C1FBFBE7280800201F
:101C1000002401400268094B9A4200D0704782B00C
:101C20004FF0B0431A6E42F400721A661B6E03F452
:101C300000730193019B02B0704700BF0024014074
:101C40000268054B9A4200D070474FF0B042136EC5
:101C500023F400731366F7E70024014030B585B024
:101C600004460023019302930393FFF7A7FF16484E
:101C700006F060FCF8B9019400230293039301A9D4
:101C8000114806F099F9C8B90F4806F057FBC0B9DA
:101C90000D4C4FF0FF31204606F02CF9204606F09F
:101CA00029FC204606F085F90546204606F0C2FBD1
:101CB000284605B030BD00F069FBDCE700F066FBAC
:101CC000E2E700F063FBE3E728080020014B024A4B
:101CD0001A607047280800200024014008B50D480C
:101CE000FFF7BCFFA0B103460B4AB2F8AA004FF6BB
:101CF000FF72904207D040F6E44202FB00F0B0FBD6
:101D0000F3F080B205E00548B0FBF3F080B200E0EC
:101D1000002008BD002000B40075FF1FD8084C004B
:101D200010B582B00023ADF80630FFF7D7FF0446A8
:101D30002148FFF793FF214BB3F8C820B3F8A81050
:101D40008A421DD000FB04F39B081D48A0FB03033F
:101D5000C1EB5313642000FB03F3521A93FBF2F31D
:101D60001E331BB2ADF80630BDF806301BB21B02A5
:101D70001BB2ADF80630BDF8060000B202B010BDCF
:101D800004FB00F00F4BA3FB0023C41A03EB540326
:101D9000DB0A4FF47A7202FB03F3A3F53923A3F5B0
:101DA0000C63094A82FB0312DB17C3EBA2231E3329
:101DB0001BB2ADF80630D7E7001000B00075FF1F6A
:101DC0009F00EE0901011000AD8BDB6800B583B008
:101DD0004FF0B0439A6C42F004029A649A6C02F09D
:101DE00004020192019A9A6C42F001029A649B6C7F
:101DF00003F001030093009B002202210F2006F054
:101E00004BFC0F2006F080FC03B05DF804FB0023C0
:101E100001E0083008338B420AD24268D0F800C093
:101E2000B2F1FF3F08BFBCF1FF3FF2D00120704785
:101E30000020704730B108B539B192B214F0B8FC47
:101E4000002008BD6FF0050070476FF00500F8E74F
:101E500008B506F03BFF78B9094B9A6942F0404259
:101E60009A614CF2FA321A6106F048FF08B9002074
:101E700008BD6FF00400FBE76FF00400F8E700BF57
:101E80000040005870B584B000230393002839D077
:101E90000E460446FFF7DCFF054610B1284604B0A5
:101EA00070BD06F013FF80BB0223009304F178435A
:101EB0001748D0F8E015174A02EA8121B3FBF1FC7C
:101EC00001FB1C33DB0A0193A11901F178410139AF
:101ED000D0F8E00502EA8022B1FBF2F002FB10111B
:101EE000C3EBD1230133029303A9684606F0D2FF66
:101EF00018B1022804D06FF0010506F0FFFECDE70F
:101F00000125FAE76FF00505C8E76FF00405C5E79E
:101F10000070FF1F00FCFF032DE9F04F89B0039014
:101F200004920191002800F0A9808346002900F066
:101F3000A98012F0070F40F0A98010F00703059365
:101F400040F0A880FFF784FF029018B1029809B012
:101F5000BDE8F08F06F0BAFE002840F09F80039C99
:101F600004F178424F4BD3F8E0354F4901EA832121
:101F7000B2FBF1F301FB1322D30A0693049BE3188F
:101F800003F17843013BB3FBF1F001FB1033DB0AB3
:101F9000A3EBD22301330793012B06D9C4F30A091B
:101FA000C9F50069DDF818A02FE0DDF81090F9E719
:101FB000C846019F5C46059D454515D2EE19D6E9F8
:101FC00000232146012006F0DDFE50B9206862683A
:101FD000E95973689A4208BF884241D108340835EC
:101FE000EAE76FF003030293029B002B3FD1CB443F
:101FF000019B4B440193049BA3EB0909B9F5006FC6
:1020000028BF4FF400690AF1010A069B079A13449E
:1020100053452CD90AF58034E40249460398FFF76A
:10202000F6FE0028C4D0214B1868E8B14FF40062D6
:102030002146FFF7FFFE1D4B1B68CBF30A001FFA7A
:1020400089F20199184414F0B3FB4FF40061204663
:10205000FFF718FF70B9154B1F684FF40068AAE727
:102060006FF003030293BFE76FF00503029306F0DE
:1020700045FE6BE76FF001030293F8E76FF005038D
:10208000029363E76FF0050302935FE76FF00503C8
:1020900002935BE76FF00503029357E76FF00403C9
:1020A000029353E70070FF1F00FCFF038C08002021
:1020B000014B1860002070478C080020B0F1006FC1
:1020C0000ED310B5094BD3F8E045094B03EA84233E
:1020D00003F10063013B984205D8FFF71DFF10BDD7
:1020E0004FF0FF3070474FF0FF30F8E70070FF1FF0
:1020F00000FCFF03B1F1006F0ED310B5094BD3F80C
:10210000E045094B03EA842303F10063013B994254
:1021100005D8FFF78FFE10BD4FF0FF3070474FF02E
:10212000FF30F8E70070FF1F00FCFF03B0F1006F05
:102130000ED308B5094BD3F8E025094B03EA8223F7
:1021400003F10063013B984205D8FFF79BFE08BDF1
:102150004FF0FF3070474FF0FF30F8E70070FF1F7F
:1021600000FCFF032DE9F04389B00024039404949C
:102170000594069407944FF0B043DA6C42F00102E4
:10218000DA64DA6C02F001020292029ADA6C42F02E
:102190000202DA64DA6C02F002020192019ADA6C4D
:1021A00042F00402DA64DB6C03F004030093009B4A
:1021B0003B4E22464FF43A41304606F0FBFFDFF833
:1021C000E48022460421404606F0F4FF22464FF404
:1021D000F8714FF0904006F0EDFF4FF40A4303937F
:1021E0000125049505940223069303A9304606F0C1
:1021F00091FE0423039304950594069403A9404695
:1022000006F088FE032703974FF40419CDF81090C9
:10221000059503A94FF0904006F07CFE4FF4405323
:10222000039304950594069703A9304606F072FEC1
:10223000062703970494059403A9304606F06AFE26
:1022400040230393CDF81090059503A9404606F06E
:1022500061FE4FF4F873039304950594069403A963
:102260004FF0904006F056FE22462146384606F0D2
:1022700013FA384606F048FA22462146072006F0AF
:102280000BFA072006F040FA22462146162006F0F7
:1022900003FA162006F038FA09B0BDE8F08300BF53
:1022A000000400480008004808B51248124B0360BB
:1022B000124B4360002383600122C26003614361CB
:1022C0008361C361036207F041F950B900210948F5
:1022D00007F046FB40B90021064807F06FFB30B914
:1022E00008BD00F053F8F1E700F050F8F3E700F014
:1022F0004DF8F5E790080020005400405D3E302086
:1023000010B596B0044600211191129113911491C9
:102310001591382203A815F0F1FF2268194B9A4253
:1023200001D016B010BD402303934FF440330893FF
:1023300003A808F08FF908BB4FF0B044E36C43F0FA
:102340000203E364E36C03F002030293029BC023E5
:1023500011931223129300231393149304231593C0
:1023600011A9094806F0D6FDA36D43F40013A36537
:10237000A36D03F400130193019BD2E700F006F86C
:10238000DAE700BF005400400004004872B6FEE7E0
:1023900010B59AB04822002108A815F0AFFF00241C
:1023A000019402940394049405940694079407F00E
:1023B00031FB4FF0B042D2F8903023F01803C2F84E
:1023C000903002F58062136823F4C06343F4007315
:1023D0001360136803F4C0630093009B24230893E5
:1023E00081230B93012310931194B0231293139420
:1023F00008A807F0A9FC70B94F23019300230293AA
:102400000393049305930793022101A807F0CEFFDD
:1024100018B91AB010BDFFF7B9FFFFF7B7FF0000FA
:1024200010B582B005F000FCFFF7B2FFFFF79AFE8F
:1024300002F014F9FFF738FF00F060FC244C04228E
:1024400024492046FFF74CFB00F08CFC0122224976
:1024500022480AF029F90122214920460AF024F9EC
:1024600000F032FA044600F02FFA012240214FF02A
:10247000904006F09FFE012280214FF0904006F030
:1024800099FEF82217491848FFF734FEC0B9164BD9
:10249000D3E93823CDE90023144B00221146022052
:1024A00014F070F800F010FA001B41F287339842E4
:1024B000F8D90F4B1B78002BF4D102F0D5F8F1E7D7
:1024C0000C4B00221146022014F05CF8EAE700BF32
:1024D000CC0B002000080048E50D0020600C002017
:1024E000E809002000F00308E808002008C50108FA
:1024F000F00D0020CCC4010800B58DB02C220021C5
:1025000001A815F0FBFE1948194B03601F238360D7
:1025100000230361436183614FF08042C261036223
:102520004FF48073436208F0A5FAA8B90F4808F089
:10253000E3FBA0B900220892029206924FF00053EA
:1025400007934FF480730B9301A9084808F0F8FA39
:1025500040B90DB05DF804FBFFF718FFE6E7FFF7A1
:1025600015FFE7E7FFF712FFF3E700BF180B0020A6
:102570000028004010B590B004463822002102A87F
:1025800015F0BCFE22681A4B9A4201D010B010BD63
:102590004FF4803302934FF480730F9302A808F036
:1025A00059F808BB4FF0B043D3F8902042F40042F2
:1025B000C3F890209A6D42F480629A659B6D03F493
:1025C00080630193019B00221146022006F064F80B
:1025D000022006F099F8002211462A2006F05CF845
:1025E0002A2006F091F8D1E7FFF7D0FEDAE700BF26
:1025F000002800407047704708B505F02BFB01200C
:10260000024BC3F8880007F069FA08BD00040058BF
:1026100008B505F026FB08BD08B505F022FB00F063
:1026200017FD08BD08B505F015FB0121002007F0D6
:10263000F9F908BD7047FEE7FEE7FEE7FEE7FEE7B3
:10264000704770477047704708B5024808F080FB34
:1026500008BD00BF180B002008B5012006F0B8FD2A
:1026600008BD08B5022006F0B3FD08BD08B5024854
:1026700006F07AFA08BD00BF6C0B002008B54020B8
:1026800006F0A6FD08BD000008B5024809F01EF8D6
:1026900008BD00BFCC0B002008B5024809F016F8B1
:1026A00008BD00BF600C002008B5024808F05CF9C6
:1026B00008BD00BF180B002008B5024808F0FCFD5B
:1026C00008BD00BF500B002008B505480823036073
:1026D00008F074FB00B908BDFFF758FEFBE700BF28
:1026E000500B002000B583B04FF0B0435A6E42F05B
:1026F00001025A665B6E03F001030193019B002205
:102700001146322005F0C8FF322005F0FDFF03B06E
:102710005DF804FB0CB400B583B004AB53F8042B94
:10272000019314F01FFC03B05DF804EB02B0704796
:1027300030B585B004460D4602A814F087F9BDF9FE
:102740000C300093029B054A10212046FFF7E2FF60
:102750002046FDF765FD288005B030BD48C501085D
:1027600010B54FF0B042936823F40043936014F027
:10277000F1F901240D4B1C7000F0BCF813F08EFE33
:102780000B4813F0A5FE0B4B4FF400421A610220D8
:1027900013F0A4FEFFF79AFA00F014F913F0AEFF5D
:1027A0002146204613F0CAFF10BD00BF5C0B00207D
:1027B000312700080040005808B513F0D5FF08BDC8
:1027C00008B5FFF78BFA40F6B83398420DD8B0F54C
:1027D000E16F0CD3A0F5E160C0EBC0104000054BE9
:1027E000A3FB0030C0F3C71000E0FE2008BD0020AE
:1027F000FCE700BFB5814E1B00B587B0684600F00E
:10280000C5F80198FEF7ECFC00B207B05DF804FBD8
:1028100038B50446184BD3F88035B3F1FF3F13D0D9
:10282000C3711A0A82711A0C42711B0E0371124B8A
:10283000D3F88425C270D3F884351A0A82701A0C32
:1028400042701B0E037038BD05F012FA054605F004
:102850001BFA054405F012FA2B0EE3712B0CA37141
:102860002B0A63712571030EE370030CA370030A36
:1028700063702070E7E700BF0070FF1F38B50A4B98
:10288000D3F880350360B3F1FF3F00D038BD044674
:1028900005F0EEF9054605F0F1F9454005F0F4F9CB
:1028A00045402560F2E700BF0070FF1F08B5012119
:1028B000022013F02DFF08BD08B50021022013F0FF
:1028C00027FF08BD0020704708B5044B1B780BB9E3
:1028D000002008BD00F000F9FBE700BF5C0B002002
:1028E00000B583B00190019800F0DCF903B05DF809
:1028F00004FB0000F0B589B0224AD2F8903043F4CE
:102900008043C2F8903005F0C5F905F0CBF905F029
:10291000D1F90024039404940594069407940123A8
:102920000493032306934FF0B043DA6C42F00202A3
:10293000DA64DA6C02F002020292029ADA6C42F075
:102940000202DA64DB6C03F002030193019B4FF493
:10295000805703970C4D03A9284606F0DBFA4FF485
:102960000056039603A9284606F0D4FA22463946B3
:10297000284606F01FFC22463146284606F01AFC7F
:1029800009B0F0BD000800580004004810B5044626
:10299000FFF7C6F940F30F20FEF708FA054BA360D6
:1029A0006060054B2360054BE360054B236100200D
:1029B00010BD00BF0000484200007A440D093E00EF
:1029C000AB030500002070470120704708B515F0E3
:1029D00009FD162303604FF0FF3008BD08B54FF026
:1029E000FF31FFF7F3FFFEE770B50C4616460025F2
:1029F00006E0AFF30080214601F8010B01350C46DB
:102A0000B542F6DB304670BD70B50C461646002563
:102A100004E014F8010BFFF70DF80135B542F8DBBF
:102A2000304670BD4FF0FF3070474FF400534B609D
:102A300000207047012070470020704710B5034602
:102A40000C4A0D490D48006840B10C480068034429
:102A5000521A934206D8094A136010BD0748084C21
:102A60000460F2E715F0BEFC0C2303604FF0FF306A
:102A7000F3E700BF0080002000080000600B00208A
:102A8000A0230020064B986801E0054B9868044B92
:102A90009B688342F9D1C043024B1860704700BF66
:102AA00000280040680B0020014B1868704700BFE9
:102AB000680B0020064B986801E0054B9868044BB2
:102AC0009B688342F9D1C043024B1B68C01A704710
:102AD00000280040680B0020074B1B7853B1074BC0
:102AE000986801E0054B9868044B9B688342F9D1D4
:102AF000C043704700207047640B0020002800404E
:102B00000320704708B501464FF47A720023800213
:102B1000890DFEF7ABFB08BDC20E43011B1A62F123
:102B20000002920042EA93729B001B1842F10000DF
:102B3000C00040EA5370C3F3D51343EA8050704796
:102B400010B5074B0122DA65064C4FF48071204620
:102B500007F0CAFE4FF0FF332363002010BD00BF13
:102B600000280040180B002008B502460221024848
:102B700008F003F908BD00BF180B002038B50F4B53
:102B80001B780BB1002038BD0D4C4FF0FF3525638D
:102B9000FFF7B2FCFFF7D4FF4FF48071204607F037
:102BA000A3FE2563204608F087F80020FFF7DCFF2E
:102BB000FFF768FF014B01221A70E3E7640B002066
:102BC000180B002008B502460021024808F0D5F88D
:102BD00008BD00BF180B002008B5024601210248BD
:102BE00008F0CBF808BD00BF180B002010B58CB062
:102BF00004462C22002101A815F080FBFFF7A0FF5E
:102C00000C4B1B681C4400230893E4430294069376
:102C10004FF0005307934FF480730B93012201A9E7
:102C2000054807F08DFF10B900200CB010BDFFF76C
:102C3000ADFBF9E7680B0020180B002008B5022156
:102C4000014808F0A1F808BD180B002038B505466A
:102C50000B4B9C6801E00A4B9C68094A9268A242AF
:102C6000F9D1E443FFF7EAFF2346A40A44EA80547B
:102C7000C3F30900FFF750FF2880204638BD00BF8E
:102C80000028004008B50021014808F07DF808BD83
:102C9000180B002008B50121014808F075F808BD9F
:102CA000180B002008B5FFF72DFF0D4B996801E0C8
:102CB0000B4B99680A4A92688A42F9D1C9430AE0E3
:102CC000074B9B68064A92689A42F9D1DB435B1A2C
:102CD000834203D200BF024B9B68F3E708BD00BFED
:102CE0000028004008B514F059F808BD08B5FFF7F2
:102CF000A5FF0130FFF738FF08BD000008B51748F1
:102D0000174B03604FF41653436000238360C36086
:102D100003610C2242618361C36103624362836287
:102D200009F0F0FB70B900210C4809F0BFFD60B953
:102D300000210A4809F0DFFD50B9084809F097FD65
:102D400048B908BDFFF722FBEDE7FFF71FFBEFE7F0
:102D5000FFF71CFBF1E7FFF719FBF2E7CC0B0020B4
:102D60000038014008B51748174B03604FF4E133B2
:102D7000436000238360C36003610C22426183616E
:102D8000C36103624362836209F0BCFB70B9002136
:102D90000C4809F08BFD60B900210A4809F0ABFD31
:102DA00050B9084809F03FFD48B908BDFFF7EEFAF1
:102DB000EDE7FFF7EBFAEFE7FFF7E8FAF1E7FFF7E8
:102DC000E5FAF2E7600C00200044004030B599B00D
:102DD00004460021139114911591169117913822F0
:102DE00005A815F08BFA23684B4A934204D04B4A4E
:102DF000934239D019B030BD012305934FF44033CD
:102E0000069305A807F026FC58BB4FF0B0431A6E96
:102E100042F480421A661A6E02F480420292029ACA
:102E2000DA6C42F00102DA64DB6C03F00103019317
:102E3000019B4FF4C0631393022314930024159451
:102E400016940723179313A94FF0904006F062F8E9
:102E500022462146242005F01FFC242005F054FCC6
:102E6000C8E7FFF793FAD0E7022305932C4B0793AB
:102E700005A807F0EFFB002844D14FF0B0439A6D4E
:102E800042F400329A659A6D02F400320492049A78
:102E9000DA6C42F00102DA64DB6C03F001030393A5
:102EA000039B0C23139302231493002515950323EE
:102EB00016930723179313A94FF0904006F02AF8B2
:102EC0001848194B03601423436010238360C560C6
:102ED0008023036145618561C561056205F0B6FC2B
:102EE00098B910210F4805F0B3FE88B90D4BE36780
:102EF0009C6200220221252005F0CEFB252005F052
:102F000003FC77E7FFF742FAB7E7FFF73FFAE8E796
:102F1000FFF73CFAEAE700BF0038014000440040F8
:102F200004000C006C0B00205800024010B5036830
:102F3000144A934204D00446134A934210D010BD61
:102F40004FF0B042136E23F4804313664FF4C06118
:102F50004FF0904006F0B0F8242005F0E3FBEEE7D8
:102F60004FF0B042936D23F4003393650C214FF082
:102F7000904006F0A1F8E06F05F0DAFC252005F09E
:102F8000D1FBDCE7003801400044004008B5074BA6
:102F90001860FEF71BFFFFF7E5FE054AD2F8803008
:102FA00043F00063C2F88030002008BDF80C002018
:102FB0000008005808B54FF0B0439A6B42F4003255
:102FC0009A639A6B22F400329A630448FFF7AEFFCB
:102FD0000F2005F0A7FB002008BD00BF600C0020FB
:102FE00008B50A460146024808F0ACFA002008BDC0
:102FF000600C002010B582B0124B18604FF4001323
:10300000009302AB13E906000F4809F0B4FB0E4B26
:103010001B68DA6912F4803FF9D1DA6912F4800F83
:10302000FBD09A6842F480029A60074C204609F06F
:10303000E3FB01220549204609F036FB002002B0DF
:1030400010BD00BFF40C0020600C0020E50D002036
:1030500008B5074809F056FA20B9064805F0F6FB0E
:1030600018B908BDFFF792F9F7E7FFF78FF9F8E70E
:10307000600C00206C0B002008B50268044B9A42DB
:1030800000D008BD034B1B6800209847F9E700BF3C
:1030900000440040F80C00202DE9F04FADF24C5DEB
:1030A00081460268B64B9A4209D0D9F80020B54B48
:1030B0009A4201F0B4820DF24C5DBDE8F08FB24B44
:1030C0001B682BB1D0F8902012B90121AF48984766
:1030D000AE4B1B780A2B0AD0AD4A1278C62A00F2F2
:1030E0000A81501CAA490870AA498B5403E1A84BD5
:1030F0001B78A8480022C2540D22A74915F006F9F2
:10310000002800F0EC800D22A449A24815F0FEF83A
:10311000002800F0F6801222A1499E4815F0F6F82A
:10312000002800F0F8800F229E499A4815F0EEF82A
:10313000002800F07B810B229B49964815F0E6F8A9
:103140000446002800F037820B229849914815F078
:10315000DDF80446002800F052820B2294498D4885
:1031600015F0D4F80446002800F06D82152291492C
:10317000884815F0CBF8002800F0A38217228E496A
:10318000844815F0C3F8002800F0D0820B228B4948
:10319000804815F0BBF8002800F0D9821022884939
:1031A0007C4815F0B3F8002800F084831622854986
:1031B000784815F0ABF80446002800F094841222F9
:1031C0008149744815F0A2F8002800F09A8513226E
:1031D0007E49704815F09AF80746002800F064868A
:1031E00018227B496B4815F091F8002800F06187A0
:1031F00012227849674815F089F8002800F06487A2
:1032000010227549634815F081F80646002800F041
:103210005F87112271495F4815F078F8002801F0A6
:10322000B38112226E495B4815F070F8002801F056
:10323000B88116226B49574815F068F8002801F04C
:10324000CC8110226849534815F060F8002841F0FD
:10325000DE810DF17F030DF17E026449644814F0B4
:1032600049FF9DF87E30013B4FF47472614951F87B
:10327000231020A8FEF73EFF002841F0C0819DF8F2
:103280007F30012B14BF002301238DF834349DF8C7
:103290007E30013B4FF40061564A52F82300FEF79E
:1032A00045FF002841F0A381534B00221146022024
:1032B00013F068F99DF87E30013B4FF4747220A939
:1032C0004C4850F82300FEF7F9FE002841F08781B2
:1032D0004A4B00221146022013F054F908E0484BF3
:1032E00000221146022013F04DF9464B01221A70BC
:1032F000274B00221A7001222449484609F0D4F9CC
:10330000D3E6414B00221146022013F03BF93D4B1E
:1033100000221A70ECE73D4B00221146022013F008
:1033200031F9F8223A490DF58A60FEF7E3FE00BB59
:1033300008220DF58A61374811F047FA08220DF589
:103340008B61354811F041FA10220DF26941334882
:1033500011F03BFA0DF5A563D3E90001304BC3E949
:1033600000010DF5A663D3E900012E4BC3E900016E
:10337000BEE72D4B00221146022013F003F9B7E7F8
:103380000044004000380140F40C0020E50D00200E
:10339000E40D00201C0D002094C50108C8C50108DB
:1033A000FCC5010838C60108C0C70108D4C7010818
:1033B000E0C70108ECC7010808C8010848C80108AF
:1033C0007CC8010818C9010830CA0108DCCA010814
:1033D000C8CB0108E8CB0108FCCB0108E8CC010808
:1033E000FCCC010810CD010828CD01083CCD010816
:1033F0002C0D0020000000201CC3010828C3010878
:10340000A4C50108F00D0020D8C5010810C60108A8
:1034100000F00308FC0C0020040D00200C0D00201F
:10342000F80D0020E80D0020CCC40108F822AD49B9
:103430000DF58A60FEF75EFE002840F0AB80AA4BD7
:1034400000221146022013F09DF89DF850349DF89B
:1034500051249DF852149DF853049DF854449DF84E
:1034600055549DF856649DF8577407970696059530
:10347000049403900291019200939C4B0022114608
:10348000022013F07FF89DF858349DF859249DF8D8
:103490005A149DF85B049DF85C449DF85D549DF8BA
:1034A0005E649DF85F7407970696059504940390F3
:1034B0000291019200938E4B00221146022013F0DC
:1034C00061F89DF8693417939DF86A2418929DF865
:1034D0006B349DF86C249DF86D149DF86E049DF876
:1034E0006FC49DF870E49DF871449DF872549DF886
:1034F00073649DF874749DF875849DF876A4CDF876
:1035000064A09DF877A49DF878B4CDF83CB0CDF8D0
:1035100038A0DDF864A0CDF834A0CDF830800B974A
:103520000A9609950894CDF81CE0CDF818C00590CE
:10353000049103920293189A0192179B00936D4B8A
:1035400000221146022013F01DF80DF5A563D3E902
:103550000023CDE90023684B00221146022013F01E
:1035600011F80DF5A663D3E90023CDE90023634BE1
:1035700000221146022013F005F8614B002211468B
:10358000022012F0FFFF5F4B00221146022012F0D2
:10359000F9FFADE65C4B00221146022012F0F2FF6B
:1035A000A6E663000B33594A224459495948184446
:1035B00014F0A0FD0134072CF3DD544B1A78597830
:1035C0009878DC781D795E799F79DB790793069787
:1035D000059604950394029001910092434B0022BA
:1035E0001146022012F0CEFF82E663000B334A4AF6
:1035F000224447494748184414F07CFD0134072C05
:10360000F3DD454B1A7859789878DC781D795E7926
:103610009F79DB79079306970596049503940290AA
:1036200001910092324B00221146022012F0AAFFB3
:103630005EE663000B33394A224435493548184465
:1036400014F058FD01340F2CF3DD344B1A78179227
:103650005978189193F802B0DA78197958799C79E9
:10366000DD791E7A5F7A93F80AC093F80BE093F83D
:103670000C8093F80DA0CDF864A093F80EA0DB7B2E
:103680000F93CDF838A0DDF864A0CDF834A0CDF8C4
:103690003080CDF82CE0CDF828C009970896079522
:1036A0000694059004910392CDF808B01899019101
:1036B000179A00920F4B00221146022012F062FF6F
:1036C00016E6174C22461749174814F013FDD4E9A3
:1036D0000023CDE90023084B00221146022012F0FE
:1036E00051FF05E600F0030848C6010868C6010856
:1036F000A8C60108E8C6010850C7010874C7010838
:103700009CC70108B0C70108CCC40108FC0C00200C
:10371000CCC701081C0D0020040D00200C0D00205A
:10372000F80D002004C80108310D0020514C22463C
:103730005149524814F0DEFCD4E90023CDE90023BE
:103740004F4B00221146022012F01CFFD0E54D4BDA
:1037500000221146022012F015FF4B4B1A785978BF
:103760009878DC781D795E799F79DB7907930697E5
:10377000059604950394029001910092434B002218
:103780001146022012F0FEFE414B1A7859789878C3
:10379000DC781D795E799F79DB790793069705962A
:1037A000049503940290019100923A4B0022114635
:1037B000022012F0E7FE384B1A78179259781891C8
:1037C00093F802B0DA78197958799C79DD791E7A04
:1037D0005F7A93F80AC093F80BE093F80C8093F8A3
:1037E0000DA0CDF864A093F80EA0DB7B0F93CDF86D
:1037F00038A0DDF864A0CDF834A0CDF83080CDF845
:103800002CE0CDF828C009970896079506940590F6
:1038100004910392CDF808B018990191179A00927B
:103820001E4B00221146022012F0ACFE1C4BD3E9C5
:103830000023CDE900231B4B00221146022012F089
:10384000A1FE0C4BD3E90023CDE90023164B002247
:103850001146022012F096FE144B0022114602205F
:1038600012F090FE124B00221146022012F08AFE46
:103870003EE500BFE80D002004C80108330D00201C
:1038800020C8010854C80108FC0C002068C60108C3
:10389000040D0020A8C601080C0D0020E8C6010890
:1038A000F80D002050C7010874C701089CC7010823
:1038B000B0C701089B4B00221146022012F062FEA5
:1038C000082299490DF58A6010F07FFF0822974978
:1038D0000DF58B6010F079FF954C102221460DF20A
:1038E000694010F072FF102221460DF27A4010F06C
:1038F0006CFF102221460DF28B4010F066FF102263
:1039000021460DF29C4010F060FF8A4BD3E9002362
:103910000DF5A561C1E90023874BD3E900230DF51F
:10392000A661C1E900234FF400618448FEF7FEFB65
:10393000002840F0D180F8220DF58A617F48FEF71B
:10394000BDFB002840F0C1807D4B002211460220C3
:1039500012F018FEF82279490DF58A60FEF7CAFBCD
:10396000002840F0AB80774B00221146022012F075
:1039700009FE9DF850349DF851249DF852149DF88D
:1039800053049DF854449DF855549DF856649DF891
:103990005774079706960595049403900291019237
:1039A0000093694B00221146022012F0EBFD9DF8B6
:1039B00058349DF859249DF85A149DF85B049DF8DD
:1039C0005C449DF85D549DF85E649DF85F740797B4
:1039D00006960595049403900291019200935B4B27
:1039E00000221146022012F0CDFD9DF86934179394
:1039F0009DF86A2418929DF86B349DF86C249DF80C
:103A00006D149DF86E049DF86F449DF870549DF8F8
:103A100071649DF872749DF873C49DF874E49DF808
:103A200075849DF876A4CDF864A09DF877A49DF8E0
:103A300078B4CDF83CB0CDF838A0DDF864A0CDF86E
:103A400034A0CDF83080CDF82CE0CDF828C009970F
:103A50000896079506940590049103920293189A8C
:103A60000192179B00933A4B00221146022012F05C
:103A700089FD0DF5A563D3E90023CDE90023354B7E
:103A800000221146022012F07DFD0DF5A663D3E958
:103A90000023CDE90023304B00221146022012F012
:103AA00071FD2E4B00221146022012F06BFD2C4BB3
:103AB00000221146022012F065FD19E4294B002274
:103AC0001146022012F05EFD12E4274B002211463F
:103AD000022012F057FD0BE4244B00221146022075
:103AE00012F050FD04E40DF17F030DF17E02204938
:103AF000204814F0FFFA022840F0FB809DF87E3049
:103B00005A1ED2B20F2A04D89DF87F200AB1102A7B
:103B100034D9194B00221146022012F033FDFFF771
:103B2000E7BB00BF90C80108FC0C0020040D00207A
:103B30000C0D0020F80D0020E80D002000F0030817
:103B4000B4C8010848C6010868C60108A8C601082B
:103B5000E8C6010850C7010874C701089CC70108DE
:103B6000B0C70108CCC40108D8C80108F8C80108CA
:103B700030C90108320D0020FCC90108013B4FF497
:103B80007472AE4951F8231020A8FEF7B3FA00284A
:103B90007AD1AB4B00221146022012F0F3FC9DF8C3
:103BA0007F3001939DF87E300093A64B0022114692
:103BB000022012F0E7FC9DF882300093A24B002215
:103BC0001146022012F0DEFC9DF8833000939F4BDB
:103BD00000221146022012F0D5FC9DF8843000939B
:103BE0009B4B00221146022012F0CCFC9DF8803045
:103BF000012B50D0974B0093974B00221146022087
:103C000012F0C0FC954B00221146022012F0BAFCC3
:103C10009DF87F300093924B00221146022012F053
:103C2000B1FC9DF87F30382202FB03F320AAD35C5D
:103C3000012B32D0874B00938A4B00221146022081
:103C400012F0A0FC884B00221146022012F09AFCD0
:103C50009DF87F30013B382220A902FB03131D7A17
:103C6000AC421CD29DF87F30013B382220A902FBD8
:103C7000031323445B7A00937C4B002211460220FD
:103C800012F080FC0134EBE7794B00221146022050
:103C900012F078FC83E7774BADE7764BCBE7764BBA
:103CA00000221146022012F06DFC9DF87F30013B8E
:103CB000382420AA04FB03231B6B00936F4B0022C4
:103CC0001146022012F05EFC9DF87F30013B20AAD5
:103CD00004FB032393F829304BB1664B0093684BE8
:103CE00000221146022012F04DFCFFF701BB594B98
:103CF000F4E7644B00221146022012F043FCFFF768
:103D0000F7BA0DF17F0303930DF17E0302930DF1DA
:103D10007D0301931FAB00930DF17B030DF17A023C
:103D200059495A4814F0E6F9062807D0584B0022A2
:103D30001146022012F026FCFFF7DABA9DF87F3018
:103D400005939DF87E3004939DF87D3003939DF894
:103D50007C3002939DF87B3001939DF87A3000937C
:103D60004C4B00221146022012F00CFC9DF87B30D7
:103D7000013B4FF47472314951F8231020A8FEF72B
:103D8000B9F978BB2E4B00221146022012F0FAFB43
:103D90009DF87A30012B2CD09DF87B30013B4FF4FD
:103DA0000061264A52F82300FEF7C0F900283CD1F2
:103DB000394B00221146022012F0E4FB9DF87B30C3
:103DC000013B4FF4747220A91C4850F82300FEF701
:103DD00075F910BB314B00221146022012F0D2FBC4
:103DE000FFF786BA224B00221146022012F0CAFBCE
:103DF000CEE79DF87C308DF882309DF87D308DF8CF
:103E000083309DF87E308DF884309DF87F30003B04
:103E100018BF01238DF88030BEE7214B00221146E8
:103E2000022012F0AFFBFFF763BA1E4B00221146CF
:103E3000022012F0A7FBFFF75BBA00BF00000020D2
:103E40003CC9010858C9010870C3010880C30108B2
:103E500090C3010854C30108A0C301088CC901081C
:103E600090C90108B0C90108C8C9010880C2010889
:103E700048C901084CC30108B4D00108D4C90108DD
:103E8000ECC9010818CA010844CA01081C0D002029
:103E9000B4CA010868CA01081CC3010828C3010884
:103EA00034C3010840C301080DF17F0307930DF1EE
:103EB0007E0406940DF17D0605961FAD04950DF167
:103EC0007B08CDF80C800DF17A0302930DF1790394
:103ED00001931EAB00930DF177030DF17602A44917
:103EE000A44814F007F99DF87B209DF87C100D0480
:103EF00045EA02659DF87D6045EA06259DF87E400D
:103F000025430A2807D09C4B00221146022012F0BC
:103F100039FBFFF7EDB99DF87A309DF87F000A90E4
:103F20000994089607910692059304939DF87930B9
:103F300003939DF8783002939DF8773001939DF8B4
:103F4000763000938D4B00221146022012F01AFBAE
:103F50009DF87F0013F0CAF8064600240AE004EB3F
:103F600044033133321986498248184414F0C2F8A8
:103F70000134E4B29DF87F30A342F0D8814B002297
:103F80001146022012F0FEFA08E0F35D00937E4B2A
:103F900000221146022012F0F5FA01379DF87F3019
:103FA000BB42F2DC794B00221146022012F0EAFA01
:103FB0009DF87730013B4FF47472754951F8231026
:103FC00020A8FEF797F838B9724B0022114602205C
:103FD00012F0D8FA002312E06F4B002211460220A3
:103FE00012F0D0FAF6E79DF87820013AF15C38201B
:103FF00020AC00FB02421A4451720133DBB29DF83F
:104000007F209A42EFD8304613F078F89DF8782058
:10401000531E20A8382404FB03039DF87F10197257
:104020009DF87A10003918BF012183F8291003F197
:1040300030011D6300234B609DF87930003B18BFB1
:10404000012304FB02F283549DF87730013B4FF4C7
:1040500000614F4A52F82300FEF768F808BB4F4B47
:1040600000221146022012F08DFA9DF87730013BB4
:104070004FF4747220A9464850F82300FEF71EF84A
:1040800038B9474B00221146022012F07BFAFFF7A5
:104090002FB9444B00221146022012F073FAFFF7A9
:1040A00027B9414B00221146022012F06BFAFFF7AC
:1040B0001FB920AA3D493E4814F01CF89DF8800025
:1040C000FDF78AFAFFF714B904F03EFBFFF710B9C9
:1040D0000DF17F0315930DF17E0314930DF17D0314
:1040E00013931FAB12930DF17B0311930DF17A0320
:1040F00010930DF179030F931EAB0E930DF177031F
:104100000D930DF176030C930DF175030B931DAB1D
:104110000A930DF1730309930DF1720308930DF1E6
:10412000710307931CAB06930DF16F0305930DF11B
:104130006E0304930DF16D0303931BAB02930DF11A
:104140006B0301930DF16A0300930DF169031AAA41
:104150001849084813F0CEFF18282FD00090164BAE
:1041600000221146022012F00DFAFFF7C1B800BF7D
:10417000F0CA01081C0D0020B4CA010824CB0108B4
:10418000B8CB0108BCCB010880C20108B4D001083B
:10419000000000203CC9010848C901081CC30108EF
:1041A00028C3010834C3010840C30108E4CB010857
:1041B000340D002010CC0108D4CC01080090BE4B77
:1041C00000221146022012F0DDF99DF869300093BB
:1041D000BA4B00221146022012F0D4F99DF8683043
:1041E0000093B74B00221146022012F0CBF99DF844
:1041F0007F300093B34B00221146022012F0C2F927
:104200009DF86A300093B04B00221146022012F054
:10421000B9F99DF86B300093AC4B00221146022097
:1042200012F0B0F99DF86D3001939DF86C30009359
:10423000A74B00221146022012F0A4F99DF871301C
:1042400003939DF8703002939DF86F3001939DF8B1
:104250006E3000939F4B00221146022012F092F91B
:104260009DF8753003939DF8743002939DF8733078
:1042700001939DF872300093974B00221146022063
:1042800012F080F99DF8793003939DF8783002930D
:104290009DF8773001939DF8763000938F4B002284
:1042A0001146022012F06EF99DF87D3003939DF8BF
:1042B0007C3002939DF87B3001939DF87A30009317
:1042C000874B00221146022012F05CF99DF87E30E7
:1042D000012B23D0834B0093834B002211460220F5
:1042E00012F050F99DF87F40204612F0FFFE05467F
:1042F00018B12246002114F001F800249DF87F3007
:10430000A3420DD904EB440358332A19774978485E
:10431000184413F0EFFE0134E4B2EFE7754BDAE72F
:10432000754B00221146022012F02CF99DF87F30C7
:10433000B34209DDAB5D0093704B002211460220B1
:1043400012F020F90136F1E76D4B002211460220F0
:1043500012F018F99DF86930013B4FF47472694905
:1043600051F8231020A8FDF7C5FE002840F0048175
:104370009DF87F108DF82814002306E0E85C20AA41
:104380001A4482F888030133DBB29942F6D82846F2
:1043900012F0B4FE9DF86A308DF829349DF86B3028
:1043A0008DF82A349DF86C209DF86D3043EA022385
:1043B000ADF836349DF87630002263F307029DF89D
:1043C000773063F30F229DF8783063F317429DF83E
:1043D000793063F31F629DF87A10002361F30703BD
:1043E0009DF87B1061F30F239DF87C1061F3174358
:1043F0009DF87D1061F31F639DF86E10002061F33E
:1044000007009DF86F1061F30F209DF8701061F3A5
:1044100017409DF8711061F31F609DF872400021F4
:1044200064F307019DF8734064F30F219DF8744015
:1044300064F317419DF8754064F31F61CDF83804AB
:10444000CDF83C14CDF84024CDF844349DF87E30AE
:10445000003B18BF01238DF8483400238DF8493400
:104460009DF86930013B4FF40061264A52F8230061
:10447000FDF75CFE00284DD1234B0022114602209F
:1044800012F080F89DF86930013B4FF4747220A956
:104490001C4850F82300FDF711FE30B91B4B0022D9
:1044A0001146022012F06EF83AE0194B0022114634
:1044B000022012F067F833E06CCC010884CC0108CC
:1044C00094CC0108A4CC0108B8C30108C8C30108F2
:1044D000B4CC0108FCC3010820C4010848C4010889
:1044E00074C4010854C30108A0C40108B8CB010872
:1044F0001C0D00204CC30108BCCB010880C2010880
:10450000B4D00108000000201CC3010828C3010822
:1045100034C30108484B00221146022012F032F841
:104520009DF8690001389DF8493407939DF8483497
:104530000693DDF844340593DDF840340493DDF848
:104540003C340393DDF838340293BDF836340193DC
:104550009DF82A3400939DF829349DF828240DF500
:104560008161C0B2FDF776FA9DF869000138C0B2EA
:10457000FDF730FAFEF7BCBE304B00221146022098
:1045800012F000F8FEF7B4BE20AA2D492D4813F012
:10459000B1FD9DF880000138C0B2FDF71BFAFEF7AF
:1045A000A7BE20AA2649284813F0A4FD9DF8800044
:1045B0000138C0B2FDF772F99DF880000138C0B231
:1045C000FDF708FAFEF794BE2046FDF767F90134BF
:1045D000E4B20F2CF8D9FEF78BBE0024F9E71B4B91
:1045E00000221146022011F0CDFFFEF781BE124BD2
:1045F00000221146022011F0C5FFFEF779BE0F4BD5
:1046000000221146022011F0BDFFFEF771BE104BD3
:1046100000221146022011F0B5FFFEF769BE0D4CD5
:104620002046FDF7B3FA34F8021B012221440A4860
:1046300008F03AF8FEF73FBD40C30108CCC40108BA
:1046400004C801082D0D00202E0D002034C30108E0
:1046500044CD0108180F0020CC0B002008B5FEF750
:104660007FF803F08FF808BD08B54FF0FF3012F067
:10467000E7F808BD70470000014BD870704700BFD5
:10468000B0000020014B1874704700BFB00000203C
:1046900000283FD02DE9F0418CB003464278022A31
:1046A0000AD0032A2FD01C4B00221146022011F001
:1046B00069FF0CB0BDE8F081027CB0F9121090F9EE
:1046C00014009C7DDD7D1E7E5F7E93F81AC093F8FA
:1046D0001BE093F81C80CDF82C80CDF828E0CDF8B5
:1046E00024C008970796069505945C680494DB68D7
:1046F0000393029001910092084B00221146022080
:1047000011F040FFD5E7064B00221146022011F0C0
:1047100039FFCEE7704700BF70CD010888CD010892
:10472000FCCD010800B583B0054B1B5C0093054B25
:1047300000221146022011F025FF03B05DF804FBB2
:1047400038CE01081CCE010808B5012806D0074B59
:1047500000221146022011F015FF08BD044B002273
:104760001146022011F00EFFF7E700BF50CE0108FE
:104770003CCE010808B50A460149FDF7BBFC08BD5F
:1047800000F0030838B504460D464FF400610548B3
:10479000FDF7CCFC00B138BD2A4621460148FDF7A3
:1047A0008DFCF8E700F0030808B500224FF4004143
:1047B000014804F0FFFC08BD0004004808B50022D1
:1047C0004FF40071014804F0F5FC08BD00040048F6
:1047D000002845D010B584B0044603780BB904B066
:1047E00010BD01224FF400711E4804F0E3FC1E4886
:1047F00012F074FA1D4B00221146022011F0C2FE85
:10480000237C94F90A2094F91810039102920193E1
:10481000E3680093164B00221146032011F0B2FE0C
:10482000144B01221A70144B00221146032011F080
:10483000A9FE237A012B0CD1637A43B10F4B00936D
:104840000F4B00221146032011F09CFEC7E70D4BD1
:10485000F5E70D4B00221146032011F093FEBEE751
:10486000704700BF00040048E40F002070CE01082C
:10487000A4CE010834100020D8CE010864CE01086F
:10488000E8CE010868CE0108FCCE010808B5002179
:10489000022011F0A1FF024812F020FA08BD00BF6B
:1048A000FC0F002008B50021012011F095FF08BD84
:1048B00010B50E4B1B78022B13D00D4C00224FF479
:1048C0000041204604F076FC00224FF4007120469F
:1048D00004F070FC00224FF40061204604F06AFCF2
:1048E00010BD0021082011F077FFE6E758000020F6
:1048F0000004004808B508F0DBFC00B108BD08F072
:1049000095F90128FAD1BFF34F8F0549CA6802F41F
:10491000E062044B1343CB60BFF34F8F00BFFDE752
:1049200000ED00E00400FA0510B5094B186010B95D
:1049300042F210721A60074C204612F075F9044BCF
:104940001968204612F010FA204612F0C7F910BD7F
:10495000C8000020FC0F0020002900F026862DE969
:10496000F047C4B004460D4601224FF40041AF4861
:1049700004F020FCAE4812F0B1F92E78002E00F0C1
:10498000D985002C00F0D58526786368002B00F0CF
:10499000D185372E6CD02FD8032E4ED0192E40F053
:1049A000C9856278012A40F2C5851B78032B00F087
:1049B000A48363681B78012B00F00E8463681B7866
:1049C000022B00F0A18463681B78042B00F00085A3
:1049D00063681B78052B40F0AD85964B002211468D
:1049E000022011F0CFFD944B00221146022011F05D
:1049F000C9FD002700F057BD452E40F09B85627829
:104A0000002A00F097851B78012B00F095826368DF
:104A10001A78022A40F08E855B78002B00F03783ED
:104A200063685B78012B00F04D83824B00221146B6
:104A3000022011F0A7FD00F07DBD6278012A40F050
:104A400079851B78012B09D0022B0CD0002B40F06C
:104A50007185002008F0BCF900F06CBD012008F061
:104A6000B7F900F067BD022008F0B2F900F062BDAE
:104A70001B78012B24D063681B78022B75D06368E8
:104A80001B78032B00F0C68063681B78042B00F0B2
:104A9000408163681B78072B00F0A68163681B7850
:104AA000082B00F0038263681A78AA2A40F0428536
:104AB0005B78012B40F03E8503F046FE00F03ABDE6
:104AC000082012F013FB0746002847D0002303609C
:104AD000436005E062681A445278FA540133DBB24D
:104AE000072BF7D9554B00221146022011F04AFD41
:104AF000F822534906A8FDF7FDFAD0B90822394635
:104B000006A80FF062FE384612F0F8FA4FF4006182
:104B10004B48FDF70BFBD0B9F82206A94848FDF732
:104B2000CDFA68B9474B00221146022011F02AFD48
:104B3000A1E7454B00221146022011F023FDE5E7D5
:104B4000424B00221146022011F01CFD93E7404B1E
:104B500000221146022011F015FD8CE73D4B00228A
:104B60001146022011F00EFD85E7082012F0BEFA72
:104B70000746002847D000230360436005E06268D1
:104B80001A445278FA540133DBB2072BF7D92B4B76
:104B900000221146022011F0F5FCF822284906A84F
:104BA000FDF7A8FAD0B90822394608A80FF00DFE83
:104BB000384612F0A3FA4FF400612148FDF7B6FA27
:104BC000D0B9F82206A91E48FDF778FA68B91D4B3E
:104BD00000221146022011F0D5FC50E71A4B0022AA
:104BE0001146022011F0CEFCE5E7184B00221146D9
:104BF000022011F0C7FC42E7154B002211460220AB
:104C000011F0C0FC3BE7134B00221146022011F0CB
:104C1000B9FC34E7102012F069FA0746002871D079
:104C20000023036043608360C3601BE0000400480E
:104C3000B00F002028CF01085CCF010810C6010882
:104C400000F00308B4C80108CCC40108D8C80108A2
:104C5000F8C801080CCF010862681A445278FA5467
:104C60000133DBB20F2BF7D9A34B002211460220F0
:104C700011F088FCF822A14906A8FDF73BFA60BBB9
:104C8000102239460DF131000FF09FFD10223946F8
:104C90000DF142000FF099FD102239460DF153003D
:104CA0000FF093FD1022394619A80FF08EFD3846FB
:104CB00012F024FA4FF400619048FDF737FAD0B9AA
:104CC000F82206A98D48FDF7F9F968B98C4B002246
:104CD0001146022011F056FCD6E68A4B00221146FE
:104CE000022011F04FFCE5E7874B0022114602201D
:104CF00011F048FCC8E6854B00221146022011F055
:104D000041FCC1E6824B00221146022011F03AFC20
:104D1000BAE6804B00221146022011F033FC7E4B94
:104D200000221146022011F02DFC00276278BA42C1
:104D30000ADD6368DB5D0093784B00221146022098
:104D400011F020FC0137F1E7012300279A4205DD2D
:104D50006168C95C41EA07270133F7E7F822674930
:104D600006A8FDF7C7F950BBFA0E7B01DB1B62F109
:104D70000002920042EA93729B00DB1942F10002AA
:104D8000D20042EA5372DB003C933D924FF47A73B7
:104D900003FB07F7624B1F604FF400615748FDF7B4
:104DA000C5F9D0B9F82206A95448FDF787F968B9C2
:104DB000534B00221146022011F0E4FB69E6514BEF
:104DC00000221146022011F0DDFBE5E74E4B0022E8
:104DD0001146022011F0D6FB5BE64C4B0022114637
:104DE000022011F0CFFB54E64A4B0022114602206C
:104DF00011F0C8FB484B00221146022011F0C2FB03
:104E000000276178B9420ADD6368DB5D0093434B9C
:104E100000221146022011F0B5FB0137F1E7012312
:104E20000027994206DD6268D25C42EA072297B207
:104E30000133F6E700973B4B00221146022011F0A8
:104E4000A1FBF8222D4906A8FDF754F9C8B9ADF821
:104E50000071354B1F60354B00221A804FF4006102
:104E60002648FDF763F9D0B9F82206A92348FDF7D3
:104E700025F968B9224B00221146022011F082FB6D
:104E80000CE6204B00221146022011F07BFBE5E7E7
:104E90001D4B00221146022011F074FBFEE51B4B56
:104EA00000221146022011F06DFBF7E5194B00229C
:104EB0001146022011F066FB174B0022114602201A
:104EC00011F060FB00276378BB420ADD6368DB5D9D
:104ED0000093124B00221146022011F053FB0137C0
:104EE000F1E7134B00221146022011F04BFB114B4E
:104EF00001221A70D7E500BF10C6010800F00308B0
:104F0000B4C80108CCC40108D8C80108F8C8010811
:104F10000CCF010828CF01085CCF010880C201082E
:104F20004C00002080CF010840000020E009002054
:104F3000B8CF010848100020B64F3B46002211466A
:104F4000022011F01FFBB44B00221146022011F089
:104F500019FB3B4600221146022011F013FBAF4B18
:104F600000221146022011F00DFBF822AC4906A8E0
:104F7000FDF7C0F8002869D14FF00208ADF80281B2
:104F8000A84B4FF080421A606420FDF7A9FC012372
:104F9000ADF80431A44B4FF07F521A606420FDF746
:104FA0009FFCA24A0023CDE93C23DFF884A29F4B5B
:104FB000CAF800306420FDF793FC0423ADF80031FB
:104FC0009C4A136000279C4B1F806420FDF788FCDF
:104FD0008DF80771994B1F606420FDF781FC8DF8F7
:104FE0000871974B1F606420FDF77AFC0523ADF82C
:104FF0000A31DFF85092C9F80030142012F076F828
:10500000914B1860DAF80030D9F8002093FBF2F3E6
:105010008E4A13606420FDF763FC8D4B3A46394697
:10502000404611F0AFFA4FF400617D48FDF77EF87D
:10503000D0B9F82206A97A48FDF740F868B9854B3F
:1050400000221146022011F09DFA13E0824B00224B
:105050001146022011F096FAE5E7804B0022114636
:10506000022011F08FFA05E07D4B0022114602204C
:1050700011F088FA4FF4FA70FDF732FC03F064FB8C
:10508000644B00221146022011F07CFABFE4614F0C
:105090003B4600221146022011F074FA714B0022A7
:1050A0001146022011F06EFA3B4600221146022002
:1050B00011F068FA6C4B00221A704FF4FA70FDF789
:1050C0000FFCADE4534C234600221146022011F0A0
:1050D00059FA664B00221146022011F053FA23467A
:1050E00000221146022011F04DFA5F4B01221A7086
:1050F0004FF4FA70FDF7F4FB97E4464B002211469B
:10510000022011F03FFA5A4B00221146022011F002
:1051100039FA002709E06368DB5D0093554B0022F4
:105120001146022011F02EFA01376278BA42F2DC01
:105130000123002704E06168C95C41EA07270133C5
:105140009A42F8DC00974C4B00221146022011F0E5
:1051500019FAF822324906A8FCF7CCFF28BBADF8B3
:105160000A71DFF8E080C8F80070B80011F0BEFFE7
:10517000354B18602E4B1B68D8F8002093FBF2F3D8
:10518000324A13604FF400612548FCF7CFFFD8B9CD
:10519000F82206A92248FCF791FF68B92D4B00229E
:1051A0001146022011F0EEF903E42B4B00221146C8
:1051B000022011F0E7F9E5E7284B00221146022012
:1051C00011F0E0F9FFF7F5BB254B00221146022054
:1051D00011F0D8F9FFF7EDBB0E4B0022114602206B
:1051E00011F0D0F9224B00221146022011F0CAF929
:1051F000002709E06368DB5D00931E4B0022114627
:10520000022011F0BFF901376278BA42F2DC0123C3
:10521000002738E028CF0108F0CF010820D001088E
:1052200000F003085000002054000020A0BB0D0037
:105230004C00002040000020E0090020140B00205A
:10524000E4090020440000206010002048000020F5
:1052500054D00108B4C80108CCC40108D8C801085A
:10526000F8C8010880D0010828100020B8D0010833
:105270005CCF010880C20108F0D001086168C95CF8
:1052800041EA072701339A42F8DC0097AC4B002231
:105290001146022011F076F9F822AA4906A8FCF777
:1052A00029FFD0B9ADF802713846FBF77FFDA64B58
:1052B00018604FF40061A348FCF738FFE0B9F8220A
:1052C00006A9A048FCF7FAFE70B9A04B00221146CF
:1052D000022011F057F9FFF771BB9D4B00221146D8
:1052E000022011F04FF9E4E79A4B00221146022008
:1052F00011F048F9FFF762BB974B002211460220DC
:1053000011F040F9FFF75ABB944B002211460220DE
:1053100011F038F9924B00221146022011F032F9B7
:10532000002709E06368DB5D00938E4B0022114685
:10533000022011F027F901376278BA42F2DC01232A
:10534000002704E06168C95C41EA072701339A42FB
:10535000F8DC0097844B00221146022011F012F96C
:10536000F822784906A8FCF7C5FED0B9ADF804715B
:105370003846FBF71BFD7D4B18604FF40061714808
:10538000FCF7D4FEE0B9F82206A96E48FCF796FEB9
:1053900070B96E4B00221146022011F0F3F8FFF7AE
:1053A00012BB6B4B00221146022011F0EBF8E4E730
:1053B000684B00221146022011F0E4F8FFF703BB0E
:1053C000654B00221146022011F0DCF8FFF7FBBA12
:1053D000624B00221146022011F0D4F8604B0022EB
:1053E0001146022011F0CEF8002709E06368DB5D6A
:1053F00000935C4B00221146022011F0C3F80137E4
:105400006278BA42F2DC0123002704E06168C95CDB
:1054100041EA072701339A42F8DC0097544B0022F7
:105420001146022011F0AEF8F822464906A8FCF712
:1054300061FEB8B98DF807714E4B1F604FF40061E3
:105440004048FCF773FEE0B9F82206A93D48FCF796
:1054500035FE70B93D4B00221146022011F092F842
:10546000FFF7B6BA3A4B00221146022011F08AF833
:10547000E4E7384B00221146022011F083F8FFF7D1
:10548000A7BA354B00221146022011F07BF8FFF736
:105490009FBA6368DB5D0093324B00221146022005
:1054A00011F070F801376278BA42F2DC012300276C
:1054B00004E06168C95C41EA072701339A42F8DCDD
:1054C00000972B4B00221146022011F05BF8F822C6
:1054D0001C4906A8FCF70EFEB0B98DF80871264BE2
:1054E0001F604FF400611748FCF720FED0B9F82286
:1054F00006A91448FCF7E2FD68B9144B00221146D6
:10550000022011F03FF815E0114B00221146022055
:1055100011F038F8E5E70F4B00221146022011F098
:1055200031F807E00C4B00221146022011F02AF856
:1055300000E000262B7C052B20D944B0BDE8F08785
:1055400010D1010800F0030850000020B4C8010881
:10555000CCC40108D8C80108F8C8010828CF010840
:105560005CCF010880C201083CD101085400002032
:1055700064D10108140B0020E409002095F90820EB
:1055800095F9091095F90A0005900491074951F819
:105590002330039302920196EB680093044B0022A0
:1055A0001146032010F0EEFFC7E7704734E0010812
:1055B00084D1010838B51E4C01224FF40041204629
:1055C00003F0F8FD01224FF40071204603F0F2FDD4
:1055D00001224FF40061204603F0ECFD154811F064
:1055E00023FB07F05DFE48B1134B00221146022059
:1055F00010F0C8FF114811F071FB38BD104B0022AC
:105600001146022010F0BEFF0E4C012525700E4BF6
:1056100000221146022010F0B5FF0C4807F0B8FC3C
:105620002946207807F070FA024811F057FBE1E7AD
:1056300000040048FC0F0020CCD10108CC0F002052
:10564000ECD101085800002000D20108B000002071
:1056500008B507F0B7FE10F1080F03D0B0F1FF3F17
:1056600007D008BD064B00221146022010F08AFF29
:10567000F7E7044B00221146022010F083FFF0E709
:1056800020D2010838D2010808B54FF40061024861
:1056900003F095FD08BD00BF0004004870B586B05A
:1056A0000390354B00221146022010F06BFF0020C2
:1056B000FCF7FEFCA0B9314C314B9C423AD2082297
:1056C000214604A8FCF716FD054690B9049A059BEF
:1056D000B3F1FF3F08BFB2F1FF3F14D00834EBE74E
:1056E000284B00221146022010F04CFF4FF0FF35EE
:1056F00006E00094244B00221146022010F042FFE5
:10570000284606B070BD082203A92046FCF7D6FC47
:10571000054638B900941D4B00221146022010F0B6
:1057200031FFEDE700941A4B00221146022010F0E1
:1057300029FFE5E7174B00221146022010F022FF57
:105740004FF400610D48FCF7F1FC054660B9039881
:10575000FFF7A4FF05460028D2D00F4B00221146C8
:10576000022010F00FFFCBE70C4B00221146022065
:1057700010F008FFC4E700BF50D2010800B00308D2
:1057800000B8030870D2010898D20108E0D20108DD
:10579000BCD201080CD3010844D3010824D301086A
:1057A00000284ED030B583B0044690F906305BBB7C
:1057B000244811F039FA00224FF40061224803F026
:1057C000F9FC224B00221146022010F0DBFE204D96
:1057D0002B6800931F4B00221146022010F0D2FECE
:1057E0002868FFF75BFFE379012B06D01A4B0022F4
:1057F0001146022010F0C6FE15E0184B002211469B
:10580000022010F0BFFE0EE0154B002211460220D0
:1058100010F0B8FE0E4B1B680093124B002211468D
:10582000022010F0AFFE94F9043094F905200192A3
:1058300000930D4B00221146032010F0A3FE03B08D
:1058400030BD7047000F00200004004880D30108DD
:105850003010002098D30108DCD30108BCD3010824
:10586000FCD3010818D401082CD4010808B5C2786B
:10587000007940EA0220FBF795FA0249FBF79EFB0C
:1058800008BD00BF00007A442DE9F047054689466F
:105890004FF0000812E001344C450EDA55F828604C
:1058A00055F8247039463046FBF790FC0028F2D0BA
:1058B00045F8287045F82460EDE7D04609F1FF333C
:1058C000434503DD08F1010A5446E5E7BDE8F087EA
:1058D00011F0010F12D108B501EBD1714A106FF030
:1058E000404303EB610350F8221050F82300FBF70C
:1058F000A9F94FF07C51FBF7ADFA08BD01EBD1716E
:10590000491050F821007047F8B507460E460025AB
:10591000002406E057F825102046FBF793F90446CB
:105920000135B542F6DB3046FBF740FA014620462A
:10593000FBF744FBF8BD000030B5BFB0454C234633
:1059400000221146022010F01DFE434B002211469A
:10595000022010F017FE234600221146022010F00C
:1059600011FE3E4B00221146022010F00BFEF822E1
:105970003B496846FCF7BEFB002848D10F23ADF831
:10598000EA30384B384A1A603220FCF7A9FF00246D
:10599000ADF8EC40354B00221A603220FCF7A0FF36
:1059A000334A0023CDE93623324D314B2B60322070
:1059B000FCF796FF0423ADF8E8302F4A13602F4B15
:1059C0001C803220FCF78CFF0523ADF8F2302C4C04
:1059D0002360142011F08AFB2A4B18602B68226880
:1059E00093FBF2F3284A13604FF400611C48FCF764
:1059F0009DFBD0B9F82269461948FCF75FFB68B9EE
:105A0000224B00221146022010F0BCFD13E0204B77
:105A100000221146022010F0B5FDE5E71D4B0022E3
:105A20001146022010F0AEFD05E01B4B002211468E
:105A3000022010F0A7FD4FF4FA70FCF751FF02F0BE
:105A400083FE044B00221146022010F09BFD3FB064
:105A500030BD00BF28CF0108F0CF010820D00108D9
:105A600000F00308500000200000704154000020A6
:105A7000A0BB0D004C00002040000020E0090020E9
:105A8000440000206010002048000020B4C8010835
:105A9000CCC40108D8C80108F8C801082DE9F043B2
:105AA0009FB002AF012240214FF0904003F082FBF3
:105AB000012280214FF0904003F07CFB40F2DC504B
:105AC000FCF70EFF6E4A3B1D92E8030083E80300DB
:105AD0006C4B1B689B00073323F00703ADEB030DF2
