:020000040800F2
:1000000000800020F16E000837260008392600081D
:100010003B2600083D2600083F260008000000009F
:100020000000000000000000000000004126000861
:100030004326000800000000452600084726000867
:10004000416F0008416F000849260008416F000811
:10005000416F0008416F0008592600086326000818
:10006000416F0008416F0008416F0008416F0008B0
:10007000416F0008416F0008416F00086D260008BD
:10008000416F0008416F0008416F0008416F000890
:10009000416F0008416F00087D260008416F00088D
:1000A000416F0008416F0008416F0008416F000870
:1000B000416F0008416F0008416F0008416F000860
:1000C000416F0008416F0008416F0008416F000850
:1000D0008926000899260008416F0008416F000832
:1000E000416F0008416F0008A9260008416F000811
:1000F000416F0008416F0008416F0008416F000820
:10010000416F0008416F0008B9260008416F0008E0
:10011000416F0008416F0008416F0008416F0008FF
:10012000416F0008416F0008416F0008416F0008EF
:08013000416F0008416F000857
:1001400010B5054C237833B9044B13B10448AFF311
:1001500000800123237010BD300300200000000048
:1001600040B5010808B5034B1BB103490348AFF381
:10017000008008BD000000003403002040B50108E5
:1001800001F0FF01102A2BDB10F0070F08D010F848
:10019000013B013A8B422DD010F0070F42B3F6D14C
:1001A000F0B441EA012141EA014122F007047FF065
:1001B00000070023F0E80256083C85EA010586EABC
:1001C000010685FA47F5A3FA87F586FA47F6A5FAF8
:1001D00087F68EB9EED1F0BC01F0FF0102F0070204
:1001E00032B110F8013B013A83EA010313B1F8D1AF
:1001F0000020704701387047002D06BF3546033890
:10020000073815F0010F07D1013015F4807F02BFC8
:10021000013015F4C03F0130F0BC0138704700BF19
:10022000034613F8012B002AFBD1181A0138704736
:1002300081F0004102E000BF83F0004330B54FEA97
:1002400041044FEA430594EA050F08BF90EA020F04
:100250001FBF54EA000C55EA020C7FEA645C7FEA97
:10026000655C00F0E2804FEA5454D4EB5555B8BFBA
:100270006D420CDD2C4480EA020281EA030382EA2B
:10028000000083EA010180EA020281EA0303362DBD
:1002900088BF30BD11F0004F4FEA01314FF4801C90
:1002A0004CEA113102D0404261EB410113F0004FA2
:1002B0004FEA03334CEA133302D0524263EB430359
:1002C00094EA050F00F0A780A4F10104D5F1200EF7
:1002D0000DDB02FA0EFC22FA05F2801841F1000152
:1002E00003FA0EF2801843FA05F359410EE0A5F126
:1002F00020050EF1200E012A03FA0EFC28BF4CF057
:10030000020C43FA05F3C01851EBE37101F000450C
:1003100007D54FF0000EDCF1000C7EEB00006EEB19
:100320000101B1F5801F1BD3B1F5001F0CD34908A3
:100330005FEA30004FEA3C0C04F101044FEA4452FA
:1003400012F5800F80F09A80BCF1004F08BF5FEA81
:10035000500C50F1000041EB045141EA050130BD61
:100360005FEA4C0C404141EB0101013C28BFB1F573
:10037000801FE9D291F0000F04BF01460020B1FABE
:1003800081F308BF2033A3F10B03B3F120020CDA91
:100390000C3208DD02F1140CC2F10C0201FA0CF06F
:1003A00021FA02F10CE002F11402D8BFC2F1200CD4
:1003B00001FA02F120FA0CFCDCBF41EA0C0190408A
:1003C000E41AA2BF01EB0451294330BD6FEA0404D3
:1003D0001F3C1CDA0C340EDC04F11404C4F12002BE
:1003E00020FA04F001FA02F340EA030021FA04F3D0
:1003F00045EA030130BDC4F10C04C4F1200220FA27
:1004000002F001FA04F340EA0300294630BD21FA64
:1004100004F0294630BD94F0000F83F4801306BF2A
:1004200081F480110134013D4EE77FEA645C18BF1E
:100430007FEA655C29D094EA050F08BF90EA020FB5
:1004400005D054EA000C04BF1946104630BD91EAAD
:10045000030F1EBF0021002030BD5FEA545C05D1B0
:100460004000494128BF41F0004130BD14F58004EF
:100470003CBF01F5801130BD01F0004545F0FE4163
:1004800041F470014FF0000030BD7FEA645C1ABF98
:10049000194610467FEA655C1CBF0B46024650EACF
:1004A000013406BF52EA033591EA030F41F40021FB
:1004B00030BD00BF90F0000F04BF0021704730B581
:1004C0004FF4806404F132044FF000054FF0000156
:1004D00050E700BF90F0000F04BF0021704730B517
:1004E0004FF4806404F1320410F0004548BF4042EC
:1004F0004FF000013EE700BF42004FEAE2014FEA41
:1005000031014FEA02701FBF12F07F4393F07F4F1B
:1005100081F06051704732F07F4208BF704793F01E
:100520007F4F04BF41F40021704730B54FF4607431
:1005300001F0004521F000411CE700BF50EA010234
:1005400008BF704730B54FF000050AE050EA0102DD
:1005500008BF704730B511F0004502D5404261EB4D
:1005600041014FF4806404F132045FEA915C3FF48E
:10057000D8AE4FF003025FEADC0C18BF03325FEA2B
:10058000DC0C18BF033202EBDC02C2F1200300FADC
:1005900003FC20FA02F001FA03FE40EA0E0021FA01
:1005A00002F11444BDE600BF70B54FF0FF0C4CF4EF
:1005B000E06C1CEA11541DBF1CEA135594EA0C0FA1
:1005C00095EA0C0F00F0DEF82C4481EA030621EADC
:1005D0004C5123EA4C5350EA013518BF52EA033517
:1005E00041F4801143F4801338D0A0FB02CE4FF0C9
:1005F0000005E1FB02E506F00042E0FB03E54FF0F9
:100600000006E1FB03569CF0000F18BF4EF0010EF0
:10061000A4F1FF04B6F5007F64F5407404D25FEAEC
:100620004E0E6D4146EB060642EAC62141EA55519F
:100630004FEAC52040EA5E504FEACE2EB4F1FD0CE1
:1006400088BFBCF5E06F1ED8BEF1004F08BF5FEA5F
:10065000500E50F1000041EB045170BD06F0004611
:1006600046EA010140EA020081EA0301B4EB5C04BE
:10067000C2BFD4EB0C0541EA045170BD41F48011B6
:100680004FF0000E013C00F3AB8014F1360FDEBFDB
:10069000002001F0004170BDC4F10004203C35DAB7
:1006A0000C341BDC04F11404C4F1200500FA05F33A
:1006B00020FA04F001FA05F240EA020001F00042DB
:1006C00021F0004110EBD37021FA04F642EB060151
:1006D0005EEA430E08BF20EAD37070BDC4F10C047B
:1006E000C4F1200500FA04F320FA05F001FA04F23F
:1006F00040EA020001F0004110EBD37041F100012B
:100700005EEA430E08BF20EAD37070BDC4F1200535
:1007100000FA05F24EEA020E20FA04F301FA05F29D
:1007200043EA020321FA04F001F0004121FA04F245
:1007300020EA020000EBD3705EEA430E08BF20EA15
:10074000D37070BD94F0000F0FD101F0004640004F
:1007500041EB010111F4801F08BF013CF7D041EAD1
:10076000060195F0000F18BF704703F000465200D5
:1007700043EB030313F4801F08BF013DF7D043EAA6
:100780000603704794EA0C0F0CEA135518BF95EA5C
:100790000C0F0CD050EA410618BF52EA4306D1D1E3
:1007A00081EA030101F000414FF0000070BD50EA02
:1007B000410606BF1046194652EA430619D094EA8C
:1007C0000C0F02D150EA013613D195EA0C0F05D176
:1007D00052EA03361CBF104619460AD181EA0301CA
:1007E00001F0004141F0FE4141F470014FF0000082
:1007F00070BD41F0FE4141F4780170BD70B54FF01D
:10080000FF0C4CF4E06C1CEA11541DBF1CEA13559C
:1008100094EA0C0F95EA0C0F00F0A7F8A4EB05047E
:1008200081EA030E52EA03354FEA013100F0888075
:100830004FEA03334FF0805545EA131343EA12633E
:100840004FEA022245EA111545EA10654FEA0026F3
:100850000EF000419D4208BF964244F1FD0404F5AC
:10086000407402D25B084FEA3202B61A65EB030508
:100870005B084FEA32024FF480104FF4002CB6EBC5
:10088000020E75EB030E22BFB61A754640EA0C0045
:100890005B084FEA3202B6EB020E75EB030E22BF85
:1008A000B61A754640EA5C005B084FEA3202B6EBC6
:1008B000020E75EB030E22BFB61A754640EA9C0085
:1008C0005B084FEA3202B6EB020E75EB030E22BF55
:1008D000B61A754640EADC0055EA060E18D04FEA13
:1008E000051545EA16754FEA06164FEAC30343EAB3
:1008F00052734FEAC2025FEA1C1CC0D111F4801F80
:100900000BD141EA00014FF000004FF0004CB6E778
:1009100011F4801F04BF01430020B4F1FD0C88BF17
:10092000BCF5E06F3FF6AFAEB5EB030C04BFB6EB22
:10093000020C5FEA500C50F1000041EB045170BD15
:100940000EF0004E4EEA113114EB5C04C2BFD4EB42
:100950000C0541EA045170BD41F480114FF0000EC6
:10096000013C90E645EA060E8DE60CEA135594EA42
:100970000C0F08BF95EA0C0F3FF43BAF94EA0C0F45
:100980000AD150EA01347FF434AF95EA0C0F7FF4BA
:1009900025AF104619462CE795EA0C0F06D152EA0E
:1009A00003353FF4FDAE1046194622E750EA4106F2
:1009B00018BF52EA43067FF4C5AE50EA41047FF403
:1009C0000DAF52EA43057FF4EBAE12E74FF0FF3C68
:1009D00006E000BF4FF0010C02E000BF4FF0010C39
:1009E0004DF804CD4FEA410C7FEA6C5C4FEA430CB2
:1009F00018BF7FEA6C5C1BD001B050EA410C0CBF01
:100A000052EA430C91EA030F02BF90EA020F002062
:100A1000704710F1000F91EA030F58BF994208BFC9
:100A200090422CBFD8176FEAE37040F00100704786
:100A30004FEA410C7FEA6C5C02D150EA013C07D1DD
:100A40004FEA430C7FEA6C5CD6D152EA033CD3D028
:100A50005DF8040B704700BF8446104662468C4622
:100A60001946634600E000BF01B5FFF7B7FF002855
:100A700048BF10F1000F01BD4DF808EDFFF7F4FF7E
:100A80000CBF012000205DF808FB00BF4DF808ED09
:100A9000FFF7EAFF34BF012000205DF808FB00BF2C
:100AA0004DF808EDFFF7E0FF94BF012000205DF84E
:100AB00008FB00BF4DF808EDFFF7CEFF94BF012003
:100AC00000205DF808FB00BF4DF808EDFFF7C4FFFC
:100AD00034BF012000205DF808FB00BF4FEA410C45
:100AE0007FEA6C5C02D150EA013C0AD14FEA430C28
:100AF0007FEA6C5C02D152EA033C02D14FF0000065
:100B000070474FF0010070474FEA410212F50012A2
:100B100015D211D56FF47873B3EB625212D94FEA44
:100B2000C12343F0004343EA505311F0004F23FA2E
:100B300002F018BF404270474FF00000704750EA83
:100B4000013005D111F0004008BF6FF00040704740
:100B50004FF00000704700BF4A0011D212F500129A
:100B600011D20DD56FF47873B3EB62520ED44FEA05
:100B7000C12343F0004343EA505323FA02F0704785
:100B80004FF00000704750EA013002D14FF0FF30C3
:100B900070474FF0000070474FEA4102B2F1E04366
:100BA00024BFB3F5001CDCF1FE5C0DD901F0004C54
:100BB0004FEAC0024CEA5070B2F1004F40EB8300A4
:100BC00008BF20F00100704711F0804F21D113F1D0
:100BD0003872BCBF01F00040704741F480114FEA09
:100BE0005252C2F11802C2F1200C10FA0CF320FA92
:100BF00002F018BF40F001004FEAC1234FEAD323AF
:100C000003FA0CFC40EA0C0023FA02F34FEA430318
:100C1000CCE77FEA625307D150EA01331EBF4FF0A1
:100C2000FE4040F44000704701F0004040F0FE40BC
:100C300040F40000704700BF80F0004002E000BFB9
:100C400081F0004142001FBF5FEA410392EA030FB7
:100C50007FEA226C7FEA236C6AD04FEA1262D2EB01
:100C60001363C1BFD218414048404140B8BF5B4206
:100C7000192B88BF704710F0004F40F4000020F09F
:100C80007F4018BF404211F0004F41F4000121F0B5
:100C90007F4118BF494292EA030F3FD0A2F10102FF
:100CA00041FA03FC10EB0C00C3F1200301FA03F13D
:100CB00000F0004302D5494260EB4000B0F5000F60
:100CC00013D3B0F1807F06D340084FEA310102F11F
:100CD0000102FE2A51D2B1F1004F40EBC25008BFD1
:100CE00020F0010040EA03007047490040EB00009B
:100CF000013A28BFB0F5000FEDD2B0FA80FCACF19C
:100D0000080CB2EB0C0200FA0CF0AABF00EBC250C8
:100D100052421843BCBFD0401843704792F0000FB6
:100D200081F4000106BF80F400000132013BB5E709
:100D30004FEA41037FEA226C18BF7FEA236C21D07F
:100D400092EA030F04D092F0000F08BF08467047E4
:100D500090EA010F1CBF0020704712F07F4F04D1B2
:100D6000400028BF40F00040704712F100723CBFC5
:100D700000F50000704700F0004343F0FE4040F4EF
:100D8000000070477FEA226216BF08467FEA2363AD
:100D90000146420206BF5FEA412390EA010F40F498
:100DA000800070474FF0000304E000BF10F00043E4
:100DB00048BF40425FEA000C08BF704743F09643CB
:100DC00001464FF000001CE050EA010208BF7047E6
:100DD0004FF000030AE000BF50EA010208BF70476D
:100DE00011F0004302D5404261EB41015FEA010C82
:100DF00002BF84460146002043F0B64308BFA3F17A
:100E00008053A3F50003BCFA8CF2083AA3EBC2535B
:100E100010DB01FA02FC634400FA02FCC2F120027A
:100E2000BCF1004F20FA02F243EB020008BF20F0B1
:100E30000100704702F1200201FA02FCC2F1200217
:100E400050EA4C0021FA02F243EB020008BF20EA0C
:100E5000DC7070474FF0FF0C1CEAD0521EBF1CEA3A
:100E6000D15392EA0C0F93EA0C0F6FD01A4480EA28
:100E7000010C400218BF5FEA41211ED04FF0006311
:100E800043EA501043EA5111A0FB01310CF000403D
:100E9000B1F5000F3EBF490041EAD3715B0040EA63
:100EA000010062F17F02FD2A1DD8B3F1004F40EB33
:100EB000C25008BF20F00100704790F0000F0CF006
:100EC000004C08BF49024CEA502040EA51207F3ACA
:100ED000C2BFD2F1FF0340EAC250704740F40000A5
:100EE0004FF00003013A5DDC12F1190FDCBF00F096
:100EF00000407047C2F10002410021FA02F1C2F144
:100F0000200200FA02FC5FEA310040F1000053EADF
:100F10004C0308BF20EADC70704792F0000F00F02D
:100F2000004C02BF400010F4000F013AF9D040EA33
:100F30000C0093F0000F01F0004C02BF490011F4C7
:100F4000000F013BF9D041EA0C018FE70CEAD153C5
:100F500092EA0C0F18BF93EA0C0F0AD030F0004C45
:100F600018BF31F0004CD8D180EA010000F00040F9
:100F7000704790F0000F17BF90F0004F084691F0B7
:100F8000000F91F0004F14D092EA0C0F01D14202F1
:100F90000FD193EA0C0F03D14B0218BF084608D1BA
:100FA00080EA010000F0004040F0FE4040F4000004
:100FB000704740F0FE4040F4400070474FF0FF0C97
:100FC0001CEAD0521EBF1CEAD15392EA0C0F93EADE
:100FD0000C0F69D0A2EB030280EA010C49024FEA30
:100FE000402037D04FF0805343EA111143EA1013E9
:100FF0000CF000408B4238BF5B0042F17D024FF4A1
:10100000000C8B4224BF5B1A40EA0C00B3EB510F7B
:1010100024BFA3EB510340EA5C00B3EB910F24BF64
:10102000A3EB910340EA9C00B3EBD10F24BFA3EBE9
:10103000D10340EADC001B0118BF5FEA1C1CE0D1B1
:10104000FD2A3FF650AF8B4240EBC25008BF20F064
:10105000010070470CF0004C4CEA50207F32C2BFB8
:10106000D2F1FF0340EAC250704740F400004FF055
:101070000003013A37E792F0000F00F0004C02BF86
:10108000400010F4000F013AF9D040EA0C0093F050
:10109000000F01F0004C02BF490011F4000F013BAA
:1010A000F9D041EA0C0195E70CEAD15392EA0C0F12
:1010B00008D142027FF47DAF93EA0C0F7FF470AF4A
:1010C000084676E793EA0C0F04D14B023FF44CAF8D
:1010D00008466EE730F0004C18BF31F0004CCAD122
:1010E00030F000427FF45CAF31F000437FF43CAF5E
:1010F0005FE700BF4FF0FF3C06E000BF4FF0010C80
:1011000002E000BF4FF0010C4DF804CD4FEA400261
:101110004FEA41037FEA226C18BF7FEA236C11D0AB
:1011200001B052EA530C18BF90EA010F58BFB2EB5E
:10113000030088BFC81738BF6FEAE17018BF40F0DE
:10114000010070477FEA226C02D15FEA402C05D192
:101150007FEA236CE4D15FEA412CE1D05DF8040B17
:10116000704700BF844608466146FFE70FB5FFF7AA
:10117000C9FF002848BF10F1000F0FBD4DF808ED62
:10118000FFF7F4FF0CBF012000205DF808FB00BF53
:101190004DF808EDFFF7EAFF34BF012000205DF8AD
:1011A00008FB00BF4DF808EDFFF7E0FF94BF0120FA
:1011B00000205DF808FB00BF4DF808EDFFF7D2FFF7
:1011C00094BF012000205DF808FB00BF4DF808ED3A
:1011D000FFF7C8FF34BF012000205DF808FB00BF07
:1011E0004FEA4002B2F1FE4F0FD34FF09E03B3EB34
:1011F00012620DD94FEA002343F0004310F0004F74
:1012000023FA02F018BF404270474FF000007047C9
:1012100012F1610F01D1420205D110F0004008BF68
:101220006FF0004070474FF00000704742000ED250
:10123000B2F1FE4F0BD34FF09E03B3EB126209D411
:101240004FEA002343F0004323FA02F070474FF0C7
:101250000000704712F1610F01D1420202D14FF03C
:10126000FF3070474FF00000704700BF53B94AB9D4
:10127000002908BF00281CBF4FF0FF314FF0FF309E
:1012800000F0A8B9ADF1080C6DE904CE00F03EF80D
:10129000DDF804E0DDE9022304B0704738B5054607
:1012A0000C462846214600220023FFF7EFFB28B911
:1012B00028462146BDE8384000F00AB8284604F127
:1012C000004100F005F8404261EB410138BD00BF2C
:1012D000D0B50C4B002206460F46FFF765F9FFF725
:1012E0003BFC0446FFF7E6F8074B0022FFF75CF9EA
:1012F00002460B4630463946FEF79EFFFFF72CFCB0
:101300002146D0BD0000F03D0000F0412DE9F0473E
:10131000089E0D4604460F46002B4AD18A42944649
:1013200065D9B2FA82F343B102FA03FCC3F1200299
:101330009F4020FA02F217439C404FEA1C4E1FFACE
:101340008CF5B7FBFEF1220C0EFB117742EA074247
:1013500001FB05F090420AD91CEB020201F1FF37B4
:1013600080F01B81904240F2188102396244121AC7
:10137000A4B2B2FBFEF00EFB102244EA024400FBD2
:1013800005F5A5420AD91CEB040400F1FF3280F0F8
:101390000681A54240F203816444023840EA0140DC
:1013A000641B00211EB1DC400023C6E90043BDE8F8
:1013B000F0878B4208D9002E00F0EC800021C6E9AE
:1013C00000050846BDE8F087B3FA83F1002949D14A
:1013D000AB4202D3824200F2F780841A65EB03022B
:1013E00001201746002EE2D0C6E90047DFE702B928
:1013F000FFDEB2FA82F3002B40F08F808A1A4FEAA8
:101400001C471FFA8CFE0121B2FBF7F507FB1520E4
:10141000220C42EA00420EFB05F0904208D91CEB78
:10142000020205F1FF3802D2904200F2CA8045461E
:10143000121AA4B2B2FBF7F007FB102244EA0244EE
:101440000EFB00FEA64508D91CEB040400F1FF3298
:1014500002D2A64500F2BA801046A4EB0E0440EA80
:1014600005409FE7C1F120078B4022FA07FC4CEAB8
:10147000030C05FA01F420FA07F3FD40234300FAB8
:1014800001F94FEA1C401FFA8CFEB5FBF0F81C0C6A
:1014900000FB185544EA054408FB0EF5A54202FA84
:1014A00001F20BD91CEB040408F1FF3A80F08780AD
:1014B000A54240F28480A8F102086444641B9DB2F6
:1014C000B4FBF0F300FB134445EA044403FB0EFEB7
:1014D000A64508D91CEB040403F1FF306BD2A645E6
:1014E00069D9023B644443EA0840A0FB0283A4EBB1
:1014F0000E049C42C6461D4655D352D056B1B9EB98
:101500000E0364EB050404FA07F7CB40CC401F43FD
:10151000C6E900740021BDE8F087C3F1200102FA9A
:1015200003FC20FA01F225FA01F19D402A434FEA1B
:101530001C471FFA8CFEB1FBF7F007FB1015110CCE
:1015400041EA054100FB0EF58D4204FA03F408D987
:101550001CEB010100F1FF382FD28D422DD902384A
:101560006144491B92B2B1FBF7F507FB151142EA42
:10157000014205FB0EF1914208D91CEB020205F174
:10158000FF3816D2914214D9023D6244521A45EAFC
:10159000004139E73146304609E73946E7E610466B
:1015A000FCE6C145AAD2B8EB020E63EB0C0501388C
:1015B000A4E74546EAE7034695E74046D1E7D0462B
:1015C0007CE7023D624433E708460BE76444023897
:1015D00043E700BF704700BF70B5ADF5747D0646A8
:1015E00000248DF800408DF801408DF803408DF8FF
:1015F00004408DF802401FE0E500C4EBC400C000C9
:101600000830684420220021013016F04FF82B1BCF
:101610000DEBC30308221A72002283F82920002050
:101620000021C3E90C010134C4EBC403DB000DF855
:1016300003200A2001F054F90F2CDDDD013E4FF4A8
:101640000061164B53F8260000F070FDE0B9144B12
:1016500000221146022014F06DF94FF474726946AD
:101660000E4B53F8260000F029FD30B90D4B002237
:101670001146022014F05EF90CE00B4B00221146DB
:10168000022014F057F905E0084B00221146022011
:1016900014F050F90DF5747D70BD00BF00000020FE
:1016A000CCB60108D8B60108E4B60108F0B60108C6
:1016B00084B030B585B008AC84E80F009DF8C853FD
:1016C000644B00221146022014F034F900240CE08F
:1016D00004F120036B4493F8883300935E4B00229F
:1016E0001146022014F026F90134A542F0DC5B4BD0
:1016F00000221146022014F01DF99DF822300093BB
:10170000574B00221146022014F014F99DF82330A3
:101710000093544B00221146022014F00BF99DF85F
:1017200024300093504B00221146022014F002F99D
:101730009DF82030012B00F086804C4B00934C4BE1
:1017400000221146022014F0F5F89DF8C9330093E9
:10175000484B00221146022014F0ECF89DF8CA33E1
:101760000093454B00221146022014F0E3F8BDF827
:10177000D6330093414B00221146022014F0DAF8D0
:101780009DF8D8339DF8D9239DF8DA139DF8DB0333
:101790000390029101920093394B002211460220DE
:1017A00014F0C8F89DF8DC339DF8DD239DF8DE13B6
:1017B0009DF8DF030390029101920093314B0022C8
:1017C0001146022014F0B6F89DF8E0339DF8E123AD
:1017D0009DF8E2139DF8E3030390029101920093B8
:1017E000294B00221146022014F0A4F89DF8E4339E
:1017F0009DF8E5239DF8E6139DF8E7030390029119
:1018000001920093214B00221146022014F092F81D
:101810009DF8E833CBB11E4B00931E4B00221146BE
:10182000022014F087F89DF8D43383B1184B00934D
:10183000194B00221146022014F07CF805B0BDE8D7
:10184000304004B07047124B78E7084BE4E7074B91
:10185000EDE700BF0CB7010830B6010888CC0108DD
:1018600020B7010830B7010840B7010804B70108E4
:1018700050B7010868B7010878B7010890B70108A8
:10188000ACB70108D0B70108F8B7010824B80108BF
:10189000FCB6010850B8010864B8010830B5ADF5D0
:1018A000777D04464FF47472434B53F8201002A81E
:1018B00000F020FC002877D106238DF8B0333F4B91
:1018C00093E803000090ADF80410002307E01DF832
:1018D000031002AA1A4482F888130133DBB2052BE5
:1018E000F5D900238DF8B1338DF8B233ADF8BE339E
:1018F000194663F3070163F30F2163F3174163F3A1
:101900001F611A4663F3070263F30F2263F3174262
:1019100063F31F621D4663F3070563F30F2563F34B
:10192000174563F31F65184663F3070063F30F2041
:1019300063F3174063F31F60F095F190F291F39217
:101940008DF8D0338DF8D1338DF8BC334FF400616E
:10195000194B53F8240000F0E9FBE0B9184B0022C2
:101960001146022013F0E6FF4FF4747202A9124BE5
:1019700053F8240000F0A2FB30B9124B00221146AC
:10198000022013F0D7FF0CE00F4B0022114602207B
:1019900013F0D0FF05E00D4B00221146022013F09A
:1019A000C9FF0DF5777D30BD094B0022114602209D
:1019B00013F0C0FFF5E700BF0000002058B5010894
:1019C000CCB60108D8B60108E4B60108F0B60108A3
:1019D0007CB8010810B5ADF5F26D04464FF4747291
:1019E000114B53F82010F0A800F084FBA0B900942C
:1019F0000E4B00221146022013F09CFFF0AC4FF476
:101A00007072F4A9684615F0F2FE94E80F00FFF733
:101A10004FFE0DF5F26D10BD054B00221146022060
:101A200013F088FFF5E700BF0000002094B801081C
:101A30007CB8010800B583B001904FF0FF3301225C
:101A400001A9034809F0EBFE019803B05DF804FB1F
:101A5000500C00200F2800D970472DE9F84F0D4693
:101A600017461E46DFF8749000EB00144FEA840B13
:101A700009EB840444220021204615F017FE286853
:101A80006968AA68EB6849F80B006160A260E360CE
:101A900028696969AA69EB6920616161A261E361F2
:101AA00084F8207084F821609DF8283084F8223072
:101AB000BDF82C30E3850C9B23630D9B63630E9B69
:101AC000A3630F9BE3639DF8403084F840309DF89A
:101AD000443084F84130BDE8F88F00BF4C0300204B
:101AE00038B50D46144694220146034815F07FFE92
:101AF000024B1D601C7138BD940700208C0700202C
:101B000008B50A464FF0FF330146024809F087FE48
:101B100008BD00BF940700202DE9F84306460F4694
:101B2000144602F1020996220021484615F0BEFD36
:101B300000252580124C01222179206806F064FDE1
:101B4000DFF8408001220421404606F05DFD0122BD
:101B500049460D4809F0D2FF39463046FFF7D0FF1D
:101B60002A462179206806F04FFD2A460421404686
:101B700006F04AFD012000F0B3FEBDE8F88300BF87
:101B80008C070020000800489407002008B503884F
:101B9000952B0ED8084A1268516AC2189170013309
:101BA000038030F8021B01220144034809F0A6FF1C
:101BB00008BD00230380F4E79407002008B513480C
:101BC000134B03604FF00043436000238360C36006
:101BD0000361042242610376437683760122C26167
:101BE00080F820304362836280F82C304FF48052BA
:101BF000026307224263826380F83C30C36405F0CD
:101C00008BFA00B908BD00F0C1FBFBE728080020F3
:101C1000002401400268094B9A4200D0704782B00C
:101C20004FF0B0431A6E42F400721A661B6E03F452
:101C300000730193019B02B0704700BF0024014074
:101C40000268054B9A4200D070474FF0B042136EC5
:101C500023F400731366F7E70024014030B585B024
:101C600004460023019302930393FFF7A7FF16484E
:101C700005F08AFEF8B9019400230293039301A9A9
:101C8000114805F0C3FBC8B90F4805F081FDC0B984
:101C90000D4C4FF0FF31204605F056FB204605F075
:101CA00053FE204605F0AFFB0546204605F0ECFD4F
:101CB000284605B030BD00F069FBDCE700F066FBAC
:101CC000E2E700F063FBE3E728080020014B024A4B
:101CD0001A607047280800200024014008B50D480C
:101CE000FFF7BCFFA0B103460B4AB2F8AA004FF6BB
:101CF000FF72904207D040F6E44202FB00F0B0FBD6
:101D0000F3F080B205E00548B0FBF3F080B200E0EC
:101D1000002008BD002000B40075FF1FD8084C004B
:101D200010B582B00023ADF80630FFF7D7FF0446A8
:101D30002148FFF793FF214BB3F8C820B3F8A81050
:101D40008A421DD000FB04F39B081D48A0FB03033F
:101D5000C1EB5313642000FB03F3521A93FBF2F31D
:101D60001E331BB2ADF80630BDF806301BB21B02A5
:101D70001BB2ADF80630BDF8060000B202B010BDCF
:101D800004FB00F00F4BA3FB0023C41A03EB540326
:101D9000DB0A4FF47A7202FB03F3A3F53923A3F5B0
:101DA0000C63094A82FB0312DB17C3EBA2231E3329
:101DB0001BB2ADF80630D7E7001000B00075FF1F6A
:101DC0009F00EE0901011000AD8BDB6800B583B008
:101DD0004FF0B0439A6C42F004029A649A6C02F09D
:101DE00004020192019A9A6C42F001029A649B6C7F
:101DF00003F001030093009B002202210F2005F055
:101E000075FE0F2005F0AAFE03B05DF804FB002369
:101E100001E0083008338B420AD24268D0F800C093
:101E2000B2F1FF3F08BFBCF1FF3FF2D00120704785
:101E30000020704730B108B539B192B213F090FE6E
:101E4000002008BD6FF0050070476FF00500F8E74F
:101E500008B506F065F978B9094B9A6942F0404235
:101E60009A614CF2FA321A6106F072F908B9002050
:101E700008BD6FF00400FBE76FF00400F8E700BF57
:101E80000040005870B584B000230393002839D077
:101E90000E460446FFF7DCFF054610B1284604B0A5
:101EA00070BD06F03DF980BB0223009304F1784336
:101EB0001748D0F8E015174A02EA8121B3FBF1FC7C
:101EC00001FB1C33DB0A0193A11901F178410139AF
:101ED000D0F8E00502EA8022B1FBF2F002FB10111B
:101EE000C3EBD1230133029303A9684606F0FCF942
:101EF00018B1022804D06FF0010506F029F9CDE7EA
:101F00000125FAE76FF00505C8E76FF00405C5E79E
:101F10000070FF1F00FCFF032DE9F04F89B0039014
:101F200004920191002800F0A9808346002900F066
:101F3000A98012F0070F40F0A98010F00703059365
:101F400040F0A880FFF784FF029018B1029809B012
:101F5000BDE8F08F06F0E4F8002840F09F80039C75
:101F600004F178424F4BD3F8E0354F4901EA832121
:101F7000B2FBF1F301FB1322D30A0693049BE3188F
:101F800003F17843013BB3FBF1F001FB1033DB0AB3
:101F9000A3EBD22301330793012B06D9C4F30A091B
:101FA000C9F50069DDF818A02FE0DDF81090F9E719
:101FB000C846019F5C46059D454515D2EE19D6E9F8
:101FC00000232146012006F007F950B92068626815
:101FD000E95973689A4208BF884241D108340835EC
:101FE000EAE76FF003030293029B002B3FD1CB443F
:101FF000019B4B440193049BA3EB0909B9F5006FC6
:1020000028BF4FF400690AF1010A069B079A13449E
:1020100053452CD90AF58034E40249460398FFF76A
:10202000F6FE0028C4D0214B1868E8B14FF40062D6
:102030002146FFF7FFFE1D4B1B68CBF30A001FFA7A
:1020400089F20199184413F08BFD4FF4006120468A
:10205000FFF718FF70B9154B1F684FF40068AAE727
:102060006FF003030293BFE76FF00503029306F0DE
:102070006FF86BE76FF001030293F8E76FF0050369
:10208000029363E76FF0050302935FE76FF00503C8
:1020900002935BE76FF00503029357E76FF00403C9
:1020A000029353E70070FF1F00FCFF038C08002021
:1020B000014B1860002070478C080020B0F1006FC1
:1020C0000ED310B5094BD3F8E045094B03EA84233E
:1020D00003F10063013B984205D8FFF71DFF10BDD7
:1020E0004FF0FF3070474FF0FF30F8E70070FF1FF0
:1020F00000FCFF03B1F1006F0ED310B5094BD3F80C
:10210000E045094B03EA842303F10063013B994254
:1021100005D8FFF78FFE10BD4FF0FF3070474FF02E
:10212000FF30F8E70070FF1F00FCFF03B0F1006F05
:102130000ED308B5094BD3F8E025094B03EA8223F7
:1021400003F10063013B984205D8FFF79BFE08BDF1
:102150004FF0FF3070474FF0FF30F8E70070FF1F7F
:1021600000FCFF032DE9F04389B00024039404949C
:102170000594069407944FF0B043DA6C42F00102E4
:10218000DA64DA6C02F001020292029ADA6C42F02E
:102190000202DA64DA6C02F002020192019ADA6C4D
:1021A00042F00402DA64DB6C03F004030093009B4A
:1021B0003B4E22464FF43A41304606F025FADFF80E
:1021C000E48022460421404606F01EFA22464FF4DF
:1021D000F8714FF0904006F017FA4FF40A4303935A
:1021E0000125049505940223069303A9304606F0C1
:1021F000BBF80423039304950594069403A9404671
:1022000006F0B2F8032703974FF40419CDF81090A5
:10221000059503A94FF0904006F0A6F84FF44053FF
:10222000039304950594069703A9304606F09CF89D
:10223000062703970494059403A9304606F094F802
:1022400040230393CDF81090059503A9404606F06E
:102250008BF84FF4F873039304950594069403A93F
:102260004FF0904006F080F822462146384605F0AF
:102270003DFC384605F072FC22462146072005F059
:1022800035FC072005F06AFC22462146162005F0A1
:102290002DFC162005F062FC09B0BDE8F08300BFFC
:1022A000000400480008004808B51248124B0360BB
:1022B000124B4360002383600122C26003614361CB
:1022C0008361C361036206F06BFB50B900210948CA
:1022D00006F070FD40B90021064806F099FD30B9BE
:1022E00008BD00F053F8F1E700F050F8F3E700F014
:1022F0004DF8F5E790080020005400405D3E302086
:1023000010B596B0044600211191129113911491C9
:102310001591382203A815F0C9F92268194B9A4281
:1023200001D016B010BD402303934FF440330893FF
:1023300003A807F0B9FB08BB4FF0B044E36C43F0CF
:102340000203E364E36C03F002030293029BC023E5
:1023500011931223129300231393149304231593C0
:1023600011A9094806F000F8A36D43F40013A36512
:10237000A36D03F400130193019BD2E700F006F86C
:10238000DAE700BF005400400004004872B6FEE7E0
:1023900010B59AB04822002108A815F087F900244A
:1023A000019402940394049405940694079406F00F
:1023B0005BFD4FF0B042D2F8903023F01803C2F822
:1023C000903002F58062136823F4C06343F4007315
:1023D0001360136803F4C0630093009B24230893E5
:1023E00081230B93012310931194B0231293139420
:1023F00008A806F0D3FE70B94F230193002302937F
:102400000393049305930793022101A807F0F8F9B9
:1024100018B91AB010BDFFF7B9FFFFF7B7FF0000FA
:1024200010B582B004F02AFEFFF7B2FFFFF79AFE64
:1024300002F014F9FFF738FF00F060FC244C04228E
:1024400024492046FFF74CFB00F08CFC0122224976
:10245000224809F053FB01222149204609F04EFB96
:1024600000F032FA044600F02FFA012240214FF02A
:10247000904006F0C9F8012280214FF0904006F00C
:10248000C3F8F02217491848FFF734FEC0B9164BBD
:10249000D3E93823CDE90023144B00221146022052
:1024A00013F048FA00F010FA001B41F2873398420B
:1024B000F8D90F4B1B78002BF4D102F0D5F8F1E7D7
:1024C0000C4B00221146022013F034FAEAE700BF59
:1024D000BC0B002000080048D50D0020500C002047
:1024E000DC09002000F00308E8080020B8B8010863
:1024F000E00D00207CB8010800B58DB02C22002131
:1025000001A815F0D3F81948194B03601F23836005
:1025100000230361436183614FF08042C261036223
:102520004FF48073436207F0CFFCA8B90F4807F05F
:102530000DFEA0B900220892029206924FF00053BD
:1025400007934FF480730B9301A9084807F022FD0D
:1025500040B90DB05DF804FBFFF718FFE6E7FFF7A1
:1025600015FFE7E7FFF712FFF3E700BF080B0020B6
:102570000028004010B590B004463822002102A87F
:1025800015F094F822681A4B9A4201D010B010BD91
:102590004FF4803302934FF480730F9302A807F037
:1025A00083FA08BB4FF0B043D3F8902042F40042C6
:1025B000C3F890209A6D42F480629A659B6D03F493
:1025C00080630193019B00221146022005F08EFAE0
:1025D000022005F0C3FA002211462A2005F086FAEF
:1025E0002A2005F0BBFAD1E7FFF7D0FEDAE700BFFB
:1025F000002800407047704708B504F055FD0120E1
:10260000024BC3F8880006F093FC08BD0004005894
:1026100008B504F050FD08BD08B504F04CFD00F00D
:1026200017FD08BD08B504F03FFD0121002006F0AC
:1026300023FC08BD7047FEE7FEE7FEE7FEE7FEE786
:10264000704770477047704708B5024807F0AAFD09
:1026500008BD00BF080B002008B5012005F0E2FF0F
:1026600008BD08B5022005F0DDFF08BD08B5024829
:1026700005F0A4FC08BD00BF5C0B002008B540209D
:1026800005F0D0FF08BD000008B5024808F048FA80
:1026900008BD00BFBC0B002008B5024808F040FA96
:1026A00008BD00BF500C002008B5024807F086FBAB
:1026B00008BD00BF080B002008B5024808F026F846
:1026C00008BD00BF400B002008B505480823036083
:1026D00007F09EFD00B908BDFFF758FEFBE700BFFD
:1026E000400B002000B583B04FF0B0435A6E42F06B
:1026F00001025A665B6E03F001030193019B002205
:102700001146322005F0F2F9322005F027FA03B025
:102710005DF804FB0CB400B583B004AB53F8042B94
:10272000019313F0F7FD03B05DF804EB02B07047BE
:1027300030B585B004460D4602A813F05FFBBDF925
:102740000C300093029B054A10212046FFF7E2FF60
:102750002046FDF765FD288005B030BDF8B80108BA
:1027600010B54FF0B042936823F40043936013F028
:10277000C9FB01240D4B1C7000F0BCF813F066F887
:102780000B4813F07DF80B4B4FF400421A61022006
:1027900013F07CF8FFF79AFA00F014F913F086F9B9
:1027A0002146204613F0A2F910BD00BF4C0B0020BB
:1027B000312700080040005808B513F0ADF908BDF6
:1027C00008B5FFF78BFA40F6B83398420DD8B0F54C
:1027D000E16F0CD3A0F5E160C0EBC0104000054BE9
:1027E000A3FB0030C0F3C71000E0FE2008BD0020AE
:1027F000FCE700BFB5814E1B00B587B0684600F00E
:10280000C5F80198FEF7ECFC00B207B05DF804FBD8
:1028100038B50446184BD3F88035B3F1FF3F13D0D9
:10282000C3711A0A82711A0C42711B0E0371124B8A
:10283000D3F88425C270D3F884351A0A82701A0C32
:1028400042701B0E037038BD04F03CFC054604F0DA
:1028500045FC054404F03CFC2B0EE3712B0CA371EA
:102860002B0A63712571030EE370030CA370030A36
:1028700063702070E7E700BF0070FF1F38B50A4B98
:10288000D3F880350360B3F1FF3F00D038BD044674
:1028900004F018FC054604F01BFC454004F01EFC47
:1028A00045402560F2E700BF0070FF1F08B5012119
:1028B000022013F005F908BD08B50021022013F02D
:1028C000FFF808BD0020704708B5044B1B780BB912
:1028D000002008BD00F000F9FBE700BF4C0B002012
:1028E00000B583B00190019800F0DCF903B05DF809
:1028F00004FB0000F0B589B0224AD2F8903043F4CE
:102900008043C2F8903004F0EFFB04F0F5FB04F0D4
:10291000FBFB00240394049405940694079401237C
:102920000493032306934FF0B043DA6C42F00202A3
:10293000DA64DA6C02F002020292029ADA6C42F075
:102940000202DA64DB6C03F002030193019B4FF493
:10295000805703970C4D03A9284605F005FD4FF459
:102960000056039603A9284605F0FEFC2246394688
:10297000284605F049FE22463146284605F044FE29
:1029800009B0F0BD000800580004004810B5044626
:10299000FFF7C6F940F30F20FEF708FA054BA360D6
:1029A0006060054B2360054BE360054B236100200D
:1029B00010BD00BF0000484200007A440D093E00EF
:1029C000AB030500002070470120704708B514F0E4
:1029D000E1FE162303604FF0FF3008BD08B54FF04D
:1029E000FF31FFF7F3FFFEE770B50C4616460025F2
:1029F00006E0AFF30080214601F8010B01350C46DB
:102A0000B542F6DB304670BD70B50C461646002563
:102A100004E014F8010BFFF70DF80135B542F8DBBF
:102A2000304670BD4FF0FF3070474FF400534B609D
:102A300000207047012070470020704710B5034602
:102A40000C4A0D490D48006840B10C480068034429
:102A5000521A934206D8094A136010BD0748084C21
:102A60000460F2E714F096FE0C2303604FF0FF3091
:102A7000F3E700BF0080002000080000500B00209A
:102A800088230020064B986801E0054B9868044BAA
:102A90009B688342F9D1C043024B1860704700BF66
:102AA00000280040580B0020014B1868704700BFF9
:102AB000580B0020064B986801E0054B9868044BC2
:102AC0009B688342F9D1C043024B1B68C01A704710
:102AD00000280040580B0020074B1B7853B1074BD0
:102AE000986801E0054B9868044B9B688342F9D1D4
:102AF000C043704700207047540B0020002800405E
:102B00000320704708B501464FF47A720023800213
:102B1000890DFEF7ABFB08BDC20E43011B1A62F123
:102B20000002920042EA93729B001B1842F10000DF
:102B3000C00040EA5370C3F3D51343EA8050704796
:102B400010B5074B0122DA65064C4FF48071204620
:102B500007F0F4F84FF0FF332363002010BD00BFEF
:102B600000280040080B002008B502460221024858
:102B700007F02DFB08BD00BF080B002038B50F4B38
:102B80001B780BB1002038BD0D4C4FF0FF3525638D
:102B9000FFF7B2FCFFF7D4FF4FF48071204607F037
:102BA000CDF82563204607F0B1FA0020FFF7DCFFDF
:102BB000FFF768FF014B01221A70E3E7540B002076
:102BC000080B002008B502460021024807F0FFFA72
:102BD00008BD00BF080B002008B5024601210248CD
:102BE00007F0F5FA08BD00BF080B002010B58CB047
:102BF00004462C22002101A814F058FDFFF7A0FF85
:102C00000C4B1B681C4400230893E4430294069376
:102C10004FF0005307934FF480730B93012201A9E7
:102C2000054807F0B7F910B900200CB010BDFFF748
:102C3000ADFBF9E7580B0020080B002008B5022176
:102C4000014807F0CBFA08BD080B002038B505464F
:102C50000B4B9C6801E00A4B9C68094A9268A242AF
:102C6000F9D1E443FFF7EAFF2346A40A44EA80547B
:102C7000C3F30900FFF750FF2880204638BD00BF8E
:102C80000028004008B50021014807F0A7FA08BD58
:102C9000080B002008B50121014807F09FFA08BD84
:102CA000080B002008B5FFF72DFF0D4B996801E0D8
:102CB0000B4B99680A4A92688A42F9D1C9430AE0E3
:102CC000074B9B68064A92689A42F9D1DB435B1A2C
:102CD000834203D200BF024B9B68F3E708BD00BFED
:102CE0000028004008B513F031FA08BD08B5FFF719
:102CF000A5FF0130FFF738FF08BD000008B51748F1
:102D0000174B03604FF41653436000238360C36086
:102D100003610C2242618361C36103624362836287
:102D200008F01AFE70B900210C4808F0E9FF60B9FC
:102D300000210A4809F009F850B9084808F0C1FF15
:102D400048B908BDFFF722FBEDE7FFF71FFBEFE7F0
:102D5000FFF71CFBF1E7FFF719FBF2E7BC0B0020C4
:102D60000038014008B51748174B03604FF4E133B2
:102D7000436000238360C36003610C22426183616E
:102D8000C36103624362836208F0E6FD70B900210B
:102D90000C4808F0B5FF60B900210A4808F0D5FFDB
:102DA00050B9084808F069FF48B908BDFFF7EEFAC6
:102DB000EDE7FFF7EBFAEFE7FFF7E8FAF1E7FFF7E8
:102DC000E5FAF2E7500C00200044004030B599B01D
:102DD00004460021139114911591169117913822F0
:102DE00005A814F063FC23684B4A934204D04B4A75
:102DF000934239D019B030BD012305934FF44033CD
:102E0000069305A806F050FE58BB4FF0B0431A6E6B
:102E100042F480421A661A6E02F480420292029ACA
:102E2000DA6C42F00102DA64DB6C03F00103019317
:102E3000019B4FF4C0631393022314930024159451
:102E400016940723179313A94FF0904005F08CFABE
:102E500022462146242004F049FE242004F07EFE70
:102E6000C8E7FFF793FAD0E7022305932C4B0793AB
:102E700005A806F019FE002844D14FF0B0439A6D22
:102E800042F400329A659A6D02F400320492049A78
:102E9000DA6C42F00102DA64DB6C03F001030393A5
:102EA000039B0C23139302231493002515950323EE
:102EB00016930723179313A94FF0904005F054FA87
:102EC0001848194B03601423436010238360C560C6
:102ED0008023036145618561C561056204F0E0FE00
:102EE00098B910210F4805F0DDF888B90D4BE3675C
:102EF0009C6200220221252004F0F8FD252004F028
:102F00002DFE77E7FFF742FAB7E7FFF73FFAE8E76A
:102F1000FFF73CFAEAE700BF0038014000440040F8
:102F200004000C005C0B00205800024010B5036840
:102F3000144A934204D00446134A934210D010BD61
:102F40004FF0B042136E23F4804313664FF4C06118
:102F50004FF0904005F0DAFA242004F00DFEEEE781
:102F60004FF0B042936D23F4003393650C214FF082
:102F7000904005F0CBFAE06F04F004FF252004F048
:102F8000FBFDDCE7003801400044004008B5074B7A
:102F90001860FEF71BFFFFF7E5FE054AD2F8803008
:102FA00043F00063C2F88030002008BDE80C002028
:102FB0000008005808B54FF0B0439A6B42F4003255
:102FC0009A639A6B22F400329A630448FFF7AEFFCB
:102FD0000F2004F0D1FD002008BD00BF500C0020E0
:102FE00008B50A460146024807F0D6FC002008BD95
:102FF000500C002010B582B0124B18604FF4001333
:10300000009302AB13E906000F4808F0DEFD0E4BFB
:103010001B68DA6912F4803FF9D1DA6912F4800F83
:10302000FBD09A6842F480029A60074C204608F070
:103030000DFE01220549204608F060FD002002B087
:1030400010BD00BFE40C0020500C0020D50D002066
:1030500008B5074808F080FC20B9064804F020FEB7
:1030600018B908BDFFF792F9F7E7FFF78FF9F8E70E
:10307000500C00205C0B002008B50268044B9A42FB
:1030800000D008BD034B1B6800209847F9E700BF3C
:1030900000440040E80C00202DE9F04FADF2445D03
:1030A00081460268B64B9A4209D0D9F80020B54B48
:1030B0009A4201F0B4820DF2445DBDE8F08FB24B4C
:1030C0001B682BB1D0F8902012B90121AF48984766
:1030D000AE4B1B780A2B0AD0AD4A1278C62A00F2F2
:1030E0000A81501CAA490870AA498B5403E1A84BD5
:1030F0001B78A8480022C2540D22A74914F0DEFA1A
:10310000002800F0EC800D22A449A24814F0D6FA61
:10311000002800F0F6801222A1499E4814F0CEFA51
:10312000002800F0F8800F229E499A4814F0C6FA51
:10313000002800F07B810B229B49964814F0BEFAD0
:103140000446002800F037820B229849914814F079
:10315000B5FA0446002800F052820B2294498D48AB
:1031600014F0ACFA0446002800F06D821522914953
:10317000884814F0A3FA002800F0A38217228E4991
:10318000844814F09BFA002800F0D0820B228B496F
:10319000804814F093FA002800F0D9821022884960
:1031A0007C4814F08BFA002800F0848316228549AD
:1031B000784814F083FA0446002800F09484122220
:1031C0008149744814F07AFA002800F09A85132295
:1031D0007E49704814F072FA0746002800F06486B1
:1031E00018227B496B4814F069FA002800F06187C7
:1031F00012227849674814F061FA002800F06487C9
:1032000010227549634814F059FA0646002800F068
:103210005F87112271495F4814F050FA002801F0CD
:10322000B38112226E495B4814F048FA002801F07D
:10323000B88116226B49574814F040FA002801F073
:10324000CC8110226849534814F038FA002841F024
:10325000DE810DF17F030DF17E026449644814F0B4
:1032600021F99DF87E30013B4FF47472614951F8A9
:10327000231020A8FEF73EFF002841F0C0819DF8F2
:103280007F30012B14BF002301238DF834349DF8C7
:103290007E30013B4FF40061564A52F82300FEF79E
:1032A00045FF002841F0A381534B00221146022024
:1032B00012F040FB9DF87E30013B4FF4747220A960
:1032C0004C4850F82300FEF7F9FE002841F08781B2
:1032D0004A4B00221146022012F02CFB08E0484B1A
:1032E00000221146022012F025FB464B01221A70E3
:1032F000274B00221A7001222449484608F0FEFBA1
:10330000D3E6414B00221146022012F013FB3D4B45
:1033100000221A70ECE73D4B00221146022012F009
:1033200009FBF0223A490DF58A60FEF7E3FE00BB87
:1033300008220DF58A61374810F01FFC08220DF5B0
:103340008B61354810F019FC10220DF269413348A9
:1033500010F013FC0DF5A563D3E90001304BC3E970
:1033600000010DF5A663D3E900012E4BC3E900016E
:10337000BEE72D4B00221146022012F0DBFAB7E720
:103380000044004000380140E40C0020D50D00202E
:10339000D40D00200C0D002044B9010878B90108B3
:1033A000ACB90108E8B9010870BB010884BB010889
:1033B00090BB01089CBB0108B8BB0108F8BB010821
:1033C0002CBC0108C8BC0108E0BD01088CBE010886
:1033D00078BF010898BF0108ACBF010898C0010878
:1033E000ACC00108C0C00108D8C00108ECC0010889
:1033F0001C0D002000000020CCB60108D8B6010842
:1034000054B90108E00D002088B90108C0B90108CD
:1034100000F00308EC0C0020F40C0020FC0C002051
:10342000E80D0020D80D00207CB80108F022AD493D
:103430000DF58A60FEF75EFE002840F0AB80AA4BD7
:1034400000221146022012F075FA9DF850349DF8C2
:1034500051249DF852149DF853049DF854449DF84E
:1034600055549DF856649DF8577407970696059530
:10347000049403900291019200939C4B0022114608
:10348000022012F057FA9DF858349DF859249DF8FF
:103490005A149DF85B049DF85C449DF85D549DF8BA
:1034A0005E649DF85F7407970696059504940390F3
:1034B0000291019200938E4B00221146022012F0DD
:1034C00039FA9DF8693417939DF86A2418929DF88B
:1034D0006B349DF86C249DF86D149DF86E049DF876
:1034E0006FC49DF870E49DF871449DF872549DF886
:1034F00073649DF874749DF875849DF876A4CDF876
:1035000064A09DF877A49DF878B4CDF83CB0CDF8D0
:1035100038A0DDF864A0CDF834A0CDF830800B974A
:103520000A9609950894CDF81CE0CDF818C00590CE
:10353000049103920293189A0192179B00936D4B8A
:1035400000221146022012F0F5F90DF5A563D3E92A
:103550000023CDE90023684B00221146022012F01F
:10356000E9F90DF5A663D3E90023CDE90023634B08
:1035700000221146022012F0DDF9614B00221146B3
:10358000022012F0D7F95F4B00221146022012F000
:10359000D1F9ADE65C4B00221146022012F0CAF9C7
:1035A000A6E663000B33594A224459495948184446
:1035B00013F078FF0134072CF3DD544B1A78597857
:1035C0009878DC781D795E799F79DB790793069787
:1035D000059604950394029001910092434B0022BA
:1035E0001146022012F0A6F982E663000B334A4A24
:1035F000224447494748184413F054FF0134072C2C
:10360000F3DD454B1A7859789878DC781D795E7926
:103610009F79DB79079306970596049503940290AA
:1036200001910092324B00221146022012F082F9E1
:103630005EE663000B33394A224435493548184465
:1036400013F030FF01340F2CF3DD344B1A7817924E
:103650005978189193F802B0DA78197958799C79E9
:10366000DD791E7A5F7A93F80AC093F80BE093F83D
:103670000C8093F80DA0CDF864A093F80EA0DB7B2E
:103680000F93CDF838A0DDF864A0CDF834A0CDF8C4
:103690003080CDF82CE0CDF828C009970896079522
:1036A0000694059004910392CDF808B01899019101
:1036B000179A00920F4B00221146022012F03AF99D
:1036C00016E6174C22461749174813F0EBFED4E9CB
:1036D0000023CDE90023084B00221146022012F0FE
:1036E00029F905E600F00308F8B9010818BA01083D
:1036F00058BA010898BA010800BB010824BB0108A8
:103700004CBB010860BB01087CB80108EC0C002030
:103710007CBB01080C0D0020F40C0020FC0C0020E8
:10372000E80D0020B4BB0108210D0020514C2246B9
:103730005149524813F0B6FED4E90023CDE90023E5
:103740004F4B00221146022012F0F4F8D0E54D4B09
:1037500000221146022012F0EDF84B4B1A785978EE
:103760009878DC781D795E799F79DB7907930697E5
:10377000059604950394029001910092434B002218
:103780001146022012F0D6F8414B1A7859789878F1
:10379000DC781D795E799F79DB790793069705962A
:1037A000049503940290019100923A4B0022114635
:1037B000022012F0BFF8384B1A78179259781891F6
:1037C00093F802B0DA78197958799C79DD791E7A04
:1037D0005F7A93F80AC093F80BE093F80C8093F8A3
:1037E0000DA0CDF864A093F80EA0DB7B0F93CDF86D
:1037F00038A0DDF864A0CDF834A0CDF83080CDF845
:103800002CE0CDF828C009970896079506940590F6
:1038100004910392CDF808B018990191179A00927B
:103820001E4B00221146022012F084F81C4BD3E9F3
:103830000023CDE900231B4B00221146022012F089
:1038400079F80C4BD3E90023CDE90023164B002275
:103850001146022012F06EF8144B0022114602208D
:1038600012F068F8124B00221146022012F062F8A2
:103870003EE500BFD80D0020B4BB0108230D002099
:10388000D0BB010804BC0108EC0C002018BA0108E8
:10389000F40C002058BA0108FC0C002098BA01086A
:1038A000E80D002000BB010824BB01084CBB010847
:1038B00060BB01089B4B00221146022012F03AF82F
:1038C000082299490DF58A6010F057F908229749A6
:1038D0000DF58B6010F051F9954C102221460DF238
:1038E000694010F04AF9102221460DF27A4010F09A
:1038F00044F9102221460DF28B4010F03EF91022BF
:1039000021460DF29C4010F038F98A4BD3E9002390
:103910000DF5A561C1E90023874BD3E900230DF51F
:10392000A661C1E900234FF400618448FEF7FEFB65
:10393000002840F0D180F0220DF58A617F48FEF723
:10394000BDFB002840F0C1807D4B002211460220C3
:1039500011F0F0FFF02279490DF58A60FEF7CAFBFD
:10396000002840F0AB80774B00221146022011F076
:10397000E1FF9DF850349DF851249DF852149DF8B4
:1039800053049DF854449DF855549DF856649DF891
:103990005774079706960595049403900291019237
:1039A0000093694B00221146022011F0C3FF9DF8DD
:1039B00058349DF859249DF85A149DF85B049DF8DD
:1039C0005C449DF85D549DF85E649DF85F740797B4
:1039D00006960595049403900291019200935B4B27
:1039E00000221146022011F0A5FF9DF869341793BB
:1039F0009DF86A2418929DF86B349DF86C249DF80C
:103A00006D149DF86E049DF86F449DF870549DF8F8
:103A100071649DF872749DF873C49DF874E49DF808
:103A200075849DF876A4CDF864A09DF877A49DF8E0
:103A300078B4CDF83CB0CDF838A0DDF864A0CDF86E
:103A400034A0CDF83080CDF82CE0CDF828C009970F
:103A50000896079506940590049103920293189A8C
:103A60000192179B00933A4B00221146022011F05D
:103A700061FF0DF5A563D3E90023CDE90023354BA4
:103A800000221146022011F055FF0DF5A663D3E97F
:103A90000023CDE90023304B00221146022011F013
:103AA00049FF2E4B00221146022011F043FF2C4B00
:103AB00000221146022011F03DFF19E4294B00229B
:103AC0001146022011F036FF12E4274B0022114666
:103AD000022011F02FFF0BE4244B0022114602209C
:103AE00011F028FF04E40DF17F030DF17E0220495F
:103AF000204813F0D7FC022840F0FB809DF87E3070
:103B00005A1ED2B20F2A04D89DF87F200AB1102A7B
:103B100034D9194B00221146022011F00BFFFFF798
:103B2000E7BB00BF40BC0108EC0C0020F40C0020F7
:103B3000FC0C0020E80D0020D80D002000F0030848
:103B400064BC0108F8B9010818BA010858BA01089C
:103B500098BA010800BB010824BB01084CBB01084E
:103B600060BB01087CB8010888BC0108A8BC01083A
:103B7000E0BC0108220D0020ACBD0108013B4FF460
:103B80007472AE4951F8231020A8FEF7B3FA00284A
:103B90007AD1AB4B00221146022011F0CBFE9DF8EA
:103BA0007F3001939DF87E300093A64B0022114692
:103BB000022011F0BFFE9DF882300093A24B00223C
:103BC0001146022011F0B6FE9DF8833000939F4B02
:103BD00000221146022011F0ADFE9DF884300093C2
:103BE0009B4B00221146022011F0A4FE9DF880306C
:103BF000012B50D0974B0093974B00221146022087
:103C000011F098FE954B00221146022011F092FE11
:103C10009DF87F300093924B00221146022011F054
:103C200089FE9DF87F30382202FB03F320AAD35C83
:103C3000012B32D0874B00938A4B00221146022081
:103C400011F078FE884B00221146022011F072FE1E
:103C50009DF87F30013B382220A902FB03131D7A17
:103C6000AC421CD29DF87F30013B382220A902FBD8
:103C7000031323445B7A00937C4B002211460220FD
:103C800011F058FE0134EBE7794B00221146022077
:103C900011F050FE83E7774BADE7764BCBE7764BE1
:103CA00000221146022011F045FE9DF87F30013BB5
:103CB000382420AA04FB03231B6B00936F4B0022C4
:103CC0001146022011F036FE9DF87F30013B20AAFC
:103CD00004FB032393F829304BB1664B0093684BE8
:103CE00000221146022011F025FEFFF701BB594BBF
:103CF000F4E7644B00221146022011F01BFEFFF78F
:103D0000F7BA0DF17F0303930DF17E0302930DF1DA
:103D10007D0301931FAB00930DF17B030DF17A023C
:103D200059495A4813F0BEFB062807D0584B0022C9
:103D30001146022011F0FEFDFFF7DABA9DF87F3040
:103D400005939DF87E3004939DF87D3003939DF894
:103D50007C3002939DF87B3001939DF87A3000937C
:103D60004C4B00221146022011F0E4FD9DF87B30FF
:103D7000013B4FF47472314951F8231020A8FEF72B
:103D8000B9F978BB2E4B00221146022011F0D2FD6A
:103D90009DF87A30012B2CD09DF87B30013B4FF4FD
:103DA0000061264A52F82300FEF7C0F900283CD1F2
:103DB000394B00221146022011F0BCFD9DF87B30EA
:103DC000013B4FF4747220A91C4850F82300FEF701
:103DD00075F910BB314B00221146022011F0AAFDEB
:103DE000FFF786BA224B00221146022011F0A2FDF5
:103DF000CEE79DF87C308DF882309DF87D308DF8CF
:103E000083309DF87E308DF884309DF87F30003B04
:103E100018BF01238DF88030BEE7214B00221146E8
:103E2000022011F087FDFFF763BA1E4B00221146F6
:103E3000022011F07FFDFFF75BBA00BF00000020F9
:103E4000ECBC010808BD010820B7010830B7010823
:103E500040B7010804B7010850B701083CBD01088C
:103E600040BD010860BD010878BD010830B60108F9
:103E7000F8BC0108FCB6010890C8010884BD01081F
:103E80009CBD0108C8BD0108F4BD01080C0D00204F
:103E900064BE010818BE0108CCB60108D8B60108F6
:103EA000E4B60108F0B601080DF17F0307930DF1A8
:103EB0007E0406940DF17D0605961FAD04950DF167
:103EC0007B08CDF80C800DF17A0302930DF1790394
:103ED00001931EAB00930DF177030DF17602A44917
:103EE000A44813F0DFFA9DF87B209DF87C100D04A8
:103EF00045EA02659DF87D6045EA06259DF87E400D
:103F000025430A2807D09C4B00221146022011F0BD
:103F100011FDFFF7EDB99DF87A309DF87F000A900A
:103F20000994089607910692059304939DF87930B9
:103F300003939DF8783002939DF8773001939DF8B4
:103F4000763000938D4B00221146022011F0F2FCD6
:103F50009DF87F0012F0A2FA064600240AE004EB66
:103F600044033133321986498248184413F09AFACF
:103F70000134E4B29DF87F30A342F0D8814B002297
:103F80001146022011F0D6FC08E0F35D00937E4B51
:103F900000221146022011F0CDFC01379DF87F3040
:103FA000BB42F2DC794B00221146022011F0C2FC28
:103FB0009DF87730013B4FF47472754951F8231026
:103FC00020A8FEF797F838B9724B0022114602205C
:103FD00011F0B0FC002312E06F4B002211460220CA
:103FE00011F0A8FCF6E79DF87820013AF15C382042
:103FF00020AC00FB02421A4451720133DBB29DF83F
:104000007F209A42EFD8304612F050FA9DF878207F
:10401000531E20A8382404FB03039DF87F10197257
:104020009DF87A10003918BF012183F8291003F197
:1040300030011D6300234B609DF87930003B18BFB1
:10404000012304FB02F283549DF87730013B4FF4C7
:1040500000614F4A52F82300FEF768F808BB4F4B47
:1040600000221146022011F065FC9DF87730013BDB
:104070004FF4747220A9464850F82300FEF71EF84A
:1040800038B9474B00221146022011F053FCFFF7CC
:104090002FB9444B00221146022011F04BFCFFF7D0
:1040A00027B9414B00221146022011F043FCFFF7D3
:1040B0001FB920AA3D493E4813F0F4F99DF880004D
:1040C000FDF78AFAFFF714B903F068FDFFF710B99E
:1040D0000DF17F0315930DF17E0314930DF17D0314
:1040E00013931FAB12930DF17B0311930DF17A0320
:1040F00010930DF179030F931EAB0E930DF177031F
:104100000D930DF176030C930DF175030B931DAB1D
:104110000A930DF1730309930DF1720308930DF1E6
:10412000710307931CAB06930DF16F0305930DF11B
:104130006E0304930DF16D0303931BAB02930DF11A
:104140006B0301930DF16A0300930DF169031AAA41
:104150001849084813F0A6F918282FD00090164BDC
:1041600000221146022011F0E5FBFFF7C1B800BFA5
:10417000A0BE01080C0D002064BE0108D4BE0108D9
:1041800068BF01086CBF010830B6010890C801087B
:1041900000000020ECBC0108F8BC0108CCB6010806
:1041A000D8B60108E4B60108F0B6010894BF0108CA
:1041B000240D0020C0BF010884C001080090BE4B40
:1041C00000221146022011F0B5FB9DF869300093E2
:1041D000BA4B00221146022011F0ACFB9DF868306A
:1041E0000093B74B00221146022011F0A3FB9DF86B
:1041F0007F300093B34B00221146022011F09AFB4E
:104200009DF86A300093B04B00221146022011F055
:1042100091FB9DF86B300093AC4B002211460220BD
:1042200011F088FB9DF86D3001939DF86C30009380
:10423000A74B00221146022011F07CFB9DF8713043
:1042400003939DF8703002939DF86F3001939DF8B1
:104250006E3000939F4B00221146022011F06AFB42
:104260009DF8753003939DF8743002939DF8733078
:1042700001939DF872300093974B00221146022063
:1042800011F058FB9DF8793003939DF87830029334
:104290009DF8773001939DF8763000938F4B002284
:1042A0001146022011F046FB9DF87D3003939DF8E6
:1042B0007C3002939DF87B3001939DF87A30009317
:1042C000874B00221146022011F034FB9DF87E300E
:1042D000012B23D0834B0093834B002211460220F5
:1042E00011F028FB9DF87F40204612F0D7F80546D4
:1042F00018B12246002113F0D9F900249DF87F302F
:10430000A3420DD904EB440358332A19774978485E
:10431000184413F0C7F80134E4B2EFE7754BDAE75D
:10432000754B00221146022011F004FB9DF87F30EE
:10433000B34209DDAB5D0093704B002211460220B1
:1043400011F0F8FA0136F1E76D4B00221146022018
:1043500011F0F0FA9DF86930013B4FF4747269492D
:1043600051F8231020A8FDF7C5FE002840F0048175
:104370009DF87F108DF82814002306E0E85C20AA41
:104380001A4482F888030133DBB29942F6D82846F2
:1043900012F08CF89DF86A308DF829349DF86B3056
:1043A0008DF82A349DF86C209DF86D3043EA022385
:1043B000ADF836349DF87630002263F307029DF89D
:1043C000773063F30F229DF8783063F317429DF83E
:1043D000793063F31F629DF87A10002361F30703BD
:1043E0009DF87B1061F30F239DF87C1061F3174358
:1043F0009DF87D1061F31F639DF86E10002061F33E
:1044000007009DF86F1061F30F209DF8701061F3A5
:1044100017409DF8711061F31F609DF872400021F4
:1044200064F307019DF8734064F30F219DF8744015
:1044300064F317419DF8754064F31F61CDF83804AB
:10444000CDF83C14CDF84024CDF844349DF87E30AE
:10445000003B18BF01238DF8483400238DF8493400
:104460009DF86930013B4FF40061264A52F8230061
:10447000FDF75CFE00284DD1234B0022114602209F
:1044800011F058FA9DF86930013B4FF4747220A97D
:104490001C4850F82300FDF711FE30B91B4B0022D9
:1044A0001146022011F046FA3AE0194B002211465B
:1044B000022011F03FFA33E01CC0010834C00108AB
:1044C00044C0010854C0010868B7010878B7010862
:1044D00064C00108ACB70108D0B70108F8B70108FB
:1044E00024B8010804B7010850B8010868BF0108E2
:1044F0000C0D0020FCB601086CBF010830B60108A5
:1045000090C8010800000020CCB60108D8B6010808
:10451000E4B60108484B00221146022011F00AFAC5
:104520009DF8690001389DF8493407939DF8483497
:104530000693DDF844340593DDF840340493DDF848
:104540003C340393DDF838340293BDF836340193DC
:104550009DF82A3400939DF829349DF828240DF500
:104560008161C0B2FDF776FA9DF869000138C0B2EA
:10457000FDF730FAFEF7BCBE304B00221146022098
:1045800011F0D8F9FEF7B4BE20AA2D492D4812F03B
:1045900089FF9DF880000138C0B2FDF71BFAFEF7D5
:1045A000A7BE20AA2649284812F07CFF9DF880006B
:1045B0000138C0B2FDF772F99DF880000138C0B231
:1045C000FDF708FAFEF794BE2046FDF767F90134BF
:1045D000E4B20F2CF8D9FEF78BBE0024F9E71B4B91
:1045E00000221146022011F0A5F9FEF781BE124B00
:1045F00000221146022011F09DF9FEF779BE0F4B03
:1046000000221146022011F095F9FEF771BE104B01
:1046100000221146022011F08DF9FEF769BE0D4C03
:104620002046FDF7B3FA34F8021B012221440A4860
:1046300007F064FAFEF73FBDF0B601087CB8010848
:10464000B4BB01081D0D00201E0D0020E4B60108BA
:10465000F4C00108080F0020BC0B002008B5FEF7CD
:104660007FF802F0CDF908BD08B54FF0FF3011F02A
:10467000BFFA08BD70470000014BD870704700BFFB
:10468000A8000020014B1874704700BFA80000204C
:1046900000283FD02DE9F0418CB003464278022A31
:1046A0000AD0032A2FD01C4B00221146022011F001
:1046B00041F90CB0BDE8F081027CB0F9121090F91C
:1046C00014009C7DDD7D1E7E5F7E93F81AC093F8FA
:1046D0001BE093F81C80CDF82C80CDF828E0CDF8B5
:1046E00024C008970796069505945C680494DB68D7
:1046F0000393029001910092084B00221146022080
:1047000011F018F9D5E7064B00221146022011F0EE
:1047100011F9CEE7704700BF20C1010838C1010878
:10472000ACC1010800B583B0054B1B5C0093054B81
:1047300000221146022011F0FDF803B05DF804FBE1
:10474000E8C10108CCC1010808B5012806D0074B13
:1047500000221146022011F0EDF808BD044B0022A2
:104760001146022011F0E6F8F7E700BF00C2010889
:10477000ECC1010808B50A460149FDF7BBFC08BDBC
:1047800000F0030838B504460D464FF400610548B3
:10479000FDF7CCFC00B138BD2A4621460148FDF7A3
:1047A0008DFCF8E700F0030808B500224FF4004143
:1047B000014803F029FF08BD0004004808B50022A5
:1047C0004FF40071014803F01FFF08BD00040048CA
:1047D000002845D010B584B0044603780BB904B066
:1047E00010BD01224FF400711E4803F00DFF1E485A
:1047F00011F04CFC1D4B00221146022011F09AF8DA
:10480000237C94F90A2094F91810039102920193E1
:10481000E3680093164B00221146032011F08AF83A
:10482000144B01221A70144B00221146032011F080
:1048300081F8237A012B0CD1637A43B10F4B00939B
:104840000F4B00221146032011F074F8C7E70D4BFF
:10485000F5E70D4B00221146032011F06BF8BEE77F
:10486000704700BF00040048D40F002020C2010898
:1048700054C201081C10002088C2010814C201089B
:1048800098C2010818C20108ACC2010808B500218D
:10489000022011F079F9024811F0F8FB08BD00BFC1
:1048A000EC0F002008B50021012011F06DF908BDC2
:1048B00010B50E4B1B78022B13D00D4C00224FF479
:1048C0000041204603F0A0FE00224FF40071204674
:1048D00003F09AFE00224FF40061204603F094FE9C
:1048E00010BD0021082011F04FF9E6E7500000202C
:1048F0000004004808B507F005FF00B108BD07F047
:10490000BFFB0128FAD1BFF34F8F0549CA6802F4F3
:10491000E062044B1343CB60BFF34F8F00BFFDE752
:1049200000ED00E00400FA0510B5094B186010B95D
:1049300042F210721A60074C204611F04DFB044BF6
:104940001968204611F0E8FB204611F09FFB10BDCE
:10495000C0000020EC0F0020002900F005842DE9A4
:10496000F041C2B0044600270D4601224FF4004139
:10497000AE4803F049FEAE4811F088FB2E7866B1D0
:10498000002C00F0D8832678636833B1372E21D00D
:10499000452E00F03A83032E06D02B7C052B40F2E7
:1049A000CC8342B0BDE8F0816278012AF5D11B7852
:1049B000012B07D0022B09D0002BEED1384607F08F
:1049C00031FCEAE7012007F02DFCE6E7022007F0C2
:1049D00029FCE2E71B78012B26D063681B78022BA9
:1049E00078D063681B78032B00F0CA8063681B785B
:1049F000042B00F0428163681B78072B00F0B08124
:104A000063681B780A2B00F00F8263681B78082B01
:104A100000F0778263681A78AA2ABED15B78012BEE
:104A2000BBD103F0BBF8B8E7082011F037FD804692
:104A3000002848D000230360436006E062681A44FF
:104A4000527808F803200133DBB2072BF6D9794BF3
:104A500000221146022010F06DFFF022764906A8D0
:104A6000FDF748FBD0B90822414606A80FF085F8AB
:104A7000404611F01BFD4FF400616F48FDF756FBF7
:104A8000D0B9F02206A96C48FDF718FB68B96B4B4A
:104A900000221146022010F04DFF9EE7684B0022D5
:104AA0001146022010F046FFE5E7664B0022114652
:104AB000022010F03FFF90E7634B002211460220D6
:104AC00010F038FF89E7614B00221146022010F0F8
:104AD00031FF82E7082011F0E1FC8046002848D031
:104AE00000230360436006E062681A44527808F8C5
:104AF00003200133DBB2072BF6D94E4B00221146BF
:104B0000022010F017FFF0224B4906A8FDF7F2FA39
:104B1000D0B90822414608A80FF02FF8404611F0FE
:104B2000C5FC4FF400614448FDF700FBD0B9F0220A
:104B300006A94148FDF7C2FA68B9404B0022114668
:104B4000022010F0F7FE4CE73D4B002211460220F8
:104B500010F0F0FEE5E73B4B00221146022010F07A
:104B6000E9FE3EE7384B00221146022010F0E2FE3B
:104B700037E7364B00221146022010F0DBFE30E70B
:104B8000102011F08BFC804600286FD000230360BA
:104B900043608360C36006E062681A44527808F894
:104BA00003200133DBB20F2BF6D9224B0022114632
:104BB000022010F0BFFEF0221F4906A8FDF79AFA66
:104BC00060BB102241460DF131000EF0D6FF1022DD
:104BD00041460DF142000EF0D0FF102241460DF18A
:104BE00053000EF0CAFF1022414619A80EF0C5FF6F
:104BF000404611F05BFC4FF400610F48FDF796FA58
:104C000068BBF02206A90C48FDF758FA00BB0B4B15
:104C100000221146022010F08DFEE7E6084B00222C
:104C20001146022010F086FEE5E700BF00040048B0
:104C3000A00F0020C0B9010800F0030864BC0108FF
:104C40007CB8010888BC0108A8BC0108BCC20108E6
:104C5000B34B00221146022010F06CFEC6E6B14BA9
:104C600000221146022010F065FEBFE6AE4B002286
:104C70001146022010F05EFEB8E6AC4B0022114651
:104C8000022010F057FEAA4B00221146022010F01D
:104C900051FE4FF000080BE0636813F808300093F2
:104CA000A44B00221146022010F044FE08F1010836
:104CB00062784245F0DC01234FF0000804E06168AF
:104CC000C95C41EA082801339A42F8DCF0229A498B
:104CD00006A8FDF70FFA70BB4FEAD8624FEA4813F7
:104CE000B3EB080362F10002920042EA93729B0068
:104CF00013EB080342F10002D20042EA5372DB00D8
:104D00003C933D924FF47A7303FB08F38B4A136094
:104D10004FF400618848FDF709FAD0B9F02206A9DE
:104D20008548FDF7CBF968B9854B00221146022072
:104D300010F000FE5FE6834B00221146022010F0C7
:104D4000F9FDE5E7764B00221146022010F0F2FD56
:104D500051E6744B00221146022010F0EBFD4AE6AA
:104D6000724B00221146022010F0E4FD704B00222D
:104D70001146022010F0DEFD4FF000080BE06368E2
:104D800013F8083000936B4B00221146022010F0FC
:104D9000D1FD08F1010861784145F0DC012305E00F
:104DA0006268D25C42EA072297B201339942F7DC8B
:104DB0000097654B00221146022010F0BBFDF02247
:104DC0005D4906A8FDF796F9C8B9ADF800715F4BCB
:104DD0001F605F4B00221A804FF400615648FDF7B8
:104DE000A5F9D0B9F02206A95348FDF767F968B9CB
:104DF000534B00221146022010F09CFD00E6514B5F
:104E000000221146022010F095FDE5E7444B0022F8
:104E10001146022010F08EFDF2E5424B00221146B1
:104E2000022010F087FDEBE5404B002211460220E6
:104E300010F080FD3E4B00221146022010F07AFD5A
:104E4000002709E06368DB5D00933A4B00221146BE
:104E5000022010F06FFD01376278BA42F2DC0123C4
:104E6000002704E06168C95C41EA072701339A42E0
:104E7000F8DC0097374B00221146022010F05AFD53
:104E8000F0222D4906A8FDF735F928BBADF80671CB
:104E9000DFF8C480C8F80070B80011F0FFFA2F4B9B
:104EA0001860264B1B68D8F8002093FBF2F32C4ABD
:104EB00013604FF400612048FDF738F9D0B9F022B3
:104EC00006A91D48FDF7FAF868B91D4B00221146E6
:104ED000022010F02FFD98E51A4B00221146022007
:104EE00010F028FDE5E70E4B00221146022010F0DD
:104EF00021FD8AE50B4B00221146022010F01AFD1D
:104F000083E50A4B00221146022010F013FD084BE6
:104F100000221146022010F00DFD00272CE000BFFA
:104F200088BC0108A8BC0108BCC20108D8C201089D
:104F30000CC3010830B6010800F003084C00002043
:104F400064BC01087CB8010830C30108400000209F
:104F5000D809002068C30108440000204810002040
:104F6000480000206368DB5D0093804B00221146FF
:104F7000022010F0DFFC01376278BA42F2DC012334
:104F8000002704E06168C95C41EA072701339A42BF
:104F9000F8DC0097764B00221146022010F0CAFC84
:104FA000F022744906A8FDF7A5F8C8B9ADF802715A
:104FB0003846FBF7FBFE704B18604FF400616D48FC
:104FC000FDF7B4F8D0B9F02206A96A48FDF776F8E3
:104FD00068B96A4B00221146022010F0ABFC19E5BB
:104FE000674B00221146022010F0A4FCE5E7654B58
:104FF00000221146022010F09DFC0BE5624B0022BE
:105000001146022010F096FC04E56278002A3FF475
:10501000C4AC1B78012B7FF4C0AC5C4C234600224F
:105020001146022010F086FC594B00221146022046
:1050300010F080FC234600221146022010F07AFC7A
:10504000544B00221146022010F074FCF022494912
:1050500006A8FDF74FF800284CD10A23ADF802311D
:10506000454B4D4A1A606420FDF73AFC4B4A002339
:10507000CDE93C23DFF82881484BC8F80030642094
:10508000FDF72EFC0423ADF80031464A13600024DE
:10509000454B1C806420FDF723FC0523ADF8063149
:1050A000424F3B60142011F0F9F9414B1860D8F8D9
:1050B00000303A6893FBF2F33E4A13606420FDF738
:1050C0000FFC3D4B22462146022010F033FC4FF4EA
:1050D00000612848FDF72AF8D0B9F02206A9254832
:1050E000FCF7ECFF68B9254B00221146022010F0B6
:1050F00021FC13E0224B00221146022010F01AFC82
:10510000E5E7204B00221146022010F013FC05E0D9
:105110001D4B00221146022010F00CFC4FF4FA70D7
:10512000FDF7DEFB02F03AFD184B0022114602208B
:1051300010F000FC31E400262FE495F9082095F9E1
:10514000091095F90A00059004911C4951F8233083
:10515000039302920196EB680093194B00221146CB
:10516000032010F0E7FB1CE4704700BF30B60108D5
:1051700088C3010800F00308CC00002064BC0108CB
:105180007CB8010888BC0108A8BC0108D8C2010885
:10519000ACC30108DCC3010800002041A0BB0D0026
:1051A0004C00002040000020D809002044000020CE
:1051B000481000204800002010C4010810D2010847
:1051C0003CC4010838B51E4C01224FF40041204672
:1051D00003F01AFA01224FF40071204603F014FA8A
:1051E00001224FF40061204603F00EFA154810F03A
:1051F000F3FE07F07FFA48B1134B0022114602205C
:1052000010F098FB114810F041FF38BD104B002200
:105210001146022010F08EFB0E4C012525700E4B1E
:1052200000221146022010F085FB0C4807F0DAF846
:105230002946207806F092FE024810F027FFE1E7A9
:1052400000040048EC0F002084C40108BC0F0020BB
:10525000A4C4010850000020B8C40108A800002020
:1052600008B507F0D9FA10F1080F03D0B0F1FF3FED
:1052700007D008BD064B00221146022010F05AFB51
:10528000F7E7044B00221146022010F053FBF0E731
:10529000D8C40108F0C4010808B54FF40061024801
:1052A00003F0B7F908BD00BF0004004870B586B030
:1052B0000390354B00221146022010F03BFB0020EA
:1052C000FCF7F6FEA0B9314C314B9C423AD2082291
:1052D000214604A8FCF70EFF054690B9049A059BE9
:1052E000B3F1FF3F08BFB2F1FF3F14D00834EBE742
:1052F000284B00221146022010F01CFB4FF0FF3516
:1053000006E00094244B00221146022010F012FB0C
:10531000284606B070BD082203A92046FCF7CEFE41
:10532000054638B900941D4B00221146022010F0AA
:1053300001FBEDE700941A4B00221146022010F009
:10534000F9FAE5E7174B00221146022010F0F2FAB5
:105350004FF400610D48FCF7E9FE054660B903987B
:10536000FFF7A4FF05460028D2D00F4B00221146BC
:10537000022010F0DFFACBE70C4B0022114602208E
:1053800010F0D8FAC4E700BF08C5010800B0030850
:1053900000B8030828C5010850C5010898C50108D0
:1053A00074C50108C4C50108FCC50108DCC50108B5
:1053B00000284ED030B583B0044690F906305BBB70
:1053C000244810F009FE00224FF40061224803F047
:1053D0001BF9224B00221146022010F0ABFA204D9F
:1053E0002B6800931F4B00221146022010F0A2FAF6
:1053F0002868FFF75BFFE379012B06D01A4B0022E8
:105400001146022010F096FA15E0184B00221146C2
:10541000022010F08FFA0EE0154B002211460220F8
:1054200010F088FA0E4B1B680093124B00221146B5
:10543000022010F07FFA94F9043094F905200192CB
:1054400000930D4B00221146032010F073FA03B0B5
:1054500030BD7047F00E00200004004838C6010837
:105460001810002050C6010894C6010874C601082F
:10547000B4C60108D0C60108E4C6010808B5C27860
:10548000007940EA0220FBF78DFC0249FBF796FD0C
:1054900008BD00BF00007A442DE9F0470546894663
:1054A0004FF0000812E001344C450EDA55F8286040
:1054B00055F8247039463046FBF788FE0028F2D0B4
:1054C00045F8287045F82460EDE7D04609F1FF3330
:1054D000434503DD08F1010A5446E5E7BDE8F087DE
:1054E00011F0010F12D108B501EBD1714A106FF024
:1054F000404303EB610350F8221050F82300FBF700
:10550000A1FB4FF07C51FBF7A5FC08BD01EBD1716D
:10551000491050F82100704738B50025002408E0F4
:10552000094B1B6853F825102046FBF78BFB0446FC
:105530000135064B1868A842F2DCFBF737FC014640
:105540002046FBF73BFD38BD4810002044000020FA
:1055500030B5BDB0414C234600221146022010F068
:10556000E9F93F4B00221146022010F0E3F92346EF
:1055700000221146022010F0DDF93A4B00221146BC
:10558000022010F0D7F9F02237496846FCF7B2FD47
:10559000002840D10A23ADF8EA30344B344A1A606F
:1055A0003220FDF79DF9334A0023CDE93623324DF1
:1055B000304B2B603220FDF793F90423ADF8E8302F
:1055C0002E4A13602E4B00221A803220FDF788F9F4
:1055D0000523ADF8EE302B4C2360142010F05EFF55
:1055E000294B18602B68226893FBF2F3274A13605B
:1055F0004FF400611C48FCF799FDD0B9F0226946D0
:105600001948FCF75BFD68B9214B002211460220C6
:1056100010F090F913E01F4B00221146022010F009
:1056200089F9E5E71C4B00221146022010F082F9AF
:1056300005E01A4B00221146022010F07BF94FF4CE
:10564000FA70FDF74DF902F0A9FA044B0022114659
:10565000022010F06FF93DB030BD00BFD8C2010884
:10566000ACC30108DCC3010800F00308CC00002033
:1056700000002041A0BB0D004C0000204000002095
:10568000D8090020440000204810002048000020D5
:1056900064BC01087CB8010888BC0108A8BC0108EA
:1056A0002DE9F041B6B002AF012240214FF0904009
:1056B00002F0AAFF012280214FF0904002F0A4FFE7
:1056C00040F2DC50FDF70CF99B4A07F1640392E8C5
:1056D000030083E80300994B1B689B00073323F00A
:1056E0000703ADEB030D0DF1080800253CE0944BDA
:1056F00023449B780093934B00221146022010F024
:1057000019F93220FDF7ECF801348D4B1B88A342C8
:10571000EDDC8D48FFF7B2FE8C4C206048F8250088
:105720003220FDF7DDF82068FAF7E6FE02460B4668
:10573000874907F16C0011F095FE07F16C00FAF74C
:105740006FFD4FF47A7382B207F16C01814806F065
:1057500066F8814B00221146022010F0EBF84FF45E
:105760007A70FDF7BDF83546092D18DC6E1C0096E1
:105770007A4B00221146022010F0DCF8704A082112
:1057800007F16400FCF7C8F9FA20FDF7A9F8744B9B
:1057900000221146022010F0CDF80024B5E70A21BE
:1057A0004046FFF779FE0A214046FFF799FE04467E
:1057B0006C4B18606C4B186000216C4B1868FBF741
:1057C000DDFC48B100216A4B1868FBF7D7FC18B123
:1057D000674B1C60654B1C60644B19682046FBF7E7
:1057E000D7FC002848D0614B1C602046FAF784FEA5
:1057F00002460B465F4907F16C0011F033FE07F1DA
:105800006C00FAF70DFD4FF47A7382B207F16C0168
:10581000504806F004F8584B1968584A1268514825
:10582000006842F821001A6801321A60544B196866
:10583000FBF7CCFC50B3534B00221146022010F072
:1058400079F8514B514A1A60B4230093504B00220F
:105850001146022010F06EF801254E4B1D60042009
:1058600010F01CFE454B18604B4B00221A704B4B3E
:105870001D604B4B1D70B6E03D4B19682046FBF791
:10588000A5FC0028B1D03A4B1C60AEE7454B002286
:105890001146022010F04EF83B4B434A1A604FF479
:1058A000617300933A4B00221146022010F042F837
:1058B000384B05221A60142010F0F0FD2F4B1860B1
:1058C0000023364A1360364A1370384B00221146C3
:1058D000022010F02FF8D037BD46BDE8F081344AE1
:1058E00052680021D1540133314A52789A42F6DC91
:1058F0002F4D6B68294A12781A701A4E3068FBF7E0
:1059000095FC6A68C0F3072353703068FBF78EFC80
:105910006B68987003226A702649384611F0A2FD20
:105920003846FAF77DFC4FF47A7382B2394609485B
:1059300005F075FF002345E060B50108C8000020B0
:10594000080F002030B601080A0F002028100020A0
:1059500064C70108500C00203CB7010850C701087B
:1059600020C70108381000203C10002044100020FF
:10597000401000207CC701082C1000204810002097
:10598000CC00002098C701084C00002020BF020076
:10599000C4C70108440000201C100020341000205F
:1059A00030100020E8C70108A0BB0D0090C8010816
:1059B0005400002094C80108264A1268002142F8C9
:1059C00023100133244A12689A42F5DC234B5B7A98
:1059D0008BBB0022224BD978224806F079FB254662
:1059E0006420FCF77DFF002D3FF46FAF1E4B0022BB
:1059F000114602200FF09EFF06F054FB04460028DB
:105A0000EED11A4D2B460022114602200FF092FFD4
:105A1000174B0022114602200FF08CFF2B4600226C
:105A2000114602200FF086FF0E4B02221A7000234F
:105A3000104A137058E706F023FB0128C9D1074824
:105A400010F0CAFA00224FF400610B4802F0DCFDAE
:105A5000BFE700BF4810002044000020F00E0020E7
:105A6000A80000205400002010C801082CC801081C
:105A700060C8010810100020000400480000000069
:105A80002DE9F04FA3B000238DF88730ADF88430B6
:105A90001E23ADF880300423ADF878303F4B05ACC1
:105AA0000FCB07C4238005A8FAF7BAFB3C4E4FF48E
:105AB0007A7382B205A9304605F0B1FE05AC394DC6
:105AC0000FCD0FC40FCD0FC40FCD0FC495E8030049
:105AD00084E8030005A8FAF7A3FB4FF47A7382B2B7
