:020000040800F2
:1000000000800020F56C0008032600080526000883
:1000100007260008092600080B260008000000003B
:100020000000000000000000000000000D26000895
:100030000F26000800000000112600081326000803
:10004000456D0008456D000815260008456D00083F
:10005000456D0008456D0008252600082F2600087C
:10006000456D0008456D0008456D0008456D0008A8
:10007000456D0008456D0008456D000839260008EB
:10008000456D0008456D0008456D0008456D000888
:10009000456D0008456D000849260008456D0008BB
:1000A000456D0008456D0008456D0008456D000868
:1000B000456D0008456D0008456D0008456D000858
:1000C000456D0008456D0008456D0008456D000848
:1000D0005526000865260008456D0008456D000896
:1000E000456D0008456D000875260008456D00083F
:1000F000456D0008456D0008456D0008456D000818
:10010000456D0008456D000885260008456D00080E
:10011000456D0008456D0008456D0008456D0008F7
:10012000456D0008456D0008456D0008456D0008E7
:08013000456D0008456D000853
:1001400010B5054C237833B9044B13B10448AFF311
:1001500000800123237010BD300300200000000048
:1001600050B3010808B5034B1BB103490348AFF373
:10017000008008BD000000003403002050B30108D7
:1001800001F0FF01102A2BDB10F0070F08D010F848
:10019000013B013A8B422DD010F0070F42B3F6D14C
:1001A000F0B441EA012141EA014122F007047FF065
:1001B00000070023F0E80256083C85EA010586EABC
:1001C000010685FA47F5A3FA87F586FA47F6A5FAF8
:1001D00087F68EB9EED1F0BC01F0FF0102F0070204
:1001E00032B110F8013B013A83EA010313B1F8D1AF
:1001F0000020704701387047002D06BF3546033890
:10020000073815F0010F07D1013015F4807F02BFC8
:10021000013015F4C03F0130F0BC0138704700BF19
:10022000034613F8012B002AFBD1181A0138704736
:1002300081F0004102E000BF83F0004330B54FEA97
:1002400041044FEA430594EA050F08BF90EA020F04
:100250001FBF54EA000C55EA020C7FEA645C7FEA97
:10026000655C00F0E2804FEA5454D4EB5555B8BFBA
:100270006D420CDD2C4480EA020281EA030382EA2B
:10028000000083EA010180EA020281EA0303362DBD
:1002900088BF30BD11F0004F4FEA01314FF4801C90
:1002A0004CEA113102D0404261EB410113F0004FA2
:1002B0004FEA03334CEA133302D0524263EB430359
:1002C00094EA050F00F0A780A4F10104D5F1200EF7
:1002D0000DDB02FA0EFC22FA05F2801841F1000152
:1002E00003FA0EF2801843FA05F359410EE0A5F126
:1002F00020050EF1200E012A03FA0EFC28BF4CF057
:10030000020C43FA05F3C01851EBE37101F000450C
:1003100007D54FF0000EDCF1000C7EEB00006EEB19
:100320000101B1F5801F1BD3B1F5001F0CD34908A3
:100330005FEA30004FEA3C0C04F101044FEA4452FA
:1003400012F5800F80F09A80BCF1004F08BF5FEA81
:10035000500C50F1000041EB045141EA050130BD61
:100360005FEA4C0C404141EB0101013C28BFB1F573
:10037000801FE9D291F0000F04BF01460020B1FABE
:1003800081F308BF2033A3F10B03B3F120020CDA91
:100390000C3208DD02F1140CC2F10C0201FA0CF06F
:1003A00021FA02F10CE002F11402D8BFC2F1200CD4
:1003B00001FA02F120FA0CFCDCBF41EA0C0190408A
:1003C000E41AA2BF01EB0451294330BD6FEA0404D3
:1003D0001F3C1CDA0C340EDC04F11404C4F12002BE
:1003E00020FA04F001FA02F340EA030021FA04F3D0
:1003F00045EA030130BDC4F10C04C4F1200220FA27
:1004000002F001FA04F340EA0300294630BD21FA64
:1004100004F0294630BD94F0000F83F4801306BF2A
:1004200081F480110134013D4EE77FEA645C18BF1E
:100430007FEA655C29D094EA050F08BF90EA020FB5
:1004400005D054EA000C04BF1946104630BD91EAAD
:10045000030F1EBF0021002030BD5FEA545C05D1B0
:100460004000494128BF41F0004130BD14F58004EF
:100470003CBF01F5801130BD01F0004545F0FE4163
:1004800041F470014FF0000030BD7FEA645C1ABF98
:10049000194610467FEA655C1CBF0B46024650EACF
:1004A000013406BF52EA033591EA030F41F40021FB
:1004B00030BD00BF90F0000F04BF0021704730B581
:1004C0004FF4806404F132044FF000054FF0000156
:1004D00050E700BF90F0000F04BF0021704730B517
:1004E0004FF4806404F1320410F0004548BF4042EC
:1004F0004FF000013EE700BF42004FEAE2014FEA41
:1005000031014FEA02701FBF12F07F4393F07F4F1B
:1005100081F06051704732F07F4208BF704793F01E
:100520007F4F04BF41F40021704730B54FF4607431
:1005300001F0004521F000411CE700BF50EA010234
:1005400008BF704730B54FF000050AE050EA0102DD
:1005500008BF704730B511F0004502D5404261EB4D
:1005600041014FF4806404F132045FEA915C3FF48E
:10057000D8AE4FF003025FEADC0C18BF03325FEA2B
:10058000DC0C18BF033202EBDC02C2F1200300FADC
:1005900003FC20FA02F001FA03FE40EA0E0021FA01
:1005A00002F11444BDE600BF70B54FF0FF0C4CF4EF
:1005B000E06C1CEA11541DBF1CEA135594EA0C0FA1
:1005C00095EA0C0F00F0DEF82C4481EA030621EADC
:1005D0004C5123EA4C5350EA013518BF52EA033517
:1005E00041F4801143F4801338D0A0FB02CE4FF0C9
:1005F0000005E1FB02E506F00042E0FB03E54FF0F9
:100600000006E1FB03569CF0000F18BF4EF0010EF0
:10061000A4F1FF04B6F5007F64F5407404D25FEAEC
:100620004E0E6D4146EB060642EAC62141EA55519F
:100630004FEAC52040EA5E504FEACE2EB4F1FD0CE1
:1006400088BFBCF5E06F1ED8BEF1004F08BF5FEA5F
:10065000500E50F1000041EB045170BD06F0004611
:1006600046EA010140EA020081EA0301B4EB5C04BE
:10067000C2BFD4EB0C0541EA045170BD41F48011B6
:100680004FF0000E013C00F3AB8014F1360FDEBFDB
:10069000002001F0004170BDC4F10004203C35DAB7
:1006A0000C341BDC04F11404C4F1200500FA05F33A
:1006B00020FA04F001FA05F240EA020001F00042DB
:1006C00021F0004110EBD37021FA04F642EB060151
:1006D0005EEA430E08BF20EAD37070BDC4F10C047B
:1006E000C4F1200500FA04F320FA05F001FA04F23F
:1006F00040EA020001F0004110EBD37041F100012B
:100700005EEA430E08BF20EAD37070BDC4F1200535
:1007100000FA05F24EEA020E20FA04F301FA05F29D
:1007200043EA020321FA04F001F0004121FA04F245
:1007300020EA020000EBD3705EEA430E08BF20EA15
:10074000D37070BD94F0000F0FD101F0004640004F
:1007500041EB010111F4801F08BF013CF7D041EAD1
:10076000060195F0000F18BF704703F000465200D5
:1007700043EB030313F4801F08BF013DF7D043EAA6
:100780000603704794EA0C0F0CEA135518BF95EA5C
:100790000C0F0CD050EA410618BF52EA4306D1D1E3
:1007A00081EA030101F000414FF0000070BD50EA02
:1007B000410606BF1046194652EA430619D094EA8C
:1007C0000C0F02D150EA013613D195EA0C0F05D176
:1007D00052EA03361CBF104619460AD181EA0301CA
:1007E00001F0004141F0FE4141F470014FF0000082
:1007F00070BD41F0FE4141F4780170BD70B54FF01D
:10080000FF0C4CF4E06C1CEA11541DBF1CEA13559C
:1008100094EA0C0F95EA0C0F00F0A7F8A4EB05047E
:1008200081EA030E52EA03354FEA013100F0888075
:100830004FEA03334FF0805545EA131343EA12633E
:100840004FEA022245EA111545EA10654FEA0026F3
:100850000EF000419D4208BF964244F1FD0404F5AC
:10086000407402D25B084FEA3202B61A65EB030508
:100870005B084FEA32024FF480104FF4002CB6EBC5
:10088000020E75EB030E22BFB61A754640EA0C0045
:100890005B084FEA3202B6EB020E75EB030E22BF85
:1008A000B61A754640EA5C005B084FEA3202B6EBC6
:1008B000020E75EB030E22BFB61A754640EA9C0085
:1008C0005B084FEA3202B6EB020E75EB030E22BF55
:1008D000B61A754640EADC0055EA060E18D04FEA13
:1008E000051545EA16754FEA06164FEAC30343EAB3
:1008F00052734FEAC2025FEA1C1CC0D111F4801F80
:100900000BD141EA00014FF000004FF0004CB6E778
:1009100011F4801F04BF01430020B4F1FD0C88BF17
:10092000BCF5E06F3FF6AFAEB5EB030C04BFB6EB22
:10093000020C5FEA500C50F1000041EB045170BD15
:100940000EF0004E4EEA113114EB5C04C2BFD4EB42
:100950000C0541EA045170BD41F480114FF0000EC6
:10096000013C90E645EA060E8DE60CEA135594EA42
:100970000C0F08BF95EA0C0F3FF43BAF94EA0C0F45
:100980000AD150EA01347FF434AF95EA0C0F7FF4BA
:1009900025AF104619462CE795EA0C0F06D152EA0E
:1009A00003353FF4FDAE1046194622E750EA4106F2
:1009B00018BF52EA43067FF4C5AE50EA41047FF403
:1009C0000DAF52EA43057FF4EBAE12E74FF0FF3C68
:1009D00006E000BF4FF0010C02E000BF4FF0010C39
:1009E0004DF804CD4FEA410C7FEA6C5C4FEA430CB2
:1009F00018BF7FEA6C5C1BD001B050EA410C0CBF01
:100A000052EA430C91EA030F02BF90EA020F002062
:100A1000704710F1000F91EA030F58BF994208BFC9
:100A200090422CBFD8176FEAE37040F00100704786
:100A30004FEA410C7FEA6C5C02D150EA013C07D1DD
:100A40004FEA430C7FEA6C5CD6D152EA033CD3D028
:100A50005DF8040B704700BF8446104662468C4622
:100A60001946634600E000BF01B5FFF7B7FF002855
:100A700048BF10F1000F01BD4DF808EDFFF7F4FF7E
:100A80000CBF012000205DF808FB00BF4DF808ED09
:100A9000FFF7EAFF34BF012000205DF808FB00BF2C
:100AA0004DF808EDFFF7E0FF94BF012000205DF84E
:100AB00008FB00BF4DF808EDFFF7CEFF94BF012003
:100AC00000205DF808FB00BF4DF808EDFFF7C4FFFC
:100AD00034BF012000205DF808FB00BF4FEA410C45
:100AE0007FEA6C5C02D150EA013C0AD14FEA430C28
:100AF0007FEA6C5C02D152EA033C02D14FF0000065
:100B000070474FF0010070474FEA410212F50012A2
:100B100015D211D56FF47873B3EB625212D94FEA44
:100B2000C12343F0004343EA505311F0004F23FA2E
:100B300002F018BF404270474FF00000704750EA83
:100B4000013005D111F0004008BF6FF00040704740
:100B50004FF00000704700BF4A0011D212F500129A
:100B600011D20DD56FF47873B3EB62520ED44FEA05
:100B7000C12343F0004343EA505323FA02F0704785
:100B80004FF00000704750EA013002D14FF0FF30C3
:100B900070474FF0000070474FEA4102B2F1E04366
:100BA00024BFB3F5001CDCF1FE5C0DD901F0004C54
:100BB0004FEAC0024CEA5070B2F1004F40EB8300A4
:100BC00008BF20F00100704711F0804F21D113F1D0
:100BD0003872BCBF01F00040704741F480114FEA09
:100BE0005252C2F11802C2F1200C10FA0CF320FA92
:100BF00002F018BF40F001004FEAC1234FEAD323AF
:100C000003FA0CFC40EA0C0023FA02F34FEA430318
:100C1000CCE77FEA625307D150EA01331EBF4FF0A1
:100C2000FE4040F44000704701F0004040F0FE40BC
:100C300040F40000704700BF80F0004002E000BFB9
:100C400081F0004142001FBF5FEA410392EA030FB7
:100C50007FEA226C7FEA236C6AD04FEA1262D2EB01
:100C60001363C1BFD218414048404140B8BF5B4206
:100C7000192B88BF704710F0004F40F4000020F09F
:100C80007F4018BF404211F0004F41F4000121F0B5
:100C90007F4118BF494292EA030F3FD0A2F10102FF
:100CA00041FA03FC10EB0C00C3F1200301FA03F13D
:100CB00000F0004302D5494260EB4000B0F5000F60
:100CC00013D3B0F1807F06D340084FEA310102F11F
:100CD0000102FE2A51D2B1F1004F40EBC25008BFD1
:100CE00020F0010040EA03007047490040EB00009B
:100CF000013A28BFB0F5000FEDD2B0FA80FCACF19C
:100D0000080CB2EB0C0200FA0CF0AABF00EBC250C8
:100D100052421843BCBFD0401843704792F0000FB6
:100D200081F4000106BF80F400000132013BB5E709
:100D30004FEA41037FEA226C18BF7FEA236C21D07F
:100D400092EA030F04D092F0000F08BF08467047E4
:100D500090EA010F1CBF0020704712F07F4F04D1B2
:100D6000400028BF40F00040704712F100723CBFC5
:100D700000F50000704700F0004343F0FE4040F4EF
:100D8000000070477FEA226216BF08467FEA2363AD
:100D90000146420206BF5FEA412390EA010F40F498
:100DA000800070474FF0000304E000BF10F00043E4
:100DB00048BF40425FEA000C08BF704743F09643CB
:100DC00001464FF000001CE050EA010208BF7047E6
:100DD0004FF000030AE000BF50EA010208BF70476D
:100DE00011F0004302D5404261EB41015FEA010C82
:100DF00002BF84460146002043F0B64308BFA3F17A
:100E00008053A3F50003BCFA8CF2083AA3EBC2535B
:100E100010DB01FA02FC634400FA02FCC2F120027A
:100E2000BCF1004F20FA02F243EB020008BF20F0B1
:100E30000100704702F1200201FA02FCC2F1200217
:100E400050EA4C0021FA02F243EB020008BF20EA0C
:100E5000DC7070474FF0FF0C1CEAD0521EBF1CEA3A
:100E6000D15392EA0C0F93EA0C0F6FD01A4480EA28
:100E7000010C400218BF5FEA41211ED04FF0006311
:100E800043EA501043EA5111A0FB01310CF000403D
:100E9000B1F5000F3EBF490041EAD3715B0040EA63
:100EA000010062F17F02FD2A1DD8B3F1004F40EB33
:100EB000C25008BF20F00100704790F0000F0CF006
:100EC000004C08BF49024CEA502040EA51207F3ACA
:100ED000C2BFD2F1FF0340EAC250704740F40000A5
:100EE0004FF00003013A5DDC12F1190FDCBF00F096
:100EF00000407047C2F10002410021FA02F1C2F144
:100F0000200200FA02FC5FEA310040F1000053EADF
:100F10004C0308BF20EADC70704792F0000F00F02D
:100F2000004C02BF400010F4000F013AF9D040EA33
:100F30000C0093F0000F01F0004C02BF490011F4C7
:100F4000000F013BF9D041EA0C018FE70CEAD153C5
:100F500092EA0C0F18BF93EA0C0F0AD030F0004C45
:100F600018BF31F0004CD8D180EA010000F00040F9
:100F7000704790F0000F17BF90F0004F084691F0B7
:100F8000000F91F0004F14D092EA0C0F01D14202F1
:100F90000FD193EA0C0F03D14B0218BF084608D1BA
:100FA00080EA010000F0004040F0FE4040F4000004
:100FB000704740F0FE4040F4400070474FF0FF0C97
:100FC0001CEAD0521EBF1CEAD15392EA0C0F93EADE
:100FD0000C0F69D0A2EB030280EA010C49024FEA30
:100FE000402037D04FF0805343EA111143EA1013E9
:100FF0000CF000408B4238BF5B0042F17D024FF4A1
:10100000000C8B4224BF5B1A40EA0C00B3EB510F7B
:1010100024BFA3EB510340EA5C00B3EB910F24BF64
:10102000A3EB910340EA9C00B3EBD10F24BFA3EBE9
:10103000D10340EADC001B0118BF5FEA1C1CE0D1B1
:10104000FD2A3FF650AF8B4240EBC25008BF20F064
:10105000010070470CF0004C4CEA50207F32C2BFB8
:10106000D2F1FF0340EAC250704740F400004FF055
:101070000003013A37E792F0000F00F0004C02BF86
:10108000400010F4000F013AF9D040EA0C0093F050
:10109000000F01F0004C02BF490011F4000F013BAA
:1010A000F9D041EA0C0195E70CEAD15392EA0C0F12
:1010B00008D142027FF47DAF93EA0C0F7FF470AF4A
:1010C000084676E793EA0C0F04D14B023FF44CAF8D
:1010D00008466EE730F0004C18BF31F0004CCAD122
:1010E00030F000427FF45CAF31F000437FF43CAF5E
:1010F0005FE700BF4FF0FF3C06E000BF4FF0010C80
:1011000002E000BF4FF0010C4DF804CD4FEA400261
:101110004FEA41037FEA226C18BF7FEA236C11D0AB
:1011200001B052EA530C18BF90EA010F58BFB2EB5E
:10113000030088BFC81738BF6FEAE17018BF40F0DE
:10114000010070477FEA226C02D15FEA402C05D192
:101150007FEA236CE4D15FEA412CE1D05DF8040B17
:10116000704700BF844608466146FFE70FB5FFF7AA
:10117000C9FF002848BF10F1000F0FBD4DF808ED62
:10118000FFF7F4FF0CBF012000205DF808FB00BF53
:101190004DF808EDFFF7EAFF34BF012000205DF8AD
:1011A00008FB00BF4DF808EDFFF7E0FF94BF0120FA
:1011B00000205DF808FB00BF4DF808EDFFF7D2FFF7
:1011C00094BF012000205DF808FB00BF4DF808ED3A
:1011D000FFF7C8FF34BF012000205DF808FB00BF07
:1011E0004FEA4002B2F1FE4F0FD34FF09E03B3EB34
:1011F00012620DD94FEA002343F0004310F0004F74
:1012000023FA02F018BF404270474FF000007047C9
:1012100012F1610F01D1420205D110F0004008BF68
:101220006FF0004070474FF00000704742000ED250
:10123000B2F1FE4F0BD34FF09E03B3EB126209D411
:101240004FEA002343F0004323FA02F070474FF0C7
:101250000000704712F1610F01D1420202D14FF03C
:10126000FF3070474FF00000704700BF53B94AB9D4
:10127000002908BF00281CBF4FF0FF314FF0FF309E
:1012800000F0A8B9ADF1080C6DE904CE00F03EF80D
:10129000DDF804E0DDE9022304B0704738B5054607
:1012A0000C462846214600220023FFF7EFFB28B911
:1012B00028462146BDE8384000F00AB8284604F127
:1012C000004100F005F8404261EB410138BD00BF2C
:1012D000D0B50C4B002206460F46FFF765F9FFF725
:1012E0003BFC0446FFF7E6F8074B0022FFF75CF9EA
:1012F00002460B4630463946FEF79EFFFFF72CFCB0
:101300002146D0BD0000F03D0000F0412DE9F0473E
:10131000089E0D4604460F46002B4AD18A42944649
:1013200065D9B2FA82F343B102FA03FCC3F1200299
:101330009F4020FA02F217439C404FEA1C4E1FFACE
:101340008CF5B7FBFEF1220C0EFB117742EA074247
:1013500001FB05F090420AD91CEB020201F1FF37B4
:1013600080F01B81904240F2188102396244121AC7
:10137000A4B2B2FBFEF00EFB102244EA024400FBD2
:1013800005F5A5420AD91CEB040400F1FF3280F0F8
:101390000681A54240F203816444023840EA0140DC
:1013A000641B00211EB1DC400023C6E90043BDE8F8
:1013B000F0878B4208D9002E00F0EC800021C6E9AE
:1013C00000050846BDE8F087B3FA83F1002949D14A
:1013D000AB4202D3824200F2F780841A65EB03022B
:1013E00001201746002EE2D0C6E90047DFE702B928
:1013F000FFDEB2FA82F3002B40F08F808A1A4FEAA8
:101400001C471FFA8CFE0121B2FBF7F507FB1520E4
:10141000220C42EA00420EFB05F0904208D91CEB78
:10142000020205F1FF3802D2904200F2CA8045461E
:10143000121AA4B2B2FBF7F007FB102244EA0244EE
:101440000EFB00FEA64508D91CEB040400F1FF3298
:1014500002D2A64500F2BA801046A4EB0E0440EA80
:1014600005409FE7C1F120078B4022FA07FC4CEAB8
:10147000030C05FA01F420FA07F3FD40234300FAB8
:1014800001F94FEA1C401FFA8CFEB5FBF0F81C0C6A
:1014900000FB185544EA054408FB0EF5A54202FA84
:1014A00001F20BD91CEB040408F1FF3A80F08780AD
:1014B000A54240F28480A8F102086444641B9DB2F6
:1014C000B4FBF0F300FB134445EA044403FB0EFEB7
:1014D000A64508D91CEB040403F1FF306BD2A645E6
:1014E00069D9023B644443EA0840A0FB0283A4EBB1
:1014F0000E049C42C6461D4655D352D056B1B9EB98
:101500000E0364EB050404FA07F7CB40CC401F43FD
:10151000C6E900740021BDE8F087C3F1200102FA9A
:1015200003FC20FA01F225FA01F19D402A434FEA1B
:101530001C471FFA8CFEB1FBF7F007FB1015110CCE
:1015400041EA054100FB0EF58D4204FA03F408D987
:101550001CEB010100F1FF382FD28D422DD902384A
:101560006144491B92B2B1FBF7F507FB151142EA42
:10157000014205FB0EF1914208D91CEB020205F174
:10158000FF3816D2914214D9023D6244521A45EAFC
:10159000004139E73146304609E73946E7E610466B
:1015A000FCE6C145AAD2B8EB020E63EB0C0501388C
:1015B000A4E74546EAE7034695E74046D1E7D0462B
:1015C0007CE7023D624433E708460BE76444023897
:1015D00043E700BF704700BF70B5ADF5747D0646A8
:1015E00000248DF800408DF801408DF803408DF8FF
:1015F00004408DF802401FE0E500C4EBC400C000C9
:101600000830684420220021013015F057FF2B1BC1
:101610000DEBC30308221A72002283F82920002050
:101620000021C3E90C010134C4EBC403DB000DF855
:1016300003200A2001F03AF90F2CDDDD013E4FF4C2
:101640000061164B53F8260000F062FDE0B9144B20
:1016500000221146022014F075F84FF474726946A6
:101660000E4B53F8260000F01BFD30B90D4B002245
:101670001146022014F066F80CE00B4B00221146D4
:10168000022014F05FF805E0084B0022114602200A
:1016900014F058F80DF5747D70BD00BF00000020F7
:1016A000DCB40108E8B40108F4B4010800B501088D
:1016B00084B030B585B008AC84E80F009DF8C853FD
:1016C000644B00221146022014F03CF800240CE088
:1016D00004F120036B4493F8883300935E4B00229F
:1016E0001146022014F02EF80134A542F0DC5B4BC9
:1016F00000221146022014F025F89DF822300093B4
:10170000574B00221146022014F01CF89DF823309C
:101710000093544B00221146022014F013F89DF858
:1017200024300093504B00221146022014F00AF896
:101730009DF82030012B00F086804C4B00934C4BE1
:1017400000221146022013F0FDFF9DF8C9330093DB
:10175000484B00221146022013F0F4FF9DF8CA33D3
:101760000093454B00221146022013F0EBFFBDF819
:10177000D6330093414B00221146022013F0E2FFC2
:101780009DF8D8339DF8D9239DF8DA139DF8DB0333
:101790000390029101920093394B002211460220DE
:1017A00013F0D0FF9DF8DC339DF8DD239DF8DE13A8
:1017B0009DF8DF030390029101920093314B0022C8
:1017C0001146022013F0BEFF9DF8E0339DF8E1239F
:1017D0009DF8E2139DF8E3030390029101920093B8
:1017E000294B00221146022013F0ACFF9DF8E43390
:1017F0009DF8E5239DF8E6139DF8E7030390029119
:1018000001920093214B00221146022013F09AFF0F
:101810009DF8E833CBB11E4B00931E4B00221146BE
:10182000022013F08FFF9DF8D43383B1184B00933F
:10183000194B00221146022013F084FF05B0BDE8C9
:10184000304004B07047124B78E7084BE4E7074B91
:10185000EDE700BF1CB5010840B4010850CA0108FB
:1018600030B5010840B5010850B5010814B50108AC
:1018700060B5010878B5010888B50108A0B5010870
:10188000BCB50108E0B5010808B6010834B6010886
:101890000CB5010860B6010874B6010830B5ADF5A5
:1018A000777D04464FF47472434B53F8201002A81E
:1018B00000F012FC002877D106238DF8B0333F4B9F
:1018C00093E803000090ADF80410002307E01DF832
:1018D000031002AA1A4482F888130133DBB2052BE5
:1018E000F5D900238DF8B1338DF8B233ADF8BE339E
:1018F000194663F3070163F30F2163F3174163F3A1
:101900001F611A4663F3070263F30F2263F3174262
:1019100063F31F621D4663F3070563F30F2563F34B
:10192000174563F31F65184663F3070063F30F2041
:1019300063F3174063F31F60F095F190F291F39217
:101940008DF8D0338DF8D1338DF8BC334FF400616E
:10195000194B53F8240000F0DBFBE0B9184B0022D0
:101960001146022013F0EEFE4FF4747202A9124BDE
:1019700053F8240000F094FB30B9124B00221146BA
:10198000022013F0DFFE0CE00F4B00221146022074
:1019900013F0D8FE05E00D4B00221146022013F093
:1019A000D1FE0DF5777D30BD094B00221146022096
:1019B00013F0C8FEF5E700BF0000002068B301087F
:1019C000DCB40108E8B40108F4B4010800B501086A
:1019D0008CB6010810B5ADF5F26D04464FF4747283
:1019E000114B53F82010F0A800F076FBA0B900943A
:1019F0000E4B00221146022013F0A4FEF0AC4FF46F
:101A00007072F4A9684615F0FAFD94E80F00FFF72C
:101A10004FFE0DF5F26D10BD054B00221146022060
:101A200013F090FEF5E700BF00000020A4B6010807
:101A30008CB6010800B583B001904FF0FF3301224E
:101A400001A9034809F0EDFD019803B05DF804FB1E
:101A5000500C00200F2800D970472DE9F84F0D4693
:101A600017461E46DFF8749000EB00144FEA840B13
:101A700009EB840444220021204615F01FFD28684C
:101A80006968AA68EB6849F80B006160A260E360CE
:101A900028696969AA69EB6920616161A261E361F2
:101AA00084F8207084F821609DF8283084F8223072
:101AB000BDF82C30E3850C9B23630D9B63630E9B69
:101AC000A3630F9BE3639DF8403084F840309DF89A
:101AD000443084F84130BDE8F88F00BF4C0300204B
:101AE00038B50D46144694220146034815F087FD8B
:101AF000024B1D601C7138BD940700208C0700202C
:101B000008B50A464FF0FF330146024809F089FD47
:101B100008BD00BF940700202DE9F04105460E46A0
:101B2000144602F1020896220021404615F0C6FC38
:101B3000002727800C4C01222179206806F066FCE2
:101B400001224146094809F0DBFE31462846FFF7ED
:101B5000D7FF3A462179206806F058FC012000F0B2
:101B6000A5FEBDE8F08100BF8C070020940700208F
:101B700008B50388952B0ED8084A1268516AC21816
:101B800091700133038030F8021B012201440348A5
:101B900009F0B6FE08BD00230380F4E79407002097
:101BA00008B51348134B03604FF000434360002314
:101BB0008360C360036104224261037643768376C7
:101BC0000122C26180F820304362836280F82C30A9
:101BD0004FF48052026307224263826380F83C30F4
:101BE000C36405F09BF900B908BD00F0C1FBFBE739
:101BF00028080020002401400268094B9A4200D0C6
:101C0000704782B04FF0B0431A6E42F400721A6609
:101C10001B6E03F400730193019B02B0704700BF79
:101C2000002401400268054B9A4200D070474FF0F3
:101C3000B042136E23F400731366F7E700240140EB
:101C400030B585B004460023019302930393FFF758
:101C5000A7FF164805F09AFDF8B9019400230293F6
:101C6000039301A9114805F0D3FAC8B90F4805F04C
:101C700091FCC0B90D4C4FF0FF31204605F066FADB
:101C8000204605F063FD204605F0BFFA05462046D4
:101C900005F0FCFC284605B030BD00F069FBDCE730
:101CA00000F066FBE2E700F063FBE3E728080020B2
:101CB000014B024A1A6070472808002000240140A6
:101CC00008B50D48FFF7BCFFA0B103460B4AB2F8B8
:101CD000AA004FF6FF72904207D040F6E44202FBA2
:101CE00000F0B0FBF3F080B205E00548B0FBF3F084
:101CF00080B200E0002008BD002000B40075FF1F86
:101D0000D8084C0010B582B00023ADF80630FFF7BC
:101D1000D7FF04462148FFF793FF214BB3F8C820B3
:101D2000B3F8A8108A421DD000FB04F39B081D489D
:101D3000A0FB0303C1EB5313642000FB03F3521A0F
:101D400093FBF2F31E331BB2ADF80630BDF806303C
:101D50001BB21B021BB2ADF80630BDF8060000B284
:101D600002B010BD04FB00F00F4BA3FB0023C41A0C
:101D700003EB5403DB0A4FF47A7202FB03F3A3F57F
:101D80003923A3F50C63094A82FB0312DB17C3EB6B
:101D9000A2231E331BB2ADF80630D7E7001000B007
:101DA0000075FF1F9F00EE0901011000AD8BDB687D
:101DB00000B583B04FF0B0439A6C42F004029A64CD
:101DC0009A6C02F004020192019A9A6C42F00102AC
:101DD0009A649B6C03F001030093009B0022022194
:101DE0000F2005F085FD0F2005F0BAFD03B05DF86A
:101DF00004FB002301E0083008338B420AD242681A
:101E0000D0F800C0B2F1FF3F08BFBCF1FF3FF2D0F5
:101E1000012070470020704730B108B539B192B247
:101E200013F0A6FD002008BD6FF0050070476FF0AD
:101E30000500F8E708B506F075F878B9094B9A6916
:101E400042F040429A614CF2FA321A6106F082F88E
:101E500008B9002008BD6FF00400FBE76FF0040034
:101E6000F8E700BF0040005870B584B0002303932A
:101E7000002839D00E460446FFF7DCFF054610B1B6
:101E8000284604B070BD06F04DF880BB02230093D5
:101E900004F178431748D0F8E015174A02EA812187
:101EA000B3FBF1FC01FB1C33DB0A0193A11901F127
:101EB00078410139D0F8E00502EA8022B1FBF2F066
:101EC00002FB1011C3EBD1230133029303A968462F
:101ED00006F00CF918B1022804D06FF0010506F0E5
:101EE00039F8CDE70125FAE76FF00505C8E76FF08F
:101EF0000405C5E70070FF1F00FCFF032DE9F04F4C
:101F000089B0039004920191002800F0A9808346D3
:101F1000002900F0A98012F0070F40F0A98010F00E
:101F20000703059340F0A880FFF784FF029018B1E3
:101F3000029809B0BDE8F08F05F0F4FF002840F0EA
:101F40009F80039C04F178424F4BD3F8E0354F4912
:101F500001EA8321B2FBF1F301FB1322D30A0693BA
:101F6000049BE31803F17843013BB3FBF1F001FB61
:101F70001033DB0AA3EBD22301330793012B06D9DD
:101F8000C4F30A09C9F50069DDF818A02FE0DDF8EF
:101F90001090F9E7C846019F5C46059D454515D25E
:101FA000EE19D6E900232146012006F017F850B9B2
:101FB00020686268E95973689A4208BF884241D133
:101FC00008340835EAE76FF003030293029B002B05
:101FD0003FD1CB44019B4B440193049BA3EB0909E4
:101FE000B9F5006F28BF4FF400690AF1010A069B9A
:101FF000079A134453452CD90AF58034E402494624
:102000000398FFF7F6FE0028C4D0214B1868E8B10A
:102010004FF400622146FFF7FFFE1D4B1B68CBF318
:102020000A001FFA89F20199184413F0A1FC4FF439
:1020300000612046FFF718FF70B9154B1F684FF479
:102040000068AAE76FF003030293BFE76FF0050390
:10205000029305F07FFF6BE76FF001030293F8E74F
:102060006FF00503029363E76FF0050302935FE7E8
:102070006FF0050302935BE76FF00503029357E7E8
:102080006FF00403029353E70070FF1F00FCFF038F
:102090008C080020014B1860002070478C0800203D
:1020A000B0F1006F0ED310B5094BD3F8E045094BE2
:1020B00003EA842303F10063013B984205D8FFF74C
:1020C0001DFF10BD4FF0FF3070474FF0FF30F8E7B5
:1020D0000070FF1F00FCFF03B1F1006F0ED310B5BD
:1020E000094BD3F8E045094B03EA842303F100636D
:1020F000013B994205D8FFF78FFE10BD4FF0FF302E
:1021000070474FF0FF30F8E70070FF1F00FCFF033F
:10211000B0F1006F0ED308B5094BD3F8E025094B99
:1021200003EA822303F10063013B984205D8FFF7DD
:102130009BFE08BD4FF0FF3070474FF0FF30F8E7CF
:102140000070FF1F00FCFF032DE9F04389B000245D
:10215000039404940594069407944FF0B043DA6C0A
:1021600042F00102DA64DA6C02F001020292029A91
:10217000DA6C42F00202DA64DA6C02F002020192D6
:10218000019ADA6C42F00402DA64DB6C03F00403B7
:102190000093009B3B4E22464FF43A41304606F0F6
:1021A00035F9DFF8E48022460421404606F02EF996
:1021B00022464FF4F8714FF0904006F027F94FF4A3
:1021C0000A4303930125049505940223069303A96A
:1021D000304605F0CBFF0423039304950594069441
:1021E00003A9404605F0C2FF032703974FF40419E3
:1021F000CDF81090059503A94FF0904005F0B6FF7B
:102200004FF44053039304950594069703A9304671
:1022100005F0ACFF062703970494059403A9304604
:1022200005F0A4FF40230393CDF81090059503A972
:10223000404605F09BFF4FF4F87303930495059413
:10224000069403A94FF0904005F090FF22462146E6
:10225000384605F04DFB384605F082FB2246214604
:10226000072005F045FB072005F07AFB22462146B2
:10227000162005F03DFB162005F072FB09B0BDE805
:10228000F08300BF000400480008004808B5124869
:10229000124B0360124B4360002383600122C26033
:1022A000036143618361C361036206F07BFA50B945
:1022B0000021094806F080FC40B90021064806F0DC
:1022C000A9FC30B908BD00F053F8F1E700F050F870
:1022D000F3E700F04DF8F5E79008002000540040C7
:1022E0005D3E302010B596B0044600211191129148
:1022F000139114911591382203A815F0DFF8226884
:10230000194B9A4201D016B010BD402303934FF4ED
:102310004033089303A807F0C9FA08BB4FF0B04454
:10232000E36C43F00203E364E36C03F00203029303
:10233000029BC0231193122312930023139314932F
:102340000423159311A9094805F010FFA36D43F468
:102350000013A365A36D03F400130193019BD2E75F
:1023600000F006F8DAE700BF00540040000400481F
:1023700072B6FEE710B59AB04822002108A815F001
:102380009DF8002401940294039404940594069407
:10239000079406F06BFC4FF0B042D2F8903023F077
:1023A0001803C2F8903002F58062136823F4C0630A
:1023B00043F400731360136803F4C0630093009B3D
:1023C0002423089381230B93012310931194B023AA
:1023D0001293139408A806F0E3FD70B94F230193FC
:1023E000002302930393049305930793022101A80A
:1023F00007F008F918B91AB010BDFFF7B9FFFFF7D9
:10240000B7FF000010B582B004F03AFDFFF7B2FF4D
:10241000FFF79AFE02F008F9FFF738FF00F054FCCE
:102420001E4C04221E492046FFF75AFB00F080FC98
:1024300001221C491C4809F063FA01221B4920466D
:1024400009F05EFA00F026FA044600F023FAF022C2
:1024500017491848FFF740FEC0B9164BD3E9382397
:10246000CDE90023144B00221146022013F06AF933
:1024700000F010FA001B41F287339842F8D90F4B55
:102480001B78002BF4D102F0D5F8F1E70C4B0022B9
:102490001146022013F056F9EAE700BFBC0B0020FA
:1024A00000080048D50D0020500C0020DC09002059
:1024B00000F00308E8080020C8B60108E00D00207D
:1024C0008CB6010800B58DB02C22002101A814F0B3
:1024D000F5FF1948194B03601F2383600023036134
:1024E000436183614FF08042C26103624FF48073A5
:1024F000436207F0EBFBA8B90F4807F029FDA0B92C
:1025000000220892029206924FF0005307934FF474
:1025100080730B9301A9084807F03EFC40B90DB049
:102520005DF804FBFFF724FFE6E7FFF721FFE7E78D
:10253000FFF71EFFF3E700BF080B00200028004054
:1025400010B590B004463822002102A814F0B6FF5E
:1025500022681A4B9A4201D010B010BD4FF480335C
:1025600002934FF480730F9302A807F09FF908BB02
:102570004FF0B043D3F8902042F40042C3F89020CB
:102580009A6D42F480629A659B6D03F480630193B7
:10259000019B00221146022005F0AAF9022005F055
:1025A000DFF9002211462A2005F0A2F92A2005F0C1
:1025B000D7F9D1E7FFF7DCFEDAE700BF00280040DB
:1025C0007047704708B504F071FC0120024BC3F856
:1025D000880006F0AFFB08BD0004005808B504F001
:1025E0006CFC08BD08B504F068FC00F017FD08BDE0
:1025F00008B504F05BFC0121002006F03FFB08BD9C
:102600007047FEE7FEE7FEE7FEE7FEE7704770472C
:102610007047704708B5024807F0C6FC08BD00BF08
:10262000080B002008B5012005F0FEFE08BD08B526
:10263000022005F0F9FE08BD08B5024805F0C0FB10
:1026400008BD00BF5C0B002008B5402005F0ECFE83
:1026500008BD000008B5024808F064F908BD00BFD5
:10266000BC0B002008B5024808F05CF908BD00BFAB
:10267000500C002008B5024807F0A2FA08BD00BFC0
:10268000080B002008B5024807F042FF08BD00BF54
:10269000400B002008B505480823036007F0BAFC8A
:1026A00000B908BDFFF764FEFBE700BF400B002048
:1026B00000B583B04FF0B0435A6E42F001025A6643
:1026C0005B6E03F001030193019B0022114632204F
:1026D00005F00EF9322005F043F903B05DF804FB74
:1026E0000CB400B583B004AB53F8042B019313F082
:1026F00019FD03B05DF804EB02B0704730B585B04A
:1027000004460D4602A813F081FABDF90C3000937F
:10271000029B054A10212046FFF7E2FF2046FDF705
:102720007FFD288005B030BD08B7010810B54FF017
:10273000B042936823F40043936013F0EBFA012452
:102740000D4B1C7000F0BCF812F088FF0B4812F023
:102750009FFF0B4B4FF400421A61022012F09EFFC4
:10276000FFF7A6FA00F014F913F0A8F82146204666
:1027700013F0C4F810BD00BF4C0B0020FD2600086C
:102780000040005808B513F0CFF808BD08B5FFF7B2
:1027900097FA40F6B83398420DD8B0F5E16F0CD3F4
:1027A000A0F5E160C0EBC0104000054BA3FB00307A
:1027B000C0F3C71000E0FE2008BD0020FCE700BF0A
:1027C000B5814E1B00B587B0684600F0C5F801988A
:1027D000FEF706FD00B207B05DF804FB38B504460D
:1027E000184BD3F88035B3F1FF3F13D0C3711A0AE9
:1027F00082711A0C42711B0E0371124BD3F884259F
:10280000C270D3F884351A0A82701A0C42701B0EFB
:10281000037038BD04F058FB054604F061FB054425
:1028200004F058FB2B0EE3712B0CA3712B0A637180
:102830002571030EE370030CA370030A637020700C
:10284000E7E700BF0070FF1F38B50A4BD3F88035AB
:102850000360B3F1FF3F00D038BD044604F034FB01
:10286000054604F037FB454004F03AFB454025603F
:10287000F2E700BF0070FF1F08B50121022013F02E
:1028800027F808BD08B50021022013F021F808BD83
:102890000020704708B5044B1B780BB9002008BD19
:1028A00000F000F9FBE700BF4C0B002000B583B03F
:1028B0000190019800F0DCF903B05DF804FB000022
:1028C000F0B589B0224AD2F8903043F48043C2F880
:1028D000903004F00BFB04F011FB04F017FB002414
:1028E000039404940594069407940123049303230A
:1028F00006934FF0B043DA6C42F00202DA64DA6C0D
:1029000002F002020292029ADA6C42F00202DA64E7
:10291000DB6C03F002030193019B4FF48057039794
:102920000C4D03A9284605F021FC4FF400560396F0
:1029300003A9284605F01AFC22463946284605F028
:1029400065FD22463146284605F060FD09B0F0BD20
:10295000000800580004004810B50446FFF7D2F9FB
:1029600040F30F20FEF722FA054BA3606060054B91
:102970002360054BE360054B2361002010BD00BFC1
:102980000000484200007A440D093E00AB030500F8
:10299000002070470120704708B514F003FE16238D
:1029A00003604FF0FF3008BD08B54FF0FF31FFF76F
:1029B000F3FFFEE770B50C461646002506E0AFF3C0
:1029C0000080214601F8010B01350C46B542F6DBCB
:1029D000304670BD70B50C461646002504E014F86C
:1029E000010BFFF727F80135B542F8DB304670BD23
:1029F0004FF0FF3070474FF400534B60002070479A
:102A0000012070470020704710B503460C4A0D495D
:102A10000D48006840B10C4800680344521A9342C4
:102A200006D8094A136010BD0748084C0460F2E755
:102A300014F0B8FD0C2303604FF0FF30F3E700BF44
:102A40000080002000080000500B002080230020A0
:102A5000064B986801E0054B9868044B9B688342DD
:102A6000F9D1C043024B1860704700BF00280040F6
:102A7000580B0020014B1868704700BF580B00200E
:102A8000064B986801E0054B9868044B9B688342AD
:102A9000F9D1C043024B1B68C01A704700280040A0
:102AA000580B0020074B1B7853B1074B986801E087
:102AB000054B9868044B9B688342F9D1C04370472B
:102AC00000207047540B002000280040032070476E
:102AD00008B501464FF47A7200238002890DFEF793
:102AE000C5FB08BDC20E43011B1A62F10002920031
:102AF00042EA93729B001B1842F10000C00040EABA
:102B00005370C3F3D51343EA8050704710B5074B99
:102B10000122DA65064C4FF48071204607F010F868
:102B20004FF0FF332363002010BD00BF002800409A
:102B3000080B002008B502460221024807F049FAB6
:102B400008BD00BF080B002038B50F4B1B780BB138
:102B5000002038BD0D4C4FF0FF352563FFF7B2FC68
:102B6000FFF7D4FF4FF48071204606F0E9FF25639C
:102B7000204607F0CDF90020FFF7DCFFFFF768FFE4
:102B8000014B01221A70E3E7540B0020080B0020D0
:102B900008B502460021024807F01BFA08BD00BF35
:102BA000080B002008B502460121024807F011FA7F
:102BB00008BD00BF080B002010B58CB004462C22C5
:102BC000002101A814F07AFCFFF7A0FF0C4B1B6852
:102BD0001C4400230893E443029406934FF00053EF
:102BE00007934FF480730B93012201A9054807F066
:102BF000D3F810B900200CB010BDFFF7B9FBF9E70E
:102C0000580B0020080B002008B50221014807F0EE
:102C1000E7F908BD080B002038B505460B4B9C684A
:102C200001E00A4B9C68094A9268A242F9D1E44348
:102C3000FFF7EAFF2346A40A44EA8054C3F30900DD
:102C4000FFF750FF2880204638BD00BF0028004015
:102C500008B50021014807F0C3F908BD080B0020A2
:102C600008B50121014807F0BBF908BD080B002099
:102C700008B5FFF72DFF0D4B996801E00B4B9968E4
:102C80000A4A92688A42F9D1C9430AE0074B9B6815
:102C9000064A92689A42F9D1DB435B1A834203D217
:102CA00000BF024B9B68F3E708BD00BF002800404F
:102CB00008B513F053F908BD08B5FFF7A5FF0130BB
:102CC000FFF738FF08BD000008B51748174B036031
:102CD0004FF4E133436000238360C36003610C223F
:102CE00042618361C36103624362836208F036FD1F
:102CF00070B900210C4808F005FF60B900210A48AE
:102D000008F025FF50B9084808F0DDFE48B908BDB5
:102D1000FFF72EFBEDE7FFF72BFBEFE7FFF728FBB5
:102D2000F1E7FFF725FBF2E7BC0B0020003801407C
:102D300008B51748174B03604FF4E1334360002395
:102D40008360C36003610C2242618361C3610362DB
:102D50004362836208F002FD70B900210C4808F05C
:102D6000D1FE60B900210A4808F0F1FE50B90848C8
:102D700008F085FE48B908BDFFF7FAFAEDE7FFF75E
:102D8000F7FAEFE7FFF7F4FAF1E7FFF7F1FAF2E706
:102D9000500C00200044004030B599B0044600219A
:102DA00013911491159116911791382205A814F0DA
:102DB00085FB23684B4A934204D04B4A934239D057
:102DC00019B030BD012305934FF44033069305A895
:102DD00006F06CFD58BB4FF0B0431A6E42F48042CF
:102DE0001A661A6E02F480420292029ADA6C42F07B
:102DF0000102DA64DB6C03F001030193019B4FF4E1
:102E0000C06313930223149300241594169407238C
:102E1000179313A94FF0904005F0A8F922462146D8
:102E2000242004F065FD242004F09AFDC8E7FFF794
:102E30009FFAD0E7022305932C4B079305A806F0D1
:102E400035FD002844D14FF0B0439A6D42F4003272
:102E50009A659A6D02F400320492049ADA6C42F098
:102E60000102DA64DB6C03F001030393039B0C2380
:102E70001393022314930025159503231693072318
:102E8000179313A94FF0904005F070F91848194BAB
:102E900003601423436010238360C56080230361B3
:102EA00045618561C561056204F0FCFD98B910219A
:102EB0000F4804F0F9FF88B90D4BE3679C620022CC
:102EC0000221252004F014FD252004F049FD77E7B8
:102ED000FFF74EFAB7E7FFF74BFAE8E7FFF748FAD4
:102EE000EAE700BF003801400044004004000C0045
:102EF0005C0B00205800024010B50368144A93424E
:102F000004D00446134A934210D010BD4FF0B04293
:102F1000136E23F4804313664FF4C0614FF090406A
:102F200005F0F6F9242004F029FDEEE74FF0B04259
:102F3000936D23F4003393650C214FF0904005F01E
:102F4000E7F9E06F04F020FE252004F017FDDCE730
:102F5000003801400044004008B5074B1860FEF7F8
:102F600027FFFFF7E5FE054AD2F8803043F0006303
:102F7000C2F88030002008BDE80C0020000800588E
:102F800008B54FF0B0439A6B42F400329A639A6BE3
:102F900022F400329A630448FFF7AEFF0F2004F0DA
:102FA000EDFC002008BD00BF500C002008B50A460B
:102FB0000146024807F0F2FB002008BD500C00203B
:102FC00010B582B0124B18604FF40013009302AB9F
:102FD00013E906000F4808F0FAFC0E4B1B68DA698B
:102FE00012F4803FF9D1DA6912F4800FFBD09A68AD
:102FF00042F480029A60074C204608F029FD012225
:103000000549204608F07CFC002002B010BD00BF3E
:10301000E40C0020500C0020D50D002008B5074816
:1030200008F09CFB20B9064804F03CFD18B908BD27
:10303000FFF79EF9F7E7FFF79BF9F8E7500C002040
:103040005C0B002008B50268044B9A4200D008BD12
:10305000034B1B6800209847F9E700BF004400407D
:10306000E80C00202DE9F04FADF2445D8146026886
:10307000B64B9A4209D0D9F80020B54B9A4201F0DC
:10308000B4820DF2445DBDE8F08FB24B1B682BB1EA
:10309000D0F8902012B90121AF489847AE4B1B7869
:1030A0000A2B0AD0AD4A1278C62A00F20A81501CB7
:1030B000AA490870AA498B5403E1A84B1B78A84879
:1030C0000022C2540D22A74914F000FA002800F093
:1030D000EC800D22A449A24814F0F8F9002800F071
:1030E000F6801222A1499E4814F0F0F9002800F061
:1030F000F8800F229E499A4814F0E8F9002800F061
:103100007B810B229B49964814F0E0F90446002885
:1031100000F037820B229849914814F0D7F9044601
:10312000002800F052820B2294498D4814F0CEF909
:103130000446002800F06D8215229149884814F059
:10314000C5F9002800F0A38217228E49844814F0A4
:10315000BDF9002800F0D0820B228B49804814F082
:10316000B5F9002800F0D982102288497C4814F073
:10317000ADF9002800F0848316228549784814F0C0
:10318000A5F90446002800F094841222814974486D
:1031900014F09CF9002800F09A8513227E497048AB
:1031A00014F094F90746002800F0648618227B4941
:1031B0006B4814F08BF9002800F0618712227849DF
:1031C000674814F083F9002800F0648710227549DD
:1031D000634814F07BF90646002800F05F8711224F
:1031E00071495F4814F072F9002801F0B38112228E
:1031F0006E495B4814F06AF9002801F0B881162284
:103200006B49574814F062F9002801F0CC81102274
:103210006849534814F05AF9002841F0DE810DF155
:103220007F030DF17E026449644814F043F89DF871
:103230007E30013B4FF47472614951F8231020A88D
:10324000FEF74AFF002841F0C0819DF87F30012B36
:1032500014BF002301238DF834349DF87E30013BE8
:103260004FF40061564A52F82300FEF751FF002840
:1032700041F0A381534B00221146022012F062FA62
:103280009DF87E30013B4FF4747220A94C4850F8F1
:103290002300FEF705FF002841F087814A4B0022FA
:1032A0001146022012F04EFA08E0484B0022114667
:1032B000022012F047FA464B01221A70274B0022D7
:1032C0001A7001222449484608F01AFBD3E6414B04
:1032D00000221146022012F035FA3D4B00221A70EE
:1032E000ECE73D4B00221146022012F02BFAF022AF
:1032F0003A490DF58A60FEF7EFFE00BB08220DF596
:103300008A61374810F041FB08220DF58B61354882
:1033100010F03BFB10220DF26941334810F035FBF1
:103320000DF5A563D3E90001304BC3E900010DF5AC
:10333000A663D3E900012E4BC3E90001BEE72D4B84
:1033400000221146022012F0FDF9B7E700440040C8
:1033500000380140E40C0020D50D0020D40D0020E1
:103360000C0D002054B7010888B70108BCB701084C
:10337000F8B7010880B9010894B90108A0B901089B
:10338000ACB90108C8B9010808BA01083CBA01087B
:10339000D8BA0108F0BB01089CBC010888BD01082F
:1033A000A8BD0108BCBD0108A8BE0108BCBE01083B
:1033B000D0BE0108E8BE0108FCBE01081C0D0020BB
:1033C00000000020DCB40108E8B4010864B701087B
:1033D000E00D002098B70108D0B7010800F00308FD
:1033E000EC0C0020F40C0020FC0C0020E80D002068
:1033F000D80D00208CB60108F022AD490DF58A6089
:10340000FEF76AFE002840F0AB80AA4B002211466E
:10341000022012F097F99DF850349DF851249DF840
:1034200052149DF853049DF854449DF855549DF84A
:1034300056649DF857740797069605950494039073
:103440000291019200939C4B00221146022012F03F
:1034500079F99DF858349DF859249DF85A149DF82F
:103460005B049DF85C449DF85D549DF85E649DF896
:103470005F74079706960595049403900291019254
:1034800000938E4B00221146022012F05BF99DF84A
:10349000693417939DF86A2418929DF86B349DF84F
:1034A0006C249DF86D149DF86E049DF86FC49DF812
:1034B00070E49DF871449DF872549DF873649DF812
:1034C00074749DF875849DF876A4CDF864A09DF879
:1034D00077A49DF878B4CDF83CB0CDF838A0DDF8ED
:1034E00064A0CDF834A0CDF830800B970A960995EA
:1034F0000894CDF81CE0CDF818C005900491039213
:103500000293189A0192179B00936D4B002211466B
:10351000022012F017F90DF5A563D3E90023CDE9D8
:103520000023684B00221146022012F00BF90DF522
:10353000A663D3E90023CDE90023634B00221146A3
:10354000022012F0FFF8614B00221146022012F017
:10355000F9F85F4B00221146022012F0F3F8ADE6B5
:103560005C4B00221146022012F0ECF8A6E6630044
:103570000B33594A224459495948184413F09AFECA
:103580000134072CF3DD544B1A7859789878DC789D
:103590001D795E799F79DB790793069705960495E7
:1035A0000394029001910092434B002211460220A5
:1035B00012F0C8F882E663000B334A4A22444749B6
:1035C0004748184413F076FE0134072CF3DD454BD1
:1035D0001A7859789878DC781D795E799F79DB794B
:1035E0000793069705960495039402900191009223
:1035F000324B00221146022012F0A4F85EE663006E
:103600000B33394A224435493548184413F052FEE9
:1036100001340F2CF3DD344B1A7817925978189136
:1036200093F802B0DA78197958799C79DD791E7AA5
:103630005F7A93F80AC093F80BE093F80C8093F844
:103640000DA0CDF864A093F80EA0DB7B0F93CDF80E
:1036500038A0DDF864A0CDF834A0CDF83080CDF8E6
:103660002CE0CDF828C00997089607950694059098
:1036700004910392CDF808B018990191179A00921D
:103680000F4B00221146022012F05CF816E6174C90
:1036900022461749174813F00DFED4E90023CDE95F
:1036A0000023084B00221146022012F04BF805E6D9
:1036B00000F0030808B8010828B8010868B8010834
:1036C000A8B8010810B9010834B901085CB90108AB
:1036D00070B901088CB60108EC0C00208CB9010807
:1036E0000C0D0020F40C0020FC0C0020E80D002044
:1036F000C4B90108210D0020514C224651495248BD
:1037000013F0D8FDD4E90023CDE900234F4B00226C
:103710001146022012F016F8D0E54D4B002211465A
:10372000022012F00FF84B4B1A7859789878DC7811
:103730001D795E799F79DB79079306970596049545
:103740000394029001910092434B00221146022003
:1037500011F0F8FF414B1A7859789878DC781D7988
:103760005E799F79DB790793069705960495039414
:103770000290019100923A4B00221146022011F072
:10378000E1FF384B1A7817925978189193F802B0E4
:10379000DA78197958799C79DD791E7A5F7A93F80D
:1037A0000AC093F80BE093F80C8093F80DA0CDF8C5
:1037B00064A093F80EA0DB7B0F93CDF838A0DDF862
:1037C00064A0CDF834A0CDF83080CDF82CE0CDF851
:1037D00028C00997089607950694059004910392CE
:1037E000CDF808B018990191179A00921E4B00224B
:1037F0001146022011F0A6FF1C4BD3E90023CDE9AE
:1038000000231B4B00221146022011F09BFF0C4BA2
:10381000D3E90023CDE90023164B002211460220F4
:1038200011F090FF144B00221146022011F08AFF84
:10383000124B00221146022011F084FF3EE500BF2A
:10384000D80D0020C4B90108230D0020E0B90108FB
:1038500014BA0108EC0C002028B80108F40C002070
:1038600068B80108FC0C0020A8B80108E80D002089
:1038700010B9010834B901085CB9010870B9010830
:103880009B4B00221146022011F05CFF082299494F
:103890000DF58A6010F079F8082297490DF58B60D4
:1038A00010F073F8954C102221460DF2694010F08B
:1038B0006CF8102221460DF27A4010F066F81022C2
:1038C00021460DF28B4010F060F8102221460DF2D7
:1038D0009C4010F05AF88A4BD3E900230DF5A561FE
:1038E000C1E90023874BD3E900230DF5A661C1E9A7
:1038F00000234FF400618448FEF70AFC002840F0E2
:10390000D180F0220DF58A617F48FEF7C9FB0028BF
:1039100040F0C1807D4B00221146022011F012FFC1
:10392000F02279490DF58A60FEF7D6FB002840F0B9
:10393000AB80774B00221146022011F003FF9DF867
:1039400050349DF851249DF852149DF853049DF86D
:1039500054449DF855549DF856649DF85774079744
:103960000696059504940390029101920093694B89
:1039700000221146022011F0E5FE9DF858349DF812
:1039800059249DF85A149DF85B049DF85C449DF8F9
:103990005D549DF85E649DF85F74079706960595E3
:1039A000049403900291019200935B4B0022114614
:1039B000022011F0C7FE9DF8693417939DF86A2420
:1039C00018929DF86B349DF86C249DF86D149DF849
:1039D0006E049DF86F449DF870549DF871649DF8D5
:1039E00072749DF873C49DF874E49DF875849DF815
:1039F00076A4CDF864A09DF877A49DF878B4CDF8AE
:103A00003CB0CDF838A0DDF864A0CDF834A0CDF8F6
:103A10003080CDF82CE0CDF828C00997089607959E
:103A200006940590049103920293189A0192179BB1
:103A300000933A4B00221146022011F083FE0DF54F
:103A4000A563D3E90023CDE90023354B00221146BD
:103A5000022011F077FE0DF5A663D3E90023CDE92E
:103A60000023304B00221146022011F06BFE2E4B3A
:103A700000221146022011F065FE2C4B0022114657
:103A8000022011F05FFE19E4294B002211460220AA
:103A900011F058FE12E4274B00221146022011F0CB
:103AA00051FE0BE4244B00221146022011F04AFE85
:103AB00004E40DF17F030DF17E022049204813F04C
:103AC000F9FB022840F0FB809DF87E305A1ED2B2EE
:103AD0000F2A04D89DF87F200AB1102A34D9194B37
:103AE00000221146022011F02DFEFFF7E7BB00BFB8
:103AF00050BA0108EC0C0020F40C0020FC0C002053
:103B0000E80D0020D80D002000F0030874BA010869
:103B100008B8010828B8010868B80108A8B8010861
:103B200010B9010834B901085CB9010870B901087D
:103B30008CB6010898BA0108B8BA0108F0BA0108B1
:103B4000220D0020BCBB0108013B4FF47472AE494A
:103B500051F8231020A8FEF7BFFA00287AD1AB4B0A
:103B600000221146022011F0EDFD9DF87F300193F7
:103B70009DF87E300093A64B00221146022011F0E2
:103B8000E1FD9DF882300093A24B002211460220F5
:103B900011F0D8FD9DF8833000939F4B0022114611
:103BA000022011F0CFFD9DF8843000939B4B002242
:103BB0001146022011F0C6FD9DF88030012B50D037
:103BC000974B0093974B00221146022011F0BAFD4B
:103BD000954B00221146022011F0B4FD9DF87F3074
:103BE0000093924B00221146022011F0ABFD9DF88C
:103BF0007F30382202FB03F320AAD35C012B32D0A2
:103C0000874B00938A4B00221146022011F09AFD47
:103C1000884B00221146022011F094FD9DF87F3060
:103C2000013B382220A902FB03131D7AAC421CD2AF
:103C30009DF87F30013B382220A902FB0313234467
:103C40005B7A00937C4B00221146022011F07AFD32
:103C50000134EBE7794B00221146022011F072FD8E
:103C600083E7774BADE7764BCBE7764B00221146E7
:103C7000022011F067FD9DF87F30013B382420AA17
:103C800004FB03231B6B00936F4B002211460220A1
:103C900011F058FD9DF87F30013B20AA04FB03235F
:103CA00093F829304BB1664B0093684B00221146C4
:103CB000022011F047FDFFF701BB594BF4E7644BBD
:103CC00000221146022011F03DFDFFF7F7BA0DF179
:103CD0007F0303930DF17E0302930DF17D030193A6
:103CE0001FAB00930DF17B030DF17A0259495A483D
:103CF00013F0E0FA062807D0584B002211460220A4
:103D000011F020FDFFF7DABA9DF87F3005939DF89A
:103D10007E3004939DF87D3003939DF87C300293B0
:103D20009DF87B3001939DF87A3000934C4B002234
:103D30001146022011F006FD9DF87B30013B4FF447
:103D40007472314951F8231020A8FEF7C5F978BBE9
:103D50002E4B00221146022011F0F4FC9DF87A301F
:103D6000012B2CD09DF87B30013B4FF40061264A9B
:103D700052F82300FEF7CCF900283CD1394B002241
:103D80001146022011F0DEFC9DF87B30013B4FF420
:103D9000747220A91C4850F82300FEF781F910BB6B
:103DA000314B00221146022011F0CCFCFFF786BAFD
:103DB000224B00221146022011F0C4FCCEE79DF8F0
:103DC0007C308DF882309DF87D308DF883309DF801
:103DD0007E308DF884309DF87F30003B18BF012382
:103DE0008DF88030BEE7214B00221146022011F0F1
:103DF000A9FCFFF763BA1E4B00221146022011F006
:103E0000A1FCFFF75BBA00BF00000020FCBA01086C
:103E100018BB010830B5010840B5010850B50108CC
:103E200014B5010860B501084CBB010850BB01087E
:103E300070BB010888BB010840B4010808BB010839
:103E40000CB5010858C6010894BB0108ACBB0108B9
:103E5000D8BB010804BC01080C0D002074BC01088B
:103E600028BC0108DCB40108E8B40108F4B4010876
:103E700000B501080DF17F0307930DF17E04069450
:103E80000DF17D0605961FAD04950DF17B08CDF86B
:103E90000C800DF17A0302930DF1790301931EABAF
:103EA00000930DF177030DF17602A449A44813F0B5
:103EB00001FA9DF87B209DF87C100D0445EA02650F
:103EC0009DF87D6045EA06259DF87E4025430A2839
:103ED00007D09C4B00221146022011F033FCFFF763
:103EE000EDB99DF87A309DF87F000A900994089604
:103EF00007910692059304939DF8793003939DF8FA
:103F0000783002939DF8773001939DF876300093D6
:103F10008D4B00221146022011F014FC9DF87F0009
:103F200012F0C4F9064600240AE004EB44033133DE
:103F3000321986498248184413F0BCF90134E4B2BE
:103F40009DF87F30A342F0D8814B00221146022019
:103F500011F0F8FB08E0F35D00937E4B0022114660
:103F6000022011F0EFFB01379DF87F30BB42F2DCFD
:103F7000794B00221146022011F0E4FB9DF87730C6
:103F8000013B4FF47472754951F8231020A8FEF7D5
:103F9000A3F838B9724B00221146022011F0D2FB6F
:103FA000002312E06F4B00221146022011F0CAFBE1
:103FB000F6E79DF87820013AF15C382020AC00FB50
:103FC00002421A4451720133DBB29DF87F209A42BB
:103FD000EFD8304612F072F99DF87820531E20A8D1
:103FE000382404FB03039DF87F1019729DF87A10A2
:103FF000003918BF012183F8291003F130011D6336
:1040000000234B609DF87930003B18BF012304FB6F
:1040100002F283549DF87730013B4FF400614F4A20
:1040200052F82300FEF774F808BB4F4B00221146EC
:10403000022011F087FB9DF87730013B4FF474723A
:1040400020A9464850F82300FEF72AF838B9474B14
:1040500000221146022011F075FBFFF72FB9444BE7
:1040600000221146022011F06DFBFFF727B9414BEA
:1040700000221146022011F065FBFFF71FB920AAAC
:104080003D493E4813F016F99DF88000FDF7A4FA6B
:10409000FFF714B903F084FCFFF710B90DF17F03AB
:1040A00015930DF17E0314930DF17D0313931FAB54
:1040B00012930DF17B0311930DF17A0310930DF11F
:1040C00079030F931EAB0E930DF177030D930DF152
:1040D00076030C930DF175030B931DAB0A930DF151
:1040E000730309930DF1720308930DF171030793A4
:1040F0001CAB06930DF16F0305930DF16E03049352
:104100000DF16D0303931BAB02930DF16B03019350
:104110000DF16A0300930DF169031AAA18490848C2
:1041200013F0C8F818282FD00090164B0022114623
:10413000022011F007FBFFF7C1B800BFB0BC0108B7
:104140000C0D002074BC0108E4BC010878BD010816
:104150007CBD010840B4010858C6010800000020D9
:10416000FCBA010808BB0108DCB40108E8B4010886
:10417000F4B4010800B50108A4BD0108240D002015
:10418000D0BD010894BE01080090BE4B002211462C
:10419000022011F0D7FA9DF869300093BA4B002243
:1041A0001146022011F0CEFA9DF868300093B74B0B
:1041B00000221146022011F0C5FA9DF87F300093CD
:1041C000B34B00221146022011F0BCFA9DF86A3070
:1041D0000093B04B00221146022011F0B3FA9DF873
:1041E0006B300093AC4B00221146022011F0AAFA6A
:1041F0009DF86D3001939DF86C300093A74B002221
:104200001146022011F09EFA9DF8713003939DF83B
:10421000703002939DF86F3001939DF86E300093DB
:104220009F4B00221146022011F08CFA9DF8753048
:1042300003939DF8743002939DF8733001939DF8B9
:1042400072300093974B00221146022011F07AFA47
:104250009DF8793003939DF8783002939DF877307C
:1042600001939DF8763000938F4B00221146022077
:1042700011F068FA9DF87D3003939DF87C3002932D
:104280009DF87B3001939DF87A300093874B002294
:104290001146022011F056FA9DF87E30012B23D0F2
:1042A000834B0093834B00221146022011F04AFAFF
:1042B0009DF87F40204611F0F9FF054618B12246CF
:1042C000002113F0FBF800249DF87F30A3420DD9A4
:1042D00004EB440358332A1977497848184412F0FC
:1042E000E9FF0134E4B2EFE7754BDAE7754B0022E2
:1042F0001146022011F026FA9DF87F30B34209DD05
:10430000AB5D0093704B00221146022011F01AFAA7
:104310000136F1E76D4B00221146022011F012FA2E
:104320009DF86930013B4FF47472694951F82310CC
:1043300020A8FDF7D1FE002840F004819DF87F10F1
:104340008DF82814002306E0E85C20AA1A4482F8BD
:1043500088030133DBB29942F6D8284611F0AEFF4C
:104360009DF86A308DF829349DF86B308DF82A3429
:104370009DF86C209DF86D3043EA0223ADF8363489
:104380009DF87630002263F307029DF8773063F3DF
:104390000F229DF8783063F317429DF8793063F36C
:1043A0001F629DF87A10002361F307039DF87B10CC
:1043B00061F30F239DF87C1061F317439DF87D1086
:1043C00061F31F639DF86E10002061F307009DF8F4
:1043D0006F1061F30F209DF8701061F317409DF886
:1043E000711061F31F609DF87240002164F30701B2
:1043F0009DF8734064F30F219DF8744064F31741F6
:104400009DF8754064F31F61CDF83804CDF83C1475
:10441000CDF84024CDF844349DF87E30003B18BFE1
:1044200001238DF8483400238DF849349DF8693014
:10443000013B4FF40061264A52F82300FDF768FE65
:1044400000284DD1234B00221146022011F07AF9A9
:104450009DF86930013B4FF4747220A91C4850F854
:104460002300FDF71DFE30B91B4B00221146022030
:1044700011F068F93AE0194B00221146022011F0C0
:1044800061F933E02CBE010844BE010854BE0108A6
:1044900064BE010878B5010888B5010874BE01083A
:1044A000BCB50108E0B5010808B6010834B601083A
:1044B00014B5010860B6010878BD01080C0D002094
:1044C0000CB501087CBD010840B4010858C60108BC
:1044D00000000020DCB40108E8B40108F4B40108CD
:1044E000484B00221146022011F02CF99DF869007A
:1044F00001389DF8493407939DF848340693DDF858
:1045000044340593DDF840340493DDF83C340393E0
:10451000DDF838340293BDF8363401939DF82A341F
:1045200000939DF829349DF828240DF58161C0B2CF
:10453000FDF790FA9DF869000138C0B2FDF74AFA1C
:10454000FEF7BCBE304B00221146022011F0FAF8F3
:10455000FEF7B4BE20AA2D492D4812F0ABFE9DF8FF
:1045600080000138C0B2FDF735FAFEF7A7BE20AAD9
:104570002649284812F09EFE9DF880000138C0B2FE
:10458000FDF78CF99DF880000138C0B2FDF722FAE2
:10459000FEF794BE2046FDF781F90134E4B20F2CFA
:1045A000F8D9FEF78BBE0024F9E71B4B0022114619
:1045B000022011F0C7F8FEF781BE124B002211460F
:1045C000022011F0BFF8FEF779BE0F4B0022114612
:1045D000022011F0B7F8FEF771BE104B0022114611
:1045E000022011F0AFF8FEF769BE0D4C2046FDF732
:1045F000BFFA34F8021B012221440A4807F080F96F
:10460000FEF73FBD00B501088CB60108C4B901082A
:104610001D0D00201E0D0020F4B4010804BF010888
:10462000080F0020BC0B002008B5FEF77FF802F051
:10463000EFF808BD08B54FF0FF3011F0E1F908BD03
:1046400070470000014BD870704700BFA8000020E1
:10465000014B1874704700BFA800002000283FD00D
:104660002DE9F0418CB003464278022A0AD0032A91
:104670002FD01C4B00221146022011F063F80CB021
:10468000BDE8F081027CB0F9121090F914009C7D15
:10469000DD7D1E7E5F7E93F81AC093F81BE093F8D1
:1046A0001C80CDF82C80CDF828E0CDF824C00897E8
:1046B0000796069505945C680494DB680393029062
:1046C00001910092084B00221146022011F03AF8A5
:1046D000D5E7064B00221146022011F033F8CEE751
:1046E000704700BF30BF010848BF0108BCBF0108C8
:1046F00000B583B0054B1B5C0093054B00221146AF
:10470000022011F01FF803B05DF804FBF8BF0108A8
:10471000DCBF010808B5012806D0074B002211466E
:10472000022011F00FF808BD044B002211460220B0
:1047300011F008F8F7E700BF10C00108FCBF01083E
:1047400008B50A460149FDF7C7FC08BD00F003089B
:1047500038B504460D464FF400610548FDF7D8FC16
:1047600000B138BD2A4621460148FDF799FCF8E71B
:1047700000F0030808B500224FF40041014803F09F
:1047800045FE08BD0004004808B500224FF4007142
:10479000014803F03BFE08BD00040048002845D056
:1047A00010B584B0044603780BB904B010BD0122E3
:1047B0004FF400711E4803F029FE1E4811F06EFBF5
:1047C0001D4B00221146022010F0BCFF237C94F9FF
:1047D0000A2094F91810039102920193E368009360
:1047E000164B00221146032010F0ACFF144B01229F
:1047F0001A70144B00221146032010F0A3FF237AF5
:10480000012B0CD1637A43B10F4B00930F4B002265
:104810001146032010F096FFC7E70D4BF5E70D4B4F
:1048200000221146032010F08DFFBEE7704700BF45
:1048300000040048D40F002030C0010864C0010803
:104840002010002098C0010824C00108A8C0010859
:1048500028C00108BCC0010808B50021022011F0E1
:104860009BF8024811F01AFB08BD00BFEC0F0020B6
:1048700008B50021012011F08FF808BD10B50E4BCE
:104880001B78022B13D00D4C00224FF40041204620
:1048900003F0BCFD00224FF40071204603F0B6FD8A
:1048A00000224FF40061204603F0B0FD10BD00214E
:1048B000082011F071F8E6E75000002000040048DD
:1048C00008B507F021FE00B108BD07F0DBFA0128AA
:1048D000FAD1BFF34F8F0549CA6802F4E062044B76
:1048E0001343CB60BFF34F8F00BFFDE700ED00E047
:1048F0000400FA0510B5094B186010B942F21072A5
:104900001A60074C204611F06FFA044B19682046D4
:1049100011F00AFB204611F0C1FA10BDC0000020C2
:10492000EC0F0020002900F030842DE9F041C2B0E6
:10493000044600270D4601224FF40041A84803F029
:1049400065FDA84811F0AAFA2E7866B1002C00F097
:1049500002842678636833B1192E21D0372E00F0F7
:10496000D580032E06D02B7C052B40F2F68342B077
:10497000BDE8F0816278012AF5D11B78012B07D0C0
:10498000022B09D0002BEED1384607F04DFBEAE7A9
:10499000012007F049FBE6E7022007F045FBE2E7CC
:1049A0006278002ADFD01B78072B22D063681B783F
:1049B000082B53D063681B78092BD4D18A4B002273
:1049C0001146022010F0BEFE884B00221146022044
:1049D00010F0B8FE00276278BA4278DD6368DB5DCC
:1049E0000093834B00221146022010F0ABFE0137EA
:1049F000F1E77D4B00221146022010F0A3FE7B4B15
:104A000000221146022010F09DFE00276278BA4273
:104A10000ADD6368DB5D0093754B002211460220BE
:104A200010F090FE0137F1E7012300219A4205DDE5
:104A30006068C05C40EA01210133F7E76D4B196003
:104A400000916D4B00221146022010F07BFE664B58
:104A500000221146022010F075FEA7E7624B0022EB
:104A60001146022010F06EFE604B0022114602201B
:104A700010F068FE00276278BA420ADD6368DB5DE9
:104A800000935B4B00221146022010F05BFE0137C1
:104A9000F1E7012300279A4205DD6168C95C41EA1C
:104AA00007270133F7E70097544B002211460220F5
:104AB00010F048FE4FF47A7303FB07F7504B1F606A
:104AC000494B00221146022010F03CFE72E7012300
:104AD00000279A4205DD6168C95C41EA0727013376
:104AE000F7E7484B1F60B80011F0E0FB464B186039
:104AF0000097464B00221146022010F023FE3A4B4D
:104B000000221146022010F01DFE2CE71B78012B1D
:104B100029D063681B78022B00F09C8063681B78A7
:104B2000032B00F0ED8063681B78042B00F05281AA
:104B300063681B78072B00F0C08163681B780A2B21
:104B400000F0368263681B78082B00F09E82636851
:104B50001A78AA2A7FF407AF5B78012B7FF403AFA2
:104B600002F01EFFFFE6082011F0A0FB804600289F
:104B700069D000230360436006E062681A445278FB
:104B800008F803200133DBB2072BF6D9204B0022B3
:104B90001146022010F0D6FDF0221E4906A8FDF7AE
:104BA0009BFA00283AD10822414606A80EF0EDFEF5
:104BB000404611F083FB4FF400611648FDF7A8FA58
:104BC000002839D1F02206A91248FDF769FA60BB26
:104BD000114B00221146022010F0B4FD99E700BFEE
:104BE00000040048A00F0020CCC0010800C101084B
:104BF00040B401083410002024C1010838C1010864
:104C00004C000020440000204410002058C101083E
:104C1000D0B7010800F0030874BA0108B74B0022AE
:104C20001146022010F08EFDC5E7B54B002211465B
:104C3000022010F087FD6CE7B24B002211460220E3
:104C400010F080FD65E7B04B00221146022010F005
:104C500079FD5EE7082011F029FB8046002848D046
:104C600000230360436006E062681A44527808F843
:104C700003200133DBB2072BF6D9A44B00221146E7
:104C8000022010F05FFDF022A14906A8FDF724FAEA
:104C9000D0B90822414608A80EF077FE404611F030
:104CA0000DFB4FF400619A48FDF732FAD0B9F022BB
:104CB00006A99748FDF7F4F968B9964B002211460A
:104CC000022010F03FFD29E78C4B00221146022004
:104CD00010F038FDE5E78A4B00221146022010F063
:104CE00031FD1BE7874B00221146022010F02AFD00
:104CF00014E7854B00221146022010F023FD0DE73A
:104D0000102011F0D3FA804600285CD00023036005
:104D100043608360C36006E062681A44527808F812
:104D200003200133DBB20F2BF6D9784B002211465A
:104D3000022010F007FDF022754906A8FDF7CCF916
:104D400060BB102241460DF131000EF01EFE102214
:104D500041460DF142000EF018FE102241460DF1C1
:104D600053000EF012FE1022414619A80EF00DFE5F
:104D7000404611F0A3FA4FF400616548FDF7C8F909
:104D8000D0B9F02206A96248FDF78AF968B9614BEB
:104D900000221146022010F0D5FCC4E6574B002239
:104DA0001146022010F0CEFCE5E7554B00221146DB
:104DB000022010F0C7FCB6E6524B0022114602203A
:104DC00010F0C0FCAFE6504B00221146022010F05C
:104DD000B9FCA8E6504B00221146022010F0B2FCAC
:104DE0004E4B00221146022010F0ACFC4FF00008A0
:104DF0000BE0636813F808300093494B002211461A
:104E0000022010F09FFC08F1010862784245F0DCB6
:104E100001234FF0000804E06168C95C41EA0828FA
:104E200001339A42F8DCF022394906A8FDF754F91B
:104E300070BB4FEAD8624FEA4813B3EB080362F144
:104E40000002920042EA93729B0013EB080342F1C6
:104E50000002D20042EA5372DB003C933D924FF4D1
:104E60007A7303FB08F32F4A13604FF4006128485C
:104E7000FDF74EF9D0B9F02206A92548FDF710F943
:104E800068B9244B00221146022010F05BFC4FE66B
:104E90001A4B00221146022010F054FCE5E7184B93
:104EA00000221146022010F04DFC41E6154B002275
:104EB0001146022010F046FC3AE6174B002211463C
:104EC000022010F03FFC154B00221146022010F08A
:104ED00039FC4FF000080BE0636813F808300093CA
:104EE0000F4B00221146022010F02CFC08F10108A3
:104EF00061784145F0DC01231CE000BF8CB601085D
:104F000098BA0108B8BA01086CC10108D0B7010805
:104F100000F0030874BA0108CCC0010888C1010878
:104F200040B401084C0000206268D25C42EA0722CB
:104F300097B201339942F7DC0097944B0022114657
:104F4000022010F0FFFBF022914906A8FDF7C4F8FB
:104F5000C8B9ADF800718F4B1F608F4B00221A80CB
:104F60004FF400618A48FDF7D3F8D0B9F02206A9C2
:104F70008748FDF795F868B9884B00221146022052
:104F800010F0E0FBD9E5864B00221146022010F01C
:104F9000D9FBE5E7834B00221146022010F0D2FB3B
:104FA000CBE5814B00221146022010F0CBFBC4E57B
:104FB0007E4B00221146022010F0C4FB7C4B0022E5
:104FC0001146022010F0BEFB002709E06368DB5D9C
:104FD0000093784B00221146022010F0B3FB0137FA
:104FE0006278BA42F2DC0123002704E06168C95C00
:104FF00041EA072701339A42F8DC00976E4B002202
:105000001146022010F09EFBF022614906A8FDF730
:1050100063F828BBADF80671DFF8A081C8F800700E
:10502000B80011F043F9664B1860664B1B68D8F85E
:10503000002093FBF2F3644A13604FF4006154487C
:10504000FDF766F8D0B9F02206A95148FDF728F817
:1050500068B9524B00221146022010F073FB71E533
:105060004F4B00221146022010F06CFBE5E74D4B40
:1050700000221146022010F065FB63E54A4B002236
:105080001146022010F05EFB5CE5484B0022114601
:10509000022010F057FB464B00221146022010F070
:1050A00051FB002709E06368DB5D0093414B002260
:1050B0001146022010F046FB01376278BA42F2DC5A
:1050C0000123002704E06168C95C41EA0727013336
:1050D0009A42F8DC0097384B00221146022010F06B
:1050E00031FBF0222A4906A8FCF7F6FFF0B9ADF82B
:1050F0000271364880FB0730FF17C7EB6010FBF7E3
:1051000055FE334B18604FF400612148FDF700F85D
:10511000D0B9F02206A91E48FCF7C2FF68B91F4BA0
:1051200000221146022010F00DFB10E51C4B00225E
:105130001146022010F006FBE5E71A4B002211464B
:10514000022010F0FFFA02E5174B00221146022060
:1051500010F0F8FAFBE4002605E495F9082095F92B
:10516000091095F90A00059004911A4951F8233065
:10517000039302920196EB680093174B00221146AD
:10518000032010F0DFFAFFF7F2BB7047ACC1010853
:1051900000F0030840000020D809002074BA01087C
:1051A0008CB6010898BA0108B8BA0108CCC0010849
:1051B00088C1010840B40108E4C10108440000208E
:1051C000441000204C000020480000201F85EB51B7
:1051D000CC00002050D0010804C2010838B51E4C94
:1051E00001224FF40041204603F010F901224FF450
:1051F0000071204603F00AF901224FF400612046B5
:1052000003F004F9154810F0EFFD07F075F948B107
:10521000134B00221146022010F094FA114810F0AE
:105220003DFE38BD104B00221146022010F08AFAD4
:105230000E4C012525700E4B00221146022010F065
:1052400081FA0C4806F0D0FF2946207806F088FD48
:10525000024810F023FEE1E700040048EC0F0020B4
:105260004CC20108BC0F00206CC201085000002095
:1052700080C20108A800002008B507F0CFF910F19E
:10528000080F03D0B0F1FF3F07D008BD064B002246
:105290001146022010F056FAF7E7044B002211469F
:1052A000022010F04FFAF0E7A0C20108B8C20108CE
:1052B00008B54FF40061024803F0ADF808BD00BF27
:1052C0000004004870B586B00390354B00221146AB
:1052D000022010F037FA0020FCF7DCFEA0B9314CB8
:1052E000314B9C423AD20822214604A8FCF7F4FE36
:1052F000054690B9049A059BB3F1FF3F08BFB2F190
:10530000FF3F14D00834EBE7284B0022114602205F
:1053100010F018FA4FF0FF3506E00094244B0022FD
:105320001146022010F00EFA284606B070BD082281
:1053300003A92046FCF7B4FE054638B900941D4B7E
:1053400000221146022010F0FDF9EDE700941A4BFF
:1053500000221146022010F0F5F9E5E7174B002274
:105360001146022010F0EEF94FF400610D48FCF7F1
:10537000CFFE054660B90398FFF7A4FF0546002855
:10538000D2D00F4B00221146022010F0DBF9CBE700
:105390000C4B00221146022010F0D4F9C4E700BFE4
:1053A000D0C2010800B0030800B80308F0C2010829
:1053B00018C3010860C301083CC301088CC301087D
:1053C000C4C30108A4C3010800284ED030B583B07F
:1053D000044690F906305BBB244810F005FD00221E
:1053E0004FF40061224803F011F8224B00221146CD
:1053F000022010F0A7F9204D2B6800931F4B0022CC
:105400001146022010F09EF92868FFF75BFFE37950
:10541000012B06D01A4B00221146022010F092F9FF
:1054200015E0184B00221146022010F08BF90EE017
:10543000154B00221146022010F084F90E4B1B6818
:105440000093124B00221146022010F07BF994F9D0
:10545000043094F90520019200930D4B002211466F
:10546000032010F06FF903B030BD7047F00E00203C
:105470000004004800C401081C10002018C40108E2
:105480005CC401083CC401087CC4010898C401083C
:10549000ACC4010808B5C278007940EA0220FBF7E5
:1054A00081FC0249FBF78AFD08BD00BF00007A4479
:1054B0002DE9F047054689464FF0000812E0013417
:1054C0004C450EDA55F8286055F8247039463046B8
:1054D000FBF77CFE0028F2D045F8287045F82460E0
:1054E000EDE7D04609F1FF33434503DD08F1010A3A
:1054F0005446E5E7BDE8F08711F0010F12D108B579
:1055000001EBD1714A106FF0404303EB610350F897
:10551000221050F82300FBF795FB4FF07C51FBF76E
:1055200099FC08BD01EBD171491050F8210070477A
:1055300038B50025002408E0094B1B6853F82510F6
:105540002046FBF77FFB04460135064B1868A8424E
:10555000F2DCFBF72BFC01462046FBF72FFD38BDA4
:10556000441000204400002008490A6802F1010CA0
:10557000074BA3FB0C031B0903EB83039800ACEB65
:1055800000030B60034B53F82200704714100020F7
:10559000CDCCCCCCD8CF01082DE9F041B6B002AFCC
:1055A000012240214FF0904002F030FF0122802183
:1055B0004FF0904002F02AFF40F2DC50FDF776F900
:1055C000B64A07F1640392E8030083E80300B44B92
:1055D0001B689B00073323F00703ADEB030D0DF1B0
:1055E000080800253CE0AF4B23449B780093AE4B6A
:1055F00000221146022010F0A5F83220FDF756F9DE
:105600000134A84B1B88A342EDDCA848FFF742FFFA
:10561000A74C206048F825003220FDF747F92068A4
:10562000FAF76AFF02460B46A24907F16C0011F037
:1056300021FE07F16C00FAF7F3FD4FF47A7382B2A2
:1056400007F16C019C4805F0ECFF9C4B00221146D1
:10565000022010F077F84FF47A70FDF727F93546FD
:10566000092D18DC6E1C0096954B00221146022075
:1056700010F068F88B4A082107F16400FCF74CFA37
:10568000FA20FDF713F98F4B00221146022010F08B
:1056900059F80024B5E70A214046FFF709FF0A211F
:1056A0004046FFF729FF884C2060FFF75DFFFBF7BE
:1056B00079FB2060FAF720FF02460B46834907F189
:1056C0006C0011F0D7FD07F16C00FAF7A9FD4FF45B
:1056D0007A7382B207F16C01774805F0A2FF7C4B28
:1056E00019687C4A1268206842F821001A68013261
:1056F0001A60794B1968FBF769FD00B3774B0022FC
:105700001146022010F01EF8754B764A1A60B42339
:105710000093754B00221146022010F013F801256A
:10572000724B1D60042010F0C1FD6A4B1860704B75
:1057300000221A706F4B1D606F4B1D7078E06F4B2D
:105740000022114602200FF0FDFF654B6C4A1A60E3
:105750004FF461730093644B0022114602200FF056
:10576000F1FF624B05221A60142010F09FFD594B87
:10577000186000235F4A13605F4A1370614B002278
:10578000114602200FF0DEFF002240214FF0904032
:1057900002F03CFE002280214FF0904002F036FEE5
:1057A000D037BD46BDE8F081574A52680021D15438
:1057B0000133554A52789A42F6DC534D6B684D4A94
:1057C00012781A70404E3068FBF730FD6A68C0F3FB
:1057D000072353703068FBF729FD6B68987003222C
:1057E0006A704A49384611F045FD3846FAF718FD07
:1057F0004FF47A7382B239462F4805F012FF002326
:1058000005E0344A1268002142F823100133374A78
:1058100012689A42F5DC3E4B5B7A83BB00223D4B1B
:10582000D978394806F056FB25466420FDF73EF846
:10583000002DA3D0384B0022114602200FF082FF2A
:1058400006F032FB04460028EFD1344D2B460022EF
:10585000114602200FF076FF314B00221146022044
:105860000FF070FF2B460022114602200FF06AFF56
:10587000254B02221A7000232A4A137099E706F07A
:1058800001FB0128CAD1224810F0AEFA00224FF4E1
:105890000061254802F0BAFDC0E700BF70B30108FF
:1058A000C8000020080F002040B401080A0F0020A3
:1058B0002C1000202CC50108500C00204CB501080C
:1058C00018C50108E8C401084010002044C50108BB
:1058D0003010002044100020CC00002060C50108DA
:1058E0004C00002020BF02008CC5010844000020AD
:1058F000201000203C10002038100020B0C5010806
:10590000A0BB0D0058C60108540000205CC6010869
:10591000F00E0020A8000020D8C50108F4C5010839
:1059200028C60108101000200004004800000000F4
:105930002DE9F04FA3B000238DF88730ADF8843007
:105940001E23ADF880300423ADF878303F4B05AC12
:105950000FCB07C4238005A8FAF762FC3C4E4FF436
:105960007A7382B205A9304605F05BFE05AC394D6D
:105970000FCD0FC40FCD0FC40FCD0FC495E803009A
:1059800084E8030005A8FAF74BFC4FF47A7382B25F
:1059900005A9304605F045FE2F4B1B78002B63D13F
:1059A00005AC2C4D0FCD0FC40FCD0FC40FCD0FC4C0
:1059B00095E8030084E8030005A8FAF731FC4FF4EA
:1059C0007A7382B205A9224805F02BFE4FF0FF330F
:1059D000029301230193052200921A22D0211F482D
:1059E00002F03EFF002840F07B8205221C4905A8FA
:1059F00011F040FC05A8FAF713FC4FF47A7382B259
:105A000005A9134805F00DFE4FF0FF330293012363
:105A100001930DF1870200921A22D0210F4802F063
:105A2000F3FF002840F024829DF887200D4905A847
:105A300011F020FC05A8FAF7F3FB4FF47A7382B259
:105A400005A9034805F0EDFD5FE200BF78C6010837
:105A5000500C002088C60108C400002090080020D7
:105A600040C9010858C90108B54B00221A704FF40B
:105A70007A730293022301931EAB00930123292220
:105A8000D021B04802F0ECFE0246002800F08381ED
:105A9000AD4905A811F0EEFB05A8FAF7C1FB4FF4DC
:105AA0007A7382B205A9A94805F0BBFD4FF0FF3318
:105AB00002930123019321AA00922922D021A14817
:105AC00002F0A2FF0246002800F07181A04905A85B
:105AD00011F0D0FB05A8FAF7A3FB4FF47A7382B25A
