:020000040800F2
:10000000008000200D7600083726000839260008F9
:100010003B2600083D2600083F260008000000009F
:100020000000000000000000000000004126000861
:100030004326000800000000452600084726000867
:100040005D7600085D760008492600085D760008A8
:100050005D7600085D7600085926000863260008D2
:100060005D7600085D7600085D7600085D76000824
:100070005D7600085D7600085D7600086D26000854
:100080005D7600085D7600085D7600085D76000804
:100090005D7600085D7600087D2600085D76000824
:1000A0005D7600085D7600085D7600085D760008E4
:1000B0005D7600085D7600085D7600085D760008D4
:1000C0005D7600085D7600085D7600085D760008C4
:1000D00089260008992600085D7600085D760008EC
:1000E0005D7600085D760008A92600085D760008A8
:1000F0005D7600085D7600085D7600085D76000894
:100100005D7600085D760008B92600085D76000877
:100110005D7600085D7600085D7600085D76000873
:100120005D7600085D7600085D7600085D76000863
:080130005D7600085D76000811
:1001400010B5054C237833B9044B13B10448AFF311
:1001500000800123237010BD300300200000000048
:1001600000BD010808B5034B1BB103490348AFF3B9
:10017000008008BD000000003403002000BD01081D
:1001800001F0FF01102A2BDB10F0070F08D010F848
:10019000013B013A8B422DD010F0070F42B3F6D14C
:1001A000F0B441EA012141EA014122F007047FF065
:1001B00000070023F0E80256083C85EA010586EABC
:1001C000010685FA47F5A3FA87F586FA47F6A5FAF8
:1001D00087F68EB9EED1F0BC01F0FF0102F0070204
:1001E00032B110F8013B013A83EA010313B1F8D1AF
:1001F0000020704701387047002D06BF3546033890
:10020000073815F0010F07D1013015F4807F02BFC8
:10021000013015F4C03F0130F0BC0138704700BF19
:10022000034613F8012B002AFBD1181A0138704736
:1002300081F0004102E000BF83F0004330B54FEA97
:1002400041044FEA430594EA050F08BF90EA020F04
:100250001FBF54EA000C55EA020C7FEA645C7FEA97
:10026000655C00F0E2804FEA5454D4EB5555B8BFBA
:100270006D420CDD2C4480EA020281EA030382EA2B
:10028000000083EA010180EA020281EA0303362DBD
:1002900088BF30BD11F0004F4FEA01314FF4801C90
:1002A0004CEA113102D0404261EB410113F0004FA2
:1002B0004FEA03334CEA133302D0524263EB430359
:1002C00094EA050F00F0A780A4F10104D5F1200EF7
:1002D0000DDB02FA0EFC22FA05F2801841F1000152
:1002E00003FA0EF2801843FA05F359410EE0A5F126
:1002F00020050EF1200E012A03FA0EFC28BF4CF057
:10030000020C43FA05F3C01851EBE37101F000450C
:1003100007D54FF0000EDCF1000C7EEB00006EEB19
:100320000101B1F5801F1BD3B1F5001F0CD34908A3
:100330005FEA30004FEA3C0C04F101044FEA4452FA
:1003400012F5800F80F09A80BCF1004F08BF5FEA81
:10035000500C50F1000041EB045141EA050130BD61
:100360005FEA4C0C404141EB0101013C28BFB1F573
:10037000801FE9D291F0000F04BF01460020B1FABE
:1003800081F308BF2033A3F10B03B3F120020CDA91
:100390000C3208DD02F1140CC2F10C0201FA0CF06F
:1003A00021FA02F10CE002F11402D8BFC2F1200CD4
:1003B00001FA02F120FA0CFCDCBF41EA0C0190408A
:1003C000E41AA2BF01EB0451294330BD6FEA0404D3
:1003D0001F3C1CDA0C340EDC04F11404C4F12002BE
:1003E00020FA04F001FA02F340EA030021FA04F3D0
:1003F00045EA030130BDC4F10C04C4F1200220FA27
:1004000002F001FA04F340EA0300294630BD21FA64
:1004100004F0294630BD94F0000F83F4801306BF2A
:1004200081F480110134013D4EE77FEA645C18BF1E
:100430007FEA655C29D094EA050F08BF90EA020FB5
:1004400005D054EA000C04BF1946104630BD91EAAD
:10045000030F1EBF0021002030BD5FEA545C05D1B0
:100460004000494128BF41F0004130BD14F58004EF
:100470003CBF01F5801130BD01F0004545F0FE4163
:1004800041F470014FF0000030BD7FEA645C1ABF98
:10049000194610467FEA655C1CBF0B46024650EACF
:1004A000013406BF52EA033591EA030F41F40021FB
:1004B00030BD00BF90F0000F04BF0021704730B581
:1004C0004FF4806404F132044FF000054FF0000156
:1004D00050E700BF90F0000F04BF0021704730B517
:1004E0004FF4806404F1320410F0004548BF4042EC
:1004F0004FF000013EE700BF42004FEAE2014FEA41
:1005000031014FEA02701FBF12F07F4393F07F4F1B
:1005100081F06051704732F07F4208BF704793F01E
:100520007F4F04BF41F40021704730B54FF4607431
:1005300001F0004521F000411CE700BF50EA010234
:1005400008BF704730B54FF000050AE050EA0102DD
:1005500008BF704730B511F0004502D5404261EB4D
:1005600041014FF4806404F132045FEA915C3FF48E
:10057000D8AE4FF003025FEADC0C18BF03325FEA2B
:10058000DC0C18BF033202EBDC02C2F1200300FADC
:1005900003FC20FA02F001FA03FE40EA0E0021FA01
:1005A00002F11444BDE600BF70B54FF0FF0C4CF4EF
:1005B000E06C1CEA11541DBF1CEA135594EA0C0FA1
:1005C00095EA0C0F00F0DEF82C4481EA030621EADC
:1005D0004C5123EA4C5350EA013518BF52EA033517
:1005E00041F4801143F4801338D0A0FB02CE4FF0C9
:1005F0000005E1FB02E506F00042E0FB03E54FF0F9
:100600000006E1FB03569CF0000F18BF4EF0010EF0
:10061000A4F1FF04B6F5007F64F5407404D25FEAEC
:100620004E0E6D4146EB060642EAC62141EA55519F
:100630004FEAC52040EA5E504FEACE2EB4F1FD0CE1
:1006400088BFBCF5E06F1ED8BEF1004F08BF5FEA5F
:10065000500E50F1000041EB045170BD06F0004611
:1006600046EA010140EA020081EA0301B4EB5C04BE
:10067000C2BFD4EB0C0541EA045170BD41F48011B6
:100680004FF0000E013C00F3AB8014F1360FDEBFDB
:10069000002001F0004170BDC4F10004203C35DAB7
:1006A0000C341BDC04F11404C4F1200500FA05F33A
:1006B00020FA04F001FA05F240EA020001F00042DB
:1006C00021F0004110EBD37021FA04F642EB060151
:1006D0005EEA430E08BF20EAD37070BDC4F10C047B
:1006E000C4F1200500FA04F320FA05F001FA04F23F
:1006F00040EA020001F0004110EBD37041F100012B
:100700005EEA430E08BF20EAD37070BDC4F1200535
:1007100000FA05F24EEA020E20FA04F301FA05F29D
:1007200043EA020321FA04F001F0004121FA04F245
:1007300020EA020000EBD3705EEA430E08BF20EA15
:10074000D37070BD94F0000F0FD101F0004640004F
:1007500041EB010111F4801F08BF013CF7D041EAD1
:10076000060195F0000F18BF704703F000465200D5
:1007700043EB030313F4801F08BF013DF7D043EAA6
:100780000603704794EA0C0F0CEA135518BF95EA5C
:100790000C0F0CD050EA410618BF52EA4306D1D1E3
:1007A00081EA030101F000414FF0000070BD50EA02
:1007B000410606BF1046194652EA430619D094EA8C
:1007C0000C0F02D150EA013613D195EA0C0F05D176
:1007D00052EA03361CBF104619460AD181EA0301CA
:1007E00001F0004141F0FE4141F470014FF0000082
:1007F00070BD41F0FE4141F4780170BD70B54FF01D
:10080000FF0C4CF4E06C1CEA11541DBF1CEA13559C
:1008100094EA0C0F95EA0C0F00F0A7F8A4EB05047E
:1008200081EA030E52EA03354FEA013100F0888075
:100830004FEA03334FF0805545EA131343EA12633E
:100840004FEA022245EA111545EA10654FEA0026F3
:100850000EF000419D4208BF964244F1FD0404F5AC
:10086000407402D25B084FEA3202B61A65EB030508
:100870005B084FEA32024FF480104FF4002CB6EBC5
:10088000020E75EB030E22BFB61A754640EA0C0045
:100890005B084FEA3202B6EB020E75EB030E22BF85
:1008A000B61A754640EA5C005B084FEA3202B6EBC6
:1008B000020E75EB030E22BFB61A754640EA9C0085
:1008C0005B084FEA3202B6EB020E75EB030E22BF55
:1008D000B61A754640EADC0055EA060E18D04FEA13
:1008E000051545EA16754FEA06164FEAC30343EAB3
:1008F00052734FEAC2025FEA1C1CC0D111F4801F80
:100900000BD141EA00014FF000004FF0004CB6E778
:1009100011F4801F04BF01430020B4F1FD0C88BF17
:10092000BCF5E06F3FF6AFAEB5EB030C04BFB6EB22
:10093000020C5FEA500C50F1000041EB045170BD15
:100940000EF0004E4EEA113114EB5C04C2BFD4EB42
:100950000C0541EA045170BD41F480114FF0000EC6
:10096000013C90E645EA060E8DE60CEA135594EA42
:100970000C0F08BF95EA0C0F3FF43BAF94EA0C0F45
:100980000AD150EA01347FF434AF95EA0C0F7FF4BA
:1009900025AF104619462CE795EA0C0F06D152EA0E
:1009A00003353FF4FDAE1046194622E750EA4106F2
:1009B00018BF52EA43067FF4C5AE50EA41047FF403
:1009C0000DAF52EA43057FF4EBAE12E74FF0FF3C68
:1009D00006E000BF4FF0010C02E000BF4FF0010C39
:1009E0004DF804CD4FEA410C7FEA6C5C4FEA430CB2
:1009F00018BF7FEA6C5C1BD001B050EA410C0CBF01
:100A000052EA430C91EA030F02BF90EA020F002062
:100A1000704710F1000F91EA030F58BF994208BFC9
:100A200090422CBFD8176FEAE37040F00100704786
:100A30004FEA410C7FEA6C5C02D150EA013C07D1DD
:100A40004FEA430C7FEA6C5CD6D152EA033CD3D028
:100A50005DF8040B704700BF8446104662468C4622
:100A60001946634600E000BF01B5FFF7B7FF002855
:100A700048BF10F1000F01BD4DF808EDFFF7F4FF7E
:100A80000CBF012000205DF808FB00BF4DF808ED09
:100A9000FFF7EAFF34BF012000205DF808FB00BF2C
:100AA0004DF808EDFFF7E0FF94BF012000205DF84E
:100AB00008FB00BF4DF808EDFFF7CEFF94BF012003
:100AC00000205DF808FB00BF4DF808EDFFF7C4FFFC
:100AD00034BF012000205DF808FB00BF4FEA410C45
:100AE0007FEA6C5C02D150EA013C0AD14FEA430C28
:100AF0007FEA6C5C02D152EA033C02D14FF0000065
:100B000070474FF0010070474FEA410212F50012A2
:100B100015D211D56FF47873B3EB625212D94FEA44
:100B2000C12343F0004343EA505311F0004F23FA2E
:100B300002F018BF404270474FF00000704750EA83
:100B4000013005D111F0004008BF6FF00040704740
:100B50004FF00000704700BF4A0011D212F500129A
:100B600011D20DD56FF47873B3EB62520ED44FEA05
:100B7000C12343F0004343EA505323FA02F0704785
:100B80004FF00000704750EA013002D14FF0FF30C3
:100B900070474FF0000070474FEA4102B2F1E04366
:100BA00024BFB3F5001CDCF1FE5C0DD901F0004C54
:100BB0004FEAC0024CEA5070B2F1004F40EB8300A4
:100BC00008BF20F00100704711F0804F21D113F1D0
:100BD0003872BCBF01F00040704741F480114FEA09
:100BE0005252C2F11802C2F1200C10FA0CF320FA92
:100BF00002F018BF40F001004FEAC1234FEAD323AF
:100C000003FA0CFC40EA0C0023FA02F34FEA430318
:100C1000CCE77FEA625307D150EA01331EBF4FF0A1
:100C2000FE4040F44000704701F0004040F0FE40BC
:100C300040F40000704700BF80F0004002E000BFB9
:100C400081F0004142001FBF5FEA410392EA030FB7
:100C50007FEA226C7FEA236C6AD04FEA1262D2EB01
:100C60001363C1BFD218414048404140B8BF5B4206
:100C7000192B88BF704710F0004F40F4000020F09F
:100C80007F4018BF404211F0004F41F4000121F0B5
:100C90007F4118BF494292EA030F3FD0A2F10102FF
:100CA00041FA03FC10EB0C00C3F1200301FA03F13D
:100CB00000F0004302D5494260EB4000B0F5000F60
:100CC00013D3B0F1807F06D340084FEA310102F11F
:100CD0000102FE2A51D2B1F1004F40EBC25008BFD1
:100CE00020F0010040EA03007047490040EB00009B
:100CF000013A28BFB0F5000FEDD2B0FA80FCACF19C
:100D0000080CB2EB0C0200FA0CF0AABF00EBC250C8
:100D100052421843BCBFD0401843704792F0000FB6
:100D200081F4000106BF80F400000132013BB5E709
:100D30004FEA41037FEA226C18BF7FEA236C21D07F
:100D400092EA030F04D092F0000F08BF08467047E4
:100D500090EA010F1CBF0020704712F07F4F04D1B2
:100D6000400028BF40F00040704712F100723CBFC5
:100D700000F50000704700F0004343F0FE4040F4EF
:100D8000000070477FEA226216BF08467FEA2363AD
:100D90000146420206BF5FEA412390EA010F40F498
:100DA000800070474FF0000304E000BF10F00043E4
:100DB00048BF40425FEA000C08BF704743F09643CB
:100DC00001464FF000001CE050EA010208BF7047E6
:100DD0004FF000030AE000BF50EA010208BF70476D
:100DE00011F0004302D5404261EB41015FEA010C82
:100DF00002BF84460146002043F0B64308BFA3F17A
:100E00008053A3F50003BCFA8CF2083AA3EBC2535B
:100E100010DB01FA02FC634400FA02FCC2F120027A
:100E2000BCF1004F20FA02F243EB020008BF20F0B1
:100E30000100704702F1200201FA02FCC2F1200217
:100E400050EA4C0021FA02F243EB020008BF20EA0C
:100E5000DC7070474FF0FF0C1CEAD0521EBF1CEA3A
:100E6000D15392EA0C0F93EA0C0F6FD01A4480EA28
:100E7000010C400218BF5FEA41211ED04FF0006311
:100E800043EA501043EA5111A0FB01310CF000403D
:100E9000B1F5000F3EBF490041EAD3715B0040EA63
:100EA000010062F17F02FD2A1DD8B3F1004F40EB33
:100EB000C25008BF20F00100704790F0000F0CF006
:100EC000004C08BF49024CEA502040EA51207F3ACA
:100ED000C2BFD2F1FF0340EAC250704740F40000A5
:100EE0004FF00003013A5DDC12F1190FDCBF00F096
:100EF00000407047C2F10002410021FA02F1C2F144
:100F0000200200FA02FC5FEA310040F1000053EADF
:100F10004C0308BF20EADC70704792F0000F00F02D
:100F2000004C02BF400010F4000F013AF9D040EA33
:100F30000C0093F0000F01F0004C02BF490011F4C7
:100F4000000F013BF9D041EA0C018FE70CEAD153C5
:100F500092EA0C0F18BF93EA0C0F0AD030F0004C45
:100F600018BF31F0004CD8D180EA010000F00040F9
:100F7000704790F0000F17BF90F0004F084691F0B7
:100F8000000F91F0004F14D092EA0C0F01D14202F1
:100F90000FD193EA0C0F03D14B0218BF084608D1BA
:100FA00080EA010000F0004040F0FE4040F4000004
:100FB000704740F0FE4040F4400070474FF0FF0C97
:100FC0001CEAD0521EBF1CEAD15392EA0C0F93EADE
:100FD0000C0F69D0A2EB030280EA010C49024FEA30
:100FE000402037D04FF0805343EA111143EA1013E9
:100FF0000CF000408B4238BF5B0042F17D024FF4A1
:10100000000C8B4224BF5B1A40EA0C00B3EB510F7B
:1010100024BFA3EB510340EA5C00B3EB910F24BF64
:10102000A3EB910340EA9C00B3EBD10F24BFA3EBE9
:10103000D10340EADC001B0118BF5FEA1C1CE0D1B1
:10104000FD2A3FF650AF8B4240EBC25008BF20F064
:10105000010070470CF0004C4CEA50207F32C2BFB8
:10106000D2F1FF0340EAC250704740F400004FF055
:101070000003013A37E792F0000F00F0004C02BF86
:10108000400010F4000F013AF9D040EA0C0093F050
:10109000000F01F0004C02BF490011F4000F013BAA
:1010A000F9D041EA0C0195E70CEAD15392EA0C0F12
:1010B00008D142027FF47DAF93EA0C0F7FF470AF4A
:1010C000084676E793EA0C0F04D14B023FF44CAF8D
:1010D00008466EE730F0004C18BF31F0004CCAD122
:1010E00030F000427FF45CAF31F000437FF43CAF5E
:1010F0005FE700BF4FF0FF3C06E000BF4FF0010C80
:1011000002E000BF4FF0010C4DF804CD4FEA400261
:101110004FEA41037FEA226C18BF7FEA236C11D0AB
:1011200001B052EA530C18BF90EA010F58BFB2EB5E
:10113000030088BFC81738BF6FEAE17018BF40F0DE
:10114000010070477FEA226C02D15FEA402C05D192
:101150007FEA236CE4D15FEA412CE1D05DF8040B17
:10116000704700BF844608466146FFE70FB5FFF7AA
:10117000C9FF002848BF10F1000F0FBD4DF808ED62
:10118000FFF7F4FF0CBF012000205DF808FB00BF53
:101190004DF808EDFFF7EAFF34BF012000205DF8AD
:1011A00008FB00BF4DF808EDFFF7E0FF94BF0120FA
:1011B00000205DF808FB00BF4DF808EDFFF7D2FFF7
:1011C00094BF012000205DF808FB00BF4DF808ED3A
:1011D000FFF7C8FF34BF012000205DF808FB00BF07
:1011E0004FEA4002B2F1FE4F0FD34FF09E03B3EB34
:1011F00012620DD94FEA002343F0004310F0004F74
:1012000023FA02F018BF404270474FF000007047C9
:1012100012F1610F01D1420205D110F0004008BF68
:101220006FF0004070474FF00000704742000ED250
:10123000B2F1FE4F0BD34FF09E03B3EB126209D411
:101240004FEA002343F0004323FA02F070474FF0C7
:101250000000704712F1610F01D1420202D14FF03C
:10126000FF3070474FF00000704700BF53B94AB9D4
:10127000002908BF00281CBF4FF0FF314FF0FF309E
:1012800000F0A8B9ADF1080C6DE904CE00F03EF80D
:10129000DDF804E0DDE9022304B0704738B5054607
:1012A0000C462846214600220023FFF7EFFB28B911
:1012B00028462146BDE8384000F00AB8284604F127
:1012C000004100F005F8404261EB410138BD00BF2C
:1012D000D0B50C4B002206460F46FFF765F9FFF725
:1012E0003BFC0446FFF7E6F8074B0022FFF75CF9EA
:1012F00002460B4630463946FEF79EFFFFF72CFCB0
:101300002146D0BD0000F03D0000F0412DE9F0473E
:10131000089E0D4604460F46002B4AD18A42944649
:1013200065D9B2FA82F343B102FA03FCC3F1200299
:101330009F4020FA02F217439C404FEA1C4E1FFACE
:101340008CF5B7FBFEF1220C0EFB117742EA074247
:1013500001FB05F090420AD91CEB020201F1FF37B4
:1013600080F01B81904240F2188102396244121AC7
:10137000A4B2B2FBFEF00EFB102244EA024400FBD2
:1013800005F5A5420AD91CEB040400F1FF3280F0F8
:101390000681A54240F203816444023840EA0140DC
:1013A000641B00211EB1DC400023C6E90043BDE8F8
:1013B000F0878B4208D9002E00F0EC800021C6E9AE
:1013C00000050846BDE8F087B3FA83F1002949D14A
:1013D000AB4202D3824200F2F780841A65EB03022B
:1013E00001201746002EE2D0C6E90047DFE702B928
:1013F000FFDEB2FA82F3002B40F08F808A1A4FEAA8
:101400001C471FFA8CFE0121B2FBF7F507FB1520E4
:10141000220C42EA00420EFB05F0904208D91CEB78
:10142000020205F1FF3802D2904200F2CA8045461E
:10143000121AA4B2B2FBF7F007FB102244EA0244EE
:101440000EFB00FEA64508D91CEB040400F1FF3298
:1014500002D2A64500F2BA801046A4EB0E0440EA80
:1014600005409FE7C1F120078B4022FA07FC4CEAB8
:10147000030C05FA01F420FA07F3FD40234300FAB8
:1014800001F94FEA1C401FFA8CFEB5FBF0F81C0C6A
:1014900000FB185544EA054408FB0EF5A54202FA84
:1014A00001F20BD91CEB040408F1FF3A80F08780AD
:1014B000A54240F28480A8F102086444641B9DB2F6
:1014C000B4FBF0F300FB134445EA044403FB0EFEB7
:1014D000A64508D91CEB040403F1FF306BD2A645E6
:1014E00069D9023B644443EA0840A0FB0283A4EBB1
:1014F0000E049C42C6461D4655D352D056B1B9EB98
:101500000E0364EB050404FA07F7CB40CC401F43FD
:10151000C6E900740021BDE8F087C3F1200102FA9A
:1015200003FC20FA01F225FA01F19D402A434FEA1B
:101530001C471FFA8CFEB1FBF7F007FB1015110CCE
:1015400041EA054100FB0EF58D4204FA03F408D987
:101550001CEB010100F1FF382FD28D422DD902384A
:101560006144491B92B2B1FBF7F507FB151142EA42
:10157000014205FB0EF1914208D91CEB020205F174
:10158000FF3816D2914214D9023D6244521A45EAFC
:10159000004139E73146304609E73946E7E610466B
:1015A000FCE6C145AAD2B8EB020E63EB0C0501388C
:1015B000A4E74546EAE7034695E74046D1E7D0462B
:1015C0007CE7023D624433E708460BE76444023897
:1015D00043E700BF704700BF70B5ADF5747D0646A8
:1015E00000248DF800408DF801408DF803408DF8FF
:1015F00004408DF802401FE0E500C4EBC400C000C9
:101600000830684420220021013016F02FFC2B1BEB
:101610000DEBC30308221A72002283F82920002050
:101620000021C3E90C010134C4EBC403DB000DF855
:1016300003200A2001F054F90F2CDDDD013E4FF4A8
:101640000061164B53F8260000F070FDE0B9144B12
:1016500000221146022014F04DFD4FF474726946C9
:101660000E4B53F8260000F029FD30B90D4B002237
:101670001146022014F03EFD0CE00B4B00221146F7
:10168000022014F037FD05E0084B0022114602202D
:1016900014F030FD0DF5747D70BD00BF000000201A
:1016A0008CBE010898BE0108A4BE0108B0BE0108A6
:1016B00084B030B585B008AC84E80F009DF8C853FD
:1016C000644B00221146022014F014FD00240CE0AB
:1016D00004F120036B4493F8883300935E4B00229F
:1016E0001146022014F006FD0134A542F0DC5B4BEC
:1016F00000221146022014F0FDFC9DF822300093D8
:10170000574B00221146022014F0F4FC9DF82330C0
:101710000093544B00221146022014F0EBFC9DF87C
:1017200024300093504B00221146022014F0E2FCBA
:101730009DF82030012B00F086804C4B00934C4BE1
:1017400000221146022014F0D5FC9DF8C933009305
:10175000484B00221146022014F0CCFC9DF8CA33FD
:101760000093454B00221146022014F0C3FCBDF843
:10177000D6330093414B00221146022014F0BAFCEC
:101780009DF8D8339DF8D9239DF8DA139DF8DB0333
:101790000390029101920093394B002211460220DE
:1017A00014F0A8FC9DF8DC339DF8DD239DF8DE13D2
:1017B0009DF8DF030390029101920093314B0022C8
:1017C0001146022014F096FC9DF8E0339DF8E123C9
:1017D0009DF8E2139DF8E3030390029101920093B8
:1017E000294B00221146022014F084FC9DF8E433BA
:1017F0009DF8E5239DF8E6139DF8E7030390029119
:1018000001920093214B00221146022014F072FC39
:101810009DF8E833CBB11E4B00931E4B00221146BE
:10182000022014F067FC9DF8D43383B1184B009369
:10183000194B00221146022014F05CFC05B0BDE8F3
:10184000304004B07047124B78E7084BE4E7074B91
:10185000EDE700BFCCBE0108F0BD010898D5010836
:10186000E0BE0108F0BE010800BF0108C4BE0108C7
:1018700010BF010828BF010838BF010850BF010888
:101880006CBF010890BF0108B8BF0108E4BF0108A0
:10189000BCBE010810C0010824C0010830B5ADF578
:1018A000777D04464FF47472434B53F8201002A81E
:1018B00000F020FC002877D106238DF8B0333F4B91
:1018C00093E803000090ADF80410002307E01DF832
:1018D000031002AA1A4482F888130133DBB2052BE5
:1018E000F5D900238DF8B1338DF8B233ADF8BE339E
:1018F000194663F3070163F30F2163F3174163F3A1
:101900001F611A4663F3070263F30F2263F3174262
:1019100063F31F621D4663F3070563F30F2563F34B
:10192000174563F31F65184663F3070063F30F2041
:1019300063F3174063F31F60F095F190F291F39217
:101940008DF8D0338DF8D1338DF8BC334FF400616E
:10195000194B53F8240000F0E9FBE0B9184B0022C2
:101960001146022014F0C6FB4FF4747202A9124B08
:1019700053F8240000F0A2FB30B9124B00221146AC
:10198000022014F0B7FB0CE00F4B0022114602209E
:1019900014F0B0FB05E00D4B00221146022014F0BC
:1019A000A9FB0DF5777D30BD094B002211460220C1
:1019B00014F0A0FBF5E700BF0000002018BD0108EF
:1019C0008CBE010898BE0108A4BE0108B0BE010883
:1019D0003CC0010810B5ADF5F26D04464FF47472C9
:1019E000114B53F82010F0A800F084FBA0B900942C
:1019F0000E4B00221146022014F07CFBF0AC4FF499
:101A00007072F4A9684616F0D2FA94E80F00FFF756
:101A10004FFE0DF5F26D10BD054B00221146022060
:101A200014F068FBF5E700BF0000002054C0010877
:101A30003CC0010800B583B001904FF0FF33012294
:101A400001A903480AF079FA019803B05DF804FB94
:101A5000640C00200F2800D970472DE9F84F0D467F
:101A600017461E46DFF8749000EB00144FEA840B13
:101A700009EB840444220021204616F0F7F9286877
:101A80006968AA68EB6849F80B006160A260E360CE
:101A900028696969AA69EB6920616161A261E361F2
:101AA00084F8207084F821609DF8283084F8223072
:101AB000BDF82C30E3850C9B23630D9B63630E9B69
:101AC000A3630F9BE3639DF8403084F840309DF89A
:101AD000443084F84130BDE8F88F00BF4C0300204B
:101AE00038B50D46144694220146034816F05FFAB5
:101AF000024B1D601C7138BD940700208C0700202C
:101B000008B50A464FF0FF33014602480AF015FABD
:101B100008BD00BF940700202DE9F84306460F4694
:101B2000144602F1020996220021484616F09EF959
:101B300000252580124C01222179206807F0F2F857
:101B4000DFF8408001220421404607F0EBF8012233
:101B500049460D480AF060FB39463046FFF7D0FF92
:101B60002A462179206807F0DDF82A4604214046FC
:101B700007F0D8F8012000F0B3FEBDE8F88300BFFD
:101B80008C070020000800489407002008B503884F
:101B9000952B0ED8084A1268516AC2189170013309
:101BA000038030F8021B0122014403480AF034FB91
:101BB00008BD00230380F4E79407002008B513480C
:101BC000134B03604FF00043436000238360C36006
:101BD0000361042242610376437683760122C26167
:101BE00080F820304362836280F82C304FF48052BA
:101BF000026307224263826380F83C30C36405F0CD
:101C000019FE00B908BD00F0C1FBFBE72808002061
:101C1000002401400268094B9A4200D0704782B00C
:101C20004FF0B0431A6E42F400721A661B6E03F452
:101C300000730193019B02B0704700BF0024014074
:101C40000268054B9A4200D070474FF0B042136EC5
:101C500023F400731366F7E70024014030B585B024
:101C600004460023019302930393FFF7A7FF16484E
:101C700006F018FAF8B9019400230293039301A91E
:101C8000114805F051FFC8B90F4806F00FF9C0B967
:101C90000D4C4FF0FF31204605F0E4FE204606F0E3
:101CA000E1F9204605F03DFF0546204606F07AF9A9
:101CB000284605B030BD00F069FBDCE700F066FBAC
:101CC000E2E700F063FBE3E728080020014B024A4B
:101CD0001A607047280800200024014008B50D480C
:101CE000FFF7BCFFA0B103460B4AB2F8AA004FF6BB
:101CF000FF72904207D040F6E44202FB00F0B0FBD6
:101D0000F3F080B205E00548B0FBF3F080B200E0EC
:101D1000002008BD002000B40075FF1FD8084C004B
:101D200010B582B00023ADF80630FFF7D7FF0446A8
:101D30002148FFF793FF214BB3F8C820B3F8A81050
:101D40008A421DD000FB04F39B081D48A0FB03033F
:101D5000C1EB5313642000FB03F3521A93FBF2F31D
:101D60001E331BB2ADF80630BDF806301BB21B02A5
:101D70001BB2ADF80630BDF8060000B202B010BDCF
:101D800004FB00F00F4BA3FB0023C41A03EB540326
:101D9000DB0A4FF47A7202FB03F3A3F53923A3F5B0
:101DA0000C63094A82FB0312DB17C3EBA2231E3329
:101DB0001BB2ADF80630D7E7001000B00075FF1F6A
:101DC0009F00EE0901011000AD8BDB6800B583B008
:101DD0004FF0B0439A6C42F004029A649A6C02F09D
:101DE00004020192019A9A6C42F001029A649B6C7F
:101DF00003F001030093009B002202210F2006F054
:101E000003FA0F2006F038FA03B05DF804FB002354
:101E100001E0083008338B420AD24268D0F800C093
:101E2000B2F1FF3F08BFBCF1FF3FF2D00120704785
:101E30000020704730B108B539B192B214F070FA91
:101E4000002008BD6FF0050070476FF00500F8E74F
:101E500008B506F0F3FC78B9094B9A6942F04042A4
:101E60009A614CF2FA321A6106F000FD08B90020BE
:101E700008BD6FF00400FBE76FF00400F8E700BF57
:101E80000040005870B584B000230393002839D077
:101E90000E460446FFF7DCFF054610B1284604B0A5
:101EA00070BD06F0CBFC80BB0223009304F17843A5
:101EB0001748D0F8E015174A02EA8121B3FBF1FC7C
:101EC00001FB1C33DB0A0193A11901F178410139AF
:101ED000D0F8E00502EA8022B1FBF2F002FB10111B
:101EE000C3EBD1230133029303A9684606F08AFDB0
:101EF00018B1022804D06FF0010506F0B7FCCDE759
:101F00000125FAE76FF00505C8E76FF00405C5E79E
:101F10000070FF1F00FCFF032DE9F04F89B0039014
:101F200004920191002800F0A9808346002900F066
:101F3000A98012F0070F40F0A98010F00703059365
:101F400040F0A880FFF784FF029018B1029809B012
:101F5000BDE8F08F06F072FC002840F09F80039CE3
:101F600004F178424F4BD3F8E0354F4901EA832121
:101F7000B2FBF1F301FB1322D30A0693049BE3188F
:101F800003F17843013BB3FBF1F001FB1033DB0AB3
:101F9000A3EBD22301330793012B06D9C4F30A091B
:101FA000C9F50069DDF818A02FE0DDF81090F9E719
:101FB000C846019F5C46059D454515D2EE19D6E9F8
:101FC00000232146012006F095FC50B92068626884
:101FD000E95973689A4208BF884241D108340835EC
:101FE000EAE76FF003030293029B002B3FD1CB443F
:101FF000019B4B440193049BA3EB0909B9F5006FC6
:1020000028BF4FF400690AF1010A069B079A13449E
:1020100053452CD90AF58034E40249460398FFF76A
:10202000F6FE0028C4D0214B1868E8B14FF40062D6
:102030002146FFF7FFFE1D4B1B68CBF30A001FFA7A
:1020400089F20199184414F06BF94FF400612046AD
:10205000FFF718FF70B9154B1F684FF40068AAE727
:102060006FF003030293BFE76FF00503029306F0DE
:10207000FDFB6BE76FF001030293F8E76FF00503D8
:10208000029363E76FF0050302935FE76FF00503C8
:1020900002935BE76FF00503029357E76FF00403C9
:1020A000029353E70070FF1F00FCFF038C08002021
:1020B000014B1860002070478C080020B0F1006FC1
:1020C0000ED310B5094BD3F8E045094B03EA84233E
:1020D00003F10063013B984205D8FFF71DFF10BDD7
:1020E0004FF0FF3070474FF0FF30F8E70070FF1FF0
:1020F00000FCFF03B1F1006F0ED310B5094BD3F80C
:10210000E045094B03EA842303F10063013B994254
:1021100005D8FFF78FFE10BD4FF0FF3070474FF02E
:10212000FF30F8E70070FF1F00FCFF03B0F1006F05
:102130000ED308B5094BD3F8E025094B03EA8223F7
:1021400003F10063013B984205D8FFF79BFE08BDF1
:102150004FF0FF3070474FF0FF30F8E70070FF1F7F
:1021600000FCFF032DE9F04389B00024039404949C
:102170000594069407944FF0B043DA6C42F00102E4
:10218000DA64DA6C02F001020292029ADA6C42F02E
:102190000202DA64DA6C02F002020192019ADA6C4D
:1021A00042F00402DA64DB6C03F004030093009B4A
:1021B0003B4E22464FF43A41304606F0B3FDDFF87D
:1021C000E48022460421404606F0ACFD22464FF44E
:1021D000F8714FF0904006F0A5FD4FF40A430393C9
:1021E0000125049505940223069303A9304606F0C1
:1021F00049FC0423039304950594069403A94046DF
:1022000006F040FC032703974FF40419CDF8109013
:10221000059503A94FF0904006F034FC4FF440536D
:10222000039304950594069703A9304606F02AFC0B
:10223000062703970494059403A9304606F022FC70
:1022400040230393CDF81090059503A9404606F06E
:1022500019FC4FF4F873039304950594069403A9AD
:102260004FF0904006F00EFC22462146384605F01D
:10227000CBFF384606F000F822462146072005F03D
:10228000C3FF072005F0F8FF22462146162005F07F
:10229000BBFF162005F0F0FF09B0BDE8F08300BFDA
:1022A000000400480008004808B51248124B0360BB
:1022B000124B4360002383600122C26003614361CB
:1022C0008361C361036206F0F9FE50B90021094839
:1022D00007F0FEF840B90021064807F027F930B9A9
:1022E00008BD00F053F8F1E700F050F8F3E700F014
:1022F0004DF8F5E790080020005400405D3E302086
:1023000010B596B0044600211191129113911491C9
:102310001591382203A815F0A9FD2268194B9A429D
:1023200001D016B010BD402303934FF440330893FF
:1023300003A807F047FF08BB4FF0B044E36C43F03D
:102340000203E364E36C03F002030293029BC023E5
:1023500011931223129300231393149304231593C0
:1023600011A9094806F08EFBA36D43F40013A36581
:10237000A36D03F400130193019BD2E700F006F86C
:10238000DAE700BF005400400004004872B6FEE7E0
:1023900010B59AB04822002108A815F067FD002466
:1023A000019402940394049405940694079407F00E
:1023B000E9F84FF0B042D2F8903023F01803C2F899
:1023C000903002F58062136823F4C06343F4007315
:1023D0001360136803F4C0630093009B24230893E5
:1023E00081230B93012310931194B0231293139420
:1023F00008A807F061FA70B94F23019300230293F4
:102400000393049305930793022101A807F086FD27
:1024100018B91AB010BDFFF7B9FFFFF7B7FF0000FA
:1024200010B582B005F0B8F9FFF7B2FFFFF79AFEDA
:1024300002F014F9FFF738FF00F060FC244C04228E
:1024400024492046FFF74CFB00F08CFC0122224976
:10245000224809F0E1FE01222149204609F0DCFE74
:1024600000F032FA044600F02FFA012240214FF02A
:10247000904006F057FC012280214FF0904006F07A
:1024800051FCF82217491848FFF734FEC0B9164B23
:10249000D3E93823CDE90023144B00221146022052
:1024A00013F028FE00F010FA001B41F28733984227
:1024B000F8D90F4B1B78002BF4D102F0D5F8F1E7D7
:1024C0000C4B00221146022013F014FEEAE700BF75
:1024D000D00B002000080048E90D0020640C00200B
:1024E000E809002000F00308E808002078C001088F
:1024F000F80D00203CC0010800B58DB02C22002151
:1025000001A815F0B3FC1948194B03601F23836021
:1025100000230361436183614FF08042C261036223
:102520004FF48073436208F05DF8A8B90F4808F0D3
:102530009BF9A0B900220892029206924FF0005334
:1025400007934FF480730B9301A9084808F0B0F883
:1025500040B90DB05DF804FBFFF718FFE6E7FFF7A1
:1025600015FFE7E7FFF712FFF3E700BF1C0B0020A2
:102570000028004010B590B004463822002102A87F
:1025800015F074FC22681A4B9A4201D010B010BDAD
:102590004FF4803302934FF480730F9302A807F037
:1025A00011FE08BB4FF0B043D3F8902042F4004234
:1025B000C3F890209A6D42F480629A659B6D03F493
:1025C00080630193019B00221146022005F01CFE4E
:1025D000022005F051FE002211462A2005F014FECB
:1025E0002A2005F049FED1E7FFF7D0FEDAE700BF69
:1025F000002800407047704708B505F0E3F8012057
:10260000024BC3F8880007F021F808BD0004005809
:1026100008B505F0DEF808BD08B505F0DAF800F0F9
:1026200017FD08BD08B505F0CDF80121002006F022
:10263000B1FF08BD7047FEE7FEE7FEE7FEE7FEE7F5
:10264000704770477047704708B5024808F038F97E
:1026500008BD00BF1C0B002008B5012006F070FB70
:1026600008BD08B5022006F06BFB08BD08B502489E
:1026700006F032F808BD00BF700B002008B54020FE
:1026800006F05EFB08BD000008B5024808F0D6FD64
:1026900008BD00BFD00B002008B5024808F0CEFDF1
:1026A00008BD00BF640C002008B5024807F014FF05
:1026B00008BD00BF1C0B002008B5024808F0B4FBA1
:1026C00008BD00BF540B002008B50548082303606F
:1026D00008F02CF900B908BDFFF758FEFBE700BF72
:1026E000540B002000B583B04FF0B0435A6E42F057
:1026F00001025A665B6E03F001030193019B002205
:102700001146322005F080FD322005F0B5FD03B002
:102710005DF804FB0CB400B583B004AB53F8042B94
:10272000019314F0D7F903B05DF804EB02B07047E1
:1027300030B585B004460D4602A813F03FFFBDF941
:102740000C300093029B054A10212046FFF7E2FF60
:102750002046FDF765FD288005B030BDB8C00108F2
:1027600010B54FF0B042936823F40043936013F028
:10277000A9FF01240D4B1C7000F0BCF813F046FCBF
:102780000B4813F05DFC0B4B4FF400421A61022022
:1027900013F05CFCFFF79AFA00F014F913F066FDF1
:1027A0002146204613F082FD10BD00BF600B0020C3
:1027B000312700080040005808B513F08DFD08BD12
:1027C00008B5FFF78BFA40F6B83398420DD8B0F54C
:1027D000E16F0CD3A0F5E160C0EBC0104000054BE9
:1027E000A3FB0030C0F3C71000E0FE2008BD0020AE
:1027F000FCE700BFB5814E1B00B587B0684600F00E
:10280000C5F80198FEF7ECFC00B207B05DF804FBD8
:1028100038B50446184BD3F88035B3F1FF3F13D0D9
:10282000C3711A0A82711A0C42711B0E0371124B8A
:10283000D3F88425C270D3F884351A0A82701A0C32
:1028400042701B0E037038BD04F0CAFF054604F049
:10285000D3FF054404F0CAFF2B0EE3712B0CA371C8
:102860002B0A63712571030EE370030CA370030A36
:1028700063702070E7E700BF0070FF1F38B50A4B98
:10288000D3F880350360B3F1FF3F00D038BD044674
:1028900004F0A6FF054604F0A9FF454004F0ACFF94
:1028A00045402560F2E700BF0070FF1F08B5012119
:1028B000022013F0E5FC08BD08B50021022013F04A
:1028C000DFFC08BD0020704708B5044B1B780BB92E
:1028D000002008BD00F000F9FBE700BF600B0020FE
:1028E00000B583B00190019800F0DCF903B05DF809
:1028F00004FB0000F0B589B0224AD2F8903043F4CE
:102900008043C2F8903004F07DFF04F083FF04F0B0
:1029100089FF0024039404940594069407940123EA
:102920000493032306934FF0B043DA6C42F00202A3
:10293000DA64DA6C02F002020292029ADA6C42F075
:102940000202DA64DB6C03F002030193019B4FF493
:10295000805703970C4D03A9284606F093F84FF4CF
:102960000056039603A9284606F08CF822463946FD
:10297000284606F0D7F922463146284606F0D2F915
:1029800009B0F0BD000800580004004810B5044626
:10299000FFF7C6F940F30F20FEF708FA054BA360D6
:1029A0006060054B2360054BE360054B236100200D
:1029B00010BD00BF0000484200007A440D093E00EF
:1029C000AB030500002070470120704708B515F0E3
:1029D000C1FA162303604FF0FF3008BD08B54FF071
:1029E000FF31FFF7F3FFFEE770B50C4616460025F2
:1029F00006E0AFF30080214601F8010B01350C46DB
:102A0000B542F6DB304670BD70B50C461646002563
:102A100004E014F8010BFFF70DF80135B542F8DBBF
:102A2000304670BD4FF0FF3070474FF400534B609D
:102A300000207047012070470020704710B5034602
:102A40000C4A0D490D48006840B10C480068034429
:102A5000521A934206D8094A136010BD0748084C21
:102A60000460F2E715F076FA0C2303604FF0FF30B4
:102A7000F3E700BF0080002000080000640B002086
:102A8000A8230020064B986801E0054B9868044B8A
:102A90009B688342F9D1C043024B1860704700BF66
:102AA000002800406C0B0020014B1868704700BFE5
:102AB0006C0B0020064B986801E0054B9868044BAE
:102AC0009B688342F9D1C043024B1B68C01A704710
:102AD000002800406C0B0020074B1B7853B1074BBC
:102AE000986801E0054B9868044B9B688342F9D1D4
:102AF000C043704700207047680B0020002800404A
:102B00000320704708B501464FF47A720023800213
:102B1000890DFEF7ABFB08BDC20E43011B1A62F123
:102B20000002920042EA93729B001B1842F10000DF
:102B3000C00040EA5370C3F3D51343EA8050704796
:102B400010B5074B0122DA65064C4FF48071204620
:102B500007F082FC4FF0FF332363002010BD00BF5D
:102B6000002800401C0B002008B502460221024844
:102B700007F0BBFE08BD00BF1C0B002038B50F4B93
:102B80001B780BB1002038BD0D4C4FF0FF3525638D
:102B9000FFF7B2FCFFF7D4FF4FF48071204607F037
:102BA0005BFC2563204607F03FFE0020FFF7DCFFBB
:102BB000FFF768FF014B01221A70E3E7680B002062
:102BC0001C0B002008B502460021024807F08DFECC
:102BD00008BD00BF1C0B002008B5024601210248B9
:102BE00007F083FE08BD00BF1C0B002010B58CB0A1
:102BF00004462C22002101A815F038F9FFF7A0FFA8
:102C00000C4B1B681C4400230893E4430294069376
:102C10004FF0005307934FF480730B93012201A9E7
:102C2000054807F045FD10B900200CB010BDFFF7B6
:102C3000ADFBF9E76C0B00201C0B002008B502214E
:102C4000014807F059FE08BD1C0B002038B50546A9
:102C50000B4B9C6801E00A4B9C68094A9268A242AF
:102C6000F9D1E443FFF7EAFF2346A40A44EA80547B
:102C7000C3F30900FFF750FF2880204638BD00BF8E
:102C80000028004008B50021014807F035FE08BDC6
:102C90001C0B002008B50121014807F02DFE08BDDE
:102CA0001C0B002008B5FFF72DFF0D4B996801E0C4
:102CB0000B4B99680A4A92688A42F9D1C9430AE0E3
:102CC000074B9B68064A92689A42F9D1DB435B1A2C
:102CD000834203D200BF024B9B68F3E708BD00BFED
:102CE0000028004008B513F011FE08BD08B5FFF735
:102CF000A5FF0130FFF738FF08BD000008B51748F1
:102D0000174B03604FF41653436000238360C36086
:102D100003610C2242618361C36103624362836287
:102D200009F0A8F970B900210C4809F077FB60B9E7
:102D300000210A4809F097FB50B9084809F04FFBF9
:102D400048B908BDFFF722FBEDE7FFF71FFBEFE7F0
:102D5000FFF71CFBF1E7FFF719FBF2E7D00B0020B0
:102D60000038014008B51748174B03604FF4E133B2
:102D7000436000238360C36003610C22426183616E
:102D8000C36103624362836209F074F970B9002180
:102D90000C4809F043FB60B900210A4809F063FBC5
:102DA00050B9084809F0F7FA48B908BDFFF7EEFA3C
:102DB000EDE7FFF7EBFAEFE7FFF7E8FAF1E7FFF7E8
:102DC000E5FAF2E7640C00200044004030B599B009
:102DD00004460021139114911591169117913822F0
:102DE00005A815F043F823684B4A934204D04B4A98
:102DF000934239D019B030BD012305934FF44033CD
:102E0000069305A807F0DEF958BB4FF0B0431A6EE1
:102E100042F480421A661A6E02F480420292029ACA
:102E2000DA6C42F00102DA64DB6C03F00103019317
:102E3000019B4FF4C0631393022314930024159451
:102E400016940723179313A94FF0904005F01AFE2C
:102E500022462146242005F0D7F9242005F00CFA5B
:102E6000C8E7FFF793FAD0E7022305932C4B0793AB
:102E700005A807F0A7F9002844D14FF0B0439A6D98
:102E800042F400329A659A6D02F400320492049A78
:102E9000DA6C42F00102DA64DB6C03F001030393A5
:102EA000039B0C23139302231493002515950323EE
:102EB00016930723179313A94FF0904005F0E2FDF6
:102EC0001848194B03601423436010238360C560C6
:102ED0008023036145618561C561056205F06EFA75
:102EE00098B910210F4805F06BFC88B90D4BE367CA
:102EF0009C6200220221252005F086F9252005F09C
:102F0000BBF977E7FFF742FAB7E7FFF73FFAE8E7E1
:102F1000FFF73CFAEAE700BF0038014000440040F8
:102F200004000C00700B00205800024010B503682C
:102F3000144A934204D00446134A934210D010BD61
:102F40004FF0B042136E23F4804313664FF4C06118
:102F50004FF0904005F068FE242005F09BF9EEE765
:102F60004FF0B042936D23F4003393650C214FF082
:102F7000904005F059FEE06F05F092FA252005F02B
:102F800089F9DCE7003801400044004008B5074BF0
:102F90001860FEF71BFFFFF7E5FE054AD2F8803008
:102FA00043F00063C2F88030002008BDFC0C002014
:102FB0000008005808B54FF0B0439A6B42F4003255
:102FC0009A639A6B22F400329A630448FFF7AEFFCB
:102FD0000F2005F05FF9002008BD00BF640C002041
:102FE00008B50A460146024808F064F8002008BD0A
:102FF000640C002010B582B0124B18604FF400131F
:10300000009302AB13E906000F4809F06CF90E4B70
:103010001B68DA6912F4803FF9D1DA6912F4800F83
:10302000FBD09A6842F480029A60074C204609F06F
:103030009BF901220549204609F0EEF8002002B074
:1030400010BD00BFF80C0020640C0020E90D00202A
:1030500008B5074809F00EF820B9064805F0AEF9A2
:1030600018B908BDFFF792F9F7E7FFF78FF9F8E70E
:10307000640C0020700B002008B50268044B9A42D3
:1030800000D008BD034B1B6800209847F9E700BF3C
:1030900000440040FC0C00202DE9F04FADF24C5DE7
:1030A00081460268B64B9A4209D0D9F80020B54B48
:1030B0009A4201F0B4820DF24C5DBDE8F08FB24B44
:1030C0001B682BB1D0F8902012B90121AF48984766
:1030D000AE4B1B780A2B0AD0AD4A1278C62A00F2F2
:1030E0000A81501CAA490870AA498B5403E1A84BD5
:1030F0001B78A8480022C2540D22A74914F0BEFE36
:10310000002800F0EC800D22A449A24814F0B6FE7D
:10311000002800F0F6801222A1499E4814F0AEFE6D
:10312000002800F0F8800F229E499A4814F0A6FE6D
:10313000002800F07B810B229B49964814F09EFEEC
:103140000446002800F037820B229849914814F079
:1031500095FE0446002800F052820B2294498D48C7
:1031600014F08CFE0446002800F06D82152291496F
:10317000884814F083FE002800F0A38217228E49AD
:10318000844814F07BFE002800F0D0820B228B498B
:10319000804814F073FE002800F0D982102288497C
:1031A0007C4814F06BFE002800F0848316228549C9
:1031B000784814F063FE0446002800F0948412223C
:1031C0008149744814F05AFE002800F09A851322B1
:1031D0007E49704814F052FE0746002800F06486CD
:1031E00018227B496B4814F049FE002800F06187E3
:1031F00012227849674814F041FE002800F06487E5
:1032000010227549634814F039FE0646002800F084
:103210005F87112271495F4814F030FE002801F0E9
:10322000B38112226E495B4814F028FE002801F099
:10323000B88116226B49574814F020FE002801F08F
:10324000CC8110226849534814F018FE002841F040
:10325000DE810DF17F030DF17E026449644814F0B4
:1032600001FD9DF87E30013B4FF47472614951F8C5
:10327000231020A8FEF73EFF002841F0C0819DF8F2
:103280007F30012B14BF002301238DF834349DF8C7
:103290007E30013B4FF40061564A52F82300FEF79E
:1032A00045FF002841F0A381534B00221146022024
:1032B00012F020FF9DF87E30013B4FF4747220A97C
:1032C0004C4850F82300FEF7F9FE002841F08781B2
:1032D0004A4B00221146022012F00CFF08E0484B36
:1032E00000221146022012F005FF464B01221A70FF
:1032F000274B00221A7001222449484608F08CFF0F
:10330000D3E6414B00221146022012F0F3FE3D4B62
:1033100000221A70ECE73D4B00221146022012F009
:10332000E9FEF8223A490DF58A60FEF7E3FE00BB9C
:1033300008220DF58A61374810F0FFFF08220DF5CD
:103340008B61354810F0F9FF10220DF269413348C6
:1033500010F0F3FF0DF5A563D3E90001304BC3E98D
:1033600000010DF5A663D3E900012E4BC3E900016E
:10337000BEE72D4B00221146022012F0BBFEB7E73C
:103380000044004000380140F80C0020E90D002006
:10339000E80D0020200D002004C1010838C10108FB
:1033A0006CC10108A8C1010830C3010844C3010869
:1033B00050C301085CC3010878C30108B8C3010801
:1033C000ECC3010888C40108A0C501084CC6010867
:1033D00038C7010858C701086CC7010858C8010858
:1033E0006CC8010880C8010898C80108ACC8010869
:1033F000300D0020000000208CBE010898BE01089E
:1034000014C10108F80D002048C1010880C101085D
:1034100000F00308000D0020080D0020100D002012
:10342000000E0020F00D00203CC00108F822AD493C
:103430000DF58A60FEF75EFE002840F0AB80AA4BD7
:1034400000221146022012F055FE9DF850349DF8DE
:1034500051249DF852149DF853049DF854449DF84E
:1034600055549DF856649DF8577407970696059530
:10347000049403900291019200939C4B0022114608
:10348000022012F037FE9DF858349DF859249DF81B
:103490005A149DF85B049DF85C449DF85D549DF8BA
:1034A0005E649DF85F7407970696059504940390F3
:1034B0000291019200938E4B00221146022012F0DD
:1034C00019FE9DF8693417939DF86A2418929DF8A7
:1034D0006B349DF86C249DF86D149DF86E049DF876
:1034E0006FC49DF870E49DF871449DF872549DF886
:1034F00073649DF874749DF875849DF876A4CDF876
:1035000064A09DF877A49DF878B4CDF83CB0CDF8D0
:1035100038A0DDF864A0CDF834A0CDF830800B974A
:103520000A9609950894CDF81CE0CDF818C00590CE
:10353000049103920293189A0192179B00936D4B8A
:1035400000221146022012F0D5FD0DF5A563D3E946
:103550000023CDE90023684B00221146022012F01F
:10356000C9FD0DF5A663D3E90023CDE90023634B24
:1035700000221146022012F0BDFD614B00221146CF
:10358000022012F0B7FD5F4B00221146022012F01C
:10359000B1FDADE65C4B00221146022012F0AAFDFF
:1035A000A6E663000B33594A224459495948184446
:1035B00014F058FB0134072CF3DD544B1A7859787A
:1035C0009878DC781D795E799F79DB790793069787
:1035D000059604950394029001910092434B0022BA
:1035E0001146022012F086FD82E663000B334A4A40
:1035F000224447494748184414F034FB0134072C4F
:10360000F3DD454B1A7859789878DC781D795E7926
:103610009F79DB79079306970596049503940290AA
:1036200001910092324B00221146022012F062FDFD
:103630005EE663000B33394A224435493548184465
:1036400014F010FB01340F2CF3DD344B1A78179271
:103650005978189193F802B0DA78197958799C79E9
:10366000DD791E7A5F7A93F80AC093F80BE093F83D
:103670000C8093F80DA0CDF864A093F80EA0DB7B2E
:103680000F93CDF838A0DDF864A0CDF834A0CDF8C4
:103690003080CDF82CE0CDF828C009970896079522
:1036A0000694059004910392CDF808B01899019101
:1036B000179A00920F4B00221146022012F01AFDB9
:1036C00016E6174C22461749174814F0CBFAD4E9EE
:1036D0000023CDE90023084B00221146022012F0FE
:1036E00009FD05E600F00308B8C10108D8C10108CA
:1036F00018C2010858C20108C0C20108E4C201088A
:103700000CC3010820C301083CC00108000D0020C3
:103710003CC30108200D0020080D0020100D0020E2
:10372000000E002074C30108350D0020514C2246C4
:103730005149524814F096FAD4E90023CDE9002308
:103740004F4B00221146022012F0D4FCD0E54D4B25
:1037500000221146022012F0CDFC4B4B1A7859780A
:103760009878DC781D795E799F79DB7907930697E5
:10377000059604950394029001910092434B002218
:103780001146022012F0B6FC414B1A78597898780D
:10379000DC781D795E799F79DB790793069705962A
:1037A000049503940290019100923A4B0022114635
:1037B000022012F09FFC384B1A7817925978189112
:1037C00093F802B0DA78197958799C79DD791E7A04
:1037D0005F7A93F80AC093F80BE093F80C8093F8A3
:1037E0000DA0CDF864A093F80EA0DB7B0F93CDF86D
:1037F00038A0DDF864A0CDF834A0CDF83080CDF845
:103800002CE0CDF828C009970896079506940590F6
:1038100004910392CDF808B018990191179A00927B
:103820001E4B00221146022012F064FC1C4BD3E90F
:103830000023CDE900231B4B00221146022012F089
:1038400059FC0C4BD3E90023CDE90023164B002291
:103850001146022012F04EFC144B002211460220A9
:1038600012F048FC124B00221146022012F042FCDA
:103870003EE500BFF00D002074C30108370D0020A5
:1038800090C30108C4C30108000D0020D8C101087D
:10389000080D002018C20108100D002058C20108B0
:1038A000000E0020C0C20108E4C201080CC30108D8
:1038B00020C301089B4B00221146022012F01AFC83
:1038C000082299490DF58A6010F037FD08229749C2
:1038D0000DF58B6010F031FD954C102221460DF254
:1038E000694010F02AFD102221460DF27A4010F0B6
:1038F00024FD102221460DF28B4010F01EFD1022F7
:1039000021460DF29C4010F018FD8A4BD3E90023AC
:103910000DF5A561C1E90023874BD3E900230DF51F
:10392000A661C1E900234FF400618448FEF7FEFB65
:10393000002840F0D180F8220DF58A617F48FEF71B
:10394000BDFB002840F0C1807D4B002211460220C3
:1039500012F0D0FBF82279490DF58A60FEF7CAFB18
:10396000002840F0AB80774B00221146022012F075
:10397000C1FB9DF850349DF851249DF852149DF8D8
:1039800053049DF854449DF855549DF856649DF891
:103990005774079706960595049403900291019237
:1039A0000093694B00221146022012F0A3FB9DF800
:1039B00058349DF859249DF85A149DF85B049DF8DD
:1039C0005C449DF85D549DF85E649DF85F740797B4
:1039D00006960595049403900291019200935B4B27
:1039E00000221146022012F085FB9DF869341793DE
:1039F0009DF86A2418929DF86B349DF86C249DF80C
:103A00006D149DF86E049DF86F449DF870549DF8F8
:103A100071649DF872749DF873C49DF874E49DF808
:103A200075849DF876A4CDF864A09DF877A49DF8E0
:103A300078B4CDF83CB0CDF838A0DDF864A0CDF86E
:103A400034A0CDF83080CDF82CE0CDF828C009970F
:103A50000896079506940590049103920293189A8C
:103A60000192179B00933A4B00221146022012F05C
:103A700041FB0DF5A563D3E90023CDE90023354BC8
:103A800000221146022012F035FB0DF5A663D3E9A2
:103A90000023CDE90023304B00221146022012F012
:103AA00029FB2E4B00221146022012F023FB2C4B47
:103AB00000221146022012F01DFB19E4294B0022BE
:103AC0001146022012F016FB12E4274B0022114689
:103AD000022012F00FFB0BE4244B002211460220BF
:103AE00012F008FB04E40DF17F030DF17E02204982
:103AF000204814F0B7F8022840F0FB809DF87E3093
:103B00005A1ED2B20F2A04D89DF87F200AB1102A7B
:103B100034D9194B00221146022012F0EBFAFFF7BC
:103B2000E7BB00BF00C40108000D0020080D002005
:103B3000100D0020000E0020F00D002000F0030802
:103B400024C40108B8C10108D8C1010818C201087D
:103B500058C20108C0C20108E4C201080CC3010830
:103B600020C301083CC0010848C4010868C401081A
:103B7000A0C40108360D00206CC50108013B4FF4BC
:103B80007472AE4951F8231020A8FEF7B3FA00284A
:103B90007AD1AB4B00221146022012F0ABFA9DF80D
:103BA0007F3001939DF87E300093A64B0022114692
:103BB000022012F09FFA9DF882300093A24B00225F
:103BC0001146022012F096FA9DF8833000939F4B25
:103BD00000221146022012F08DFA9DF884300093E5
:103BE0009B4B00221146022012F084FA9DF880308F
:103BF000012B50D0974B0093974B00221146022087
:103C000012F078FA954B00221146022012F072FA57
:103C10009DF87F300093924B00221146022012F053
:103C200069FA9DF87F30382202FB03F320AAD35CA7
:103C3000012B32D0874B00938A4B00221146022081
:103C400012F058FA884B00221146022012F052FA64
:103C50009DF87F30013B382220A902FB03131D7A17
:103C6000AC421CD29DF87F30013B382220A902FBD8
:103C7000031323445B7A00937C4B002211460220FD
:103C800012F038FA0134EBE7794B0022114602209A
:103C900012F030FA83E7774BADE7764BCBE7764B04
:103CA00000221146022012F025FA9DF87F30013BD8
:103CB000382420AA04FB03231B6B00936F4B0022C4
:103CC0001146022012F016FA9DF87F30013B20AA1F
:103CD00004FB032393F829304BB1664B0093684BE8
:103CE00000221146022012F005FAFFF701BB594BE2
:103CF000F4E7644B00221146022012F0FBF9FFF7B3
:103D0000F7BA0DF17F0303930DF17E0302930DF1DA
:103D10007D0301931FAB00930DF17B030DF17A023C
:103D200059495A4813F09EFF062807D0584B0022E5
:103D30001146022012F0DEF9FFF7DABA9DF87F3063
:103D400005939DF87E3004939DF87D3003939DF894
:103D50007C3002939DF87B3001939DF87A3000937C
:103D60004C4B00221146022012F0C4F99DF87B3022
:103D7000013B4FF47472314951F8231020A8FEF72B
:103D8000B9F978BB2E4B00221146022012F0B2F98D
:103D90009DF87A30012B2CD09DF87B30013B4FF4FD
:103DA0000061264A52F82300FEF7C0F900283CD1F2
:103DB000394B00221146022012F09CF99DF87B300D
:103DC000013B4FF4747220A91C4850F82300FEF701
:103DD00075F910BB314B00221146022012F08AF90E
:103DE000FFF786BA224B00221146022012F082F918
:103DF000CEE79DF87C308DF882309DF87D308DF8CF
:103E000083309DF87E308DF884309DF87F30003B04
:103E100018BF01238DF88030BEE7214B00221146E8
:103E2000022012F067F9FFF763BA1E4B0022114619
:103E3000022012F05FF9FFF75BBA00BF000000201C
:103E4000ACC40108C8C40108E0BE0108F0BE010806
:103E500000BF0108C4BE010810BF0108FCC401086E
:103E600000C5010820C5010838C50108F0BD0108DA
:103E7000B8C40108BCBE010824CC010844C501082F
:103E80005CC5010888C50108B4C50108200D0020E3
:103E900024C60108D8C501088CBE010898BE0108D7
:103EA000A4BE0108B0BE01080DF17F0307930DF118
:103EB0007E0406940DF17D0605961FAD04950DF167
:103EC0007B08CDF80C800DF17A0302930DF1790394
:103ED00001931EAB00930DF177030DF17602A44917
:103EE000A44813F0BFFE9DF87B209DF87C100D04C4
:103EF00045EA02659DF87D6045EA06259DF87E400D
:103F000025430A2807D09C4B00221146022012F0BC
:103F1000F1F8FFF7EDB99DF87A309DF87F000A902F
:103F20000994089607910692059304939DF87930B9
:103F300003939DF8783002939DF8773001939DF8B4
:103F4000763000938D4B00221146022012F0D2F8F9
:103F50009DF87F0012F082FE064600240AE004EB82
:103F600044033133321986498248184413F07AFEEB
:103F70000134E4B29DF87F30A342F0D8814B002297
:103F80001146022012F0B6F808E0F35D00937E4B74
:103F900000221146022012F0ADF801379DF87F3063
:103FA000BB42F2DC794B00221146022012F0A2F84B
:103FB0009DF87730013B4FF47472754951F8231026
:103FC00020A8FEF797F838B9724B0022114602205C
:103FD00012F090F8002312E06F4B002211460220ED
:103FE00012F088F8F6E79DF87820013AF15C382065
:103FF00020AC00FB02421A4451720133DBB29DF83F
:104000007F209A42EFD8304612F030FE9DF878209B
:10401000531E20A8382404FB03039DF87F10197257
:104020009DF87A10003918BF012183F8291003F197
:1040300030011D6300234B609DF87930003B18BFB1
:10404000012304FB02F283549DF87730013B4FF4C7
:1040500000614F4A52F82300FEF768F808BB4F4B47
:1040600000221146022012F045F89DF87730013BFE
:104070004FF4747220A9464850F82300FEF71EF84A
:1040800038B9474B00221146022012F033F8FFF7EF
:104090002FB9444B00221146022012F02BF8FFF7F3
:1040A00027B9414B00221146022012F023F8FFF7F6
:1040B0001FB920AA3D493E4813F0D4FD9DF8800069
:1040C000FDF78AFAFFF714B904F0F6F8FFF710B914
:1040D0000DF17F0315930DF17E0314930DF17D0314
:1040E00013931FAB12930DF17B0311930DF17A0320
:1040F00010930DF179030F931EAB0E930DF177031F
:104100000D930DF176030C930DF175030B931DAB1D
:104110000A930DF1730309930DF1720308930DF1E6
:10412000710307931CAB06930DF16F0305930DF11B
:104130006E0304930DF16D0303931BAB02930DF11A
:104140006B0301930DF16A0300930DF169031AAA41
:104150001849084813F086FD18282FD00090164BF8
:1041600000221146022011F0C5FFFFF7C1B800BFC1
:1041700060C60108200D002024C6010894C601086D
:1041800028C701082CC70108F0BD010824CC01088C
:1041900000000020ACC40108B8C401088CBE0108AE
:1041A00098BE0108A4BE0108B0BE010854C70108AA
:1041B000380D002080C7010844C801080090BE4B9C
:1041C00000221146022011F095FF9DF869300093FE
:1041D000BA4B00221146022011F08CFF9DF8683086
:1041E0000093B74B00221146022011F083FF9DF887
:1041F0007F300093B34B00221146022011F07AFF6A
:104200009DF86A300093B04B00221146022011F055
:1042100071FF9DF86B300093AC4B002211460220D9
:1042200011F068FF9DF86D3001939DF86C3000939C
:10423000A74B00221146022011F05CFF9DF871305F
:1042400003939DF8703002939DF86F3001939DF8B1
:104250006E3000939F4B00221146022011F04AFF5E
:104260009DF8753003939DF8743002939DF8733078
:1042700001939DF872300093974B00221146022063
:1042800011F038FF9DF8793003939DF87830029350
:104290009DF8773001939DF8763000938F4B002284
:1042A0001146022011F026FF9DF87D3003939DF802
:1042B0007C3002939DF87B3001939DF87A30009317
:1042C000874B00221146022011F014FF9DF87E302A
:1042D000012B23D0834B0093834B002211460220F5
:1042E00011F008FF9DF87F40204612F0B7FC05460C
:1042F00018B12246002113F0B9FD00249DF87F304B
:10430000A3420DD904EB440358332A19774978485E
:10431000184413F0A7FC0134E4B2EFE7754BDAE779
:10432000754B00221146022011F0E4FE9DF87F300B
:10433000B34209DDAB5D0093704B002211460220B1
:1043400011F0D8FE0136F1E76D4B00221146022034
:1043500011F0D0FE9DF86930013B4FF47472694949
:1043600051F8231020A8FDF7C5FE002840F0048175
:104370009DF87F108DF82814002306E0E85C20AA41
:104380001A4482F888030133DBB29942F6D82846F2
:1043900012F06CFC9DF86A308DF829349DF86B3072
:1043A0008DF82A349DF86C209DF86D3043EA022385
:1043B000ADF836349DF87630002263F307029DF89D
:1043C000773063F30F229DF8783063F317429DF83E
:1043D000793063F31F629DF87A10002361F30703BD
:1043E0009DF87B1061F30F239DF87C1061F3174358
:1043F0009DF87D1061F31F639DF86E10002061F33E
:1044000007009DF86F1061F30F209DF8701061F3A5
:1044100017409DF8711061F31F609DF872400021F4
:1044200064F307019DF8734064F30F219DF8744015
:1044300064F317419DF8754064F31F61CDF83804AB
:10444000CDF83C14CDF84024CDF844349DF87E30AE
:10445000003B18BF01238DF8483400238DF8493400
:104460009DF86930013B4FF40061264A52F8230061
:10447000FDF75CFE00284DD1234B0022114602209F
:1044800011F038FE9DF86930013B4FF4747220A999
:104490001C4850F82300FDF711FE30B91B4B0022D9
:1044A0001146022011F026FE3AE0194B0022114677
:1044B000022011F01FFE33E0DCC70108F4C7010839
:1044C00004C8010814C8010828BF010838BF010842
:1044D00024C801086CBF010890BF0108B8BF0108DB
:1044E000E4BF0108C4BE010810C0010828C70108C4
:1044F000200D0020BCBE01082CC70108F0BD01083A
:1045000024CC0108000000208CBE010898BE0108E0
:10451000A4BE0108484B00221146022011F0EAFD1A
:104520009DF8690001389DF8493407939DF8483497
:104530000693DDF844340593DDF840340493DDF848
:104540003C340393DDF838340293BDF836340193DC
:104550009DF82A3400939DF829349DF828240DF500
:104560008161C0B2FDF776FA9DF869000138C0B2EA
:10457000FDF730FAFEF7BCBE304B00221146022098
:1045800011F0B8FDFEF7B4BE20AA2D492D4813F056
:1045900069FB9DF880000138C0B2FDF71BFAFEF7F9
:1045A000A7BE20AA2649284813F05CFB9DF880008E
:1045B0000138C0B2FDF772F99DF880000138C0B231
:1045C000FDF708FAFEF794BE2046FDF767F90134BF
:1045D000E4B20F2CF8D9FEF78BBE0024F9E71B4B91
:1045E00000221146022011F085FDFEF781BE124B1C
:1045F00000221146022011F07DFDFEF779BE0F4B1F
:1046000000221146022011F075FDFEF771BE104B1D
:1046100000221146022011F06DFDFEF769BE0D4C1F
:104620002046FDF7B3FA34F8021B012221440A4860
:1046300007F0F2FDFEF73FBDB0BE01083CC0010827
:1046400074C30108310D0020320D0020A4BE010802
:10465000B4C80108200F0020D00B002008B5FEF7D9
:104660007FF802F047FE08BD08B54FF0FF3011F0AB
:104670009FFE08BD70470000014BD870704700BF17
:10468000AC000020014B1874704700BFAC00002044
:1046900000283FD02DE9F0418CB003464278022A31
:1046A0000AD0032A2FD01C4B00221146022011F001
:1046B00021FD0CB0BDE8F081027CB0F9121090F938
:1046C00014009C7DDD7D1E7E5F7E93F81AC093F8FA
:1046D0001BE093F81C80CDF82C80CDF828E0CDF8B5
:1046E00024C008970796069505945C680494DB68D7
:1046F0000393029001910092084B00221146022080
:1047000011F0F8FCD5E7064B00221146022011F00B
:10471000F1FCCEE7704700BFE0C80108F8C8010807
:104720006CC9010800B583B0054B1B5C0093054BB9
:1047300000221146022011F0DDFC03B05DF804FBFD
:10474000A8C901088CC9010808B5012806D0074B83
:1047500000221146022011F0CDFC08BD044B0022BE
:104760001146022011F0C6FCF7E700BFC0C90108DE
:10477000ACC9010808B50A460149FDF7BBFC08BDF4
:1047800000F0030838B504460D464FF400610548B3
:10479000FDF7CCFC00B138BD2A4621460148FDF7A3
:1047A0008DFCF8E700F0030808B500224FF4004143
:1047B000014804F0B7FA08BD0004004808B500221B
:1047C0004FF40071014804F0ADFA08BD0004004840
:1047D000002845D010B584B0044603780BB904B066
:1047E00010BD01224FF400711E4804F09BFA1E48D0
:1047F00012F02CF81D4B00221146022011F07AFC19
:10480000237C94F90A2094F91810039102920193E1
:10481000E3680093164B00221146032011F06AFC56
:10482000144B01221A70144B00221146032011F080
:1048300061FC237A012B0CD1637A43B10F4B0093B7
:104840000F4B00221146032011F054FCC7E70D4B1B
:10485000F5E70D4B00221146032011F04BFCBEE79B
:10486000704700BF00040048EC0F0020E0C90108B9
:1048700014CA01083C10002048CA0108D4C9010824
:1048800058CA0108D8C901086CCA010808B5002136
:10489000022011F059FD024811F0D8FF08BD00BFF9
:1048A0000410002008B50021012011F04DFD08BDC5
:1048B00010B50E4B1B78022B13D00D4C00224FF479
:1048C0000041204604F02EFA00224FF400712046E9
:1048D00004F028FA00224FF40061204604F022FA86
:1048E00010BD0021082011F02FFDE6E75400002044
:1048F0000004004808B508F093FA00B108BD07F0BD
:104900004DFF0128FAD1BFF34F8F0549CA6802F461
:10491000E062044B1343CB60BFF34F8F00BFFDE752
:1049200000ED00E00400FA0510B5094B186010B95D
:1049300042F210721A60074C204611F02DFF044B12
:104940001968204611F0C8FF204611F07FFF10BD06
:10495000C400002004100020002900F024862DE966
:10496000F043C5B004460D4601224FF40041AF4864
:1049700004F0D8F9AE4811F069FF2E78002E00F04F
:10498000D785002C00F0D38526786368002B00F0D3
:10499000CF85372E6CD02FD8032E4ED0192E40F055
:1049A000C7856278012A40F2C3851B78032B00F08B
:1049B000A08363681B78012B00F00A8463681B786E
:1049C000022B00F09F8463681B78042B00F0FE84A8
:1049D00063681B78052B40F0AB85964B002211468F
:1049E000022011F087FB944B00221146022011F0A7
:1049F00081FB002700F055BD452E40F09985627877
:104A0000002A00F095851B78012B00F095826368E1
:104A10001A78022A40F08C855B78002B00F03383F3
:104A200063685B78012B00F04983824B00221146BA
:104A3000022011F05FFB00F07BBD6278012A40F09C
:104A400077851B78012B09D0022B0CD0002B40F06E
:104A50006F85002007F074FF00F06ABD012007F0A9
:104A60006FFF00F065BD022007F06AFF00F060BD37
:104A70001B78012B24D063681B78022B75D06368E8
:104A80001B78032B00F0C68063681B78042B00F0B2
:104A9000408163681B78072B00F0A68163681B7850
:104AA000082B00F0038263681A78AA2A40F0408538
:104AB0005B78012B40F03C8503F0FEFB00F038BD35
:104AC000082012F0CBF80746002847D000230360E7
:104AD000436005E062681A445278FA540133DBB24D
:104AE000072BF7D9554B00221146022011F002FB8B
:104AF000F822534906A8FDF7FDFAD0B90822394635
:104B000006A80FF01AFC384612F0B0F84FF4006116
:104B10004B48FDF70BFBD0B9F82206A94848FDF732
:104B2000CDFA68B9474B00221146022011F0E2FA93
:104B3000A1E7454B00221146022011F0DBFAE5E720
:104B4000424B00221146022011F0D4FA93E7404B69
:104B500000221146022011F0CDFA8CE73D4B0022D5
:104B60001146022011F0C6FA85E7082012F076F807
:104B70000746002847D000230360436005E06268D1
:104B80001A445278FA540133DBB2072BF7D92B4B76
:104B900000221146022011F0ADFAF822284906A899
:104BA000FDF7A8FAD0B90822394608A80FF0C5FBCE
:104BB000384612F05BF84FF400612148FDF7B6FA71
:104BC000D0B9F82206A91E48FDF778FA68B91D4B3E
:104BD00000221146022011F08DFA50E71A4B0022F4
:104BE0001146022011F086FAE5E7184B0022114623
:104BF000022011F07FFA42E7154B002211460220F5
:104C000011F078FA3BE7134B00221146022011F015
:104C100071FA34E7102012F021F80746002871D00D
:104C20000023036043608360C3601BE0000400480E
:104C3000B80F002098CA0108CCCA010880C1010839
:104C400000F0030824C401083CC0010848C401085E
:104C500068C401087CCA010862681A445278FA5490
:104C60000133DBB20F2BF7D9A34B002211460220F0
:104C700011F040FAF822A14906A8FDF73BFA60BB03
:104C8000102239460DF131000FF057FB1022394642
:104C90000DF142000FF051FB102239460DF1530087
:104CA0000FF04BFB1022394619A80FF046FB38468F
:104CB00011F0DCFF4FF400619048FDF737FAD0B9EE
:104CC000F82206A98D48FDF7F9F968B98C4B002246
:104CD0001146022011F00EFAD6E68A4B0022114648
:104CE000022011F007FAE5E7874B00221146022067
:104CF00011F000FAC8E6854B00221146022011F09F
:104D0000F9F9C1E6824B00221146022011F0F2F9B6
:104D1000BAE6804B00221146022011F0EBF97E4BDF
:104D200000221146022011F0E5F900276278BA420C
:104D30000ADD6368DB5D0093784B00221146022098
:104D400011F0D8F90137F1E7012300279A4205DD78
:104D50006168C95C41EA07270133F7E7F822674930
:104D600006A8FDF7C7F950BBFA0E7B01DB1B62F109
:104D70000002920042EA93729B00DB1942F10002AA
:104D8000D20042EA5372DB003C933D924FF47A73B7
:104D900003FB07F7624B1F604FF400615748FDF7B4
:104DA000C5F9D0B9F82206A95448FDF787F968B9C2
:104DB000534B00221146022011F09CF969E6514B39
:104DC00000221146022011F095F9E5E74E4B002232
:104DD0001146022011F08EF95BE64C4B0022114681
:104DE000022011F087F954E64A4B002211460220B6
:104DF00011F080F9484B00221146022011F07AF997
:104E000000276178B9420ADD6368DB5D0093434B9C
:104E100000221146022011F06DF90137F1E701235C
:104E20000027994206DD6268D25C42EA072297B207
:104E30000133F6E700973B4B00221146022011F0A8
:104E400059F9F8222D4906A8FDF754F9C8B9ADF86B
:104E50000071354B1F60354B00221A804FF4006102
:104E60002648FDF763F9D0B9F82206A92348FDF7D3
:104E700025F968B9224B00221146022011F03AF9B7
:104E80000CE6204B00221146022011F033F9E5E731
:104E90001D4B00221146022011F02CF9FEE51B4BA0
:104EA00000221146022011F025F9F7E5194B0022E6
:104EB0001146022011F01EF9174B00221146022064
:104EC00011F018F900276378BB420ADD6368DB5DE7
:104ED0000093124B00221146022011F00BF901370A
:104EE000F1E7134B00221146022011F003F9114B98
:104EF00001221A70D7E500BF80C1010800F0030845
:104F000024C401083CC0010848C4010868C4010861
:104F10007CCA010898CA0108CCCA0108F0BD010882
:104F20004C000020F0CA010840000020E0090020E9
:104F300028CB010850100020B44F3B4600221146F8
:104F4000022011F0D7F8B24B00221146022011F0D6
:104F5000D1F83B4600221146022011F0CBF8AD4BB0
:104F600000221146022011F0C5F8F822AA4906A82D
:104F7000FDF7C0F8002865D10F23ADF80231A74B2B
:104F8000A74A1A606420FDF7ABFC0027ADF8047156
:104F9000A44B00221A606420FDF7A2FCA24A002361
:104FA000CDE93C23DFF884929F4BC9F800306420A0
:104FB000FDF796FC0423ADF800319D4A13609D4B2C
:104FC0001F806420FDF78CFC8DF807719A4B1F60E1
:104FD0006420FDF785FC8DF80871984B1F606420F4
:104FE000FDF77EFC0523ADF80A31DFF85482C8F8DE
:104FF0000030142011F032FE924B1860D9F80030C6
:10500000D8F8002093FBF2F38F4A13606420FDF779
:1050100067FC8E4B3A463946022011F06BF84FF48C
:1050200000617D48FDF782F8D0B9F82206A97A48D8
:10503000FDF744F868B9864B00221146022011F0B2
:1050400059F813E0834B00221146022011F052F868
:10505000E5E7814B00221146022011F04BF805E0F4
:105060007E4B00221146022011F044F84FF4FA70F2
:10507000FDF736FC03F020F9644B002211460220B4
:1050800011F038F8C3E4614F3B460022114602207C
:1050900011F030F8724B00221146022011F02AF86C
:1050A0003B4600221146022011F024F86D4B0022ED
:1050B0001A704FF4FA70FDF713FCB1E4534C234619
:1050C00000221146022011F015F8674B002211460C
:1050D000022011F00FF8234600221146022011F0A1
:1050E00009F8604B01221A704FF4FA70FDF7F8FBD3
:1050F0009BE4464B00221146022010F0FBFF5B4B65
:1051000000221146022010F0F5FF002709E0636835
:10511000DB5D0093564B00221146022010F0EAFF9F
:1051200001376278BA42F2DC0123002704E06168AB
:10513000C95C41EA072701339A42F8DC00974D4BDE
:1051400000221146022010F0D5FFF822324906A8AD
:10515000FCF7D0FF28BBADF80A71DFF8E480C8F88F
:105160000070B80011F07AFD364B18602F4B1B68A9
:10517000D8F8002093FBF2F3334A13604FF4006138
:105180002548FCF7D3FFD8B9F82206A92248FCF736
:1051900095FF68B92E4B00221146022010F0AAFF9D
:1051A00007E42C4B00221146022010F0A3FFE5E794
:1051B000294B00221146022010F09CFFFFF7F9BB9B
:1051C000264B00221146022010F094FFFFF7F1BB9E
:1051D0000E4B00221146022010F08CFF234B0022C0
:1051E0001146022010F086FF002709E06368DB5DAE
:1051F00000931F4B00221146022010F07BFF013765
:105200006278BA42F2DC012300273AE098CA01082A
:1052100060CB010890CB010800F00308500000208B
:1052200000007041180B0020A0BB0D004C000020B6
:1052300040000020E0090020140B0020E4090020B9
:10524000440000206810002048000020C4CB010862
:1052500024C401083CC0010848C4010868C401080E
:10526000F0CB01083010002028CC0108CCCA01087E
:10527000F0BD010860CC01086168C95C41EA0727FC
:1052800001339A42F8DC0097AC4B00221146022011
:1052900010F030FFF822AA4906A8FCF72BFFD0B97E
:1052A000ADF802713846FBF781FDA64B18604FF44C
:1052B0000061A348FCF73AFFE0B9F82206A9A0482C
:1052C000FCF7FCFE70B9A04B00221146022010F042
:1052D00011FFFFF773BB9D4B00221146022010F017
:1052E00009FFE4E79A4B00221146022010F002FF6A
:1052F000FFF764BB974B00221146022010F0FAFE24
:10530000FFF75CBB944B00221146022010F0F2FE26
:10531000924B00221146022010F0ECFE002709E01B
:105320006368DB5D00938E4B00221146022010F073
:10533000E1FE01376278BA42F2DC0123002704E083
:105340006168C95C41EA072701339A42F8DC00979B
:10535000844B00221146022010F0CCFEF82278493E
:1053600006A8FCF7C7FED0B9ADF804713846FBF7C4
:105370001DFD7D4B18604FF400617148FCF7D6FEAF
:10538000E0B9F82206A96E48FCF798FE70B96E4B9A
:1053900000221146022010F0ADFEFFF714BB6B4B4C
:1053A00000221146022010F0A5FEE4E7684B00221F
:1053B0001146022010F09EFEFFF705BB654B002250
:1053C0001146022010F096FEFFF7FDBA624B002254
:1053D0001146022010F08EFE604B00221146022082
:1053E00010F088FE002709E06368DB5D00935C4BEA
:1053F00000221146022010F07DFE01376278BA4289
:10540000F2DC0123002704E06168C95C41EA072758
:1054100001339A42F8DC0097544B002211460220D7
:1054200010F068FEF822464906A8FCF763FEB8B9FA
:105430008DF807714E4B1F604FF400614048FCF738
:1054400075FEE0B9F82206A93D48FCF737FE70B9B1
:105450003D4B00221146022010F04CFEFFF7B8BA77
:105460003A4B00221146022010F044FEE4E7384B8C
:1054700000221146022010F03DFEFFF7A9BA354B7D
:1054800000221146022010F035FEFFF7A1BA636832
:10549000DB5D0093324B00221146022010F02AFE01
:1054A00001376278BA42F2DC0123002704E0616828
:1054B000C95C41EA072701339A42F8DC00972B4B7D
:1054C00000221146022010F015FEF8221C4906A801
:1054D000FCF710FEB0B98DF80871264B1F604FF431
:1054E00000611748FCF722FED0B9F82206A914483B
:1054F000FCF7E4FD68B9144B00221146022010F0BD
:10550000F9FD15E0114B00221146022010F0F2FDCA
:10551000E5E70F4B00221146022010F0EBFD07E0FB
:105520000C4B00221146022010F0E4FD00E00026A2
:105530002B7C052B20D945B0BDE8F08380CC010839
:1055400000F003085000002024C401083CC00108FA
:1055500048C4010868C4010898CA0108CCCA0108F7
:10556000F0BD0108ACCC0108180B0020D4CC010818
:10557000140B0020E409002095F9082095F9091082
:1055800095F90A0005900491074951F823300393D7
:1055900002920196EB680093044B0022114603200F
:1055A00010F0A8FDC7E7704720DB0108F4CC010824
:1055B00038B51E4C01224FF40041204603F0B2FBE7
:1055C00001224FF40071204603F0ACFB01224FF49E
:1055D0000061204603F0A6FB154811F0DDF807F046
:1055E00017FC48B1134B00221146022010F082FD37
:1055F000114811F02BF938BD104B00221146022042
:1056000010F078FD0E4C012525700E4B002211463E
:10561000022010F06FFD0C4807F072FA294620783E
:1056200007F02AF8024811F011F9E1E700040048F8
:10563000041000203CCD0108D40F00205CCD0108EF
:105640005400002070CD0108AC00002008B507F020
:1056500071FC10F1080F03D0B0F1FF3F07D008BD77
:10566000064B00221146022010F044FDF7E7044BE0
:1056700000221146022010F03DFDF0E790CD010818
:10568000A8CD010808B54FF40061024803F04FFBB4
:1056900008BD00BF0004004870B586B00390354BCC
:1056A00000221146022010F025FD0020FCF700FD2D
:1056B000A0B9314C314B9C423AD20822214604A871
:1056C000FCF718FD054690B9049A059BB3F1FF3F1E
:1056D00008BFB2F1FF3F14D00834EBE7284B00229B
:1056E0001146022010F006FD4FF0FF3506E0009451
:1056F000244B00221146022010F0FCFC284606B084
:1057000070BD082203A92046FCF7D8FC054638B92D
:1057100000941D4B00221146022010F0EBFCEDE737
:1057200000941A4B00221146022010F0E3FCE5E73A
:10573000174B00221146022010F0DCFC4FF40061F0
:105740000D48FCF7F3FC054660B90398FFF7A4FF8A
:1057500005460028D2D00F4B00221146022010F03F
:10576000C9FCCBE70C4B00221146022010F0C2FC12
:10577000C4E700BFC0CD010800B0030800B80308AB
:10578000E0CD010808CE010850CE01082CCE01085A
:105790007CCE0108B4CE010894CE010800284ED07A
:1057A00030B583B0044690F906305BBB244810F056
:1057B000F3FF00224FF40061224803F0B3FA224BBA
:1057C00000221146022010F095FC204D2B6800931A
:1057D0001F4B00221146022010F08CFC2868FFF7B6
:1057E0005BFFE379012B06D01A4B00221146022001
:1057F00010F080FC15E0184B00221146022010F03A
:1058000079FC0EE0154B00221146022010F072FCCC
:105810000E4B1B680093124B00221146022010F021
:1058200069FC94F9043094F90520019200930D4B22
:1058300000221146032010F05DFC03B030BD70471C
:10584000080F002000040048F0CE010838100020A6
:1058500008CF01084CCF01082CCF01086CCF0108FC
:1058600088CF01089CCF010808B5C278007940EACA
:105870000220FBF797FA0249FBF7A0FB08BD00BF27
:1058800000007A442DE9F047054689464FF00008AC
:1058900012E001344C450EDA55F8286055F82470B2
:1058A00039463046FBF792FC0028F2D045F82870C4
:1058B00045F82460EDE7D04609F1FF33434503DDA9
:1058C00008F1010A5446E5E7BDE8F08711F0010F41
:1058D00012D108B501EBD1714A106FF0404303EBD0
:1058E000610350F8221050F82300FBF7ABF94FF09A
:1058F0007C51FBF7AFFA08BD01EBD171491050F8AC
:1059000021007047F8B507460E460025002406E042
:1059100057F825102046FBF795F904460135B542A6
:10592000F6DB3046FBF742FA01462046FBF746FB22
:10593000F8BD000030B5BFB0454C234600221146EB
:10594000022010F0D7FB434B00221146022010F03A
:10595000D1FB234600221146022010F0CBFB3E4B28
:1059600000221146022010F0C5FBF8223B49684690
:10597000FCF7C0FB002848D10F23ADF8EA30384BC4
:10598000384A1A603220FCF7ABFF0024ADF8EC4037
:10599000354B00221A603220FCF7A2FF334A002365
:1059A000CDE93623324D314B2B603220FCF798FF86
:1059B0000423ADF8E8302F4A13602F4B1C803220AF
:1059C000FCF78EFF0523ADF8F2302C4C2360142039
:1059D00011F044F92A4B18602B68226893FBF2F30C
:1059E000284A13604FF400611C48FCF79FFBD0B9B4
:1059F000F82269461948FCF761FB68B9224B00227E
:105A00001146022010F076FB13E0204B00221146D5
:105A1000022010F06FFBE5E71D4B0022114602202B
:105A200010F068FB05E01B4B00221146022010F02D
:105A300061FB4FF4FA70FCF753FF02F03DFC044B9E
:105A400000221146022010F055FB3FB030BD00BFD0
:105A500098CA010860CB010890CB010800F0030848
:105A60005000002000007041180B0020A0BB0D006A
:105A70004C00002040000020E009002044000020ED
:105A8000681000204800002024C401083CC0010820
:105A900048C4010868C401082DE9F0419EB002AF76
:105AA000012240214FF0904003F03CF90122802177
:105AB0004FF0904003F036F940F2DC50FCF710FF55
:105AC000674A3B1D92E8030083E80300654B1B68AF
:105AD0009B00073323F00703ADEB030D0DF108081E
