:020000040800F2
:1000000000800020A5730008372600083926000864
:100010003B2600083D2600083F260008000000009F
:100020000000000000000000000000004126000861
:100030004326000800000000452600084726000867
:10004000F5730008F573000849260008F5730008E9
:10005000F5730008F57300085926000863260008A8
:10006000F5730008F5730008F5730008F5730008D0
:10007000F5730008F5730008F57300086D26000895
:10008000F5730008F5730008F5730008F5730008B0
:10009000F5730008F57300087D260008F573000865
:1000A000F5730008F5730008F5730008F573000890
:1000B000F5730008F5730008F5730008F573000880
:1000C000F5730008F5730008F5730008F573000870
:1000D0008926000899260008F5730008F5730008C2
:1000E000F5730008F5730008A9260008F5730008E9
:1000F000F5730008F5730008F5730008F573000840
:10010000F5730008F5730008B9260008F5730008B8
:10011000F5730008F5730008F5730008F57300081F
:10012000F5730008F5730008F5730008F57300080F
:08013000F5730008F5730008E7
:1001400010B5054C237833B9044B13B10448AFF311
:1001500000800123237010BD300300200000000048
:1001600050BA010808B5034B1BB103490348AFF36C
:10017000008008BD000000003403002050BA0108D0
:1001800001F0FF01102A2BDB10F0070F08D010F848
:10019000013B013A8B422DD010F0070F42B3F6D14C
:1001A000F0B441EA012141EA014122F007047FF065
:1001B00000070023F0E80256083C85EA010586EABC
:1001C000010685FA47F5A3FA87F586FA47F6A5FAF8
:1001D00087F68EB9EED1F0BC01F0FF0102F0070204
:1001E00032B110F8013B013A83EA010313B1F8D1AF
:1001F0000020704701387047002D06BF3546033890
:10020000073815F0010F07D1013015F4807F02BFC8
:10021000013015F4C03F0130F0BC0138704700BF19
:10022000034613F8012B002AFBD1181A0138704736
:1002300081F0004102E000BF83F0004330B54FEA97
:1002400041044FEA430594EA050F08BF90EA020F04
:100250001FBF54EA000C55EA020C7FEA645C7FEA97
:10026000655C00F0E2804FEA5454D4EB5555B8BFBA
:100270006D420CDD2C4480EA020281EA030382EA2B
:10028000000083EA010180EA020281EA0303362DBD
:1002900088BF30BD11F0004F4FEA01314FF4801C90
:1002A0004CEA113102D0404261EB410113F0004FA2
:1002B0004FEA03334CEA133302D0524263EB430359
:1002C00094EA050F00F0A780A4F10104D5F1200EF7
:1002D0000DDB02FA0EFC22FA05F2801841F1000152
:1002E00003FA0EF2801843FA05F359410EE0A5F126
:1002F00020050EF1200E012A03FA0EFC28BF4CF057
:10030000020C43FA05F3C01851EBE37101F000450C
:1003100007D54FF0000EDCF1000C7EEB00006EEB19
:100320000101B1F5801F1BD3B1F5001F0CD34908A3
:100330005FEA30004FEA3C0C04F101044FEA4452FA
:1003400012F5800F80F09A80BCF1004F08BF5FEA81
:10035000500C50F1000041EB045141EA050130BD61
:100360005FEA4C0C404141EB0101013C28BFB1F573
:10037000801FE9D291F0000F04BF01460020B1FABE
:1003800081F308BF2033A3F10B03B3F120020CDA91
:100390000C3208DD02F1140CC2F10C0201FA0CF06F
:1003A00021FA02F10CE002F11402D8BFC2F1200CD4
:1003B00001FA02F120FA0CFCDCBF41EA0C0190408A
:1003C000E41AA2BF01EB0451294330BD6FEA0404D3
:1003D0001F3C1CDA0C340EDC04F11404C4F12002BE
:1003E00020FA04F001FA02F340EA030021FA04F3D0
:1003F00045EA030130BDC4F10C04C4F1200220FA27
:1004000002F001FA04F340EA0300294630BD21FA64
:1004100004F0294630BD94F0000F83F4801306BF2A
:1004200081F480110134013D4EE77FEA645C18BF1E
:100430007FEA655C29D094EA050F08BF90EA020FB5
:1004400005D054EA000C04BF1946104630BD91EAAD
:10045000030F1EBF0021002030BD5FEA545C05D1B0
:100460004000494128BF41F0004130BD14F58004EF
:100470003CBF01F5801130BD01F0004545F0FE4163
:1004800041F470014FF0000030BD7FEA645C1ABF98
:10049000194610467FEA655C1CBF0B46024650EACF
:1004A000013406BF52EA033591EA030F41F40021FB
:1004B00030BD00BF90F0000F04BF0021704730B581
:1004C0004FF4806404F132044FF000054FF0000156
:1004D00050E700BF90F0000F04BF0021704730B517
:1004E0004FF4806404F1320410F0004548BF4042EC
:1004F0004FF000013EE700BF42004FEAE2014FEA41
:1005000031014FEA02701FBF12F07F4393F07F4F1B
:1005100081F06051704732F07F4208BF704793F01E
:100520007F4F04BF41F40021704730B54FF4607431
:1005300001F0004521F000411CE700BF50EA010234
:1005400008BF704730B54FF000050AE050EA0102DD
:1005500008BF704730B511F0004502D5404261EB4D
:1005600041014FF4806404F132045FEA915C3FF48E
:10057000D8AE4FF003025FEADC0C18BF03325FEA2B
:10058000DC0C18BF033202EBDC02C2F1200300FADC
:1005900003FC20FA02F001FA03FE40EA0E0021FA01
:1005A00002F11444BDE600BF70B54FF0FF0C4CF4EF
:1005B000E06C1CEA11541DBF1CEA135594EA0C0FA1
:1005C00095EA0C0F00F0DEF82C4481EA030621EADC
:1005D0004C5123EA4C5350EA013518BF52EA033517
:1005E00041F4801143F4801338D0A0FB02CE4FF0C9
:1005F0000005E1FB02E506F00042E0FB03E54FF0F9
:100600000006E1FB03569CF0000F18BF4EF0010EF0
:10061000A4F1FF04B6F5007F64F5407404D25FEAEC
:100620004E0E6D4146EB060642EAC62141EA55519F
:100630004FEAC52040EA5E504FEACE2EB4F1FD0CE1
:1006400088BFBCF5E06F1ED8BEF1004F08BF5FEA5F
:10065000500E50F1000041EB045170BD06F0004611
:1006600046EA010140EA020081EA0301B4EB5C04BE
:10067000C2BFD4EB0C0541EA045170BD41F48011B6
:100680004FF0000E013C00F3AB8014F1360FDEBFDB
:10069000002001F0004170BDC4F10004203C35DAB7
:1006A0000C341BDC04F11404C4F1200500FA05F33A
:1006B00020FA04F001FA05F240EA020001F00042DB
:1006C00021F0004110EBD37021FA04F642EB060151
:1006D0005EEA430E08BF20EAD37070BDC4F10C047B
:1006E000C4F1200500FA04F320FA05F001FA04F23F
:1006F00040EA020001F0004110EBD37041F100012B
:100700005EEA430E08BF20EAD37070BDC4F1200535
:1007100000FA05F24EEA020E20FA04F301FA05F29D
:1007200043EA020321FA04F001F0004121FA04F245
:1007300020EA020000EBD3705EEA430E08BF20EA15
:10074000D37070BD94F0000F0FD101F0004640004F
:1007500041EB010111F4801F08BF013CF7D041EAD1
:10076000060195F0000F18BF704703F000465200D5
:1007700043EB030313F4801F08BF013DF7D043EAA6
:100780000603704794EA0C0F0CEA135518BF95EA5C
:100790000C0F0CD050EA410618BF52EA4306D1D1E3
:1007A00081EA030101F000414FF0000070BD50EA02
:1007B000410606BF1046194652EA430619D094EA8C
:1007C0000C0F02D150EA013613D195EA0C0F05D176
:1007D00052EA03361CBF104619460AD181EA0301CA
:1007E00001F0004141F0FE4141F470014FF0000082
:1007F00070BD41F0FE4141F4780170BD70B54FF01D
:10080000FF0C4CF4E06C1CEA11541DBF1CEA13559C
:1008100094EA0C0F95EA0C0F00F0A7F8A4EB05047E
:1008200081EA030E52EA03354FEA013100F0888075
:100830004FEA03334FF0805545EA131343EA12633E
:100840004FEA022245EA111545EA10654FEA0026F3
:100850000EF000419D4208BF964244F1FD0404F5AC
:10086000407402D25B084FEA3202B61A65EB030508
:100870005B084FEA32024FF480104FF4002CB6EBC5
:10088000020E75EB030E22BFB61A754640EA0C0045
:100890005B084FEA3202B6EB020E75EB030E22BF85
:1008A000B61A754640EA5C005B084FEA3202B6EBC6
:1008B000020E75EB030E22BFB61A754640EA9C0085
:1008C0005B084FEA3202B6EB020E75EB030E22BF55
:1008D000B61A754640EADC0055EA060E18D04FEA13
:1008E000051545EA16754FEA06164FEAC30343EAB3
:1008F00052734FEAC2025FEA1C1CC0D111F4801F80
:100900000BD141EA00014FF000004FF0004CB6E778
:1009100011F4801F04BF01430020B4F1FD0C88BF17
:10092000BCF5E06F3FF6AFAEB5EB030C04BFB6EB22
:10093000020C5FEA500C50F1000041EB045170BD15
:100940000EF0004E4EEA113114EB5C04C2BFD4EB42
:100950000C0541EA045170BD41F480114FF0000EC6
:10096000013C90E645EA060E8DE60CEA135594EA42
:100970000C0F08BF95EA0C0F3FF43BAF94EA0C0F45
:100980000AD150EA01347FF434AF95EA0C0F7FF4BA
:1009900025AF104619462CE795EA0C0F06D152EA0E
:1009A00003353FF4FDAE1046194622E750EA4106F2
:1009B00018BF52EA43067FF4C5AE50EA41047FF403
:1009C0000DAF52EA43057FF4EBAE12E74FF0FF3C68
:1009D00006E000BF4FF0010C02E000BF4FF0010C39
:1009E0004DF804CD4FEA410C7FEA6C5C4FEA430CB2
:1009F00018BF7FEA6C5C1BD001B050EA410C0CBF01
:100A000052EA430C91EA030F02BF90EA020F002062
:100A1000704710F1000F91EA030F58BF994208BFC9
:100A200090422CBFD8176FEAE37040F00100704786
:100A30004FEA410C7FEA6C5C02D150EA013C07D1DD
:100A40004FEA430C7FEA6C5CD6D152EA033CD3D028
:100A50005DF8040B704700BF8446104662468C4622
:100A60001946634600E000BF01B5FFF7B7FF002855
:100A700048BF10F1000F01BD4DF808EDFFF7F4FF7E
:100A80000CBF012000205DF808FB00BF4DF808ED09
:100A9000FFF7EAFF34BF012000205DF808FB00BF2C
:100AA0004DF808EDFFF7E0FF94BF012000205DF84E
:100AB00008FB00BF4DF808EDFFF7CEFF94BF012003
:100AC00000205DF808FB00BF4DF808EDFFF7C4FFFC
:100AD00034BF012000205DF808FB00BF4FEA410C45
:100AE0007FEA6C5C02D150EA013C0AD14FEA430C28
:100AF0007FEA6C5C02D152EA033C02D14FF0000065
:100B000070474FF0010070474FEA410212F50012A2
:100B100015D211D56FF47873B3EB625212D94FEA44
:100B2000C12343F0004343EA505311F0004F23FA2E
:100B300002F018BF404270474FF00000704750EA83
:100B4000013005D111F0004008BF6FF00040704740
:100B50004FF00000704700BF4A0011D212F500129A
:100B600011D20DD56FF47873B3EB62520ED44FEA05
:100B7000C12343F0004343EA505323FA02F0704785
:100B80004FF00000704750EA013002D14FF0FF30C3
:100B900070474FF0000070474FEA4102B2F1E04366
:100BA00024BFB3F5001CDCF1FE5C0DD901F0004C54
:100BB0004FEAC0024CEA5070B2F1004F40EB8300A4
:100BC00008BF20F00100704711F0804F21D113F1D0
:100BD0003872BCBF01F00040704741F480114FEA09
:100BE0005252C2F11802C2F1200C10FA0CF320FA92
:100BF00002F018BF40F001004FEAC1234FEAD323AF
:100C000003FA0CFC40EA0C0023FA02F34FEA430318
:100C1000CCE77FEA625307D150EA01331EBF4FF0A1
:100C2000FE4040F44000704701F0004040F0FE40BC
:100C300040F40000704700BF80F0004002E000BFB9
:100C400081F0004142001FBF5FEA410392EA030FB7
:100C50007FEA226C7FEA236C6AD04FEA1262D2EB01
:100C60001363C1BFD218414048404140B8BF5B4206
:100C7000192B88BF704710F0004F40F4000020F09F
:100C80007F4018BF404211F0004F41F4000121F0B5
:100C90007F4118BF494292EA030F3FD0A2F10102FF
:100CA00041FA03FC10EB0C00C3F1200301FA03F13D
:100CB00000F0004302D5494260EB4000B0F5000F60
:100CC00013D3B0F1807F06D340084FEA310102F11F
:100CD0000102FE2A51D2B1F1004F40EBC25008BFD1
:100CE00020F0010040EA03007047490040EB00009B
:100CF000013A28BFB0F5000FEDD2B0FA80FCACF19C
:100D0000080CB2EB0C0200FA0CF0AABF00EBC250C8
:100D100052421843BCBFD0401843704792F0000FB6
:100D200081F4000106BF80F400000132013BB5E709
:100D30004FEA41037FEA226C18BF7FEA236C21D07F
:100D400092EA030F04D092F0000F08BF08467047E4
:100D500090EA010F1CBF0020704712F07F4F04D1B2
:100D6000400028BF40F00040704712F100723CBFC5
:100D700000F50000704700F0004343F0FE4040F4EF
:100D8000000070477FEA226216BF08467FEA2363AD
:100D90000146420206BF5FEA412390EA010F40F498
:100DA000800070474FF0000304E000BF10F00043E4
:100DB00048BF40425FEA000C08BF704743F09643CB
:100DC00001464FF000001CE050EA010208BF7047E6
:100DD0004FF000030AE000BF50EA010208BF70476D
:100DE00011F0004302D5404261EB41015FEA010C82
:100DF00002BF84460146002043F0B64308BFA3F17A
:100E00008053A3F50003BCFA8CF2083AA3EBC2535B
:100E100010DB01FA02FC634400FA02FCC2F120027A
:100E2000BCF1004F20FA02F243EB020008BF20F0B1
:100E30000100704702F1200201FA02FCC2F1200217
:100E400050EA4C0021FA02F243EB020008BF20EA0C
:100E5000DC7070474FF0FF0C1CEAD0521EBF1CEA3A
:100E6000D15392EA0C0F93EA0C0F6FD01A4480EA28
:100E7000010C400218BF5FEA41211ED04FF0006311
:100E800043EA501043EA5111A0FB01310CF000403D
:100E9000B1F5000F3EBF490041EAD3715B0040EA63
:100EA000010062F17F02FD2A1DD8B3F1004F40EB33
:100EB000C25008BF20F00100704790F0000F0CF006
:100EC000004C08BF49024CEA502040EA51207F3ACA
:100ED000C2BFD2F1FF0340EAC250704740F40000A5
:100EE0004FF00003013A5DDC12F1190FDCBF00F096
:100EF00000407047C2F10002410021FA02F1C2F144
:100F0000200200FA02FC5FEA310040F1000053EADF
:100F10004C0308BF20EADC70704792F0000F00F02D
:100F2000004C02BF400010F4000F013AF9D040EA33
:100F30000C0093F0000F01F0004C02BF490011F4C7
:100F4000000F013BF9D041EA0C018FE70CEAD153C5
:100F500092EA0C0F18BF93EA0C0F0AD030F0004C45
:100F600018BF31F0004CD8D180EA010000F00040F9
:100F7000704790F0000F17BF90F0004F084691F0B7
:100F8000000F91F0004F14D092EA0C0F01D14202F1
:100F90000FD193EA0C0F03D14B0218BF084608D1BA
:100FA00080EA010000F0004040F0FE4040F4000004
:100FB000704740F0FE4040F4400070474FF0FF0C97
:100FC0001CEAD0521EBF1CEAD15392EA0C0F93EADE
:100FD0000C0F69D0A2EB030280EA010C49024FEA30
:100FE000402037D04FF0805343EA111143EA1013E9
:100FF0000CF000408B4238BF5B0042F17D024FF4A1
:10100000000C8B4224BF5B1A40EA0C00B3EB510F7B
:1010100024BFA3EB510340EA5C00B3EB910F24BF64
:10102000A3EB910340EA9C00B3EBD10F24BFA3EBE9
:10103000D10340EADC001B0118BF5FEA1C1CE0D1B1
:10104000FD2A3FF650AF8B4240EBC25008BF20F064
:10105000010070470CF0004C4CEA50207F32C2BFB8
:10106000D2F1FF0340EAC250704740F400004FF055
:101070000003013A37E792F0000F00F0004C02BF86
:10108000400010F4000F013AF9D040EA0C0093F050
:10109000000F01F0004C02BF490011F4000F013BAA
:1010A000F9D041EA0C0195E70CEAD15392EA0C0F12
:1010B00008D142027FF47DAF93EA0C0F7FF470AF4A
:1010C000084676E793EA0C0F04D14B023FF44CAF8D
:1010D00008466EE730F0004C18BF31F0004CCAD122
:1010E00030F000427FF45CAF31F000437FF43CAF5E
:1010F0005FE700BF4FF0FF3C06E000BF4FF0010C80
:1011000002E000BF4FF0010C4DF804CD4FEA400261
:101110004FEA41037FEA226C18BF7FEA236C11D0AB
:1011200001B052EA530C18BF90EA010F58BFB2EB5E
:10113000030088BFC81738BF6FEAE17018BF40F0DE
:10114000010070477FEA226C02D15FEA402C05D192
:101150007FEA236CE4D15FEA412CE1D05DF8040B17
:10116000704700BF844608466146FFE70FB5FFF7AA
:10117000C9FF002848BF10F1000F0FBD4DF808ED62
:10118000FFF7F4FF0CBF012000205DF808FB00BF53
:101190004DF808EDFFF7EAFF34BF012000205DF8AD
:1011A00008FB00BF4DF808EDFFF7E0FF94BF0120FA
:1011B00000205DF808FB00BF4DF808EDFFF7D2FFF7
:1011C00094BF012000205DF808FB00BF4DF808ED3A
:1011D000FFF7C8FF34BF012000205DF808FB00BF07
:1011E0004FEA4002B2F1FE4F0FD34FF09E03B3EB34
:1011F00012620DD94FEA002343F0004310F0004F74
:1012000023FA02F018BF404270474FF000007047C9
:1012100012F1610F01D1420205D110F0004008BF68
:101220006FF0004070474FF00000704742000ED250
:10123000B2F1FE4F0BD34FF09E03B3EB126209D411
:101240004FEA002343F0004323FA02F070474FF0C7
:101250000000704712F1610F01D1420202D14FF03C
:10126000FF3070474FF00000704700BF53B94AB9D4
:10127000002908BF00281CBF4FF0FF314FF0FF309E
:1012800000F0A8B9ADF1080C6DE904CE00F03EF80D
:10129000DDF804E0DDE9022304B0704738B5054607
:1012A0000C462846214600220023FFF7EFFB28B911
:1012B00028462146BDE8384000F00AB8284604F127
:1012C000004100F005F8404261EB410138BD00BF2C
:1012D000D0B50C4B002206460F46FFF765F9FFF725
:1012E0003BFC0446FFF7E6F8074B0022FFF75CF9EA
:1012F00002460B4630463946FEF79EFFFFF72CFCB0
:101300002146D0BD0000F03D0000F0412DE9F0473E
:10131000089E0D4604460F46002B4AD18A42944649
:1013200065D9B2FA82F343B102FA03FCC3F1200299
:101330009F4020FA02F217439C404FEA1C4E1FFACE
:101340008CF5B7FBFEF1220C0EFB117742EA074247
:1013500001FB05F090420AD91CEB020201F1FF37B4
:1013600080F01B81904240F2188102396244121AC7
:10137000A4B2B2FBFEF00EFB102244EA024400FBD2
:1013800005F5A5420AD91CEB040400F1FF3280F0F8
:101390000681A54240F203816444023840EA0140DC
:1013A000641B00211EB1DC400023C6E90043BDE8F8
:1013B000F0878B4208D9002E00F0EC800021C6E9AE
:1013C00000050846BDE8F087B3FA83F1002949D14A
:1013D000AB4202D3824200F2F780841A65EB03022B
:1013E00001201746002EE2D0C6E90047DFE702B928
:1013F000FFDEB2FA82F3002B40F08F808A1A4FEAA8
:101400001C471FFA8CFE0121B2FBF7F507FB1520E4
:10141000220C42EA00420EFB05F0904208D91CEB78
:10142000020205F1FF3802D2904200F2CA8045461E
:10143000121AA4B2B2FBF7F007FB102244EA0244EE
:101440000EFB00FEA64508D91CEB040400F1FF3298
:1014500002D2A64500F2BA801046A4EB0E0440EA80
:1014600005409FE7C1F120078B4022FA07FC4CEAB8
:10147000030C05FA01F420FA07F3FD40234300FAB8
:1014800001F94FEA1C401FFA8CFEB5FBF0F81C0C6A
:1014900000FB185544EA054408FB0EF5A54202FA84
:1014A00001F20BD91CEB040408F1FF3A80F08780AD
:1014B000A54240F28480A8F102086444641B9DB2F6
:1014C000B4FBF0F300FB134445EA044403FB0EFEB7
:1014D000A64508D91CEB040403F1FF306BD2A645E6
:1014E00069D9023B644443EA0840A0FB0283A4EBB1
:1014F0000E049C42C6461D4655D352D056B1B9EB98
:101500000E0364EB050404FA07F7CB40CC401F43FD
:10151000C6E900740021BDE8F087C3F1200102FA9A
:1015200003FC20FA01F225FA01F19D402A434FEA1B
:101530001C471FFA8CFEB1FBF7F007FB1015110CCE
:1015400041EA054100FB0EF58D4204FA03F408D987
:101550001CEB010100F1FF382FD28D422DD902384A
:101560006144491B92B2B1FBF7F507FB151142EA42
:10157000014205FB0EF1914208D91CEB020205F174
:10158000FF3816D2914214D9023D6244521A45EAFC
:10159000004139E73146304609E73946E7E610466B
:1015A000FCE6C145AAD2B8EB020E63EB0C0501388C
:1015B000A4E74546EAE7034695E74046D1E7D0462B
:1015C0007CE7023D624433E708460BE76444023897
:1015D00043E700BF704700BF70B5ADF5747D0646A8
:1015E00000248DF800408DF801408DF803408DF8FF
:1015F00004408DF802401FE0E500C4EBC400C000C9
:101600000830684420220021013016F0D7FA2B1B45
:101610000DEBC30308221A72002283F82920002050
:101620000021C3E90C010134C4EBC403DB000DF855
:1016300003200A2001F054F90F2CDDDD013E4FF4A8
:101640000061164B53F8260000F070FDE0B9144B12
:1016500000221146022014F0F5FB4FF47472694623
:101660000E4B53F8260000F029FD30B90D4B002237
:101670001146022014F0E6FB0CE00B4B0022114651
:10168000022014F0DFFB05E0084B00221146022087
:1016900014F0D8FB0DF5747D70BD00BF0000002074
:1016A000DCBB0108E8BB0108F4BB010800BC010871
:1016B00084B030B585B008AC84E80F009DF8C853FD
:1016C000644B00221146022014F0BCFB00240CE005
:1016D00004F120036B4493F8883300935E4B00229F
:1016E0001146022014F0AEFB0134A542F0DC5B4B46
:1016F00000221146022014F0A5FB9DF82230009331
:10170000574B00221146022014F09CFB9DF8233019
:101710000093544B00221146022014F093FB9DF8D5
:1017200024300093504B00221146022014F08AFB13
:101730009DF82030012B00F086804C4B00934C4BE1
:1017400000221146022014F07DFB9DF8C93300935E
:10175000484B00221146022014F074FB9DF8CA3356
:101760000093454B00221146022014F06BFBBDF89C
:10177000D6330093414B00221146022014F062FB45
:101780009DF8D8339DF8D9239DF8DA139DF8DB0333
:101790000390029101920093394B002211460220DE
:1017A00014F050FB9DF8DC339DF8DD239DF8DE132B
:1017B0009DF8DF030390029101920093314B0022C8
:1017C0001146022014F03EFB9DF8E0339DF8E12322
:1017D0009DF8E2139DF8E3030390029101920093B8
:1017E000294B00221146022014F02CFB9DF8E43313
:1017F0009DF8E5239DF8E6139DF8E7030390029119
:1018000001920093214B00221146022014F01AFB92
:101810009DF8E833CBB11E4B00931E4B00221146BE
:10182000022014F00FFB9DF8D43383B1184B0093C2
:10183000194B00221146022014F004FB05B0BDE84C
:10184000304004B07047124B78E7084BE4E7074B91
:10185000EDE700BF1CBC010840BB01086CD20108C9
:1018600030BC010840BC010850BC010814BC010890
:1018700060BC010878BC010888BC0108A0BC010854
:10188000BCBC0108E0BC010808BD010834BD01086A
:101890000CBC010860BD010874BD010830B5ADF590
:1018A000777D04464FF47472434B53F8201002A81E
:1018B00000F020FC002877D106238DF8B0333F4B91
:1018C00093E803000090ADF80410002307E01DF832
:1018D000031002AA1A4482F888130133DBB2052BE5
:1018E000F5D900238DF8B1338DF8B233ADF8BE339E
:1018F000194663F3070163F30F2163F3174163F3A1
:101900001F611A4663F3070263F30F2263F3174262
:1019100063F31F621D4663F3070563F30F2563F34B
:10192000174563F31F65184663F3070063F30F2041
:1019300063F3174063F31F60F095F190F291F39217
:101940008DF8D0338DF8D1338DF8BC334FF400616E
:10195000194B53F8240000F0E9FBE0B9184B0022C2
:101960001146022014F06EFA4FF4747202A9124B61
:1019700053F8240000F0A2FB30B9124B00221146AC
:10198000022014F05FFA0CE00F4B002211460220F7
:1019900014F058FA05E00D4B00221146022014F015
:1019A00051FA0DF5777D30BD094B0022114602201A
:1019B00014F048FAF5E700BF0000002068BA0108FB
:1019C000DCBB0108E8BB0108F4BB010800BC01084E
:1019D0008CBD010810B5ADF5F26D04464FF474727C
:1019E000114B53F82010F0A800F084FBA0B900942C
:1019F0000E4B00221146022014F024FAF0AC4FF4F2
:101A00007072F4A9684616F07AF994E80F00FFF7AF
:101A10004FFE0DF5F26D10BD054B00221146022060
:101A200014F010FAF5E700BF00000020A4BD010883
:101A30008CBD010800B583B001904FF0FF33012247
:101A400001A903480AF045F9019803B05DF804FBC9
:101A50005C0C00200F2800D970472DE9F84F0D4687
:101A600017461E46DFF8749000EB00144FEA840B13
:101A700009EB840444220021204616F09FF82868D0
:101A80006968AA68EB6849F80B006160A260E360CE
:101A900028696969AA69EB6920616161A261E361F2
:101AA00084F8207084F821609DF8283084F8223072
:101AB000BDF82C30E3850C9B23630D9B63630E9B69
:101AC000A3630F9BE3639DF8403084F840309DF89A
:101AD000443084F84130BDE8F88F00BF4C0300204B
:101AE00038B50D46144694220146034816F007F90E
:101AF000024B1D601C7138BD940700208C0700202C
:101B000008B50A464FF0FF33014602480AF0E1F8F3
:101B100008BD00BF940700202DE9F84306460F4694
:101B2000144602F1020996220021484616F046F8B2
:101B300000252580124C01222179206806F0BEFF85
:101B4000DFF8408001220421404606F0B7FF012261
:101B500049460D480AF02CFA39463046FFF7D0FFC7
:101B60002A462179206806F0A9FF2A46042140462A
:101B700006F0A4FF012000F0B3FEBDE8F88300BF2B
:101B80008C070020000800489407002008B503884F
:101B9000952B0ED8084A1268516AC2189170013309
:101BA000038030F8021B0122014403480AF000FAC6
:101BB00008BD00230380F4E79407002008B513480C
:101BC000134B03604FF00043436000238360C36006
:101BD0000361042242610376437683760122C26167
:101BE00080F820304362836280F82C304FF48052BA
:101BF000026307224263826380F83C30C36405F0CD
:101C0000E5FC00B908BD00F0C1FBFBE72808002097
:101C1000002401400268094B9A4200D0704782B00C
:101C20004FF0B0431A6E42F400721A661B6E03F452
:101C300000730193019B02B0704700BF0024014074
:101C40000268054B9A4200D070474FF0B042136EC5
:101C500023F400731366F7E70024014030B585B024
:101C600004460023019302930393FFF7A7FF16484E
:101C700006F0E4F8F8B9019400230293039301A954
:101C8000114805F01DFEC8B90F4805F0DBFFC0B9CB
:101C90000D4C4FF0FF31204605F0B0FD204606F018
:101CA000ADF8204605F009FE0546204606F046F848
:101CB000284605B030BD00F069FBDCE700F066FBAC
:101CC000E2E700F063FBE3E728080020014B024A4B
:101CD0001A607047280800200024014008B50D480C
:101CE000FFF7BCFFA0B103460B4AB2F8AA004FF6BB
:101CF000FF72904207D040F6E44202FB00F0B0FBD6
:101D0000F3F080B205E00548B0FBF3F080B200E0EC
:101D1000002008BD002000B40075FF1FD8084C004B
:101D200010B582B00023ADF80630FFF7D7FF0446A8
:101D30002148FFF793FF214BB3F8C820B3F8A81050
:101D40008A421DD000FB04F39B081D48A0FB03033F
:101D5000C1EB5313642000FB03F3521A93FBF2F31D
:101D60001E331BB2ADF80630BDF806301BB21B02A5
:101D70001BB2ADF80630BDF8060000B202B010BDCF
:101D800004FB00F00F4BA3FB0023C41A03EB540326
:101D9000DB0A4FF47A7202FB03F3A3F53923A3F5B0
:101DA0000C63094A82FB0312DB17C3EBA2231E3329
:101DB0001BB2ADF80630D7E7001000B00075FF1F6A
:101DC0009F00EE0901011000AD8BDB6800B583B008
:101DD0004FF0B0439A6C42F004029A649A6C02F09D
:101DE00004020192019A9A6C42F001029A649B6C7F
:101DF00003F001030093009B002202210F2006F054
:101E0000CFF80F2006F004F903B05DF804FB0023BF
:101E100001E0083008338B420AD24268D0F800C093
:101E2000B2F1FF3F08BFBCF1FF3FF2D00120704785
:101E30000020704730B108B539B192B214F018F9EA
:101E4000002008BD6FF0050070476FF00500F8E74F
:101E500008B506F0BFFB78B9094B9A6942F04042D9
:101E60009A614CF2FA321A6106F0CCFB08B90020F4
:101E700008BD6FF00400FBE76FF00400F8E700BF57
:101E80000040005870B584B000230393002839D077
:101E90000E460446FFF7DCFF054610B1284604B0A5
:101EA00070BD06F097FB80BB0223009304F17843DA
:101EB0001748D0F8E015174A02EA8121B3FBF1FC7C
:101EC00001FB1C33DB0A0193A11901F178410139AF
:101ED000D0F8E00502EA8022B1FBF2F002FB10111B
:101EE000C3EBD1230133029303A9684606F056FCE5
:101EF00018B1022804D06FF0010506F083FBCDE78E
:101F00000125FAE76FF00505C8E76FF00405C5E79E
:101F10000070FF1F00FCFF032DE9F04F89B0039014
:101F200004920191002800F0A9808346002900F066
:101F3000A98012F0070F40F0A98010F00703059365
:101F400040F0A880FFF784FF029018B1029809B012
:101F5000BDE8F08F06F03EFB002840F09F80039C18
:101F600004F178424F4BD3F8E0354F4901EA832121
:101F7000B2FBF1F301FB1322D30A0693049BE3188F
:101F800003F17843013BB3FBF1F001FB1033DB0AB3
:101F9000A3EBD22301330793012B06D9C4F30A091B
:101FA000C9F50069DDF818A02FE0DDF81090F9E719
:101FB000C846019F5C46059D454515D2EE19D6E9F8
:101FC00000232146012006F061FB50B920686268B9
:101FD000E95973689A4208BF884241D108340835EC
:101FE000EAE76FF003030293029B002B3FD1CB443F
:101FF000019B4B440193049BA3EB0909B9F5006FC6
:1020000028BF4FF400690AF1010A069B079A13449E
:1020100053452CD90AF58034E40249460398FFF76A
:10202000F6FE0028C4D0214B1868E8B14FF40062D6
:102030002146FFF7FFFE1D4B1B68CBF30A001FFA7A
:1020400089F20199184414F013F84FF40061204606
:10205000FFF718FF70B9154B1F684FF40068AAE727
:102060006FF003030293BFE76FF00503029306F0DE
:10207000C9FA6BE76FF001030293F8E76FF005030D
:10208000029363E76FF0050302935FE76FF00503C8
:1020900002935BE76FF00503029357E76FF00403C9
:1020A000029353E70070FF1F00FCFF038C08002021
:1020B000014B1860002070478C080020B0F1006FC1
:1020C0000ED310B5094BD3F8E045094B03EA84233E
:1020D00003F10063013B984205D8FFF71DFF10BDD7
:1020E0004FF0FF3070474FF0FF30F8E70070FF1FF0
:1020F00000FCFF03B1F1006F0ED310B5094BD3F80C
:10210000E045094B03EA842303F10063013B994254
:1021100005D8FFF78FFE10BD4FF0FF3070474FF02E
:10212000FF30F8E70070FF1F00FCFF03B0F1006F05
:102130000ED308B5094BD3F8E025094B03EA8223F7
:1021400003F10063013B984205D8FFF79BFE08BDF1
:102150004FF0FF3070474FF0FF30F8E70070FF1F7F
:1021600000FCFF032DE9F04389B00024039404949C
:102170000594069407944FF0B043DA6C42F00102E4
:10218000DA64DA6C02F001020292029ADA6C42F02E
:102190000202DA64DA6C02F002020192019ADA6C4D
:1021A00042F00402DA64DB6C03F004030093009B4A
:1021B0003B4E22464FF43A41304606F07FFCDFF8B2
:1021C000E48022460421404606F078FC22464FF483
:1021D000F8714FF0904006F071FC4FF40A430393FE
:1021E0000125049505940223069303A9304606F0C1
:1021F00015FB0423039304950594069403A9404614
:1022000006F00CFB032703974FF40419CDF8109048
:10221000059503A94FF0904006F000FB4FF44053A2
:10222000039304950594069703A9304606F0F6FA41
:10223000062703970494059403A9304606F0EEFAA6
:1022400040230393CDF81090059503A9404606F06E
:10225000E5FA4FF4F873039304950594069403A9E3
:102260004FF0904006F0DAFA22462146384605F053
:1022700097FE384605F0CCFE22462146072005F0A1
:102280008FFE072005F0C4FE22462146162005F0E9
:1022900087FE162005F0BCFE09B0BDE8F08300BF44
:1022A000000400480008004808B51248124B0360BB
:1022B000124B4360002383600122C26003614361CB
:1022C0008361C361036206F0C5FD50B9002109486E
:1022D00006F0CAFF40B90021064806F0F3FF30B906
:1022E00008BD00F053F8F1E700F050F8F3E700F014
:1022F0004DF8F5E790080020005400405D3E302086
:1023000010B596B0044600211191129113911491C9
:102310001591382203A815F051FC2268194B9A42F6
:1023200001D016B010BD402303934FF440330893FF
:1023300003A807F013FE08BB4FF0B044E36C43F072
:102340000203E364E36C03F002030293029BC023E5
:1023500011931223129300231393149304231593C0
:1023600011A9094806F05AFAA36D43F40013A365B6
:10237000A36D03F400130193019BD2E700F006F86C
:10238000DAE700BF005400400004004872B6FEE7E0
:1023900010B59AB04822002108A815F00FFC0024BF
:1023A000019402940394049405940694079406F00F
:1023B000B5FF4FF0B042D2F8903023F01803C2F8C6
:1023C000903002F58062136823F4C06343F4007315
:1023D0001360136803F4C0630093009B24230893E5
:1023E00081230B93012310931194B0231293139420
:1023F00008A807F02DF970B94F2301930023029329
:102400000393049305930793022101A807F052FC5C
:1024100018B91AB010BDFFF7B9FFFFF7B7FF0000FA
:1024200010B582B005F084F8FFF7B2FFFFF79AFE0F
:1024300002F014F9FFF738FF00F060FC244C04228E
:1024400024492046FFF74CFB00F08CFC0122224976
:10245000224809F0ADFD01222149204609F0A8FDDE
:1024600000F032FA044600F02FFA012240214FF02A
:10247000904006F023FB012280214FF0904006F0AF
:102480001DFBF82217491848FFF734FEC0B9164B58
:10249000D3E93823CDE90023144B00221146022052
:1024A00013F0D0FC00F010FA001B41F28733984281
:1024B000F8D90F4B1B78002BF4D102F0D5F8F1E7D7
:1024C0000C4B00221146022013F0BCFCEAE700BFCF
:1024D000C80B002000080048E10D00205C0C002023
:1024E000E409002000F00308E8080020C8BD010846
:1024F000F00D00208CBD010800B58DB02C2200210C
:1025000001A815F05BFB1948194B03601F2383607A
:1025100000230361436183614FF08042C261036223
:102520004FF48073436207F029FFA8B90F4808F001
:1025300067F8A0B900220892029206924FF0005369
:1025400007934FF480730B9301A9084807F07CFFB1
:1025500040B90DB05DF804FBFFF718FFE6E7FFF7A1
:1025600015FFE7E7FFF712FFF3E700BF140B0020AA
:102570000028004010B590B004463822002102A87F
:1025800015F01CFB22681A4B9A4201D010B010BD06
:102590004FF4803302934FF480730F9302A807F037
:1025A000DDFC08BB4FF0B043D3F8902042F400426A
:1025B000C3F890209A6D42F480629A659B6D03F493
:1025C00080630193019B00221146022005F0E8FC84
:1025D000022005F01DFD002211462A2005F0E0FC36
:1025E0002A2005F015FDD1E7FFF7D0FEDAE700BF9E
:1025F000002800407047704708B504F0AFFF012085
:10260000024BC3F8880006F0EDFE08BD0004005838
:1026100008B504F0AAFF08BD08B504F0A6FF00F055
:1026200017FD08BD08B504F099FF0121002006F050
:102630007DFE08BD7047FEE7FEE7FEE7FEE7FEE72A
:10264000704770477047704708B5024808F004F8B3
:1026500008BD00BF140B002008B5012006F03CFAAD
:1026600008BD08B5022006F037FA08BD08B50248D3
:1026700005F0FEFE08BD00BF680B002008B5402035
:1026800006F02AFA08BD000008B5024808F0A2FCCE
:1026900008BD00BFC80B002008B5024808F09AFC2E
:1026A00008BD00BF5C0C002008B5024807F0E0FD43
:1026B00008BD00BF140B002008B5024808F080FADE
:1026C00008BD00BF4C0B002008B505480823036077
:1026D00007F0F8FF00B908BDFFF758FEFBE700BFA1
:1026E0004C0B002000B583B04FF0B0435A6E42F05F
:1026F00001025A665B6E03F001030193019B002205
:102700001146322005F04CFC322005F081FC03B06C
:102710005DF804FB0CB400B583B004AB53F8042B94
:10272000019314F07FF803B05DF804EB02B070473A
:1027300030B585B004460D4602A813F0E7FDBDF99B
:102740000C300093029B054A10212046FFF7E2FF60
:102750002046FDF765FD288005B030BD08BE0108A4
:1027600010B54FF0B042936823F40043936013F028
:1027700051FE01240D4B1C7000F0BCF813F0EEFA72
:102780000B4813F005FB0B4B4FF400421A6102207B
:1027900013F004FBFFF79AFA00F014F913F00EFCA3
:1027A0002146204613F02AFC10BD00BF580B002024
:1027B000312700080040005808B513F035FC08BD6B
:1027C00008B5FFF78BFA40F6B83398420DD8B0F54C
:1027D000E16F0CD3A0F5E160C0EBC0104000054BE9
:1027E000A3FB0030C0F3C71000E0FE2008BD0020AE
:1027F000FCE700BFB5814E1B00B587B0684600F00E
:10280000C5F80198FEF7ECFC00B207B05DF804FBD8
:1028100038B50446184BD3F88035B3F1FF3F13D0D9
:10282000C3711A0A82711A0C42711B0E0371124B8A
:10283000D3F88425C270D3F884351A0A82701A0C32
:1028400042701B0E037038BD04F096FE054604F07E
:102850009FFE054404F096FE2B0EE3712B0CA37132
:102860002B0A63712571030EE370030CA370030A36
:1028700063702070E7E700BF0070FF1F38B50A4B98
:10288000D3F880350360B3F1FF3F00D038BD044674
:1028900004F072FE054604F075FE454004F078FE33
:1028A00045402560F2E700BF0070FF1F08B5012119
:1028B000022013F08DFB08BD08B50021022013F0A3
:1028C00087FB08BD0020704708B5044B1B780BB987
:1028D000002008BD00F000F9FBE700BF580B002006
:1028E00000B583B00190019800F0DCF903B05DF809
:1028F00004FB0000F0B589B0224AD2F8903043F4CE
:102900008043C2F8903004F049FE04F04FFE04F01A
:1029100055FE00240394049405940694079401231F
:102920000493032306934FF0B043DA6C42F00202A3
:10293000DA64DA6C02F002020292029ADA6C42F075
:102940000202DA64DB6C03F002030193019B4FF493
:10295000805703970C4D03A9284605F05FFF4FF4FD
:102960000056039603A9284605F058FF224639462B
:10297000284606F0A3F822463146284606F09EF87F
:1029800009B0F0BD000800580004004810B5044626
:10299000FFF7C6F940F30F20FEF708FA054BA360D6
:1029A0006060054B2360054BE360054B236100200D
:1029B00010BD00BF0000484200007A440D093E00EF
:1029C000AB030500002070470120704708B515F0E3
:1029D00069F9162303604FF0FF3008BD08B54FF0CA
:1029E000FF31FFF7F3FFFEE770B50C4616460025F2
:1029F00006E0AFF30080214601F8010B01350C46DB
:102A0000B542F6DB304670BD70B50C461646002563
:102A100004E014F8010BFFF70DF80135B542F8DBBF
:102A2000304670BD4FF0FF3070474FF400534B609D
:102A300000207047012070470020704710B5034602
:102A40000C4A0D490D48006840B10C480068034429
:102A5000521A934206D8094A136010BD0748084C21
:102A60000460F2E715F01EF90C2303604FF0FF300D
:102A7000F3E700BF00800020000800005C0B00208E
:102A8000A0230020064B986801E0054B9868044B92
:102A90009B688342F9D1C043024B1860704700BF66
:102AA00000280040640B0020014B1868704700BFED
:102AB000640B0020064B986801E0054B9868044BB6
:102AC0009B688342F9D1C043024B1B68C01A704710
:102AD00000280040640B0020074B1B7853B1074BC4
:102AE000986801E0054B9868044B9B688342F9D1D4
:102AF000C043704700207047600B00200028004052
:102B00000320704708B501464FF47A720023800213
:102B1000890DFEF7ABFB08BDC20E43011B1A62F123
:102B20000002920042EA93729B001B1842F10000DF
:102B3000C00040EA5370C3F3D51343EA8050704796
:102B400010B5074B0122DA65064C4FF48071204620
:102B500007F04EFB4FF0FF332363002010BD00BF92
:102B600000280040140B002008B50246022102484C
:102B700007F087FD08BD00BF140B002038B50F4BD0
:102B80001B780BB1002038BD0D4C4FF0FF3525638D
:102B9000FFF7B2FCFFF7D4FF4FF48071204607F037
:102BA00027FB2563204607F00BFD0020FFF7DCFF25
:102BB000FFF768FF014B01221A70E3E7600B00206A
:102BC000140B002008B502460021024807F059FD09
:102BD00008BD00BF140B002008B5024601210248C1
:102BE00007F04FFD08BD00BF140B002010B58CB0DE
:102BF00004462C22002101A814F0E0FFFFF7A0FFFB
:102C00000C4B1B681C4400230893E4430294069376
:102C10004FF0005307934FF480730B93012201A9E7
:102C2000054807F011FC10B900200CB010BDFFF7EB
:102C3000ADFBF9E7640B0020140B002008B502215E
:102C4000014807F025FD08BD140B002038B50546E6
:102C50000B4B9C6801E00A4B9C68094A9268A242AF
:102C6000F9D1E443FFF7EAFF2346A40A44EA80547B
:102C7000C3F30900FFF750FF2880204638BD00BF8E
:102C80000028004008B50021014807F001FD08BDFB
:102C9000140B002008B50121014807F0F9FC08BD1C
:102CA000140B002008B5FFF72DFF0D4B996801E0CC
:102CB0000B4B99680A4A92688A42F9D1C9430AE0E3
:102CC000074B9B68064A92689A42F9D1DB435B1A2C
:102CD000834203D200BF024B9B68F3E708BD00BFED
:102CE0000028004008B513F0B9FC08BD08B5FFF78F
:102CF000A5FF0130FFF738FF08BD000008B51748F1
:102D0000174B03604FF41653436000238360C36086
:102D100003610C2242618361C36103624362836287
:102D200009F074F870B900210C4809F043FA60B951
:102D300000210A4809F063FA50B9084809F01BFA63
:102D400048B908BDFFF722FBEDE7FFF71FFBEFE7F0
:102D5000FFF71CFBF1E7FFF719FBF2E7C80B0020B8
:102D60000038014008B51748174B03604FF4E133B2
:102D7000436000238360C36003610C22426183616E
:102D8000C36103624362836209F040F870B90021B5
:102D90000C4809F00FFA60B900210A4809F02FFA2F
:102DA00050B9084809F0C3F948B908BDFFF7EEFA71
:102DB000EDE7FFF7EBFAEFE7FFF7E8FAF1E7FFF7E8
:102DC000E5FAF2E75C0C00200044004030B599B011
:102DD00004460021139114911591169117913822F0
:102DE00005A814F0EBFE23684B4A934204D04B4AEB
:102DF000934239D019B030BD012305934FF44033CD
:102E0000069305A807F0AAF858BB4FF0B0431A6E16
:102E100042F480421A661A6E02F480420292029ACA
:102E2000DA6C42F00102DA64DB6C03F00103019317
:102E3000019B4FF4C0631393022314930024159451
:102E400016940723179313A94FF0904005F0E6FC62
:102E500022462146242005F0A3F8242005F0D8F8C6
:102E6000C8E7FFF793FAD0E7022305932C4B0793AB
:102E700005A807F073F8002844D14FF0B0439A6DCD
:102E800042F400329A659A6D02F400320492049A78
:102E9000DA6C42F00102DA64DB6C03F001030393A5
:102EA000039B0C23139302231493002515950323EE
:102EB00016930723179313A94FF0904005F0AEFC2B
:102EC0001848194B03601423436010238360C560C6
:102ED0008023036145618561C561056205F03AF9AA
:102EE00098B910210F4805F037FB88B90D4BE367FF
:102EF0009C6200220221252005F052F8252005F0D1
:102F000087F877E7FFF742FAB7E7FFF73FFAE8E716
:102F1000FFF73CFAEAE700BF0038014000440040F8
:102F200004000C00680B00205800024010B5036834
:102F3000144A934204D00446134A934210D010BD61
:102F40004FF0B042136E23F4804313664FF4C06118
:102F50004FF0904005F034FD242005F067F8EEE7CF
:102F60004FF0B042936D23F4003393650C214FF082
:102F7000904005F025FDE06F05F05EF9252005F095
:102F800055F8DCE7003801400044004008B5074B25
:102F90001860FEF71BFFFFF7E5FE054AD2F8803008
:102FA00043F00063C2F88030002008BDF40C00201C
:102FB0000008005808B54FF0B0439A6B42F4003255
:102FC0009A639A6B22F400329A630448FFF7AEFFCB
:102FD0000F2005F02BF8002008BD00BF5C0C00207E
:102FE00008B50A460146024807F030FF002008BD38
:102FF0005C0C002010B582B0124B18604FF4001327
:10300000009302AB13E906000F4809F038F80E4BA5
:103010001B68DA6912F4803FF9D1DA6912F4800F83
:10302000FBD09A6842F480029A60074C204609F06F
:1030300067F801220549204608F0BAFF002002B0D7
:1030400010BD00BFF00C00205C0C0020E10D002042
:1030500008B5074808F0DAFE20B9064805F07AF806
:1030600018B908BDFFF792F9F7E7FFF78FF9F8E70E
:103070005C0C0020680B002008B50268044B9A42E3
:1030800000D008BD034B1B6800209847F9E700BF3C
:1030900000440040F40C00202DE9F04FADF24C5DEF
:1030A00081460268B64B9A4209D0D9F80020B54B48
:1030B0009A4201F0B4820DF24C5DBDE8F08FB24B44
:1030C0001B682BB1D0F8902012B90121AF48984766
:1030D000AE4B1B780A2B0AD0AD4A1278C62A00F2F2
:1030E0000A81501CAA490870AA498B5403E1A84BD5
:1030F0001B78A8480022C2540D22A74914F066FD8F
:10310000002800F0EC800D22A449A24814F05EFDD6
:10311000002800F0F6801222A1499E4814F056FDC6
:10312000002800F0F8800F229E499A4814F04EFDC6
:10313000002800F07B810B229B49964814F046FD45
:103140000446002800F037820B229849914814F079
:103150003DFD0446002800F052820B2294498D4820
:1031600014F034FD0446002800F06D8215229149C8
:10317000884814F02BFD002800F0A38217228E4906
:10318000844814F023FD002800F0D0820B228B49E4
:10319000804814F01BFD002800F0D98210228849D5
:1031A0007C4814F013FD002800F084831622854922
:1031B000784814F00BFD0446002800F09484122295
:1031C0008149744814F002FD002800F09A8513220A
:1031D0007E49704814F0FAFC0746002800F0648627
:1031E00018227B496B4814F0F1FC002800F061873D
:1031F00012227849674814F0E9FC002800F064873F
:1032000010227549634814F0E1FC0646002800F0DE
:103210005F87112271495F4814F0D8FC002801F043
:10322000B38112226E495B4814F0D0FC002801F0F3
:10323000B88116226B49574814F0C8FC002801F0E9
:10324000CC8110226849534814F0C0FC002841F09A
:10325000DE810DF17F030DF17E026449644814F0B4
:10326000A9FB9DF87E30013B4FF47472614951F81F
:10327000231020A8FEF73EFF002841F0C0819DF8F2
:103280007F30012B14BF002301238DF834349DF8C7
:103290007E30013B4FF40061564A52F82300FEF79E
:1032A00045FF002841F0A381534B00221146022024
:1032B00012F0C8FD9DF87E30013B4FF4747220A9D6
:1032C0004C4850F82300FEF7F9FE002841F08781B2
:1032D0004A4B00221146022012F0B4FD08E0484B90
:1032E00000221146022012F0ADFD464B01221A7059
:1032F000274B00221A7001222449484608F058FE44
:10330000D3E6414B00221146022012F09BFD3D4BBB
:1033100000221A70ECE73D4B00221146022012F009
:1033200091FDF8223A490DF58A60FEF7E3FE00BBF5
:1033300008220DF58A61374810F0A7FE08220DF526
:103340008B61354810F0A1FE10220DF2694133481F
:1033500010F09BFE0DF5A563D3E90001304BC3E9E6
:1033600000010DF5A663D3E900012E4BC3E900016E
:10337000BEE72D4B00221146022012F063FDB7E795
:103380000044004000380140F00C0020E10D002016
:10339000E00D0020180D002054BE010888BE010871
:1033A000BCBE0108F8BE010880C0010894C0010835
:1033B000A0C00108ACC00108C8C0010808C10108CC
:1033C0003CC10108D8C10108F0C201089CC3010832
:1033D00088C40108A8C40108BCC40108A8C5010824
:1033E000BCC50108D0C50108E8C50108FCC5010835
:1033F000280D002000000020DCBB0108E8BB01080C
:1034000064BE0108F00D002098BE0108D0BE01087E
:1034100000F00308F80C0020000D0020080D00202B
:10342000F80D0020E80D00208CBD0108F822AD4900
:103430000DF58A60FEF75EFE002840F0AB80AA4BD7
:1034400000221146022012F0FDFC9DF850349DF838
:1034500051249DF852149DF853049DF854449DF84E
:1034600055549DF856649DF8577407970696059530
:10347000049403900291019200939C4B0022114608
:10348000022012F0DFFC9DF858349DF859249DF875
:103490005A149DF85B049DF85C449DF85D549DF8BA
:1034A0005E649DF85F7407970696059504940390F3
:1034B0000291019200938E4B00221146022012F0DD
:1034C000C1FC9DF8693417939DF86A2418929DF801
:1034D0006B349DF86C249DF86D149DF86E049DF876
:1034E0006FC49DF870E49DF871449DF872549DF886
:1034F00073649DF874749DF875849DF876A4CDF876
:1035000064A09DF877A49DF878B4CDF83CB0CDF8D0
:1035100038A0DDF864A0CDF834A0CDF830800B974A
:103520000A9609950894CDF81CE0CDF818C00590CE
:10353000049103920293189A0192179B00936D4B8A
:1035400000221146022012F07DFC0DF5A563D3E99F
:103550000023CDE90023684B00221146022012F01F
:1035600071FC0DF5A663D3E90023CDE90023634B7D
:1035700000221146022012F065FC614B0022114628
:10358000022012F05FFC5F4B00221146022012F075
:1035900059FCADE65C4B00221146022012F052FCB1
:1035A000A6E663000B33594A224459495948184446
:1035B00014F000FA0134072CF3DD544B1A785978D3
:1035C0009878DC781D795E799F79DB790793069787
:1035D000059604950394029001910092434B0022BA
:1035E0001146022012F02EFC82E663000B334A4A99
:1035F000224447494748184414F0DCF90134072CA9
:10360000F3DD454B1A7859789878DC781D795E7926
:103610009F79DB79079306970596049503940290AA
:1036200001910092324B00221146022012F00AFC56
:103630005EE663000B33394A224435493548184465
:1036400014F0B8F901340F2CF3DD344B1A781792CB
:103650005978189193F802B0DA78197958799C79E9
:10366000DD791E7A5F7A93F80AC093F80BE093F83D
:103670000C8093F80DA0CDF864A093F80EA0DB7B2E
:103680000F93CDF838A0DDF864A0CDF834A0CDF8C4
:103690003080CDF82CE0CDF828C009970896079522
:1036A0000694059004910392CDF808B01899019101
:1036B000179A00920F4B00221146022012F0C2FB13
:1036C00016E6174C22461749174814F073F9D4E947
:1036D0000023CDE90023084B00221146022012F0FE
:1036E000B1FB05E600F0030808BF010828BF010888
:1036F00068BF0108A8BF010810C0010834C0010854
:103700005CC0010870C001088CBD0108F80C0020E5
:103710008CC00108180D0020000D0020080D0020AD
:10372000F80D0020C4C001082D0D0020514C224688
:103730005149524814F03EF9D4E90023CDE9002361
:103740004F4B00221146022012F07CFBD0E54D4B7E
:1037500000221146022012F075FB4B4B1A78597863
:103760009878DC781D795E799F79DB7907930697E5
:10377000059604950394029001910092434B002218
:103780001146022012F05EFB414B1A785978987866
:10379000DC781D795E799F79DB790793069705962A
:1037A000049503940290019100923A4B0022114635
:1037B000022012F047FB384B1A781792597818916B
:1037C00093F802B0DA78197958799C79DD791E7A04
:1037D0005F7A93F80AC093F80BE093F80C8093F8A3
:1037E0000DA0CDF864A093F80EA0DB7B0F93CDF86D
:1037F00038A0DDF864A0CDF834A0CDF83080CDF845
:103800002CE0CDF828C009970896079506940590F6
:1038100004910392CDF808B018990191179A00927B
:103820001E4B00221146022012F00CFB1C4BD3E968
:103830000023CDE900231B4B00221146022012F089
:1038400001FB0C4BD3E90023CDE90023164B0022EA
:103850001146022012F0F6FA144B00221146022003
:1038600012F0F0FA124B00221146022012F0EAFA8E
:103870003EE500BFE80D0020C4C001082F0D002068
:10388000E0C0010814C10108F80C002028BF01089D
:10389000000D002068BF0108080D0020A8BF010826
:1038A000F80D002010C0010834C001085CC00108F8
:1038B00070C001089B4B00221146022012F0C2FA90
:1038C000082299490DF58A6010F0DFFB082297491C
:1038D0000DF58B6010F0D9FB954C102221460DF2AE
:1038E000694010F0D2FB102221460DF27A4010F010
:1038F000CCFB102221460DF28B4010F0C6FB1022AB
:1039000021460DF29C4010F0C0FB8A4BD3E9002306
:103910000DF5A561C1E90023874BD3E900230DF51F
:10392000A661C1E900234FF400618448FEF7FEFB65
:10393000002840F0D180F8220DF58A617F48FEF71B
:10394000BDFB002840F0C1807D4B002211460220C3
:1039500012F078FAF82279490DF58A60FEF7CAFB71
:10396000002840F0AB80774B00221146022012F075
:1039700069FA9DF850349DF851249DF852149DF831
:1039800053049DF854449DF855549DF856649DF891
:103990005774079706960595049403900291019237
:1039A0000093694B00221146022012F04BFA9DF859
:1039B00058349DF859249DF85A149DF85B049DF8DD
:1039C0005C449DF85D549DF85E649DF85F740797B4
:1039D00006960595049403900291019200935B4B27
:1039E00000221146022012F02DFA9DF86934179337
:1039F0009DF86A2418929DF86B349DF86C249DF80C
:103A00006D149DF86E049DF86F449DF870549DF8F8
:103A100071649DF872749DF873C49DF874E49DF808
:103A200075849DF876A4CDF864A09DF877A49DF8E0
:103A300078B4CDF83CB0CDF838A0DDF864A0CDF86E
:103A400034A0CDF83080CDF82CE0CDF828C009970F
:103A50000896079506940590049103920293189A8C
:103A60000192179B00933A4B00221146022012F05C
:103A7000E9F90DF5A563D3E90023CDE90023354B22
:103A800000221146022012F0DDF90DF5A663D3E9FC
:103A90000023CDE90023304B00221146022012F012
:103AA000D1F92E4B00221146022012F0CBF92C4BFB
:103AB00000221146022012F0C5F919E4294B002218
:103AC0001146022012F0BEF912E4274B00221146E3
:103AD000022012F0B7F90BE4244B00221146022019
:103AE00012F0B0F904E40DF17F030DF17E022049DC
:103AF000204813F05FFF022840F0FB809DF87E30E5
:103B00005A1ED2B20F2A04D89DF87F200AB1102A7B
:103B100034D9194B00221146022012F093F9FFF715
:103B2000E7BB00BF50C10108F80C0020000D0020C9
:103B3000080D0020F80D0020E80D002000F003081B
:103B400074C1010808BF010828BF010868BF010847
:103B5000A8BF010810C0010834C001085CC00108FA
:103B600070C001088CBD010898C10108B8C10108E6
:103B7000F0C101082E0D0020BCC20108013B4FF42A
:103B80007472AE4951F8231020A8FEF7B3FA00284A
:103B90007AD1AB4B00221146022012F053F99DF866
:103BA0007F3001939DF87E300093A64B0022114692
:103BB000022012F047F99DF882300093A24B0022B8
:103BC0001146022012F03EF99DF8833000939F4B7E
:103BD00000221146022012F035F99DF8843000933E
:103BE0009B4B00221146022012F02CF99DF88030E8
:103BF000012B50D0974B0093974B00221146022087
:103C000012F020F9954B00221146022012F01AF909
:103C10009DF87F300093924B00221146022012F053
:103C200011F99DF87F30382202FB03F320AAD35C00
:103C3000012B32D0874B00938A4B00221146022081
:103C400012F000F9884B00221146022012F0FAF817
:103C50009DF87F30013B382220A902FB03131D7A17
:103C6000AC421CD29DF87F30013B382220A902FBD8
:103C7000031323445B7A00937C4B002211460220FD
:103C800012F0E0F80134EBE7794B002211460220F4
:103C900012F0D8F883E7774BADE7764BCBE7764B5E
:103CA00000221146022012F0CDF89DF87F30013B32
:103CB000382420AA04FB03231B6B00936F4B0022C4
:103CC0001146022012F0BEF89DF87F30013B20AA79
:103CD00004FB032393F829304BB1664B0093684BE8
:103CE00000221146022012F0ADF8FFF701BB594B3C
:103CF000F4E7644B00221146022012F0A3F8FFF70C
:103D0000F7BA0DF17F0303930DF17E0302930DF1DA
:103D10007D0301931FAB00930DF17B030DF17A023C
:103D200059495A4813F046FE062807D0584B00223E
:103D30001146022012F086F8FFF7DABA9DF87F30BC
:103D400005939DF87E3004939DF87D3003939DF894
:103D50007C3002939DF87B3001939DF87A3000937C
:103D60004C4B00221146022012F06CF89DF87B307B
:103D7000013B4FF47472314951F8231020A8FEF72B
:103D8000B9F978BB2E4B00221146022012F05AF8E6
:103D90009DF87A30012B2CD09DF87B30013B4FF4FD
:103DA0000061264A52F82300FEF7C0F900283CD1F2
:103DB000394B00221146022012F044F89DF87B3066
:103DC000013B4FF4747220A91C4850F82300FEF701
:103DD00075F910BB314B00221146022012F032F867
:103DE000FFF786BA224B00221146022012F02AF871
:103DF000CEE79DF87C308DF882309DF87D308DF8CF
:103E000083309DF87E308DF884309DF87F30003B04
:103E100018BF01238DF88030BEE7214B00221146E8
:103E2000022012F00FF8FFF763BA1E4B0022114672
:103E3000022012F007F8FFF75BBA00BF0000002075
:103E4000FCC1010818C2010830BC010840BC0108CF
:103E500050BC010814BC010860BC01084CC2010838
:103E600050C2010870C2010888C2010840BB0108A5
:103E700008C201080CBC010874C9010894C20108F9
:103E8000ACC20108D8C2010804C30108180D002003
:103E900074C3010828C30108DCBB0108E8BB0108A2
:103EA000F4BB010800BC01080DF17F0307930DF17D
:103EB0007E0406940DF17D0605961FAD04950DF167
:103EC0007B08CDF80C800DF17A0302930DF1790394
:103ED00001931EAB00930DF177030DF17602A44917
:103EE000A44813F067FD9DF87B209DF87C100D041D
:103EF00045EA02659DF87D6045EA06259DF87E400D
:103F000025430A2807D09C4B00221146022011F0BD
:103F100099FFFFF7EDB99DF87A309DF87F000A9080
:103F20000994089607910692059304939DF87930B9
:103F300003939DF8783002939DF8773001939DF8B4
:103F4000763000938D4B00221146022011F07AFF4B
:103F50009DF87F0012F02AFD064600240AE004EBDB
:103F600044033133321986498248184413F022FD44
:103F70000134E4B29DF87F30A342F0D8814B002297
:103F80001146022011F05EFF08E0F35D00937E4BC6
:103F900000221146022011F055FF01379DF87F30B5
:103FA000BB42F2DC794B00221146022011F04AFF9D
:103FB0009DF87730013B4FF47472754951F8231026
:103FC00020A8FEF797F838B9724B0022114602205C
:103FD00011F038FF002312E06F4B0022114602203F
:103FE00011F030FFF6E79DF87820013AF15C3820B7
:103FF00020AC00FB02421A4451720133DBB29DF83F
:104000007F209A42EFD8304612F0D8FC9DF87820F5
:10401000531E20A8382404FB03039DF87F10197257
:104020009DF87A10003918BF012183F8291003F197
:1040300030011D6300234B609DF87930003B18BFB1
:10404000012304FB02F283549DF87730013B4FF4C7
:1040500000614F4A52F82300FEF768F808BB4F4B47
:1040600000221146022011F0EDFE9DF87730013B51
:104070004FF4747220A9464850F82300FEF71EF84A
:1040800038B9474B00221146022011F0DBFEFFF742
:104090002FB9444B00221146022011F0D3FEFFF746
:1040A00027B9414B00221146022011F0CBFEFFF749
:1040B0001FB920AA3D493E4813F07CFC9DF88000C2
:1040C000FDF78AFAFFF714B903F0C2FFFFF710B942
:1040D0000DF17F0315930DF17E0314930DF17D0314
:1040E00013931FAB12930DF17B0311930DF17A0320
:1040F00010930DF179030F931EAB0E930DF177031F
:104100000D930DF176030C930DF175030B931DAB1D
:104110000A930DF1730309930DF1720308930DF1E6
:10412000710307931CAB06930DF16F0305930DF11B
:104130006E0304930DF16D0303931BAB02930DF11A
:104140006B0301930DF16A0300930DF169031AAA41
:104150001849084813F02EFC18282FD00090164B51
:1041600000221146022011F06DFEFFF7C1B800BF1A
:10417000B0C30108180D002074C30108E4C301088E
:1041800078C401087CC4010840BB010874C9010857
:1041900000000020FCC1010808C20108DCBB0108C6
:1041A000E8BB0108F4BB010800BC0108A4C4010875
:1041B000300D0020D0C4010894C501080090BE4B0A
:1041C00000221146022011F03DFE9DF86930009357
:1041D000BA4B00221146022011F034FE9DF86830DF
:1041E0000093B74B00221146022011F02BFE9DF8E0
:1041F0007F300093B34B00221146022011F022FEC3
:104200009DF86A300093B04B00221146022011F055
:1042100019FE9DF86B300093AC4B00221146022032
:1042200011F010FE9DF86D3001939DF86C300093F5
:10423000A74B00221146022011F004FE9DF87130B8
:1042400003939DF8703002939DF86F3001939DF8B1
:104250006E3000939F4B00221146022011F0F2FDB8
:104260009DF8753003939DF8743002939DF8733078
:1042700001939DF872300093974B00221146022063
:1042800011F0E0FD9DF8793003939DF878300293AA
:104290009DF8773001939DF8763000938F4B002284
:1042A0001146022011F0CEFD9DF87D3003939DF85C
:1042B0007C3002939DF87B3001939DF87A30009317
:1042C000874B00221146022011F0BCFD9DF87E3084
:1042D000012B23D0834B0093834B002211460220F5
:1042E00011F0B0FD9DF87F40204612F05FFB0546BF
:1042F00018B12246002113F061FC00249DF87F30A4
:10430000A3420DD904EB440358332A19774978485E
:10431000184413F04FFB0134E4B2EFE7754BDAE7D2
:10432000754B00221146022011F08CFD9DF87F3064
:10433000B34209DDAB5D0093704B002211460220B1
:1043400011F080FD0136F1E76D4B0022114602208D
:1043500011F078FD9DF86930013B4FF474726949A2
:1043600051F8231020A8FDF7C5FE002840F0048175
:104370009DF87F108DF82814002306E0E85C20AA41
:104380001A4482F888030133DBB29942F6D82846F2
:1043900012F014FB9DF86A308DF829349DF86B30CB
:1043A0008DF82A349DF86C209DF86D3043EA022385
:1043B000ADF836349DF87630002263F307029DF89D
:1043C000773063F30F229DF8783063F317429DF83E
:1043D000793063F31F629DF87A10002361F30703BD
:1043E0009DF87B1061F30F239DF87C1061F3174358
:1043F0009DF87D1061F31F639DF86E10002061F33E
:1044000007009DF86F1061F30F209DF8701061F3A5
:1044100017409DF8711061F31F609DF872400021F4
:1044200064F307019DF8734064F30F219DF8744015
:1044300064F317419DF8754064F31F61CDF83804AB
:10444000CDF83C14CDF84024CDF844349DF87E30AE
:10445000003B18BF01238DF8483400238DF8493400
:104460009DF86930013B4FF40061264A52F8230061
:10447000FDF75CFE00284DD1234B0022114602209F
:1044800011F0E0FC9DF86930013B4FF4747220A9F3
:104490001C4850F82300FDF711FE30B91B4B0022D9
:1044A0001146022011F0CEFC3AE0194B00221146D1
:1044B000022011F0C7FC33E02CC5010844C50108F7
:1044C00054C5010864C5010878BC010888BC01080E
:1044D00074C50108BCBC0108E0BC010808BD0108A6
:1044E00034BD010814BC010860BD010878C401088E
:1044F000180D00200CBC01087CC4010840BB010859
:1045000074C9010800000020DCBB0108E8BB0108F9
:10451000F4BB0108484B00221146022011F092FC26
:104520009DF8690001389DF8493407939DF8483497
:104530000693DDF844340593DDF840340493DDF848
:104540003C340393DDF838340293BDF836340193DC
:104550009DF82A3400939DF829349DF828240DF500
:104560008161C0B2FDF776FA9DF869000138C0B2EA
:10457000FDF730FAFEF7BCBE304B00221146022098
:1045800011F060FCFEF7B4BE20AA2D492D4813F0AF
:1045900011FA9DF880000138C0B2FDF71BFAFEF752
:1045A000A7BE20AA2649284813F004FA9DF88000E7
:1045B0000138C0B2FDF772F99DF880000138C0B231
:1045C000FDF708FAFEF794BE2046FDF767F90134BF
:1045D000E4B20F2CF8D9FEF78BBE0024F9E71B4B91
:1045E00000221146022011F02DFCFEF781BE124B75
:1045F00000221146022011F025FCFEF779BE0F4B78
:1046000000221146022011F01DFCFEF771BE104B76
:1046100000221146022011F015FCFEF769BE0D4C78
:104620002046FDF7B3FA34F8021B012221440A4860
:1046300007F0BEFCFEF73FBD00BC01088CBD0108C1
:10464000C4C00108290D00202A0D0020F4BB010878
:1046500004C60108180F0020C80B002008B5FEF79B
:104660007FF802F013FD08BD08B54FF0FF3011F0E0
:1046700047FD08BD70470000014BD870704700BF70
:10468000AC000020014B1874704700BFAC00002044
:1046900000283FD02DE9F0418CB003464278022A31
:1046A0000AD0032A2FD01C4B00221146022011F001
:1046B000C9FB0CB0BDE8F081027CB0F9121090F992
:1046C00014009C7DDD7D1E7E5F7E93F81AC093F8FA
:1046D0001BE093F81C80CDF82C80CDF828E0CDF8B5
:1046E00024C008970796069505945C680494DB68D7
:1046F0000393029001910092084B00221146022080
:1047000011F0A0FBD5E7064B00221146022011F064
:1047100099FBCEE7704700BF30C6010848C60108C4
:10472000BCC6010800B583B0054B1B5C0093054B6C
:1047300000221146022011F085FB03B05DF804FB56
:10474000F8C60108DCC6010808B5012806D0074BE9
:1047500000221146022011F075FB08BD044B002217
:104760001146022011F06EFBF7E700BF10C70108E9
:10477000FCC6010808B50A460149FDF7BBFC08BDA7
:1047800000F0030838B504460D464FF400610548B3
:10479000FDF7CCFC00B138BD2A4621460148FDF7A3
:1047A0008DFCF8E700F0030808B500224FF4004143
:1047B000014804F083F908BD0004004808B5002250
:1047C0004FF40071014804F079F908BD0004004875
:1047D000002845D010B584B0044603780BB904B066
:1047E00010BD01224FF400711E4804F067F91E4805
:1047F00011F0D4FE1D4B00221146022011F022FBC5
:10480000237C94F90A2094F91810039102920193E1
:10481000E3680093164B00221146032011F012FBAF
:10482000144B01221A70144B00221146032011F080
:1048300009FB237A012B0CD1637A43B10F4B009310
:104840000F4B00221146032011F0FCFAC7E70D4B75
:10485000F5E70D4B00221146032011F0F3FABEE7F5
:10486000704700BF00040048E40F002030C7010873
:1048700064C701083410002098C7010824C7010844
:10488000A8C7010828C70108BCC7010808B500214E
:10489000022011F001FC024811F080FE08BD00BFAB
:1048A000FC0F002008B50021012011F0F5FB08BD28
:1048B00010B50E4B1B78022B13D00D4C00224FF479
:1048C0000041204604F0FAF800224FF4007120461F
:1048D00004F0F4F800224FF40061204604F0EEF8F2
:1048E00010BD0021082011F0D7FBE6E7540000209E
:1048F0000004004808B508F05FF900B108BD07F0F2
:1049000019FE0128FAD1BFF34F8F0549CA6802F496
:10491000E062044B1343CB60BFF34F8F00BFFDE752
:1049200000ED00E00400FA0510B5094B186010B95D
:1049300042F210721A60074C204611F0D5FD044B6C
:104940001968204611F070FE204611F027FE10BDB8
:10495000C4000020FC0F0020002900F036852DE95E
:10496000F043C5B0044600270E4601224FF4004133
:10497000AB4804F0A3F8AB4811F010FE3578002DD9
:1049800000F00685002C00F0028525786368002B76
:1049900000F0FE84372D62D025D8032D44D0192D88
:1049A00040F0F6846278012A40F2F2841B78032BEF
:1049B00000F0958363681B78012B00F0FE83636829
:1049C0001B78022B40F0E484974B00221146022012
:1049D00011F038FA954B00221146022011F032FAFC
:1049E000002700F08BBC452D40F0D2846278002A6D
:1049F00000F0CE841B78012B00F0A28263681A7845
:104A0000022A40F0C5845B78002B00F03283636893
:104A10005B78012B00F04883834B00221146022073
:104A200011F010FA00F0B4BC6278012A40F0B084B2
:104A30001B78012B09D0022B0CD0002B40F0A8844E
:104A4000002007F049FE00F0A3BC012007F044FE5F
:104A500000F09EBC022007F03FFE00F099BC1B78DE
:104A6000012B24D063681B78022B76D063681B78F7
:104A7000032B00F0C88063681B78042B00F044818E
:104A800063681B78072B00F0B28163681B78042BE6
:104A900000F0118263681A78AA2A40F079845B7862
:104AA000012B40F0758403F0D3FA00F071BC0820AC
:104AB00011F07CFF8046002848D00023036043604B
:104AC00006E062681A44527808F803200133DBB22A
:104AD000072BF6D9564B00221146022011F0B2F9ED
:104AE000F822544906A8FDF705FBD0B90822414633
:104AF00006A80FF0CAFA404611F060FF4FF40061BB
:104B00004C48FDF713FBD0B9F82206A94948FDF738
:104B1000D5FA68B9484B00221146022011F092F9EB
:104B2000A0E7464B00221146022011F08BF9E5E781
:104B3000434B00221146022011F084F992E7414BC9
:104B400000221146022011F07DF98BE73E4B002236
:104B50001146022011F076F984E7082011F026FFB3
:104B60008046002848D000230360436006E0626866
:104B70001A44527808F803200133DBB2072BF6D928
:104B80002B4B00221146022011F05CF9F822294932
:104B900006A8FDF7AFFAD0B90822414608A80FF0E1
:104BA00074FA404611F00AFF4FF400612148FDF706
:104BB000BDFAD0B9F82206A91E48FDF77FFA68B9F8
:104BC0001D4B00221146022011F03CF94EE71B4B11
:104BD00000221146022011F035F9E5E7184B0022BA
:104BE0001146022011F02EF940E7164B0022114623
:104BF000022011F027F939E7134B00221146022059
:104C000011F020F932E7102011F0D0FE8046002884
:104C100073D00023036043608360C3601DE000BF66
:104C200000040048B00F0020E8C701081CC80108B4
:104C3000D0BE010800F0030874C101088CBD010852
:104C400098C10108B8C10108CCC7010862681A44BC
:104C5000527808F803200133DBB20F2BF6D9A84BAA
:104C600000221146022011F0EDF8F822A54906A80D
:104C7000FDF740FA60BB102241460DF131000FF004
:104C800004FA102241460DF142000FF0FEF9102205
:104C900041460DF153000FF0F8F91022414619A8D2
:104CA0000FF0F3F9404611F089FE4FF4006195488A
:104CB000FDF73CFAD0B9F82206A99248FDF7FEF9B3
:104CC00068B9914B00221146022011F0BBF8D2E6E0
:104CD0008E4B00221146022011F0B4F8E5E78C4B10
:104CE00000221146022011F0ADF8C4E6894B0022E3
:104CF0001146022011F0A6F8BDE6874B00221146AE
:104D0000022011F09FF8B6E6844B002211460220E3
:104D100011F098F8824B00221146022011F092F80F
:104D20004FF00008627842450CDD636813F80830E4
:104D300000937C4B00221146022011F083F808F109
:104D40000108EFE701234FF000089A4205DD616892
:104D5000C95C41EA08280133F7E7F822694906A847
:104D6000FDF7C8F970BB4FEAD8624FEA4813B3EBBE
:104D7000080362F10002920042EA93729B0013EB77
:104D8000080342F10002D20042EA5372DB003C9376
:104D90003D924FF47A7303FB08F3634A13604FF4B8
:104DA00000615848FDF7C2F9D0B9F82206A9554864
:104DB000FDF784F968B9544B00221146022011F026
:104DC00041F85DE6514B00221146022011F03AF8FD
:104DD000E5E74F4B00221146022011F033F84FE671
:104DE0004C4B00221146022011F02CF848E64B4BA8
:104DF00000221146022011F025F8494B00221146ED
:104E0000022011F01FF84FF00008617841450CDDD9
:104E1000636813F808300093424B002211460220C9
:104E200011F010F808F10108EFE70123994206DDBF
:104E30006268D25C42EA072297B20133F6E7009734
:104E40003A4B00221146022010F0FCFFF8222D49B7
:104E500006A8FDF74FF9C8B9ADF80071344B1F60D3
:104E6000344B00221A804FF400612648FDF75EF9AA
:104E7000D0B9F82206A92348FDF720F968B9224BDA
:104E800000221146022010F0DDFFFEE51F4B00223C
:104E90001146022010F0D6FFE5E71D4B0022114617
:104EA000022010F0CFFFF0E51A4B0022114602203D
:104EB00010F0C8FFE9E5194B00221146022010F05E
:104EC000C1FF174B00221146022010F0BBFF002744
:104ED0006378BB420ADD6368DB5D0093114B0022FF
:104EE0001146022010F0AEFF0137F1E7124B00220D
:104EF0001146022010F0A6FF104B01221A70C9E5DE
:104F0000D0BE010800F0030874C101088CBD01087F
:104F100098C10108B8C10108CCC70108E8C7010859
:104F20001CC8010840BB01084C00002040C8010813
:104F300040000020E009002078C801084810002047
:104F4000AD4F3B4600221146022010F07BFFAB4BD9
:104F500000221146022010F075FF3B460022114648
:104F6000022010F06FFFA64B00221146022010F025
:104F700069FFF822A34906A8FDF7BCF8002857D11D
:104F80000F23ADF80231A04BA04A1A606420FDF750
:104F9000A7FC0027ADF804719D4B00221A60642025
:104FA000FDF79EFC9B4A0023CDE93C23DFF8689285
:104FB000984BC9F800306420FDF792FC0423ADF84B
:104FC0000031964A1360964B1F806420FDF788FCE1
:104FD0000523ADF80831DFF84C82C8F80030142002
:104FE00011F0E4FC904B1860D9F80030D8F800209C
:104FF00093FBF2F38D4A13606420FDF771FC8C4B38
:105000003A463946022010F01DFF4FF400617D48FA
:10501000FDF78CF8D0B9F82206A97A48FDF74EF8CA
:1050200068B9844B00221146022010F00BFF13E0F8
:10503000814B00221146022010F004FFE5E77F4B70
:1050400000221146022010F0FDFE05E07C4B0022FC
:105050001146022010F0F6FE4FF4FA70FDF740FC06
:1050600002F0F6FF644B00221146022010F0EAFE27
:10507000C4E4614F3B4600221146022010F0E2FEDC
:10508000704B00221146022010F0DCFE3B4600224D
:105090001146022010F0D6FE6B4B00221A704FF41E
:1050A000FA70FDF71DFCB2E4534C23460022114672
:1050B000022010F0C7FE654B00221146022010F0BE
:1050C000C1FE234600221146022010F0BBFE5E4BBB
:1050D00001221A704FF4FA70FDF702FC9CE4464B73
:1050E00000221146022010F0ADFE594B002211465D
:1050F000022010F0A7FE002709E06368DB5D009343
:10510000544B00221146022010F09CFE01376278B9
:10511000BA42F2DC0123002704E06168C95C41EA7D
:10512000072701339A42F8DC00974B4B00221146C7
:10513000022010F087FEF822324906A8FCF7DAFFB9
:1051400028BBADF80871DFF8DC80C8F80070B80043
:1051500011F02CFC344B18602F4B1B68D8F8002042
:1051600093FBF2F3314A13604FF400612548FCF7DA
:10517000DDFFD0B9F82206A92248FCF79FFF68B9E5
:105180002C4B00221146022010F05CFE12E42A4B48
:1051900000221146022010F055FEE5E7274B0022C1
:1051A0001146022010F04EFE04E4254B0022114669
:1051B000022010F047FEFFF7FDBB0F4B0022114607
:1051C000022010F03FFE224B00221146022010F078
:1051D00039FE002709E06368DB5D00931D4B002268
:1051E0001146022010F02EFE01376278BA42F2DC3E
:1051F0000123002737E000BFE8C70108B0C8010855
:10520000E0C8010800F003085000002000007041D1
:10521000100B0020A0BB0D004C000020400000201F
:10522000E009002044000020601000204800002019
:1052300014C9010874C101088CBD010898C1010896
:10524000B8C1010840C901082810002078C9010828
:105250001CC8010840BB0108B0C901086168C95CED
:1052600041EA072701339A42F8DC0097574B0022A6
:105270001146022010F0E6FDF822554906A8FCF779
:1052800039FFD0B9ADF802713846FBF78FFD514BAD
:1052900018604FF400614E48FCF748FFE0B9F8226F
:1052A00006A94B48FCF70AFF70B94B4B0022114688
:1052B000022010F0C7FDFFF782BB484B00221146C9
:1052C000022010F0BFFDE4E7454B0022114602200A
:1052D00010F0B8FDFFF773BB424B002211460220CD
:1052E00010F0B0FDFFF76BBB6368DB5D00933E4BD6
:1052F00000221146022010F0A5FD01376278BA4263
:10530000F2DC0123002704E06168C95C41EA072759
:1053100001339A42F8DC0097344B002211460220F8
:1053200010F090FDF8222A4906A8FCF7E3FEC8B960
:10533000ADF804713846FBF739FD2D4B18604FF47A
:1053400000612348FCF7F2FED0B9F82206A92048F4
:10535000FCF7B4FE68B9204B00221146022010F081
:1053600071FD15E01D4B00221146022010F06AFD70
:10537000E5E71B4B00221146022010F063FD07E019
:10538000184B00221146022010F05CFD00E00025C1
:10539000337C052B02D945B0BDE8F08396F908208F
:1053A00096F9091096F90A0005900491114951F8EF
:1053B0002330039302920195F36800930E4B002271
:1053C0001146032010F03EFDE5E77047D0C9010803
:1053D00000F003085000002074C101088CBD0108D2
:1053E00098C10108B8C1010840BB0108FCC9010807
:1053F000100B0020F4D7010824CA010838B51E4C50
:1054000001224FF40041204603F058FB01224FF4E3
:105410000071204603F052FB01224FF40061204648
:1054200003F04CFB154811F05FF807F0BDFB48B1E5
:10543000134B00221146022010F004FD114811F018
:10544000ADF838BD104B00221146022010F0FAFCD6
:105450000E4C012525700E4B00221146022010F043
:10546000F1FC0C4807F018FA2946207806F0D0FF26
:10547000024811F093F8E1E700040048FC0F002017
:105480006CCA0108CC0F00208CCA0108540000200F
:10549000A0CA0108AC00002008B507F017FC10F105
:1054A000080F03D0B0F1FF3F07D008BD064B002224
:1054B0001146022010F0C6FCF7E7044B002211460B
:1054C000022010F0BFFCF0E7C0CA0108D8CA0108EA
:1054D00008B54FF40061024803F0F5FA08BD00BFBB
:1054E0000004004870B586B00390354B0022114689
:1054F000022010F0A7FC0020FCF7DAFDA0B9314C27
:10550000314B9C423AD20822214604A8FCF7F2FD16
:10551000054690B9049A059BB3F1FF3F08BFB2F16D
:10552000FF3F14D00834EBE7284B0022114602203D
:1055300010F088FC4FF0FF3506E00094244B002269
:105540001146022010F07EFC284606B070BD0822ED
:1055500003A92046FCF7B2FD054638B900941D4B5F
:1055600000221146022010F06DFCEDE700941A4B6A
:1055700000221146022010F065FCE5E7174B0022DF
:105580001146022010F05EFC4FF400610D48FCF75C
:10559000CDFD054660B90398FFF7A4FF0546002836
:1055A000D2D00F4B00221146022010F04BFCCBE76B
:1055B0000C4B00221146022010F044FCC4E700BF4F
:1055C000F0CA010800B0030800B8030810CB0108B6
:1055D00038CB010880CB01085CCB0108ACCB0108BB
:1055E000E4CB0108C4CB010800284ED030B583B00D
:1055F000044690F906305BBB244810F075FF00228A
:105600004FF40061224803F059FA224B0022114660
:10561000022010F017FC204D2B6800931F4B002236
:105620001146022010F00EFC2868FFF75BFFE379BB
:10563000012B06D01A4B00221146022010F002FC6A
:1056400015E0184B00221146022010F0FBFB0EE083
:10565000154B00221146022010F0F4FB0E4B1B6884
:105660000093124B00221146022010F0EBFB94F93C
:10567000043094F90520019200930D4B002211464D
:10568000032010F0DFFB03B030BD7047000F002097
:105690000004004820CC01083010002038CC01085C
:1056A0007CCC01085CCC01089CCC0108B8CC01087A
:1056B000CCCC010808B5C278007940EA0220FBF79B
:1056C00071FB0249FBF77AFC08BD00BF00007A4479
:1056D0002DE9F047054689464FF0000812E00134F5
:1056E0004C450EDA55F8286055F824703946304696
:1056F000FBF76CFD0028F2D045F8287045F82460CF
:10570000EDE7D04609F1FF33434503DD08F1010A17
:105710005446E5E7BDE8F08711F0010F12D108B556
:1057200001EBD1714A106FF0404303EB610350F875
:10573000221050F82300FBF785FA4FF07C51FBF75D
:1057400089FB08BD01EBD171491050F82100704769
:1057500030B5BFB0454C234600221146022010F060
:1057600071FB434B00221146022010F06BFB2346D5
:1057700000221146022010F065FB3E4B002211462C
:10578000022010F05FFBF8223B496846FCF7B2FCB0
:10579000002848D10F23ADF8EA30384B384A1A6058
:1057A0003220FDF79DF80024ADF8EC40354B002287
:1057B0001A603220FDF794F8334A0023CDE93623EE
:1057C000324D314B2B603220FDF78AF80423ADF8BF
:1057D000E8302F4A13602F4B1C803220FDF780F8F1
:1057E0000523ADF8F0302C4C2360142011F0DEF8C6
:1057F0002A4B18602B68226893FBF2F3284A136047
:105800004FF400611C48FCF791FCD0B9F8226946BE
:105810001948FCF753FC68B9224B002211460220BC
:1058200010F010FB13E0204B00221146022010F074
:1058300009FBE5E71D4B00221146022010F002FB98
:1058400005E01B4B00221146022010F0FBFA4FF43A
:10585000FA70FDF745F802F0FBFB044B00221146FD
:10586000022010F0EFFA3FB030BD00BFE8C70108DA
:10587000B0C80108E0C8010800F00308500000208B
:1058800000007041100B0020A0BB0D004C00002058
:1058900040000020E00900204400002060100020AB
:1058A0004800002074C101088CBD010898C101089E
:1058B000B8C101082DE9F0419EB002AF012240219C
:1058C0004FF0904003F0FAF8012280214FF0904011
:1058D00003F0F4F840F2DC50FDF702F86D4A3B1D8E
:1058E00092E8030083E803006B4B1B689B000733BF
:1058F00023F00703ADEB030D0DF1080800253CE094
:10590000664B23449B780093654B0022114602208E
:1059100010F098FA3220FCF7E3FF01345F4B1B884C
:10592000A342EDDC5F48FFF7C5FE5F4C206048F8FE
:1059300025003220FCF7D4FF2068FAF7DDFD02468F
:105940000B465A4907F10C0012F014F807F10C004D
:10595000FAF766FC4FF47A7382B207F10C015448EF
:1059600006F0B7F9534B00221146022010F06AFAF4
:105970004FF47A70FCF7B4FF3546092D17DC6E1C26
:1059800000964D4B00221146022010F05BFA434A6C
:105990000821381DFCF7C0F8FA20FCF7A1FF474B9F
:1059A00000221146022010F04DFA0024B6E70A2129
:1059B0004046FFF78DFE0A214046FFF7ADFE044644
:1059C0003F4B18603F4B186000213F4B1868FBF7B6
:1059D000D5FB48B100213D4B1868FBF7CFFB18B150
:1059E0003A4B1C60384B1C60374B19682046FBF75C
:1059F000CFFB002843D0344B1C602046FAF77CFDD7
:105A000002460B46324907F10C0011F0B3FF07F1D3
:105A10000C00FAF705FC4FF47A7382B207F10C011F
:105A2000234806F056F92B4C2B4B19682268244862
:105A3000006842F821001A6801321A60274B284A90
:105A40001A604FF461730093264B00221146022026
:105A500010F0F8F9244B05221A60142010F0A6FF6C
:105A600020600021214B1960214B1970214B0A46FF
:105A7000022010F0E7F97037BD46BDE8F081134B06
:105A800019682046FBF7A2FB0028B6D00F4B1C601C
:105A9000B3E700BF70BA0108CC000020180F002047
:105AA00040BB01081A0F0020401000204CCD010817
:105AB0005C0C00204CBC010838CD010808CD010861
:105AC00050100020541000205C10002058100020BE
:105AD00064CD010860100020441000204C0000201C
