:020000040800F2
:1000000000800020C96D00080326000805260008AE
:1000100007260008092600080B260008000000003B
:100020000000000000000000000000000D26000895
:100030000F26000800000000112600081326000803
:10004000196E0008196E000815260008196E0008C0
:10005000196E0008196E0008252600082F260008D2
:10006000196E0008196E0008196E0008196E000854
:10007000196E0008196E0008196E0008392600086C
:10008000196E0008196E0008196E0008196E000834
:10009000196E0008196E000849260008196E00083C
:1000A000196E0008196E0008196E0008196E000814
:1000B000196E0008196E0008196E0008196E000804
:1000C000196E0008196E0008196E0008196E0008F4
:1000D0005526000865260008196E0008196E0008EC
:1000E000196E0008196E000875260008196E0008C0
:1000F000196E0008196E0008196E0008196E0008C4
:10010000196E0008196E000885260008196E00088F
:10011000196E0008196E0008196E0008196E0008A3
:10012000196E0008196E0008196E0008196E000893
:08013000196E0008196E0008A9
:1001400010B5054C237833B9044B13B10448AFF311
:1001500000800123237010BD300300200000000048
:1001600018B4010808B5034B1BB103490348AFF3AA
:10017000008008BD000000003403002018B401080E
:1001800001F0FF01102A2BDB10F0070F08D010F848
:10019000013B013A8B422DD010F0070F42B3F6D14C
:1001A000F0B441EA012141EA014122F007047FF065
:1001B00000070023F0E80256083C85EA010586EABC
:1001C000010685FA47F5A3FA87F586FA47F6A5FAF8
:1001D00087F68EB9EED1F0BC01F0FF0102F0070204
:1001E00032B110F8013B013A83EA010313B1F8D1AF
:1001F0000020704701387047002D06BF3546033890
:10020000073815F0010F07D1013015F4807F02BFC8
:10021000013015F4C03F0130F0BC0138704700BF19
:10022000034613F8012B002AFBD1181A0138704736
:1002300081F0004102E000BF83F0004330B54FEA97
:1002400041044FEA430594EA050F08BF90EA020F04
:100250001FBF54EA000C55EA020C7FEA645C7FEA97
:10026000655C00F0E2804FEA5454D4EB5555B8BFBA
:100270006D420CDD2C4480EA020281EA030382EA2B
:10028000000083EA010180EA020281EA0303362DBD
:1002900088BF30BD11F0004F4FEA01314FF4801C90
:1002A0004CEA113102D0404261EB410113F0004FA2
:1002B0004FEA03334CEA133302D0524263EB430359
:1002C00094EA050F00F0A780A4F10104D5F1200EF7
:1002D0000DDB02FA0EFC22FA05F2801841F1000152
:1002E00003FA0EF2801843FA05F359410EE0A5F126
:1002F00020050EF1200E012A03FA0EFC28BF4CF057
:10030000020C43FA05F3C01851EBE37101F000450C
:1003100007D54FF0000EDCF1000C7EEB00006EEB19
:100320000101B1F5801F1BD3B1F5001F0CD34908A3
:100330005FEA30004FEA3C0C04F101044FEA4452FA
:1003400012F5800F80F09A80BCF1004F08BF5FEA81
:10035000500C50F1000041EB045141EA050130BD61
:100360005FEA4C0C404141EB0101013C28BFB1F573
:10037000801FE9D291F0000F04BF01460020B1FABE
:1003800081F308BF2033A3F10B03B3F120020CDA91
:100390000C3208DD02F1140CC2F10C0201FA0CF06F
:1003A00021FA02F10CE002F11402D8BFC2F1200CD4
:1003B00001FA02F120FA0CFCDCBF41EA0C0190408A
:1003C000E41AA2BF01EB0451294330BD6FEA0404D3
:1003D0001F3C1CDA0C340EDC04F11404C4F12002BE
:1003E00020FA04F001FA02F340EA030021FA04F3D0
:1003F00045EA030130BDC4F10C04C4F1200220FA27
:1004000002F001FA04F340EA0300294630BD21FA64
:1004100004F0294630BD94F0000F83F4801306BF2A
:1004200081F480110134013D4EE77FEA645C18BF1E
:100430007FEA655C29D094EA050F08BF90EA020FB5
:1004400005D054EA000C04BF1946104630BD91EAAD
:10045000030F1EBF0021002030BD5FEA545C05D1B0
:100460004000494128BF41F0004130BD14F58004EF
:100470003CBF01F5801130BD01F0004545F0FE4163
:1004800041F470014FF0000030BD7FEA645C1ABF98
:10049000194610467FEA655C1CBF0B46024650EACF
:1004A000013406BF52EA033591EA030F41F40021FB
:1004B00030BD00BF90F0000F04BF0021704730B581
:1004C0004FF4806404F132044FF000054FF0000156
:1004D00050E700BF90F0000F04BF0021704730B517
:1004E0004FF4806404F1320410F0004548BF4042EC
:1004F0004FF000013EE700BF42004FEAE2014FEA41
:1005000031014FEA02701FBF12F07F4393F07F4F1B
:1005100081F06051704732F07F4208BF704793F01E
:100520007F4F04BF41F40021704730B54FF4607431
:1005300001F0004521F000411CE700BF50EA010234
:1005400008BF704730B54FF000050AE050EA0102DD
:1005500008BF704730B511F0004502D5404261EB4D
:1005600041014FF4806404F132045FEA915C3FF48E
:10057000D8AE4FF003025FEADC0C18BF03325FEA2B
:10058000DC0C18BF033202EBDC02C2F1200300FADC
:1005900003FC20FA02F001FA03FE40EA0E0021FA01
:1005A00002F11444BDE600BF70B54FF0FF0C4CF4EF
:1005B000E06C1CEA11541DBF1CEA135594EA0C0FA1
:1005C00095EA0C0F00F0DEF82C4481EA030621EADC
:1005D0004C5123EA4C5350EA013518BF52EA033517
:1005E00041F4801143F4801338D0A0FB02CE4FF0C9
:1005F0000005E1FB02E506F00042E0FB03E54FF0F9
:100600000006E1FB03569CF0000F18BF4EF0010EF0
:10061000A4F1FF04B6F5007F64F5407404D25FEAEC
:100620004E0E6D4146EB060642EAC62141EA55519F
:100630004FEAC52040EA5E504FEACE2EB4F1FD0CE1
:1006400088BFBCF5E06F1ED8BEF1004F08BF5FEA5F
:10065000500E50F1000041EB045170BD06F0004611
:1006600046EA010140EA020081EA0301B4EB5C04BE
:10067000C2BFD4EB0C0541EA045170BD41F48011B6
:100680004FF0000E013C00F3AB8014F1360FDEBFDB
:10069000002001F0004170BDC4F10004203C35DAB7
:1006A0000C341BDC04F11404C4F1200500FA05F33A
:1006B00020FA04F001FA05F240EA020001F00042DB
:1006C00021F0004110EBD37021FA04F642EB060151
:1006D0005EEA430E08BF20EAD37070BDC4F10C047B
:1006E000C4F1200500FA04F320FA05F001FA04F23F
:1006F00040EA020001F0004110EBD37041F100012B
:100700005EEA430E08BF20EAD37070BDC4F1200535
:1007100000FA05F24EEA020E20FA04F301FA05F29D
:1007200043EA020321FA04F001F0004121FA04F245
:1007300020EA020000EBD3705EEA430E08BF20EA15
:10074000D37070BD94F0000F0FD101F0004640004F
:1007500041EB010111F4801F08BF013CF7D041EAD1
:10076000060195F0000F18BF704703F000465200D5
:1007700043EB030313F4801F08BF013DF7D043EAA6
:100780000603704794EA0C0F0CEA135518BF95EA5C
:100790000C0F0CD050EA410618BF52EA4306D1D1E3
:1007A00081EA030101F000414FF0000070BD50EA02
:1007B000410606BF1046194652EA430619D094EA8C
:1007C0000C0F02D150EA013613D195EA0C0F05D176
:1007D00052EA03361CBF104619460AD181EA0301CA
:1007E00001F0004141F0FE4141F470014FF0000082
:1007F00070BD41F0FE4141F4780170BD70B54FF01D
:10080000FF0C4CF4E06C1CEA11541DBF1CEA13559C
:1008100094EA0C0F95EA0C0F00F0A7F8A4EB05047E
:1008200081EA030E52EA03354FEA013100F0888075
:100830004FEA03334FF0805545EA131343EA12633E
:100840004FEA022245EA111545EA10654FEA0026F3
:100850000EF000419D4208BF964244F1FD0404F5AC
:10086000407402D25B084FEA3202B61A65EB030508
:100870005B084FEA32024FF480104FF4002CB6EBC5
:10088000020E75EB030E22BFB61A754640EA0C0045
:100890005B084FEA3202B6EB020E75EB030E22BF85
:1008A000B61A754640EA5C005B084FEA3202B6EBC6
:1008B000020E75EB030E22BFB61A754640EA9C0085
:1008C0005B084FEA3202B6EB020E75EB030E22BF55
:1008D000B61A754640EADC0055EA060E18D04FEA13
:1008E000051545EA16754FEA06164FEAC30343EAB3
:1008F00052734FEAC2025FEA1C1CC0D111F4801F80
:100900000BD141EA00014FF000004FF0004CB6E778
:1009100011F4801F04BF01430020B4F1FD0C88BF17
:10092000BCF5E06F3FF6AFAEB5EB030C04BFB6EB22
:10093000020C5FEA500C50F1000041EB045170BD15
:100940000EF0004E4EEA113114EB5C04C2BFD4EB42
:100950000C0541EA045170BD41F480114FF0000EC6
:10096000013C90E645EA060E8DE60CEA135594EA42
:100970000C0F08BF95EA0C0F3FF43BAF94EA0C0F45
:100980000AD150EA01347FF434AF95EA0C0F7FF4BA
:1009900025AF104619462CE795EA0C0F06D152EA0E
:1009A00003353FF4FDAE1046194622E750EA4106F2
:1009B00018BF52EA43067FF4C5AE50EA41047FF403
:1009C0000DAF52EA43057FF4EBAE12E74FF0FF3C68
:1009D00006E000BF4FF0010C02E000BF4FF0010C39
:1009E0004DF804CD4FEA410C7FEA6C5C4FEA430CB2
:1009F00018BF7FEA6C5C1BD001B050EA410C0CBF01
:100A000052EA430C91EA030F02BF90EA020F002062
:100A1000704710F1000F91EA030F58BF994208BFC9
:100A200090422CBFD8176FEAE37040F00100704786
:100A30004FEA410C7FEA6C5C02D150EA013C07D1DD
:100A40004FEA430C7FEA6C5CD6D152EA033CD3D028
:100A50005DF8040B704700BF8446104662468C4622
:100A60001946634600E000BF01B5FFF7B7FF002855
:100A700048BF10F1000F01BD4DF808EDFFF7F4FF7E
:100A80000CBF012000205DF808FB00BF4DF808ED09
:100A9000FFF7EAFF34BF012000205DF808FB00BF2C
:100AA0004DF808EDFFF7E0FF94BF012000205DF84E
:100AB00008FB00BF4DF808EDFFF7CEFF94BF012003
:100AC00000205DF808FB00BF4DF808EDFFF7C4FFFC
:100AD00034BF012000205DF808FB00BF4FEA410C45
:100AE0007FEA6C5C02D150EA013C0AD14FEA430C28
:100AF0007FEA6C5C02D152EA033C02D14FF0000065
:100B000070474FF0010070474FEA410212F50012A2
:100B100015D211D56FF47873B3EB625212D94FEA44
:100B2000C12343F0004343EA505311F0004F23FA2E
:100B300002F018BF404270474FF00000704750EA83
:100B4000013005D111F0004008BF6FF00040704740
:100B50004FF00000704700BF4A0011D212F500129A
:100B600011D20DD56FF47873B3EB62520ED44FEA05
:100B7000C12343F0004343EA505323FA02F0704785
:100B80004FF00000704750EA013002D14FF0FF30C3
:100B900070474FF0000070474FEA4102B2F1E04366
:100BA00024BFB3F5001CDCF1FE5C0DD901F0004C54
:100BB0004FEAC0024CEA5070B2F1004F40EB8300A4
:100BC00008BF20F00100704711F0804F21D113F1D0
:100BD0003872BCBF01F00040704741F480114FEA09
:100BE0005252C2F11802C2F1200C10FA0CF320FA92
:100BF00002F018BF40F001004FEAC1234FEAD323AF
:100C000003FA0CFC40EA0C0023FA02F34FEA430318
:100C1000CCE77FEA625307D150EA01331EBF4FF0A1
:100C2000FE4040F44000704701F0004040F0FE40BC
:100C300040F40000704700BF80F0004002E000BFB9
:100C400081F0004142001FBF5FEA410392EA030FB7
:100C50007FEA226C7FEA236C6AD04FEA1262D2EB01
:100C60001363C1BFD218414048404140B8BF5B4206
:100C7000192B88BF704710F0004F40F4000020F09F
:100C80007F4018BF404211F0004F41F4000121F0B5
:100C90007F4118BF494292EA030F3FD0A2F10102FF
:100CA00041FA03FC10EB0C00C3F1200301FA03F13D
:100CB00000F0004302D5494260EB4000B0F5000F60
:100CC00013D3B0F1807F06D340084FEA310102F11F
:100CD0000102FE2A51D2B1F1004F40EBC25008BFD1
:100CE00020F0010040EA03007047490040EB00009B
:100CF000013A28BFB0F5000FEDD2B0FA80FCACF19C
:100D0000080CB2EB0C0200FA0CF0AABF00EBC250C8
:100D100052421843BCBFD0401843704792F0000FB6
:100D200081F4000106BF80F400000132013BB5E709
:100D30004FEA41037FEA226C18BF7FEA236C21D07F
:100D400092EA030F04D092F0000F08BF08467047E4
:100D500090EA010F1CBF0020704712F07F4F04D1B2
:100D6000400028BF40F00040704712F100723CBFC5
:100D700000F50000704700F0004343F0FE4040F4EF
:100D8000000070477FEA226216BF08467FEA2363AD
:100D90000146420206BF5FEA412390EA010F40F498
:100DA000800070474FF0000304E000BF10F00043E4
:100DB00048BF40425FEA000C08BF704743F09643CB
:100DC00001464FF000001CE050EA010208BF7047E6
:100DD0004FF000030AE000BF50EA010208BF70476D
:100DE00011F0004302D5404261EB41015FEA010C82
:100DF00002BF84460146002043F0B64308BFA3F17A
:100E00008053A3F50003BCFA8CF2083AA3EBC2535B
:100E100010DB01FA02FC634400FA02FCC2F120027A
:100E2000BCF1004F20FA02F243EB020008BF20F0B1
:100E30000100704702F1200201FA02FCC2F1200217
:100E400050EA4C0021FA02F243EB020008BF20EA0C
:100E5000DC7070474FF0FF0C1CEAD0521EBF1CEA3A
:100E6000D15392EA0C0F93EA0C0F6FD01A4480EA28
:100E7000010C400218BF5FEA41211ED04FF0006311
:100E800043EA501043EA5111A0FB01310CF000403D
:100E9000B1F5000F3EBF490041EAD3715B0040EA63
:100EA000010062F17F02FD2A1DD8B3F1004F40EB33
:100EB000C25008BF20F00100704790F0000F0CF006
:100EC000004C08BF49024CEA502040EA51207F3ACA
:100ED000C2BFD2F1FF0340EAC250704740F40000A5
:100EE0004FF00003013A5DDC12F1190FDCBF00F096
:100EF00000407047C2F10002410021FA02F1C2F144
:100F0000200200FA02FC5FEA310040F1000053EADF
:100F10004C0308BF20EADC70704792F0000F00F02D
:100F2000004C02BF400010F4000F013AF9D040EA33
:100F30000C0093F0000F01F0004C02BF490011F4C7
:100F4000000F013BF9D041EA0C018FE70CEAD153C5
:100F500092EA0C0F18BF93EA0C0F0AD030F0004C45
:100F600018BF31F0004CD8D180EA010000F00040F9
:100F7000704790F0000F17BF90F0004F084691F0B7
:100F8000000F91F0004F14D092EA0C0F01D14202F1
:100F90000FD193EA0C0F03D14B0218BF084608D1BA
:100FA00080EA010000F0004040F0FE4040F4000004
:100FB000704740F0FE4040F4400070474FF0FF0C97
:100FC0001CEAD0521EBF1CEAD15392EA0C0F93EADE
:100FD0000C0F69D0A2EB030280EA010C49024FEA30
:100FE000402037D04FF0805343EA111143EA1013E9
:100FF0000CF000408B4238BF5B0042F17D024FF4A1
:10100000000C8B4224BF5B1A40EA0C00B3EB510F7B
:1010100024BFA3EB510340EA5C00B3EB910F24BF64
:10102000A3EB910340EA9C00B3EBD10F24BFA3EBE9
:10103000D10340EADC001B0118BF5FEA1C1CE0D1B1
:10104000FD2A3FF650AF8B4240EBC25008BF20F064
:10105000010070470CF0004C4CEA50207F32C2BFB8
:10106000D2F1FF0340EAC250704740F400004FF055
:101070000003013A37E792F0000F00F0004C02BF86
:10108000400010F4000F013AF9D040EA0C0093F050
:10109000000F01F0004C02BF490011F4000F013BAA
:1010A000F9D041EA0C0195E70CEAD15392EA0C0F12
:1010B00008D142027FF47DAF93EA0C0F7FF470AF4A
:1010C000084676E793EA0C0F04D14B023FF44CAF8D
:1010D00008466EE730F0004C18BF31F0004CCAD122
:1010E00030F000427FF45CAF31F000437FF43CAF5E
:1010F0005FE700BF4FF0FF3C06E000BF4FF0010C80
:1011000002E000BF4FF0010C4DF804CD4FEA400261
:101110004FEA41037FEA226C18BF7FEA236C11D0AB
:1011200001B052EA530C18BF90EA010F58BFB2EB5E
:10113000030088BFC81738BF6FEAE17018BF40F0DE
:10114000010070477FEA226C02D15FEA402C05D192
:101150007FEA236CE4D15FEA412CE1D05DF8040B17
:10116000704700BF844608466146FFE70FB5FFF7AA
:10117000C9FF002848BF10F1000F0FBD4DF808ED62
:10118000FFF7F4FF0CBF012000205DF808FB00BF53
:101190004DF808EDFFF7EAFF34BF012000205DF8AD
:1011A00008FB00BF4DF808EDFFF7E0FF94BF0120FA
:1011B00000205DF808FB00BF4DF808EDFFF7D2FFF7
:1011C00094BF012000205DF808FB00BF4DF808ED3A
:1011D000FFF7C8FF34BF012000205DF808FB00BF07
:1011E0004FEA4002B2F1FE4F0FD34FF09E03B3EB34
:1011F00012620DD94FEA002343F0004310F0004F74
:1012000023FA02F018BF404270474FF000007047C9
:1012100012F1610F01D1420205D110F0004008BF68
:101220006FF0004070474FF00000704742000ED250
:10123000B2F1FE4F0BD34FF09E03B3EB126209D411
:101240004FEA002343F0004323FA02F070474FF0C7
:101250000000704712F1610F01D1420202D14FF03C
:10126000FF3070474FF00000704700BF53B94AB9D4
:10127000002908BF00281CBF4FF0FF314FF0FF309E
:1012800000F0A8B9ADF1080C6DE904CE00F03EF80D
:10129000DDF804E0DDE9022304B0704738B5054607
:1012A0000C462846214600220023FFF7EFFB28B911
:1012B00028462146BDE8384000F00AB8284604F127
:1012C000004100F005F8404261EB410138BD00BF2C
:1012D000D0B50C4B002206460F46FFF765F9FFF725
:1012E0003BFC0446FFF7E6F8074B0022FFF75CF9EA
:1012F00002460B4630463946FEF79EFFFFF72CFCB0
:101300002146D0BD0000F03D0000F0412DE9F0473E
:10131000089E0D4604460F46002B4AD18A42944649
:1013200065D9B2FA82F343B102FA03FCC3F1200299
:101330009F4020FA02F217439C404FEA1C4E1FFACE
:101340008CF5B7FBFEF1220C0EFB117742EA074247
:1013500001FB05F090420AD91CEB020201F1FF37B4
:1013600080F01B81904240F2188102396244121AC7
:10137000A4B2B2FBFEF00EFB102244EA024400FBD2
:1013800005F5A5420AD91CEB040400F1FF3280F0F8
:101390000681A54240F203816444023840EA0140DC
:1013A000641B00211EB1DC400023C6E90043BDE8F8
:1013B000F0878B4208D9002E00F0EC800021C6E9AE
:1013C00000050846BDE8F087B3FA83F1002949D14A
:1013D000AB4202D3824200F2F780841A65EB03022B
:1013E00001201746002EE2D0C6E90047DFE702B928
:1013F000FFDEB2FA82F3002B40F08F808A1A4FEAA8
:101400001C471FFA8CFE0121B2FBF7F507FB1520E4
:10141000220C42EA00420EFB05F0904208D91CEB78
:10142000020205F1FF3802D2904200F2CA8045461E
:10143000121AA4B2B2FBF7F007FB102244EA0244EE
:101440000EFB00FEA64508D91CEB040400F1FF3298
:1014500002D2A64500F2BA801046A4EB0E0440EA80
:1014600005409FE7C1F120078B4022FA07FC4CEAB8
:10147000030C05FA01F420FA07F3FD40234300FAB8
:1014800001F94FEA1C401FFA8CFEB5FBF0F81C0C6A
:1014900000FB185544EA054408FB0EF5A54202FA84
:1014A00001F20BD91CEB040408F1FF3A80F08780AD
:1014B000A54240F28480A8F102086444641B9DB2F6
:1014C000B4FBF0F300FB134445EA044403FB0EFEB7
:1014D000A64508D91CEB040403F1FF306BD2A645E6
:1014E00069D9023B644443EA0840A0FB0283A4EBB1
:1014F0000E049C42C6461D4655D352D056B1B9EB98
:101500000E0364EB050404FA07F7CB40CC401F43FD
:10151000C6E900740021BDE8F087C3F1200102FA9A
:1015200003FC20FA01F225FA01F19D402A434FEA1B
:101530001C471FFA8CFEB1FBF7F007FB1015110CCE
:1015400041EA054100FB0EF58D4204FA03F408D987
:101550001CEB010100F1FF382FD28D422DD902384A
:101560006144491B92B2B1FBF7F507FB151142EA42
:10157000014205FB0EF1914208D91CEB020205F174
:10158000FF3816D2914214D9023D6244521A45EAFC
:10159000004139E73146304609E73946E7E610466B
:1015A000FCE6C145AAD2B8EB020E63EB0C0501388C
:1015B000A4E74546EAE7034695E74046D1E7D0462B
:1015C0007CE7023D624433E708460BE76444023897
:1015D00043E700BF704700BF70B5ADF5747D0646A8
:1015E00000248DF800408DF801408DF803408DF8FF
:1015F00004408DF802401FE0E500C4EBC400C000C9
:101600000830684420220021013015F0BBFF2B1B5D
:101610000DEBC30308221A72002283F82920002050
:101620000021C3E90C010134C4EBC403DB000DF855
:1016300003200A2001F03AF90F2CDDDD013E4FF4C2
:101640000061164B53F8260000F062FDE0B9144B20
:1016500000221146022014F0D9F84FF47472694642
:101660000E4B53F8260000F01BFD30B90D4B002245
:101670001146022014F0CAF80CE00B4B0022114670
:10168000022014F0C3F805E0084B002211460220A6
:1016900014F0BCF80DF5747D70BD00BF0000002093
:1016A000A4B50108B0B50108BCB50108C8B501086A
:1016B00084B030B585B008AC84E80F009DF8C853FD
:1016C000644B00221146022014F0A0F800240CE024
:1016D00004F120036B4493F8883300935E4B00229F
:1016E0001146022014F092F80134A542F0DC5B4B65
:1016F00000221146022014F089F89DF82230009350
:10170000574B00221146022014F080F89DF8233038
:101710000093544B00221146022014F077F89DF8F4
:1017200024300093504B00221146022014F06EF832
:101730009DF82030012B00F086804C4B00934C4BE1
:1017400000221146022014F061F89DF8C93300937D
:10175000484B00221146022014F058F89DF8CA3375
:101760000093454B00221146022014F04FF8BDF8BB
:10177000D6330093414B00221146022014F046F864
:101780009DF8D8339DF8D9239DF8DA139DF8DB0333
:101790000390029101920093394B002211460220DE
:1017A00014F034F89DF8DC339DF8DD239DF8DE134A
:1017B0009DF8DF030390029101920093314B0022C8
:1017C0001146022014F022F89DF8E0339DF8E12341
:1017D0009DF8E2139DF8E3030390029101920093B8
:1017E000294B00221146022014F010F89DF8E43332
:1017F0009DF8E5239DF8E6139DF8E7030390029119
:1018000001920093214B00221146022013F0FEFFAB
:101810009DF8E833CBB11E4B00931E4B00221146BE
:10182000022013F0F3FF9DF8D43383B1184B0093DB
:10183000194B00221146022013F0E8FF05B0BDE865
:10184000304004B07047124B78E7084BE4E7074B91
:10185000EDE700BFE4B5010808B5010860CB010859
:10186000F8B5010808B6010818B60108DCB501088A
:1018700028B6010840B6010850B6010868B601084C
:1018800084B60108A8B60108D0B60108FCB6010864
:10189000D4B5010828B701083CB7010830B5ADF54B
:1018A000777D04464FF47472434B53F8201002A81E
:1018B00000F012FC002877D106238DF8B0333F4B9F
:1018C00093E803000090ADF80410002307E01DF832
:1018D000031002AA1A4482F888130133DBB2052BE5
:1018E000F5D900238DF8B1338DF8B233ADF8BE339E
:1018F000194663F3070163F30F2163F3174163F3A1
:101900001F611A4663F3070263F30F2263F3174262
:1019100063F31F621D4663F3070563F30F2563F34B
:10192000174563F31F65184663F3070063F30F2041
:1019300063F3174063F31F60F095F190F291F39217
:101940008DF8D0338DF8D1338DF8BC334FF400616E
:10195000194B53F8240000F0DBFBE0B9184B0022D0
:101960001146022013F052FF4FF4747202A9124B79
:1019700053F8240000F094FB30B9124B00221146BA
:10198000022013F043FF0CE00F4B0022114602200F
:1019900013F03CFF05E00D4B00221146022013F02E
:1019A00035FF0DF5777D30BD094B00221146022031
:1019B00013F02CFFF5E700BF0000002030B4010851
:1019C000A4B50108B0B50108BCB50108C8B5010847
:1019D00054B7010810B5ADF5F26D04464FF47472BA
:1019E000114B53F82010F0A800F076FBA0B900943A
:1019F0000E4B00221146022013F008FFF0AC4FF40A
:101A00007072F4A9684615F05EFE94E80F00FFF7C7
:101A10004FFE0DF5F26D10BD054B00221146022060
:101A200013F0F4FEF5E700BF000000206CB70108DA
:101A300054B7010800B583B001904FF0FF33012285
:101A400001A9034809F057FE019803B05DF804FBB3
:101A5000500C00200F2800D970472DE9F84F0D4693
:101A600017461E46DFF8749000EB00144FEA840B13
:101A700009EB840444220021204615F083FD2868E8
:101A80006968AA68EB6849F80B006160A260E360CE
:101A900028696969AA69EB6920616161A261E361F2
:101AA00084F8207084F821609DF8283084F8223072
:101AB000BDF82C30E3850C9B23630D9B63630E9B69
:101AC000A3630F9BE3639DF8403084F840309DF89A
:101AD000443084F84130BDE8F88F00BF4C0300204B
:101AE00038B50D46144694220146034815F0EBFD27
:101AF000024B1D601C7138BD940700208C0700202C
:101B000008B50A464FF0FF330146024809F0F3FDDD
:101B100008BD00BF940700202DE9F04105460E46A0
:101B2000144602F1020896220021404615F02AFDD3
:101B3000002727800C4C01222179206806F0D0FC78
:101B400001224146094809F045FF31462846FFF782
:101B5000D7FF3A462179206806F0C2FC012000F048
:101B6000A5FEBDE8F08100BF8C070020940700208F
:101B700008B50388952B0ED8084A1268516AC21816
:101B800091700133038030F8021B012201440348A5
:101B900009F020FF08BD00230380F4E7940700202C
:101BA00008B51348134B03604FF000434360002314
:101BB0008360C360036104224261037643768376C7
:101BC0000122C26180F820304362836280F82C30A9
:101BD0004FF48052026307224263826380F83C30F4
:101BE000C36405F005FA00B908BD00F0C1FBFBE7CE
:101BF00028080020002401400268094B9A4200D0C6
:101C0000704782B04FF0B0431A6E42F400721A6609
:101C10001B6E03F400730193019B02B0704700BF79
:101C2000002401400268054B9A4200D070474FF0F3
:101C3000B042136E23F400731366F7E700240140EB
:101C400030B585B004460023019302930393FFF758
:101C5000A7FF164805F004FEF8B90194002302938B
:101C6000039301A9114805F03DFBC8B90F4805F0E1
:101C7000FBFCC0B90D4C4FF0FF31204605F0D0FA07
:101C8000204605F0CDFD204605F029FB05462046FF
:101C900005F066FD284605B030BD00F069FBDCE7C5
:101CA00000F066FBE2E700F063FBE3E728080020B2
:101CB000014B024A1A6070472808002000240140A6
:101CC00008B50D48FFF7BCFFA0B103460B4AB2F8B8
:101CD000AA004FF6FF72904207D040F6E44202FBA2
:101CE00000F0B0FBF3F080B205E00548B0FBF3F084
:101CF00080B200E0002008BD002000B40075FF1F86
:101D0000D8084C0010B582B00023ADF80630FFF7BC
:101D1000D7FF04462148FFF793FF214BB3F8C820B3
:101D2000B3F8A8108A421DD000FB04F39B081D489D
:101D3000A0FB0303C1EB5313642000FB03F3521A0F
:101D400093FBF2F31E331BB2ADF80630BDF806303C
:101D50001BB21B021BB2ADF80630BDF8060000B284
:101D600002B010BD04FB00F00F4BA3FB0023C41A0C
:101D700003EB5403DB0A4FF47A7202FB03F3A3F57F
:101D80003923A3F50C63094A82FB0312DB17C3EB6B
:101D9000A2231E331BB2ADF80630D7E7001000B007
:101DA0000075FF1F9F00EE0901011000AD8BDB687D
:101DB00000B583B04FF0B0439A6C42F004029A64CD
:101DC0009A6C02F004020192019A9A6C42F00102AC
:101DD0009A649B6C03F001030093009B0022022194
:101DE0000F2005F0EFFD0F2005F024FE03B05DF895
:101DF00004FB002301E0083008338B420AD242681A
:101E0000D0F800C0B2F1FF3F08BFBCF1FF3FF2D0F5
:101E1000012070470020704730B108B539B192B247
:101E200013F00AFE002008BD6FF0050070476FF048
:101E30000500F8E708B506F0DFF878B9094B9A69AC
:101E400042F040429A614CF2FA321A6106F0ECF824
:101E500008B9002008BD6FF00400FBE76FF0040034
:101E6000F8E700BF0040005870B584B0002303932A
:101E7000002839D00E460446FFF7DCFF054610B1B6
:101E8000284604B070BD06F0B7F880BB022300936B
:101E900004F178431748D0F8E015174A02EA812187
:101EA000B3FBF1FC01FB1C33DB0A0193A11901F127
:101EB00078410139D0F8E00502EA8022B1FBF2F066
:101EC00002FB1011C3EBD1230133029303A968462F
:101ED00006F076F918B1022804D06FF0010506F07B
:101EE000A3F8CDE70125FAE76FF00505C8E76FF025
:101EF0000405C5E70070FF1F00FCFF032DE9F04F4C
:101F000089B0039004920191002800F0A9808346D3
:101F1000002900F0A98012F0070F40F0A98010F00E
:101F20000703059340F0A880FFF784FF029018B1E3
:101F3000029809B0BDE8F08F06F05EF8002840F086
:101F40009F80039C04F178424F4BD3F8E0354F4912
:101F500001EA8321B2FBF1F301FB1322D30A0693BA
:101F6000049BE31803F17843013BB3FBF1F001FB61
:101F70001033DB0AA3EBD22301330793012B06D9DD
:101F8000C4F30A09C9F50069DDF818A02FE0DDF8EF
:101F90001090F9E7C846019F5C46059D454515D25E
:101FA000EE19D6E900232146012006F081F850B948
:101FB00020686268E95973689A4208BF884241D133
:101FC00008340835EAE76FF003030293029B002B05
:101FD0003FD1CB44019B4B440193049BA3EB0909E4
:101FE000B9F5006F28BF4FF400690AF1010A069B9A
:101FF000079A134453452CD90AF58034E402494624
:102000000398FFF7F6FE0028C4D0214B1868E8B10A
:102010004FF400622146FFF7FFFE1D4B1B68CBF318
:102020000A001FFA89F20199184413F005FD4FF4D4
:1020300000612046FFF718FF70B9154B1F684FF479
:102040000068AAE76FF003030293BFE76FF0050390
:10205000029305F0E9FF6BE76FF001030293F8E7E5
:102060006FF00503029363E76FF0050302935FE7E8
:102070006FF0050302935BE76FF00503029357E7E8
:102080006FF00403029353E70070FF1F00FCFF038F
:102090008C080020014B1860002070478C0800203D
:1020A000B0F1006F0ED310B5094BD3F8E045094BE2
:1020B00003EA842303F10063013B984205D8FFF74C
:1020C0001DFF10BD4FF0FF3070474FF0FF30F8E7B5
:1020D0000070FF1F00FCFF03B1F1006F0ED310B5BD
:1020E000094BD3F8E045094B03EA842303F100636D
:1020F000013B994205D8FFF78FFE10BD4FF0FF302E
:1021000070474FF0FF30F8E70070FF1F00FCFF033F
:10211000B0F1006F0ED308B5094BD3F8E025094B99
:1021200003EA822303F10063013B984205D8FFF7DD
:102130009BFE08BD4FF0FF3070474FF0FF30F8E7CF
:102140000070FF1F00FCFF032DE9F04389B000245D
:10215000039404940594069407944FF0B043DA6C0A
:1021600042F00102DA64DA6C02F001020292029A91
:10217000DA6C42F00202DA64DA6C02F002020192D6
:10218000019ADA6C42F00402DA64DB6C03F00403B7
:102190000093009B3B4E22464FF43A41304606F0F6
:1021A0009FF9DFF8E48022460421404606F098F9C2
:1021B00022464FF4F8714FF0904006F091F94FF439
:1021C0000A4303930125049505940223069303A96A
:1021D000304606F035F804230393049505940694DD
:1021E00003A9404606F02CF8032703974FF404197F
:1021F000CDF81090059503A94FF0904006F020F817
:102200004FF44053039304950594069703A9304671
:1022100006F016F8062703970494059403A93046A0
:1022200006F00EF840230393CDF81090059503A90E
:10223000404606F005F84FF4F873039304950594AF
:10224000069403A94FF0904005F0FAFF224621467C
:10225000384605F0B7FB384605F0ECFB2246214630
:10226000072005F0AFFB072005F0E4FB22462146DE
:10227000162005F0A7FB162005F0DCFB09B0BDE831
:10228000F08300BF000400480008004808B5124869
:10229000124B0360124B4360002383600122C26033
:1022A000036143618361C361036206F0E5FA50B9DB
:1022B0000021094806F0EAFC40B90021064806F072
:1022C00013FD30B908BD00F053F8F1E700F050F805
:1022D000F3E700F04DF8F5E79008002000540040C7
:1022E0005D3E302010B596B0044600211191129148
:1022F000139114911591382203A815F043F922681F
:10230000194B9A4201D016B010BD402303934FF4ED
:102310004033089303A807F033FB08BB4FF0B044E9
:10232000E36C43F00203E364E36C03F00203029303
:10233000029BC0231193122312930023139314932F
:102340000423159311A9094805F07AFFA36D43F4FE
:102350000013A365A36D03F400130193019BD2E75F
:1023600000F006F8DAE700BF00540040000400481F
:1023700072B6FEE710B59AB04822002108A815F001
:1023800001F90024019402940394049405940694A2
:10239000079406F0D5FC4FF0B042D2F8903023F00D
:1023A0001803C2F8903002F58062136823F4C0630A
:1023B00043F400731360136803F4C0630093009B3D
:1023C0002423089381230B93012310931194B023AA
:1023D0001293139408A806F04DFE70B94F23019391
:1023E000002302930393049305930793022101A80A
:1023F00007F072F918B91AB010BDFFF7B9FFFFF76F
:10240000B7FF000010B582B004F0A4FDFFF7B2FFE3
:10241000FFF79AFE02F008F9FFF738FF00F054FCCE
:102420001E4C04221E492046FFF75AFB00F080FC98
:1024300001221C491C4809F0CDFA01221B49204603
:1024400009F0C8FA00F026FA044600F023FAF02258
:1024500017491848FFF740FEC0B9164BD3E9382397
:10246000CDE90023144B00221146022013F0CEF9CF
:1024700000F010FA001B41F287339842F8D90F4B55
:102480001B78002BF4D102F0D5F8F1E70C4B0022B9
:102490001146022013F0BAF9EAE700BFBC0B002096
:1024A00000080048D50D0020500C0020DC09002059
:1024B00000F00308E808002090B70108E00D0020B4
:1024C00054B7010800B58DB02C22002101A815F0E9
:1024D00059F81948194B03601F23836000230361D7
:1024E000436183614FF08042C26103624FF48073A5
:1024F000436207F055FCA8B90F4807F093FDA0B957
:1025000000220892029206924FF0005307934FF474
:1025100080730B9301A9084807F0A8FC40B90DB0DF
:102520005DF804FBFFF724FFE6E7FFF721FFE7E78D
:10253000FFF71EFFF3E700BF080B00200028004054
:1025400010B590B004463822002102A815F01AF800
:1025500022681A4B9A4201D010B010BD4FF480335C
:1025600002934FF480730F9302A807F009FA08BB97
:102570004FF0B043D3F8902042F40042C3F89020CB
:102580009A6D42F480629A659B6D03F480630193B7
:10259000019B00221146022005F014FA022005F0EA
:1025A00049FA002211462A2005F00CFA2A2005F0EB
:1025B00041FAD1E7FFF7DCFEDAE700BF0028004070
:1025C0007047704708B504F0DBFC0120024BC3F8EC
:1025D000880006F019FC08BD0004005808B504F096
:1025E000D6FC08BD08B504F0D2FC00F017FD08BD0C
:1025F00008B504F0C5FC0121002006F0A9FB08BDC8
:102600007047FEE7FEE7FEE7FEE7FEE7704770472C
:102610007047704708B5024807F030FD08BD00BF9D
:10262000080B002008B5012005F068FF08BD08B5BB
:10263000022005F063FF08BD08B5024805F02AFC3A
:1026400008BD00BF5C0B002008B5402005F056FF18
:1026500008BD000008B5024808F0CEF908BD00BF6B
:10266000BC0B002008B5024808F0C6F908BD00BF41
:10267000500C002008B5024807F00CFB08BD00BF55
:10268000080B002008B5024807F0ACFF08BD00BFEA
:10269000400B002008B505480823036007F024FD1F
:1026A00000B908BDFFF764FEFBE700BF400B002048
:1026B00000B583B04FF0B0435A6E42F001025A6643
:1026C0005B6E03F001030193019B0022114632204F
:1026D00005F078F9322005F0ADF903B05DF804FBA0
:1026E0000CB400B583B004AB53F8042B019313F082
:1026F0007DFD03B05DF804EB02B0704730B585B0E6
:1027000004460D4602A813F0E5FABDF90C3000931B
:10271000029B054A10212046FFF7E2FF2046FDF705
:102720007FFD288005B030BDD0B7010810B54FF04F
:10273000B042936823F40043936013F04FFB0124ED
:102740000D4B1C7000F0BCF812F0ECFF0B4813F0BE
:1027500003F80B4B4FF400421A61022013F002F809
:10276000FFF7A6FA00F014F913F00CF92146204601
:1027700013F028F910BD00BF4C0B0020FD26000807
:102780000040005808B513F033F908BD08B5FFF74D
:1027900097FA40F6B83398420DD8B0F5E16F0CD3F4
:1027A000A0F5E160C0EBC0104000054BA3FB00307A
:1027B000C0F3C71000E0FE2008BD0020FCE700BF0A
:1027C000B5814E1B00B587B0684600F0C5F801988A
:1027D000FEF706FD00B207B05DF804FB38B504460D
:1027E000184BD3F88035B3F1FF3F13D0C3711A0AE9
:1027F00082711A0C42711B0E0371124BD3F884259F
:10280000C270D3F884351A0A82701A0C42701B0EFB
:10281000037038BD04F0C2FB054604F0CBFB054451
:1028200004F0C2FB2B0EE3712B0CA3712B0A637116
:102830002571030EE370030CA370030A637020700C
:10284000E7E700BF0070FF1F38B50A4BD3F88035AB
:102850000360B3F1FF3F00D038BD044604F09EFB97
:10286000054604F0A1FB454004F0A4FB454025606B
:10287000F2E700BF0070FF1F08B50121022013F02E
:102880008BF808BD08B50021022013F085F808BDBB
:102890000020704708B5044B1B780BB9002008BD19
:1028A00000F000F9FBE700BF4C0B002000B583B03F
:1028B0000190019800F0DCF903B05DF804FB000022
:1028C000F0B589B0224AD2F8903043F48043C2F880
:1028D000903004F075FB04F07BFB04F081FB0024D6
:1028E000039404940594069407940123049303230A
:1028F00006934FF0B043DA6C42F00202DA64DA6C0D
:1029000002F002020292029ADA6C42F00202DA64E7
:10291000DB6C03F002030193019B4FF48057039794
:102920000C4D03A9284605F08BFC4FF40056039686
:1029300003A9284605F084FC22463946284605F0BE
:10294000CFFD22463146284605F0CAFD09B0F0BD4C
:10295000000800580004004810B50446FFF7D2F9FB
:1029600040F30F20FEF722FA054BA3606060054B91
:102970002360054BE360054B2361002010BD00BFC1
:102980000000484200007A440D093E00AB030500F8
:10299000002070470120704708B514F067FE162329
:1029A00003604FF0FF3008BD08B54FF0FF31FFF76F
:1029B000F3FFFEE770B50C461646002506E0AFF3C0
:1029C0000080214601F8010B01350C46B542F6DBCB
:1029D000304670BD70B50C461646002504E014F86C
:1029E000010BFFF727F80135B542F8DB304670BD23
:1029F0004FF0FF3070474FF400534B60002070479A
:102A0000012070470020704710B503460C4A0D495D
:102A10000D48006840B10C4800680344521A9342C4
:102A200006D8094A136010BD0748084C0460F2E755
:102A300014F01CFE0C2303604FF0FF30F3E700BFDF
:102A40000080002000080000500B002078230020A8
:102A5000064B986801E0054B9868044B9B688342DD
:102A6000F9D1C043024B1860704700BF00280040F6
:102A7000580B0020014B1868704700BF580B00200E
:102A8000064B986801E0054B9868044B9B688342AD
:102A9000F9D1C043024B1B68C01A704700280040A0
:102AA000580B0020074B1B7853B1074B986801E087
:102AB000054B9868044B9B688342F9D1C04370472B
:102AC00000207047540B002000280040032070476E
:102AD00008B501464FF47A7200238002890DFEF793
:102AE000C5FB08BDC20E43011B1A62F10002920031
:102AF00042EA93729B001B1842F10000C00040EABA
:102B00005370C3F3D51343EA8050704710B5074B99
:102B10000122DA65064C4FF48071204607F07AF8FE
:102B20004FF0FF332363002010BD00BF002800409A
:102B3000080B002008B502460221024807F0B3FA4C
:102B400008BD00BF080B002038B50F4B1B780BB138
:102B5000002038BD0D4C4FF0FF352563FFF7B2FC68
:102B6000FFF7D4FF4FF48071204607F053F8256338
:102B7000204607F037FA0020FFF7DCFFFFF768FF79
:102B8000014B01221A70E3E7540B0020080B0020D0
:102B900008B502460021024807F085FA08BD00BFCB
:102BA000080B002008B502460121024807F07BFA15
:102BB00008BD00BF080B002010B58CB004462C22C5
:102BC000002101A814F0DEFCFFF7A0FF0C4B1B68EE
:102BD0001C4400230893E443029406934FF00053EF
:102BE00007934FF480730B93012201A9054807F066
:102BF0003DF910B900200CB010BDFFF7B9FBF9E7A3
:102C0000580B0020080B002008B50221014807F0EE
:102C100051FA08BD080B002038B505460B4B9C68DF
:102C200001E00A4B9C68094A9268A242F9D1E44348
:102C3000FFF7EAFF2346A40A44EA8054C3F30900DD
:102C4000FFF750FF2880204638BD00BF0028004015
:102C500008B50021014807F02DFA08BD080B002037
:102C600008B50121014807F025FA08BD080B00202E
:102C700008B5FFF72DFF0D4B996801E00B4B9968E4
:102C80000A4A92688A42F9D1C9430AE0074B9B6815
:102C9000064A92689A42F9D1DB435B1A834203D217
:102CA00000BF024B9B68F3E708BD00BF002800404F
:102CB00008B513F0B7F908BD08B5FFF7A5FF013057
:102CC000FFF738FF08BD000008B51748174B036031
:102CD0004FF4E133436000238360C36003610C223F
:102CE00042618361C36103624362836208F0A0FDB5
:102CF00070B900210C4808F06FFF60B900210A4844
:102D000008F08FFF50B9084808F047FF48B908BDE0
:102D1000FFF72EFBEDE7FFF72BFBEFE7FFF728FBB5
:102D2000F1E7FFF725FBF2E7BC0B0020003801407C
:102D300008B51748174B03604FF4E1334360002395
:102D40008360C36003610C2242618361C3610362DB
:102D50004362836208F06CFD70B900210C4808F0F2
:102D60003BFF60B900210A4808F05BFF50B90848F2
:102D700008F0EFFE48B908BDFFF7FAFAEDE7FFF7F4
:102D8000F7FAEFE7FFF7F4FAF1E7FFF7F1FAF2E706
:102D9000500C00200044004030B599B0044600219A
:102DA00013911491159116911791382205A814F0DA
:102DB000E9FB23684B4A934204D04B4A934239D0F3
:102DC00019B030BD012305934FF44033069305A895
:102DD00006F0D6FD58BB4FF0B0431A6E42F4804265
:102DE0001A661A6E02F480420292029ADA6C42F07B
:102DF0000102DA64DB6C03F001030193019B4FF4E1
:102E0000C06313930223149300241594169407238C
:102E1000179313A94FF0904005F012FA224621466D
:102E2000242004F0CFFD242004F004FEC8E7FFF7BF
:102E30009FFAD0E7022305932C4B079305A806F0D1
:102E40009FFD002844D14FF0B0439A6D42F4003208
:102E50009A659A6D02F400320492049ADA6C42F098
:102E60000102DA64DB6C03F001030393039B0C2380
:102E70001393022314930025159503231693072318
:102E8000179313A94FF0904005F0DAF91848194B41
:102E900003601423436010238360C56080230361B3
:102EA00045618561C561056204F066FE98B910212F
:102EB0000F4805F063F888B90D4BE3679C62002268
:102EC0000221252004F07EFD252004F0B3FD77E7E4
:102ED000FFF74EFAB7E7FFF74BFAE8E7FFF748FAD4
:102EE000EAE700BF003801400044004004000C0045
:102EF0005C0B00205800024010B50368144A93424E
:102F000004D00446134A934210D010BD4FF0B04293
:102F1000136E23F4804313664FF4C0614FF090406A
:102F200005F060FA242004F093FDEEE74FF0B04284
:102F3000936D23F4003393650C214FF0904005F01E
:102F400051FAE06F04F08AFE252004F081FDDCE7F1
:102F5000003801400044004008B5074B1860FEF7F8
:102F600027FFFFF7E5FE054AD2F8803043F0006303
:102F7000C2F88030002008BDE80C0020000800588E
:102F800008B54FF0B0439A6B42F400329A639A6BE3
:102F900022F400329A630448FFF7AEFF0F2004F0DA
:102FA00057FD002008BD00BF500C002008B50A46A0
:102FB0000146024807F05CFC002008BD500C0020D0
:102FC00010B582B0124B18604FF40013009302AB9F
:102FD00013E906000F4808F064FD0E4B1B68DA6920
:102FE00012F4803FF9D1DA6912F4800FFBD09A68AD
:102FF00042F480029A60074C204608F093FD0122BB
:103000000549204608F0E6FC002002B010BD00BFD4
:10301000E40C0020500C0020D50D002008B5074816
:1030200008F006FC20B9064804F0A6FD18B908BD52
:10303000FFF79EF9F7E7FFF79BF9F8E7500C002040
:103040005C0B002008B50268044B9A4200D008BD12
:10305000034B1B6800209847F9E700BF004400407D
:10306000E80C00202DE9F04FADF2445D8146026886
:10307000B64B9A4209D0D9F80020B54B9A4201F0DC
:10308000B4820DF2445DBDE8F08FB24B1B682BB1EA
:10309000D0F8902012B90121AF489847AE4B1B7869
:1030A0000A2B0AD0AD4A1278C62A00F20A81501CB7
:1030B000AA490870AA498B5403E1A84B1B78A84879
:1030C0000022C2540D22A74914F064FA002800F02F
:1030D000EC800D22A449A24814F05CFA002800F00C
:1030E000F6801222A1499E4814F054FA002800F0FC
:1030F000F8800F229E499A4814F04CFA002800F0FC
:103100007B810B229B49964814F044FA0446002820
:1031100000F037820B229849914814F03BFA04469C
:10312000002800F052820B2294498D4814F032FAA4
:103130000446002800F06D8215229149884814F059
:1031400029FA002800F0A38217228E49844814F03F
:1031500021FA002800F0D0820B228B49804814F01D
:1031600019FA002800F0D982102288497C4814F00E
:1031700011FA002800F0848316228549784814F05B
:1031800009FA0446002800F0948412228149744808
:1031900014F000FA002800F09A8513227E49704846
:1031A00014F0F8F90746002800F0648618227B49DD
:1031B0006B4814F0EFF9002800F06187122278497B
:1031C000674814F0E7F9002800F064871022754979
:1031D000634814F0DFF90646002800F05F871122EB
:1031E00071495F4814F0D6F9002801F0B38112222A
:1031F0006E495B4814F0CEF9002801F0B881162220
:103200006B49574814F0C6F9002801F0CC81102210
:103210006849534814F0BEF9002841F0DE810DF1F1
:103220007F030DF17E026449644814F0A7F89DF80D
:103230007E30013B4FF47472614951F8231020A88D
:10324000FEF74AFF002841F0C0819DF87F30012B36
:1032500014BF002301238DF834349DF87E30013BE8
:103260004FF40061564A52F82300FEF751FF002840
:1032700041F0A381534B00221146022012F0C6FAFE
:103280009DF87E30013B4FF4747220A94C4850F8F1
:103290002300FEF705FF002841F087814A4B0022FA
:1032A0001146022012F0B2FA08E0484B0022114603
:1032B000022012F0ABFA464B01221A70274B002273
:1032C0001A7001222449484608F084FBD3E6414B9A
:1032D00000221146022012F099FA3D4B00221A708A
:1032E000ECE73D4B00221146022012F08FFAF0224B
:1032F0003A490DF58A60FEF7EFFE00BB08220DF596
:103300008A61374810F0A5FB08220DF58B6135481E
:1033100010F09FFB10220DF26941334810F099FB29
:103320000DF5A563D3E90001304BC3E900010DF5AC
:10333000A663D3E900012E4BC3E90001BEE72D4B84
:1033400000221146022012F061FAB7E70044004063
:1033500000380140E40C0020D50D0020D40D0020E1
:103360000C0D00201CB8010850B8010884B80108F1
:10337000C0B8010848BA01085CBA010868BA010877
:1033800074BA010890BA0108D0BA010804BB010858
:10339000A0BB0108B8BC010864BD010850BE01080B
:1033A00070BE010884BE010870BF010884BF010817
:1033B00098BF0108B0BF0108C4BF01081C0D002060
:1033C00000000020A4B50108B0B501082CB8010820
:1033D000E00D002060B8010898B8010800F003086B
:1033E000EC0C0020F40C0020FC0C0020E80D002068
:1033F000D80D002054B70108F022AD490DF58A60C0
:10340000FEF76AFE002840F0AB80AA4B002211466E
:10341000022012F0FBF99DF850349DF851249DF8DC
:1034200052149DF853049DF854449DF855549DF84A
:1034300056649DF857740797069605950494039073
:103440000291019200939C4B00221146022012F03F
:10345000DDF99DF858349DF859249DF85A149DF8CB
:103460005B049DF85C449DF85D549DF85E649DF896
:103470005F74079706960595049403900291019254
:1034800000938E4B00221146022012F0BFF99DF8E6
:10349000693417939DF86A2418929DF86B349DF84F
:1034A0006C249DF86D149DF86E049DF86FC49DF812
:1034B00070E49DF871449DF872549DF873649DF812
:1034C00074749DF875849DF876A4CDF864A09DF879
:1034D00077A49DF878B4CDF83CB0CDF838A0DDF8ED
:1034E00064A0CDF834A0CDF830800B970A960995EA
:1034F0000894CDF81CE0CDF818C005900491039213
:103500000293189A0192179B00936D4B002211466B
:10351000022012F07BF90DF5A563D3E90023CDE974
:103520000023684B00221146022012F06FF90DF5BE
:10353000A663D3E90023CDE90023634B00221146A3
:10354000022012F063F9614B00221146022012F0B2
:103550005DF95F4B00221146022012F057F9ADE6EB
:103560005C4B00221146022012F050F9A6E66300DF
:103570000B33594A224459495948184413F0FEFE66
:103580000134072CF3DD544B1A7859789878DC789D
:103590001D795E799F79DB790793069705960495E7
:1035A0000394029001910092434B002211460220A5
:1035B00012F02CF982E663000B334A4A2244474951
:1035C0004748184413F0DAFE0134072CF3DD454B6D
:1035D0001A7859789878DC781D795E799F79DB794B
:1035E0000793069705960495039402900191009223
:1035F000324B00221146022012F008F95EE6630009
:103600000B33394A224435493548184413F0B6FE85
:1036100001340F2CF3DD344B1A7817925978189136
:1036200093F802B0DA78197958799C79DD791E7AA5
:103630005F7A93F80AC093F80BE093F80C8093F844
:103640000DA0CDF864A093F80EA0DB7B0F93CDF80E
:1036500038A0DDF864A0CDF834A0CDF83080CDF8E6
:103660002CE0CDF828C00997089607950694059098
:1036700004910392CDF808B018990191179A00921D
:103680000F4B00221146022012F0C0F816E6174C2C
:1036900022461749174813F071FED4E90023CDE9FB
:1036A0000023084B00221146022012F0AFF805E675
:1036B00000F00308D0B80108F0B8010830B90108DB
:1036C00070B90108D8B90108FCB9010824BA010889
:1036D00038BA010854B70108EC0C002054BA0108AC
:1036E0000C0D0020F40C0020FC0C0020E80D002044
:1036F0008CBA0108210D0020514C224651495248F4
:1037000013F03CFED4E90023CDE900234F4B002207
:103710001146022012F07AF8D0E54D4B00221146F6
:10372000022012F073F84B4B1A7859789878DC78AD
:103730001D795E799F79DB79079306970596049545
:103740000394029001910092434B00221146022003
:1037500012F05CF8414B1A7859789878DC781D792A
:103760005E799F79DB790793069705960495039414
:103770000290019100923A4B00221146022012F071
:1037800045F8384B1A7817925978189193F802B087
:10379000DA78197958799C79DD791E7A5F7A93F80D
:1037A0000AC093F80BE093F80C8093F80DA0CDF8C5
:1037B00064A093F80EA0DB7B0F93CDF838A0DDF862
:1037C00064A0CDF834A0CDF83080CDF82CE0CDF851
:1037D00028C00997089607950694059004910392CE
:1037E000CDF808B018990191179A00921E4B00224B
:1037F0001146022012F00AF81C4BD3E90023CDE950
:1038000000231B4B00221146022011F0FFFF0C4B3E
:10381000D3E90023CDE90023164B002211460220F4
:1038200011F0F4FF144B00221146022011F0EEFFBC
:10383000124B00221146022011F0E8FF3EE500BFC6
:10384000D80D00208CBA0108230D0020A8BA010869
:10385000DCBA0108EC0C0020F0B80108F40C0020E0
:1038600030B90108FC0C002070B90108E80D0020F7
:10387000D8B90108FCB9010824BA010838BA01080E
:103880009B4B00221146022011F0C0FF08229949EB
:103890000DF58A6010F0DDF8082297490DF58B6070
:1038A00010F0D7F8954C102221460DF2694010F027
:1038B000D0F8102221460DF27A4010F0CAF81022FA
:1038C00021460DF28B4010F0C4F8102221460DF273
:1038D0009C4010F0BEF88A4BD3E900230DF5A5619A
:1038E000C1E90023874BD3E900230DF5A661C1E9A7
:1038F00000234FF400618448FEF70AFC002840F0E2
:10390000D180F0220DF58A617F48FEF7C9FB0028BF
:1039100040F0C1807D4B00221146022011F076FF5D
:10392000F02279490DF58A60FEF7D6FB002840F0B9
:10393000AB80774B00221146022011F067FF9DF803
:1039400050349DF851249DF852149DF853049DF86D
:1039500054449DF855549DF856649DF85774079744
:103960000696059504940390029101920093694B89
:1039700000221146022011F049FF9DF858349DF8AD
:1039800059249DF85A149DF85B049DF85C449DF8F9
:103990005D549DF85E649DF85F74079706960595E3
:1039A000049403900291019200935B4B0022114614
:1039B000022011F02BFF9DF8693417939DF86A24BB
:1039C00018929DF86B349DF86C249DF86D149DF849
:1039D0006E049DF86F449DF870549DF871649DF8D5
:1039E00072749DF873C49DF874E49DF875849DF815
:1039F00076A4CDF864A09DF877A49DF878B4CDF8AE
:103A00003CB0CDF838A0DDF864A0CDF834A0CDF8F6
:103A10003080CDF82CE0CDF828C00997089607959E
:103A200006940590049103920293189A0192179BB1
:103A300000933A4B00221146022011F0E7FE0DF5EB
:103A4000A563D3E90023CDE90023354B00221146BD
:103A5000022011F0DBFE0DF5A663D3E90023CDE9CA
:103A60000023304B00221146022011F0CFFE2E4BD6
:103A700000221146022011F0C9FE2C4B00221146F3
:103A8000022011F0C3FE19E4294B00221146022046
:103A900011F0BCFE12E4274B00221146022011F067
:103AA000B5FE0BE4244B00221146022011F0AEFEBD
:103AB00004E40DF17F030DF17E022049204813F04C
:103AC0005DFC022840F0FB809DF87E305A1ED2B289
:103AD0000F2A04D89DF87F200AB1102A34D9194B37
:103AE00000221146022011F091FEFFF7E7BB00BF54
:103AF00018BB0108EC0C0020F40C0020FC0C00208A
:103B0000E80D0020D80D002000F003083CBB0108A0
:103B1000D0B80108F0B8010830B9010870B901083F
:103B2000D8B90108FCB9010824BA010838BA01085B
:103B300054B7010860BB010880BB0108B8BB01088D
:103B4000220D002084BC0108013B4FF47472AE4981
:103B500051F8231020A8FEF7BFFA00287AD1AB4B0A
:103B600000221146022011F051FE9DF87F30019392
:103B70009DF87E300093A64B00221146022011F0E2
:103B800045FE9DF882300093A24B00221146022090
:103B900011F03CFE9DF8833000939F4B00221146AC
:103BA000022011F033FE9DF8843000939B4B0022DD
:103BB0001146022011F02AFE9DF88030012B50D0D2
:103BC000974B0093974B00221146022011F01EFEE6
:103BD000954B00221146022011F018FE9DF87F300F
:103BE0000093924B00221146022011F00FFE9DF827
:103BF0007F30382202FB03F320AAD35C012B32D0A2
:103C0000874B00938A4B00221146022011F0FEFDE3
:103C1000884B00221146022011F0F8FD9DF87F30FC
:103C2000013B382220A902FB03131D7AAC421CD2AF
:103C30009DF87F30013B382220A902FB0313234467
:103C40005B7A00937C4B00221146022011F0DEFDCE
:103C50000134EBE7794B00221146022011F0D6FD2A
:103C600083E7774BADE7764BCBE7764B00221146E7
:103C7000022011F0CBFD9DF87F30013B382420AAB3
:103C800004FB03231B6B00936F4B002211460220A1
:103C900011F0BCFD9DF87F30013B20AA04FB0323FB
:103CA00093F829304BB1664B0093684B00221146C4
:103CB000022011F0ABFDFFF701BB594BF4E7644B59
:103CC00000221146022011F0A1FDFFF7F7BA0DF115
:103CD0007F0303930DF17E0302930DF17D030193A6
:103CE0001FAB00930DF17B030DF17A0259495A483D
:103CF00013F044FB062807D0584B0022114602203F
:103D000011F084FDFFF7DABA9DF87F3005939DF836
:103D10007E3004939DF87D3003939DF87C300293B0
:103D20009DF87B3001939DF87A3000934C4B002234
:103D30001146022011F06AFD9DF87B30013B4FF4E3
:103D40007472314951F8231020A8FEF7C5F978BBE9
:103D50002E4B00221146022011F058FD9DF87A30BA
:103D6000012B2CD09DF87B30013B4FF40061264A9B
:103D700052F82300FEF7CCF900283CD1394B002241
:103D80001146022011F042FD9DF87B30013B4FF4BB
:103D9000747220A91C4850F82300FEF781F910BB6B
:103DA000314B00221146022011F030FDFFF786BA98
:103DB000224B00221146022011F028FDCEE79DF88B
:103DC0007C308DF882309DF87D308DF883309DF801
:103DD0007E308DF884309DF87F30003B18BF012382
:103DE0008DF88030BEE7214B00221146022011F0F1
:103DF0000DFDFFF763BA1E4B00221146022011F0A1
:103E000005FDFFF75BBA00BF00000020C4BB01083E
:103E1000E0BB0108F8B5010808B6010818B60108AA
:103E2000DCB5010828B6010814BC010818BC01085B
:103E300038BC010850BC010808B50108D0BB010816
:103E4000D4B5010868C701085CBC010874BC01084E
:103E5000A0BC0108CCBC01080C0D00203CBD010831
:103E6000F0BC0108A4B50108B0B50108BCB5010853
:103E7000C8B501080DF17F0307930DF17E04069488
:103E80000DF17D0605961FAD04950DF17B08CDF86B
:103E90000C800DF17A0302930DF1790301931EABAF
:103EA00000930DF177030DF17602A449A44813F0B5
:103EB00065FA9DF87B209DF87C100D0445EA0265AB
:103EC0009DF87D6045EA06259DF87E4025430A2839
:103ED00007D09C4B00221146022011F097FCFFF7FF
:103EE000EDB99DF87A309DF87F000A900994089604
:103EF00007910692059304939DF8793003939DF8FA
:103F0000783002939DF8773001939DF876300093D6
:103F10008D4B00221146022011F078FC9DF87F00A5
:103F200012F028FA064600240AE004EB4403313379
:103F3000321986498248184413F020FA0134E4B259
:103F40009DF87F30A342F0D8814B00221146022019
:103F500011F05CFC08E0F35D00937E4B00221146FB
:103F6000022011F053FC01379DF87F30BB42F2DC98
:103F7000794B00221146022011F048FC9DF8773061
:103F8000013B4FF47472754951F8231020A8FEF7D5
:103F9000A3F838B9724B00221146022011F036FC0A
:103FA000002312E06F4B00221146022011F02EFC7C
:103FB000F6E79DF87820013AF15C382020AC00FB50
:103FC00002421A4451720133DBB29DF87F209A42BB
:103FD000EFD8304612F0D6F99DF87820531E20A86D
:103FE000382404FB03039DF87F1019729DF87A10A2
:103FF000003918BF012183F8291003F130011D6336
:1040000000234B609DF87930003B18BF012304FB6F
:1040100002F283549DF87730013B4FF400614F4A20
:1040200052F82300FEF774F808BB4F4B00221146EC
:10403000022011F0EBFB9DF87730013B4FF47472D6
:1040400020A9464850F82300FEF72AF838B9474B14
:1040500000221146022011F0D9FBFFF72FB9444B83
:1040600000221146022011F0D1FBFFF727B9414B86
:1040700000221146022011F0C9FBFFF71FB920AA48
:104080003D493E4813F07AF99DF88000FDF7A4FA07
:10409000FFF714B903F0EEFCFFF710B90DF17F0341
:1040A00015930DF17E0314930DF17D0313931FAB54
:1040B00012930DF17B0311930DF17A0310930DF11F
:1040C00079030F931EAB0E930DF177030D930DF152
:1040D00076030C930DF175030B931DAB0A930DF151
:1040E000730309930DF1720308930DF171030793A4
:1040F0001CAB06930DF16F0305930DF16E03049352
:104100000DF16D0303931BAB02930DF16B03019350
:104110000DF16A0300930DF169031AAA18490848C2
:1041200013F02CF918282FD00090164B00221146BE
:10413000022011F06BFBFFF7C1B800BF78BD01088A
:104140000C0D00203CBD0108ACBD010840BE0108BB
:1041500044BE010808B5010868C701080000002036
:10416000C4BB0108D0BB0108A4B50108B0B5010863
:10417000BCB50108C8B501086CBE0108240D0020BB
:1041800098BE01085CBF01080090BE4B002211469A
:10419000022011F03BFB9DF869300093BA4B0022DE
:1041A0001146022011F032FB9DF868300093B74BA6
:1041B00000221146022011F029FB9DF87F30009368
:1041C000B34B00221146022011F020FB9DF86A300B
:1041D0000093B04B00221146022011F017FB9DF80E
:1041E0006B300093AC4B00221146022011F00EFB05
:1041F0009DF86D3001939DF86C300093A74B002221
:104200001146022011F002FB9DF8713003939DF8D6
:10421000703002939DF86F3001939DF86E300093DB
:104220009F4B00221146022011F0F0FA9DF87530E4
:1042300003939DF8743002939DF8733001939DF8B9
:1042400072300093974B00221146022011F0DEFAE3
:104250009DF8793003939DF8783002939DF877307C
:1042600001939DF8763000938F4B00221146022077
:1042700011F0CCFA9DF87D3003939DF87C300293C9
:104280009DF87B3001939DF87A300093874B002294
:104290001146022011F0BAFA9DF87E30012B23D08E
:1042A000834B0093834B00221146022011F0AEFA9B
:1042B0009DF87F40204612F05DF8054618B1224671
:1042C000002113F05FF900249DF87F30A3420DD93F
:1042D00004EB440358332A1977497848184413F0FB
:1042E0004DF80134E4B2EFE7754BDAE7754B002285
:1042F0001146022011F08AFA9DF87F30B34209DDA1
:10430000AB5D0093704B00221146022011F07EFA43
:104310000136F1E76D4B00221146022011F076FACA
:104320009DF86930013B4FF47472694951F82310CC
:1043300020A8FDF7D1FE002840F004819DF87F10F1
:104340008DF82814002306E0E85C20AA1A4482F8BD
:1043500088030133DBB29942F6D8284612F012F8EE
:104360009DF86A308DF829349DF86B308DF82A3429
:104370009DF86C209DF86D3043EA0223ADF8363489
:104380009DF87630002263F307029DF8773063F3DF
:104390000F229DF8783063F317429DF8793063F36C
:1043A0001F629DF87A10002361F307039DF87B10CC
:1043B00061F30F239DF87C1061F317439DF87D1086
:1043C00061F31F639DF86E10002061F307009DF8F4
:1043D0006F1061F30F209DF8701061F317409DF886
:1043E000711061F31F609DF87240002164F30701B2
:1043F0009DF8734064F30F219DF8744064F31741F6
:104400009DF8754064F31F61CDF83804CDF83C1475
:10441000CDF84024CDF844349DF87E30003B18BFE1
:1044200001238DF8483400238DF849349DF8693014
:10443000013B4FF40061264A52F82300FDF768FE65
:1044400000284DD1234B00221146022011F0DEF945
:104450009DF86930013B4FF4747220A91C4850F854
:104460002300FDF71DFE30B91B4B00221146022030
:1044700011F0CCF93AE0194B00221146022011F05C
:10448000C5F933E0F4BE01080CBF01081CBF0108E8
:104490002CBF010840B6010850B601083CBF010816
:1044A00084B60108A8B60108D0B60108FCB6010818
:1044B000DCB5010828B7010840BE01080C0D00203A
:1044C000D4B5010844BE010808B5010868C7010851
:1044D00000000020A4B50108B0B50108BCB5010872
:1044E000484B00221146022011F090F99DF8690016
:1044F00001389DF8493407939DF848340693DDF858
:1045000044340593DDF840340493DDF83C340393E0
:10451000DDF838340293BDF8363401939DF82A341F
:1045200000939DF829349DF828240DF58161C0B2CF
:10453000FDF790FA9DF869000138C0B2FDF74AFA1C
:10454000FEF7BCBE304B00221146022011F05EF98E
:10455000FEF7B4BE20AA2D492D4812F00FFF9DF89A
:1045600080000138C0B2FDF735FAFEF7A7BE20AAD9
:104570002649284812F002FF9DF880000138C0B299
:10458000FDF78CF99DF880000138C0B2FDF722FAE2
:10459000FEF794BE2046FDF781F90134E4B20F2CFA
:1045A000F8D9FEF78BBE0024F9E71B4B0022114619
:1045B000022011F02BF9FEF781BE124B00221146AA
:1045C000022011F023F9FEF779BE0F4B00221146AD
:1045D000022011F01BF9FEF771BE104B00221146AC
:1045E000022011F013F9FEF769BE0D4C2046FDF7CD
:1045F000BFFA34F8021B012221440A4807F0EAF905
:10460000FEF73FBDC8B5010854B701088CBA0108D0
:104610001D0D00201E0D0020BCB50108CCBF0108F7
:10462000080F0020BC0B002008B5FEF77FF802F051
:1046300053F908BD08B54FF0FF3011F045FA08BD39
:1046400070470000014BD870704700BFA8000020E1
:10465000014B1874704700BFA800002000283FD00D
:104660002DE9F0418CB003464278022A0AD0032A91
:104670002FD01C4B00221146022011F0C7F80CB0BD
:10468000BDE8F081027CB0F9121090F914009C7D15
:10469000DD7D1E7E5F7E93F81AC093F81BE093F8D1
:1046A0001C80CDF82C80CDF828E0CDF824C00897E8
:1046B0000796069505945C680494DB680393029062
:1046C00001910092084B00221146022011F09EF841
:1046D000D5E7064B00221146022011F097F8CEE7ED
:1046E000704700BFF8BF010810C0010884C001086E
:1046F00000B583B0054B1B5C0093054B00221146AF
:10470000022011F083F803B05DF804FBC0C001087B
:10471000A4C0010808B5012806D0074B00221146A5
:10472000022011F073F808BD044B0022114602204C
:1047300011F06CF8F7E700BFD8C00108C4C0010849
:1047400008B50A460149FDF7C7FC08BD00F003089B
:1047500038B504460D464FF400610548FDF7D8FC16
:1047600000B138BD2A4621460148FDF799FCF8E71B
:1047700000F0030808B500224FF40041014803F09F
:10478000AFFE08BD0004004808B500224FF40071D8
:10479000014803F0A5FE08BD00040048002845D0EC
:1047A00010B584B0044603780BB904B010BD0122E3
:1047B0004FF400711E4803F093FE1E4811F0D2FB27
:1047C0001D4B00221146022011F020F8237C94F9A1
:1047D0000A2094F91810039102920193E368009360
:1047E000164B00221146032011F010F8144B012241
:1047F0001A70144B00221146032011F007F8237A97
:10480000012B0CD1637A43B10F4B00930F4B002265
:104810001146032010F0FAFFC7E70D4BF5E70D4BEB
:1048200000221146032010F0F1FFBEE7704700BFE1
:1048300000040048D40F0020F8C001082CC1010872
:104840001C10002060C10108ECC0010870C1010803
:10485000F0C0010884C1010808B50021022011F050
:10486000FFF8024811F07EFB08BD00BFEC0F0020EE
:1048700008B50021012011F0F3F808BD10B50E4B6A
:104880001B78022B13D00D4C00224FF40041204620
:1048900003F026FE00224FF40071204603F020FEB4
:1048A00000224FF40061204603F01AFE10BD0021E3
:1048B000082011F0D5F8E6E7500000200004004879
:1048C00008B507F08BFE00B108BD07F045FB0128D5
:1048D000FAD1BFF34F8F0549CA6802F4E062044B76
:1048E0001343CB60BFF34F8F00BFFDE700ED00E047
:1048F0000400FA0510B5094B186010B942F21072A5
:104900001A60074C204611F0D3FA044B1968204670
:1049100011F06EFB204611F025FB10BDC0000020F9
:10492000EC0F0020002900F005842DE9F041C2B011
:10493000044600270D4601224FF40041AE4803F023
:10494000CFFDAE4811F00EFB2E7866B1002C00F0C2
:10495000D8832678636833B1372E21D0452E00F0F6
:104960003A83032E06D02B7C052B40F2CC8342B039
:10497000BDE8F0816278012AF5D11B78012B07D0C0
:10498000022B09D0002BEED1384607F0B7FBEAE73F
:10499000012007F0B3FBE6E7022007F0AFFBE2E7F8
:1049A0001B78012B26D063681B78022B78D06368B4
:1049B0001B78032B00F0CA8063681B78042B00F07F
:1049C000428163681B78072B00F0B08163681B7815
:1049D0000A2B00F00F8263681B78082B00F07782A7
:1049E00063681A78AA2ABED15B78012BBBD103F089
:1049F00041F8B8E7082011F0BDFC8046002848D0F7
:104A000000230360436006E062681A44527808F8A5
:104A100003200133DBB2072BF6D9794B0022114674
:104A2000022010F0F3FEF022764906A8FDF754FBB1
:104A3000D0B90822414606A80FF00BF8404611F005
:104A4000A1FC4FF400616F48FDF762FBD0B9F02282
:104A500006A96C48FDF724FB68B96B4B0022114690
:104A6000022010F0D3FE9EE7684B00221146022080
:104A700010F0CCFEE5E7664B00221146022010F054
:104A8000C5FE90E7634B00221146022010F0BEFEE7
:104A900089E7614B00221146022010F0B7FE82E741
:104AA000082011F067FC8046002848D000230360EE
:104AB000436006E062681A44527808F80320013324
:104AC000DBB2072BF6D94E4B00221146022010F024
:104AD0009DFEF0224B4906A8FDF7FEFAD0B9082248
:104AE000414608A80EF0B5FF404611F04BFC4FF4CC
:104AF00000614448FDF70CFBD0B9F02206A94148FB
:104B0000FDF7CEFA68B9404B00221146022010F0A2
:104B10007DFE4CE73D4B00221146022010F076FE50
:104B2000E5E73B4B00221146022010F06FFE3EE706
:104B3000384B00221146022010F068FE37E7364B52
:104B400000221146022010F061FE30E7102011F023
:104B500011FC804600286FD000230360436083600F
:104B6000C36006E062681A44527808F803200133F3
:104B7000DBB20F2BF6D9224B00221146022010F097
:104B800045FEF0221F4906A8FDF7A6FA60BB1022D9
:104B900041460DF131000EF05CFF102241460DF14F
:104BA00042000EF056FF102241460DF153000EF068
:104BB00050FF1022414619A80EF04BFF404611F05D
:104BC000E1FB4FF400610F48FDF7A2FA68BBF02249
:104BD00006A90C48FDF764FA00BB0B4B00221146F6
:104BE000022010F013FEE7E6084B002211460220D7
:104BF00010F00CFEE5E700BF00040048A00F002005
:104C000098B8010800F003083CBB010854B701083C
:104C100060BB010880BB010894C10108B34B0022AE
:104C20001146022010F0F2FDC6E6B14B00221146FB
:104C3000022010F0EBFDBFE6AE4B00221146022031
:104C400010F0E4FDB8E6AC4B00221146022010F053
:104C5000DDFDAA4B00221146022010F0D7FD4FF0D7
:104C600000080BE0636813F808300093A44B00229F
:104C70001146022010F0CAFD08F101086278424591
:104C8000F0DC01234FF0000804E06168C95C41EAF0
:104C9000082801339A42F8DCF0229A4906A8FDF769
:104CA0001BFA70BB4FEAD8624FEA4813B3EB080314
:104CB00062F10002920042EA93729B0013EB080338
:104CC00042F10002D20042EA5372DB003C933D9273
:104CD0004FF47A7303FB08F38B4A13604FF40061BF
:104CE0008848FDF715FAD0B9F02206A98548FDF7E6
:104CF000D7F968B9854B00221146022010F086FDD5
:104D00005FE6834B00221146022010F07FFDE5E7AD
:104D1000764B00221146022010F078FD51E6744BCC
:104D200000221146022010F071FD4AE6724B00226B
:104D30001146022010F06AFD704B0022114602203D
:104D400010F064FD4FF000080BE0636813F80830C2
:104D500000936B4B00221146022010F057FD08F122
:104D6000010861784145F0DC012305E06268D25C0E
:104D700042EA072297B201339942F7DC0097654B6C
:104D800000221146022010F041FDF0225D4906A8E4
:104D9000FDF7A2F9C8B9ADF800715F4B1F605F4B1A
:104DA00000221A804FF400615648FDF7B1F9D0B9DE
:104DB000F02206A95348FDF773F968B9534B002256
:104DC0001146022010F022FD00E6514B0022114650
:104DD000022010F01BFDE5E7444B002211460220A3
:104DE00010F014FDF2E5424B00221146022010F0B3
:104DF0000DFDEBE5404B00221146022010F006FDB0
:104E00003E4B00221146022010F000FD002709E071
:104E10006368DB5D00933A4B00221146022010F0DC
:104E2000F5FC01376278BA42F2DC0123002704E086
:104E30006168C95C41EA072701339A42F8DC0097B0
:104E4000374B00221146022010F0E0FCF0222D49E1
:104E500006A8FDF741F928BBADF80671DFF8C4805C
:104E6000C8F80070B80011F085FA2F4B1860264B77
:104E70001B68D8F8002093FBF2F32C4A13604FF420
:104E800000612048FDF744F9D0B9F02206A91D4879
:104E9000FDF706F968B91D4B00221146022010F0FB
:104EA000B5FC98E51A4B00221146022010F0AEFC2A
:104EB000E5E70E4B00221146022010F0A7FC8AE520
:104EC0000B4B00221146022010F0A0FC83E50A4B98
:104ED00000221146022010F099FC084B00221146D6
:104EE000022010F093FC00272CE000BF60BB0108FB
:104EF00080BB010894C10108B0C10108E4C10108E8
:104F000008B5010800F003084C0000203CBB010874
:104F100054B7010808C2010840000020D809002049
:104F200040C20108440000203C100020480000203E
:104F30006368DB5D0093804B00221146022010F075
:104F400065FC01376278BA42F2DC0123002704E0F5
:104F50006168C95C41EA072701339A42F8DC00978F
:104F6000764B00221146022010F050FCF0227449CA
:104F700006A8FDF7B1F8C8B9ADF802713846FBF7DD
:104F800015FF704B18604FF400616D48FDF7C0F8D5
:104F9000D0B9F02206A96A48FDF782F868B96A4BD1
:104FA00000221146022010F031FC19E5674B002267
:104FB0001146022010F02AFCE5E7654B002211465D
:104FC000022010F023FC0BE5624B00221146022068
:104FD00010F01CFC04E56278002A3FF4C4AC1B7896
:104FE000012B7FF4C0AC5C4C23460022114602200A
:104FF00010F00CFC594B00221146022010F006FC68
:10500000234600221146022010F000FC544B0022DF
:105010001146022010F0FAFBF022494906A8FDF7DC
:105020005BF800284CD10A23ADF80231454B4D4ABC
:105030001A606420FDF73AFC4B4A0023CDE93C237B
:10504000DFF82881484BC8F800306420FDF72EFCBB
:105050000423ADF80031464A13600024454B1C8000
:105060006420FDF723FC0523ADF80631424F3B6079
:10507000142011F07FF9414B1860D8F800303A68DD
:1050800093FBF2F33E4A13606420FDF70FFC3D4BA7
:1050900022462146022010F0B9FB4FF40061284857
:1050A000FDF736F8D0B9F02206A92548FCF7F8FF3D
:1050B00068B9254B00221146022010F0A7FB13E02F
:1050C000224B00221146022010F0A0FBE5E7204B06
:1050D00000221146022010F099FB05E01D4B002232
:1050E0001146022010F092FB4FF4FA70FDF7DEFB40
:1050F00002F0C0FC184B00221146022010F086FB83
:1051000031E400262FE495F9082095F9091095F966
:105110000A00059004911C4951F823300393029230
:105120000196EB680093194B00221146032010F002
:105130006DFB1CE4704700BF08B5010860C20108A0
:1051400000F00308CC0000203CBB010854B7010864
:1051500060BB010880BB0108B0C1010884C201081E
:10516000B4C2010800002041A0BB0D004C0000208B
:1051700040000020D8090020440000203C100020FE
:1051800048000020E8C20108E8D0010814C3010863
:1051900038B51E4C01224FF40041204603F0A0F91F
:1051A00001224FF40071204603F09AF901224FF4D6
:1051B0000061204603F094F9154810F079FE07F0DD
:1051C00005FA48B1134B00221146022010F01EFBD5
:1051D000114810F0C7FE38BD104B002211460220C6
:1051E00010F014FB0E4C012525700E4B00221146C9
:1051F000022010F00BFB0C4807F060F829462078DD
:1052000006F018FE024810F0ADFEE1E70004004889
:10521000EC0F00205CC30108BC0F00207CC3010818
:105220005000002090C30108A800002008B507F036
:105230005FFA10F1080F03D0B0F1FF3F07D008BDAF
:10524000064B00221146022010F0E0FAF7E7044B6B
:1052500000221146022010F0D9FAF0E7B0C301088D
:10526000C8C3010808B54FF40061024803F03DF9D6
:1052700008BD00BF0004004870B586B00390354BF0
:1052800000221146022010F0C1FA0020FCF702FFB4
:10529000A0B9314C314B9C423AD20822214604A895
:1052A000FCF71AFF054690B9049A059BB3F1FF3F3E
:1052B00008BFB2F1FF3F14D00834EBE7284B0022BF
:1052C0001146022010F0A2FA4FF0FF3506E00094DC
:1052D000244B00221146022010F098FA284606B00E
:1052E00070BD082203A92046FCF7DAFE054638B94E
:1052F00000941D4B00221146022010F087FAEDE7C2
:1053000000941A4B00221146022010F07FFAE5E7C4
:10531000174B00221146022010F078FA4FF400617A
:105320000D48FCF7F5FE054660B90398FFF7A4FFAA
:1053300005460028D2D00F4B00221146022010F063
:1053400065FACBE70C4B00221146022010F05EFA02
:10535000C4E700BFE0C3010800B0030800B80308B9
:1053600000C4010828C4010870C401084CC4010825
:105370009CC40108D4C40108B4C4010800284ED05C
:1053800030B583B0044690F906305BBB244810F07A
:105390008FFD00224FF40061224803F0A1F8224B58
:1053A00000221146022010F031FA204D2B680093A4
:1053B0001F4B00221146022010F028FA2868FFF740
:1053C0005BFFE379012B06D01A4B00221146022025
:1053D00010F01CFA15E0184B00221146022010F0C4
:1053E00015FA0EE0154B00221146022010F00EFABD
:1053F0000E4B1B680093124B00221146022010F046
:1054000005FA94F9043094F90520019200930D4BAC
:1054100000221146032010F0F9F903B030BD7047A7
:10542000F00E00200004004810C5010818100020EC
:1054300028C501086CC501084CC501088CC50108C8
:10544000A8C50108BCC5010808B5C278007940EAC2
:105450000220FBF7A7FC0249FBF7B0FD08BD00BF27
:1054600000007A442DE9F047054689464FF00008D0
:1054700012E001344C450EDA55F8286055F82470D6
:1054800039463046FBF7A2FE0028F2D045F82870D6
:1054900045F82460EDE7D04609F1FF33434503DDCD
:1054A00008F1010A5446E5E7BDE8F08711F0010F65
:1054B00012D108B501EBD1714A106FF0404303EBF4
:1054C000610350F8221050F82300FBF7BBFB4FF0AC
:1054D0007C51FBF7BFFC08BD01EBD171491050F8BE
:1054E0002100704738B50025002408E0094B1B68EF
:1054F00053F825102046FBF7A5FB04460135064B63
:105500001868A842F2DCFBF751FC01462046FBF785
:1055100055FD38BD3C1000204400002030B5BDB022
:10552000414C234600221146022010F06FF93F4BF8
:1055300000221146022010F069F92346002211468C
:10554000022010F063F93A4B00221146022010F0BD
:105550005DF9F02237496846FCF7BEFD002840D1CE
:105560000A23ADF8EA30344B344A1A603220FDF792
:105570009DF9334A0023CDE93623324D304B2B6061
:105580003220FDF793F90423ADF8E8302E4A13607A
:105590002E4B00221A803220FDF788F90523ADF842
:1055A000EE302B4C2360142010F0E4FE294B1860E1
:1055B0002B68226893FBF2F3274A13604FF40061D3
:1055C0001C48FCF7A5FDD0B9F02269461948FCF744
:1055D00067FD68B9214B00221146022010F016F930
:1055E00013E01F4B00221146022010F00FF9E5E7EF
:1055F0001C4B00221146022010F008F905E01A4B5E
:1056000000221146022010F001F94FF4FA70FDF764
:105610004DF902F02FFA044B00221146022010F03F
:10562000F5F83DB030BD00BFB0C1010884C201082B
:10563000B4C2010800F00308CC00002000002041A3
:10564000A0BB0D004C00002040000020D809002025
:10565000440000203C100020480000203CBB010812
:1056600054B7010860BB010880BB01082DE9F04177
:10567000B6B002AF012240214FF0904002F030FF5F
:10568000012280214FF0904002F02AFF40F2DC50CE
:10569000FDF70CF9B34A07F1640392E8030083E8CD
:1056A0000300B14B1B689B00073323F00703ADEBEE
:1056B000030D0DF1080800253CE0AC4B23449B781A
:1056C0000093AB4B00221146022010F09FF83220CD
:1056D000FDF7ECF80134A54B1B88A342EDDCA5488F
:1056E000FFF7B2FEA44C206048F825003220FDF7F9
:1056F000DDF82068FAF700FF02460B469F4907F1E4
:105700006C0011F01BFE07F16C00FAF789FD4FF4F5
:105710007A7382B207F16C01994805F0ECFF994B5E
:1057200000221146022010F071F84FF47A70FDF754
:10573000BDF83546092D18DC6E1C0096924B0022F0
:105740001146022010F062F8884A082107F164002F
:10575000FCF7E2F9FA20FDF7A9F88C4B002211467C
:10576000022010F053F80024B5E70A214046FFF765
:1057700079FE0A214046FFF799FE854C2060FAF732
:10578000BBFE02460B46834907F16C0011F0D6FDC3
:1057900007F16C00FAF744FD4FF47A7382B207F117
:1057A0006C01774805F0A7FF7B4B19687B4A1268AC
:1057B000206842F821001A6801321A60784B196893
:1057C000FBF704FD00B3774B00221146022010F0D6
:1057D0001DF8754B754A1A60B4230093744B002270
:1057E0001146022010F012F80125724B1D600420B2
:1057F00010F0C0FD694B18606F4B00221A706F4BA0
:105800001D606F4B1D7078E06E4B00221146022028
:105810000FF0FCFF644B6C4A1A604FF46173009305
:10582000634B0022114602200FF0F0FF614B05226E
:105830001A60142010F09EFD584B186000235F4A38
:1058400013605F4A1370614B0022114602200FF073
:10585000DDFF002240214FF0904002F041FE002287
:1058600080214FF0904002F03BFED037BD46BDE8AE
:10587000F081574A52680021D1540133544A52787A
:105880009A42F6DC524D6B684C4A12781A70404EC0
:105890003068FBF7CBFC6A68C0F3072353703068AD
:1058A000FBF7C4FC6B68987003226A70494938465C
:1058B00011F044FD3846FAF7B3FC4FF47A7382B224
:1058C00039462F4805F017FF002305E0334A1268D8
:1058D000002142F823100133364A12689A42F5DC5F
:1058E0003D4B5B7A83BB00223C4BD978384806F0AD
:1058F0005BFB25466420FCF7D9FF002DA3D0384B75
:105900000022114602200FF081FF06F037FB04460B
:105910000028EFD1334D2B460022114602200FF014
:1059200075FF314B0022114602200FF06FFF2B460E
:105930000022114602200FF069FF254B02221A7047
:1059400000232A4A137099E706F006FB0128CAD102
:10595000214810F0ADFA00224FF40061244802F013
:10596000BFFDC0E738B40108C8000020080F0020C0
:1059700008B501080A0F0020281000203CC60108C5
:10598000500C002014B6010828C60108F8C501080B
:105990003810002054C601082C1000203C100020B4
:1059A000CC00002070C601084C00002020BF02007F
:1059B0009CC60108440000201C1000203410002068
:1059C00030100020C0C60108A0BB0D0068C7010848
:1059D000540000206CC70108F00E0020A800002031
:1059E000E8C6010804C7010838C7010810100020E4
:1059F00000040048000000002DE9F04FA3B0002390
:105A00008DF88730ADF884301E23ADF88030042344
:105A1000ADF878303F4B05AC0FCB07C4238005A809
:105A2000FAF7FEFB3C4E4FF47A7382B205A930467A
:105A300005F061FE05AC394D0FCD0FC40FCD0FC47D
:105A40000FCD0FC495E8030084E8030005A8FAF71A
:105A5000E7FB4FF47A7382B205A9304605F04BFE9E
:105A60002F4B1B78002B63D105AC2C4D0FCD0FC4F1
:105A70000FCD0FC40FCD0FC495E8030084E80300D9
:105A800005A8FAF7CDFB4FF47A7382B205A9224834
:105A900005F031FE4FF0FF330293012301930522FD
:105AA00000921A22D0211F4802F044FF002840F043
:105AB0007B8205221C4905A811F040FC05A8FAF7D5
:105AC000AFFB4FF47A7382B205A9134805F013FEB9
:105AD0004FF0FF330293012301930DF187020092EF
